{
  "contractName": "ERC1155Token",
  "abi": [
    {
      "anonymous": false,
      "inputs": [
        {
          "indexed": true,
          "internalType": "address",
          "name": "account",
          "type": "address"
        },
        {
          "indexed": true,
          "internalType": "address",
          "name": "operator",
          "type": "address"
        },
        {
          "indexed": false,
          "internalType": "bool",
          "name": "approved",
          "type": "bool"
        }
      ],
      "name": "ApprovalForAll",
      "type": "event"
    },
    {
      "anonymous": false,
      "inputs": [
        {
          "indexed": false,
          "internalType": "address",
          "name": "account",
          "type": "address"
        }
      ],
      "name": "Paused",
      "type": "event"
    },
    {
      "anonymous": false,
      "inputs": [
        {
          "indexed": true,
          "internalType": "bytes32",
          "name": "role",
          "type": "bytes32"
        },
        {
          "indexed": true,
          "internalType": "bytes32",
          "name": "previousAdminRole",
          "type": "bytes32"
        },
        {
          "indexed": true,
          "internalType": "bytes32",
          "name": "newAdminRole",
          "type": "bytes32"
        }
      ],
      "name": "RoleAdminChanged",
      "type": "event"
    },
    {
      "anonymous": false,
      "inputs": [
        {
          "indexed": true,
          "internalType": "bytes32",
          "name": "role",
          "type": "bytes32"
        },
        {
          "indexed": true,
          "internalType": "address",
          "name": "account",
          "type": "address"
        },
        {
          "indexed": true,
          "internalType": "address",
          "name": "sender",
          "type": "address"
        }
      ],
      "name": "RoleGranted",
      "type": "event"
    },
    {
      "anonymous": false,
      "inputs": [
        {
          "indexed": true,
          "internalType": "bytes32",
          "name": "role",
          "type": "bytes32"
        },
        {
          "indexed": true,
          "internalType": "address",
          "name": "account",
          "type": "address"
        },
        {
          "indexed": true,
          "internalType": "address",
          "name": "sender",
          "type": "address"
        }
      ],
      "name": "RoleRevoked",
      "type": "event"
    },
    {
      "anonymous": false,
      "inputs": [
        {
          "indexed": true,
          "internalType": "address",
          "name": "operator",
          "type": "address"
        },
        {
          "indexed": true,
          "internalType": "address",
          "name": "from",
          "type": "address"
        },
        {
          "indexed": true,
          "internalType": "address",
          "name": "to",
          "type": "address"
        },
        {
          "indexed": false,
          "internalType": "uint256[]",
          "name": "ids",
          "type": "uint256[]"
        },
        {
          "indexed": false,
          "internalType": "uint256[]",
          "name": "values",
          "type": "uint256[]"
        }
      ],
      "name": "TransferBatch",
      "type": "event"
    },
    {
      "anonymous": false,
      "inputs": [
        {
          "indexed": true,
          "internalType": "address",
          "name": "operator",
          "type": "address"
        },
        {
          "indexed": true,
          "internalType": "address",
          "name": "from",
          "type": "address"
        },
        {
          "indexed": true,
          "internalType": "address",
          "name": "to",
          "type": "address"
        },
        {
          "indexed": false,
          "internalType": "uint256",
          "name": "id",
          "type": "uint256"
        },
        {
          "indexed": false,
          "internalType": "uint256",
          "name": "value",
          "type": "uint256"
        }
      ],
      "name": "TransferSingle",
      "type": "event"
    },
    {
      "anonymous": false,
      "inputs": [
        {
          "indexed": false,
          "internalType": "string",
          "name": "value",
          "type": "string"
        },
        {
          "indexed": true,
          "internalType": "uint256",
          "name": "id",
          "type": "uint256"
        }
      ],
      "name": "URI",
      "type": "event"
    },
    {
      "anonymous": false,
      "inputs": [
        {
          "indexed": false,
          "internalType": "address",
          "name": "account",
          "type": "address"
        }
      ],
      "name": "Unpaused",
      "type": "event"
    },
    {
      "inputs": [],
      "name": "DEFAULT_ADMIN_ROLE",
      "outputs": [
        {
          "internalType": "bytes32",
          "name": "",
          "type": "bytes32"
        }
      ],
      "stateMutability": "view",
      "type": "function"
    },
    {
      "inputs": [],
      "name": "MINTER_ROLE",
      "outputs": [
        {
          "internalType": "bytes32",
          "name": "",
          "type": "bytes32"
        }
      ],
      "stateMutability": "view",
      "type": "function"
    },
    {
      "inputs": [
        {
          "internalType": "address",
          "name": "account",
          "type": "address"
        },
        {
          "internalType": "uint256",
          "name": "id",
          "type": "uint256"
        }
      ],
      "name": "balanceOf",
      "outputs": [
        {
          "internalType": "uint256",
          "name": "",
          "type": "uint256"
        }
      ],
      "stateMutability": "view",
      "type": "function"
    },
    {
      "inputs": [
        {
          "internalType": "address[]",
          "name": "accounts",
          "type": "address[]"
        },
        {
          "internalType": "uint256[]",
          "name": "ids",
          "type": "uint256[]"
        }
      ],
      "name": "balanceOfBatch",
      "outputs": [
        {
          "internalType": "uint256[]",
          "name": "",
          "type": "uint256[]"
        }
      ],
      "stateMutability": "view",
      "type": "function"
    },
    {
      "inputs": [
        {
          "internalType": "address",
          "name": "account",
          "type": "address"
        },
        {
          "internalType": "uint256",
          "name": "id",
          "type": "uint256"
        },
        {
          "internalType": "uint256",
          "name": "value",
          "type": "uint256"
        }
      ],
      "name": "burn",
      "outputs": [],
      "stateMutability": "nonpayable",
      "type": "function"
    },
    {
      "inputs": [
        {
          "internalType": "address",
          "name": "account",
          "type": "address"
        },
        {
          "internalType": "uint256[]",
          "name": "ids",
          "type": "uint256[]"
        },
        {
          "internalType": "uint256[]",
          "name": "values",
          "type": "uint256[]"
        }
      ],
      "name": "burnBatch",
      "outputs": [],
      "stateMutability": "nonpayable",
      "type": "function"
    },
    {
      "inputs": [
        {
          "internalType": "bytes32",
          "name": "role",
          "type": "bytes32"
        }
      ],
      "name": "getRoleAdmin",
      "outputs": [
        {
          "internalType": "bytes32",
          "name": "",
          "type": "bytes32"
        }
      ],
      "stateMutability": "view",
      "type": "function"
    },
    {
      "inputs": [
        {
          "internalType": "bytes32",
          "name": "role",
          "type": "bytes32"
        },
        {
          "internalType": "uint256",
          "name": "index",
          "type": "uint256"
        }
      ],
      "name": "getRoleMember",
      "outputs": [
        {
          "internalType": "address",
          "name": "",
          "type": "address"
        }
      ],
      "stateMutability": "view",
      "type": "function"
    },
    {
      "inputs": [
        {
          "internalType": "bytes32",
          "name": "role",
          "type": "bytes32"
        }
      ],
      "name": "getRoleMemberCount",
      "outputs": [
        {
          "internalType": "uint256",
          "name": "",
          "type": "uint256"
        }
      ],
      "stateMutability": "view",
      "type": "function"
    },
    {
      "inputs": [
        {
          "internalType": "bytes32",
          "name": "role",
          "type": "bytes32"
        },
        {
          "internalType": "address",
          "name": "account",
          "type": "address"
        }
      ],
      "name": "grantRole",
      "outputs": [],
      "stateMutability": "nonpayable",
      "type": "function"
    },
    {
      "inputs": [
        {
          "internalType": "bytes32",
          "name": "role",
          "type": "bytes32"
        },
        {
          "internalType": "address",
          "name": "account",
          "type": "address"
        }
      ],
      "name": "hasRole",
      "outputs": [
        {
          "internalType": "bool",
          "name": "",
          "type": "bool"
        }
      ],
      "stateMutability": "view",
      "type": "function"
    },
    {
      "inputs": [
        {
          "internalType": "address",
          "name": "account",
          "type": "address"
        },
        {
          "internalType": "address",
          "name": "operator",
          "type": "address"
        }
      ],
      "name": "isApprovedForAll",
      "outputs": [
        {
          "internalType": "bool",
          "name": "",
          "type": "bool"
        }
      ],
      "stateMutability": "view",
      "type": "function"
    },
    {
      "inputs": [],
      "name": "paused",
      "outputs": [
        {
          "internalType": "bool",
          "name": "",
          "type": "bool"
        }
      ],
      "stateMutability": "view",
      "type": "function"
    },
    {
      "inputs": [
        {
          "internalType": "bytes32",
          "name": "role",
          "type": "bytes32"
        },
        {
          "internalType": "address",
          "name": "account",
          "type": "address"
        }
      ],
      "name": "renounceRole",
      "outputs": [],
      "stateMutability": "nonpayable",
      "type": "function"
    },
    {
      "inputs": [
        {
          "internalType": "bytes32",
          "name": "role",
          "type": "bytes32"
        },
        {
          "internalType": "address",
          "name": "account",
          "type": "address"
        }
      ],
      "name": "revokeRole",
      "outputs": [],
      "stateMutability": "nonpayable",
      "type": "function"
    },
    {
      "inputs": [
        {
          "internalType": "address",
          "name": "from",
          "type": "address"
        },
        {
          "internalType": "address",
          "name": "to",
          "type": "address"
        },
        {
          "internalType": "uint256[]",
          "name": "ids",
          "type": "uint256[]"
        },
        {
          "internalType": "uint256[]",
          "name": "amounts",
          "type": "uint256[]"
        },
        {
          "internalType": "bytes",
          "name": "data",
          "type": "bytes"
        }
      ],
      "name": "safeBatchTransferFrom",
      "outputs": [],
      "stateMutability": "nonpayable",
      "type": "function"
    },
    {
      "inputs": [
        {
          "internalType": "address",
          "name": "from",
          "type": "address"
        },
        {
          "internalType": "address",
          "name": "to",
          "type": "address"
        },
        {
          "internalType": "uint256",
          "name": "id",
          "type": "uint256"
        },
        {
          "internalType": "uint256",
          "name": "amount",
          "type": "uint256"
        },
        {
          "internalType": "bytes",
          "name": "data",
          "type": "bytes"
        }
      ],
      "name": "safeTransferFrom",
      "outputs": [],
      "stateMutability": "nonpayable",
      "type": "function"
    },
    {
      "inputs": [
        {
          "internalType": "address",
          "name": "operator",
          "type": "address"
        },
        {
          "internalType": "bool",
          "name": "approved",
          "type": "bool"
        }
      ],
      "name": "setApprovalForAll",
      "outputs": [],
      "stateMutability": "nonpayable",
      "type": "function"
    },
    {
      "inputs": [
        {
          "internalType": "uint256",
          "name": "",
          "type": "uint256"
        }
      ],
      "name": "uri",
      "outputs": [
        {
          "internalType": "string",
          "name": "",
          "type": "string"
        }
      ],
      "stateMutability": "view",
      "type": "function"
    },
    {
      "inputs": [],
      "name": "pause",
      "outputs": [],
      "stateMutability": "nonpayable",
      "type": "function"
    },
    {
      "inputs": [],
      "name": "unpause",
      "outputs": [],
      "stateMutability": "nonpayable",
      "type": "function"
    },
    {
      "inputs": [
        {
          "internalType": "bytes4",
          "name": "interfaceId",
          "type": "bytes4"
        }
      ],
      "name": "supportsInterface",
      "outputs": [
        {
          "internalType": "bool",
          "name": "",
          "type": "bool"
        }
      ],
      "stateMutability": "view",
      "type": "function"
    }
  ],
  "bytecode": "0x608060405234801561001057600080fd5b5061258d806100206000396000f3fe608060405234801561001057600080fd5b50600436106101415760003560e01c80638456cb59116100b8578063ca15c8731161007c578063ca15c873146102b1578063d5391393146102c4578063d547741f146102eb578063e985e9c5146102fe578063f242432a1461033a578063f5298aca1461034d57610141565b80638456cb59146102505780639010d07c1461025857806391d1485414610283578063a217fddf14610296578063a22cb4651461029e57610141565b80632f2ff15d1161010a5780632f2ff15d146101e757806336568abe146101fa5780633f4ba83a1461020d5780634e1273f4146102155780635c975abb146102355780636b20c4541461023d57610141565b8062fdd58e1461014657806301ffc9a71461016c5780630e89341c1461018f578063248a9ca3146101af5780632eb2c2d6146101d2575b600080fd5b610159610154366004611db3565b610360565b6040519081526020015b60405180910390f35b61017f61017a366004611f34565b6103fc565b6040519015158152602001610163565b6101a261019d366004611ed9565b61040f565b604051610163919061212b565b6101596101bd366004611ed9565b60009081526065602052604090206001015490565b6101e56101e0366004611bff565b6104a3565b005b6101e56101f5366004611ef1565b61073a565b6101e5610208366004611ef1565b610761565b6101e5610783565b610228610223366004611e0e565b6107fa565b60405161016391906120ea565b61017f61095c565b6101e561024b366004611d08565b610967565b6101e56109aa565b61026b610266366004611f13565b610a1d565b6040516001600160a01b039091168152602001610163565b61017f610291366004611ef1565b610a3c565b610159600081565b6101e56102ac366004611d79565b610a67565b6101596102bf366004611ed9565b610b4b565b6101597f9f2df0fed2c77648de5860a4cc508cd0818c85b8b8a1ab4ceeef8d981c8956a681565b6101e56102f9366004611ef1565b610b62565b61017f61030c366004611bcd565b6001600160a01b03918216600090815260ca6020908152604080832093909416825291909152205460ff1690565b6101e5610348366004611ca5565b610b6c565b6101e561035b366004611ddc565b610cdd565b60006001600160a01b0383166103d15760405162461bcd60e51b815260206004820152602b60248201527f455243313135353a2062616c616e636520717565727920666f7220746865207a60448201526a65726f206164647265737360a81b60648201526084015b60405180910390fd5b50600081815260c9602090815260408083206001600160a01b03861684529091529020545b92915050565b600061040782610d20565b90505b919050565b606060cb805461041e906123e6565b80601f016020809104026020016040519081016040528092919081815260200182805461044a906123e6565b80156104975780601f1061046c57610100808354040283529160200191610497565b820191906000526020600020905b81548152906001019060200180831161047a57829003601f168201915b50505050509050919050565b81518351146104c45760405162461bcd60e51b81526004016103c8906122e5565b6001600160a01b0384166104ea5760405162461bcd60e51b81526004016103c890612213565b6001600160a01b0385163314806105065750610506853361030c565b61056d5760405162461bcd60e51b815260206004820152603260248201527f455243313135353a207472616e736665722063616c6c6572206973206e6f74206044820152711bdddb995c881b9bdc88185c1c1c9bdd995960721b60648201526084016103c8565b3361057c818787878787610d60565b60005b84518110156106cc5760008582815181106105aa57634e487b7160e01b600052603260045260246000fd5b6020026020010151905060008583815181106105d657634e487b7160e01b600052603260045260246000fd5b602090810291909101810151600084815260c9835260408082206001600160a01b038e1683529093529190912054909150818110156106275760405162461bcd60e51b81526004016103c89061229b565b6106318282612388565b60c9600085815260200190815260200160002060008c6001600160a01b03166001600160a01b03168152602001908152602001600020819055508160c9600085815260200190815260200160002060008b6001600160a01b03166001600160a01b0316815260200190815260200160002060008282546106b19190612351565b92505081905550505050806106c59061244e565b905061057f565b50846001600160a01b0316866001600160a01b0316826001600160a01b03167f4a39dc06d4c0dbc64b70af90fd698a233a518aa5d07e595d983b8c0526c8f7fb878760405161071c9291906120fd565b60405180910390a4610732818787878787610d6e565b505050505050565b6107448282610ed9565b600082815260976020526040902061075c9082610f00565b505050565b61076b8282610f15565b600082815260976020526040902061075c9082610f93565b61078e600033610291565b6107f05760405162461bcd60e51b815260206004820152602d60248201527f45524331313535546f6b656e3a206d75737420686176652061646d696e20726f60448201526c6c6520746f20756e706175736560981b60648201526084016103c8565b6107f8610fa8565b565b6060815183511461085f5760405162461bcd60e51b815260206004820152602960248201527f455243313135353a206163636f756e747320616e6420696473206c656e677468604482015268040dad2e6dac2e8c6d60bb1b60648201526084016103c8565b6000835167ffffffffffffffff81111561088957634e487b7160e01b600052604160045260246000fd5b6040519080825280602002602001820160405280156108b2578160200160208202803683370190505b50905060005b8451811015610954576109198582815181106108e457634e487b7160e01b600052603260045260246000fd5b602002602001015185838151811061090c57634e487b7160e01b600052603260045260246000fd5b6020026020010151610360565b82828151811061093957634e487b7160e01b600052603260045260246000fd5b602090810291909101015261094d8161244e565b90506108b8565b509392505050565b61012d5460ff165b90565b6001600160a01b0383163314806109835750610983833361030c565b61099f5760405162461bcd60e51b81526004016103c8906121ca565b61075c83838361103e565b6109b5600033610291565b610a155760405162461bcd60e51b815260206004820152602b60248201527f45524331313535546f6b656e3a206d75737420686176652061646d696e20726f60448201526a6c6520746f20706175736560a81b60648201526084016103c8565b6107f86111f8565b6000828152609760205260408120610a359083611276565b9392505050565b60009182526065602090815260408084206001600160a01b0393909316845291905290205460ff1690565b336001600160a01b0383161415610ad25760405162461bcd60e51b815260206004820152602960248201527f455243313135353a2073657474696e6720617070726f76616c20737461747573604482015268103337b91039b2b63360b91b60648201526084016103c8565b33600081815260ca602090815260408083206001600160a01b0387168085529252909120805460ff1916841515179055906001600160a01b03167f17307eab39ab6107e8899845ad3d59bd9653f200f220920489ca2b5937696c3183604051610b3f911515815260200190565b60405180910390a35050565b600081815260976020526040812061040790611282565b61076b828261128c565b6001600160a01b038416610b925760405162461bcd60e51b81526004016103c890612213565b6001600160a01b038516331480610bae5750610bae853361030c565b610bca5760405162461bcd60e51b81526004016103c8906121ca565b33610be9818787610bda886112b2565b610be3886112b2565b87610d60565b600084815260c9602090815260408083206001600160a01b038a16845290915290205483811015610c2c5760405162461bcd60e51b81526004016103c89061229b565b610c368482612388565b600086815260c9602090815260408083206001600160a01b038c81168552925280832093909355881681529081208054869290610c74908490612351565b909155505060408051868152602081018690526001600160a01b03808916928a821692918616917fc3d58168c5ae7397731d063d5bbf3d657854427343f4c083240f7aacaa2d0f62910160405180910390a4610cd482888888888861130b565b50505050505050565b6001600160a01b038316331480610cf95750610cf9833361030c565b610d155760405162461bcd60e51b81526004016103c8906121ca565b61075c8383836113d5565b60006001600160e01b03198216636cdb3d1360e11b1480610d5157506001600160e01b031982166303a24d0760e21b145b806104075750610407826114e2565b610732868686868686611507565b6001600160a01b0384163b156107325760405163bc197c8160e01b81526001600160a01b0385169063bc197c8190610db29089908990889088908890600401612047565b602060405180830381600087803b158015610dcc57600080fd5b505af1925050508015610dfc575060408051601f3d908101601f19168201909252610df991810190611f50565b60015b610ea957610e08612495565b806308c379a01415610e425750610e1d6124ac565b80610e285750610e44565b8060405162461bcd60e51b81526004016103c8919061212b565b505b60405162461bcd60e51b815260206004820152603460248201527f455243313135353a207472616e7366657220746f206e6f6e20455243313135356044820152732932b1b2b4bb32b91034b6b83632b6b2b73a32b960611b60648201526084016103c8565b6001600160e01b0319811663bc197c8160e01b14610cd45760405162461bcd60e51b81526004016103c89061213e565b600082815260656020526040902060010154610ef681335b611571565b61075c83836115d5565b6000610a35836001600160a01b03841661165b565b6001600160a01b0381163314610f855760405162461bcd60e51b815260206004820152602f60248201527f416363657373436f6e74726f6c3a2063616e206f6e6c792072656e6f756e636560448201526e103937b632b9903337b91039b2b63360891b60648201526084016103c8565b610f8f82826116aa565b5050565b6000610a35836001600160a01b038416611711565b610fb061095c565b610ff35760405162461bcd60e51b815260206004820152601460248201527314185d5cd8589b194e881b9bdd081c185d5cd95960621b60448201526064016103c8565b61012d805460ff191690557f5db9ee0a495bf2e6ff9c91a7834c1ba4fdd244a5e8aa4e537bd38aeae4b073aa335b6040516001600160a01b03909116815260200160405180910390a1565b6001600160a01b0383166110645760405162461bcd60e51b81526004016103c890612258565b80518251146110855760405162461bcd60e51b81526004016103c8906122e5565b60003390506110a881856000868660405180602001604052806000815250610d60565b60005b83518110156111995760008482815181106110d657634e487b7160e01b600052603260045260246000fd5b60200260200101519050600084838151811061110257634e487b7160e01b600052603260045260246000fd5b602090810291909101810151600084815260c9835260408082206001600160a01b038c1683529093529190912054909150818110156111535760405162461bcd60e51b81526004016103c890612186565b61115d8282612388565b600093845260c9602090815260408086206001600160a01b038c16875290915290932092909255508190506111918161244e565b9150506110ab565b5060006001600160a01b0316846001600160a01b0316826001600160a01b03167f4a39dc06d4c0dbc64b70af90fd698a233a518aa5d07e595d983b8c0526c8f7fb86866040516111ea9291906120fd565b60405180910390a450505050565b61120061095c565b156112405760405162461bcd60e51b815260206004820152601060248201526f14185d5cd8589b194e881c185d5cd95960821b60448201526064016103c8565b61012d805460ff191660011790557f62e78cea01bee320cd4e420270b5ea74000d11b0c9f74754ebdbfc544b05a2586110213390565b6000610a358383611828565b6000610407825490565b6000828152606560205260409020600101546112a88133610ef1565b61075c83836116aa565b604080516001808252818301909252606091600091906020808301908036833701905050905082816000815181106112fa57634e487b7160e01b600052603260045260246000fd5b602090810291909101015292915050565b6001600160a01b0384163b156107325760405163f23a6e6160e01b81526001600160a01b0385169063f23a6e619061134f90899089908890889088906004016120a5565b602060405180830381600087803b15801561136957600080fd5b505af1925050508015611399575060408051601f3d908101601f1916820190925261139691810190611f50565b60015b6113a557610e08612495565b6001600160e01b0319811663f23a6e6160e01b14610cd45760405162461bcd60e51b81526004016103c89061213e565b6001600160a01b0383166113fb5760405162461bcd60e51b81526004016103c890612258565b3361142a8185600061140c876112b2565b611415876112b2565b60405180602001604052806000815250610d60565b600083815260c9602090815260408083206001600160a01b03881684529091529020548281101561146d5760405162461bcd60e51b81526004016103c890612186565b6114778382612388565b600085815260c9602090815260408083206001600160a01b038a811680865291845282852095909555815189815292830188905292938616917fc3d58168c5ae7397731d063d5bbf3d657854427343f4c083240f7aacaa2d0f62910160405180910390a45050505050565b60006001600160e01b03198216635a05180f60e01b14806104075750610407826118bc565b61150f61095c565b156107325760405162461bcd60e51b815260206004820152602c60248201527f455243313135355061757361626c653a20746f6b656e207472616e736665722060448201526b1dda1a5b19481c185d5cd95960a21b60648201526084016103c8565b61157b8282610a3c565b610f8f57611593816001600160a01b031660146118f1565b61159e8360206118f1565b6040516020016115af929190611fd2565b60408051601f198184030181529082905262461bcd60e51b82526103c89160040161212b565b6115df8282610a3c565b610f8f5760008281526065602090815260408083206001600160a01b03851684529091529020805460ff191660011790556116173390565b6001600160a01b0316816001600160a01b0316837f2f8788117e7eff1d82e926ec794901d17c78024a50270940304540a733656f0d60405160405180910390a45050565b60008181526001830160205260408120546116a2575081546001818101845560008481526020808220909301849055845484825282860190935260409020919091556103f6565b5060006103f6565b6116b48282610a3c565b15610f8f5760008281526065602090815260408083206001600160a01b0385168085529252808320805460ff1916905551339285917ff6391f5c32d9c69d2a47ea670b442974b53935d1edc7fd64eb21e047a839171b9190a45050565b6000818152600183016020526040812054801561181e576000611735600183612388565b855490915060009061174990600190612388565b9050600086600001828154811061177057634e487b7160e01b600052603260045260246000fd5b90600052602060002001549050808760000184815481106117a157634e487b7160e01b600052603260045260246000fd5b6000918252602080832090910192909255828152600189019091526040902084905586548790806117e257634e487b7160e01b600052603160045260246000fd5b600190038181906000526020600020016000905590558660010160008781526020019081526020016000206000905560019450505050506103f6565b60009150506103f6565b815460009082106118865760405162461bcd60e51b815260206004820152602260248201527f456e756d657261626c655365743a20696e646578206f7574206f6620626f756e604482015261647360f01b60648201526084016103c8565b8260000182815481106118a957634e487b7160e01b600052603260045260246000fd5b9060005260206000200154905092915050565b60006001600160e01b03198216637965db0b60e01b148061040757506301ffc9a760e01b6001600160e01b0319831614610407565b60606000611900836002612369565b61190b906002612351565b67ffffffffffffffff81111561193157634e487b7160e01b600052604160045260246000fd5b6040519080825280601f01601f19166020018201604052801561195b576020820181803683370190505b509050600360fc1b8160008151811061198457634e487b7160e01b600052603260045260246000fd5b60200101906001600160f81b031916908160001a905350600f60fb1b816001815181106119c157634e487b7160e01b600052603260045260246000fd5b60200101906001600160f81b031916908160001a90535060006119e5846002612369565b6119f0906001612351565b90505b6001811115611a84576f181899199a1a9b1b9c1cb0b131b232b360811b85600f1660108110611a3257634e487b7160e01b600052603260045260246000fd5b1a60f81b828281518110611a5657634e487b7160e01b600052603260045260246000fd5b60200101906001600160f81b031916908160001a90535060049490941c93611a7d816123cf565b90506119f3565b508315610a355760405162461bcd60e51b815260206004820181905260248201527f537472696e67733a20686578206c656e67746820696e73756666696369656e7460448201526064016103c8565b80356001600160a01b038116811461040a57600080fd5b600082601f830112611afa578081fd5b81356020611b078261232d565b604051611b148282612421565b8381528281019150858301600585901b87018401881015611b33578586fd5b855b85811015611b5157813584529284019290840190600101611b35565b5090979650505050505050565b600082601f830112611b6e578081fd5b813567ffffffffffffffff811115611b8857611b8861247f565b604051611b9f601f8301601f191660200182612421565b818152846020838601011115611bb3578283fd5b816020850160208301379081016020019190915292915050565b60008060408385031215611bdf578182fd5b611be883611ad3565b9150611bf660208401611ad3565b90509250929050565b600080600080600060a08688031215611c16578081fd5b611c1f86611ad3565b9450611c2d60208701611ad3565b9350604086013567ffffffffffffffff80821115611c49578283fd5b611c5589838a01611aea565b94506060880135915080821115611c6a578283fd5b611c7689838a01611aea565b93506080880135915080821115611c8b578283fd5b50611c9888828901611b5e565b9150509295509295909350565b600080600080600060a08688031215611cbc578081fd5b611cc586611ad3565b9450611cd360208701611ad3565b93506040860135925060608601359150608086013567ffffffffffffffff811115611cfc578182fd5b611c9888828901611b5e565b600080600060608486031215611d1c578283fd5b611d2584611ad3565b9250602084013567ffffffffffffffff80821115611d41578384fd5b611d4d87838801611aea565b93506040860135915080821115611d62578283fd5b50611d6f86828701611aea565b9150509250925092565b60008060408385031215611d8b578182fd5b611d9483611ad3565b915060208301358015158114611da8578182fd5b809150509250929050565b60008060408385031215611dc5578182fd5b611dce83611ad3565b946020939093013593505050565b600080600060608486031215611df0578283fd5b611df984611ad3565b95602085013595506040909401359392505050565b60008060408385031215611e20578182fd5b823567ffffffffffffffff80821115611e37578384fd5b818501915085601f830112611e4a578384fd5b81356020611e578261232d565b604051611e648282612421565b8381528281019150858301600585901b870184018b1015611e83578889fd5b8896505b84871015611eac57611e9881611ad3565b835260019690960195918301918301611e87565b5096505086013592505080821115611ec2578283fd5b50611ecf85828601611aea565b9150509250929050565b600060208284031215611eea578081fd5b5035919050565b60008060408385031215611f03578182fd5b82359150611bf660208401611ad3565b60008060408385031215611f25578182fd5b50508035926020909101359150565b600060208284031215611f45578081fd5b8135610a358161253e565b600060208284031215611f61578081fd5b8151610a358161253e565b6000815180845260208085019450808401835b83811015611f9b57815187529582019590820190600101611f7f565b509495945050505050565b60008151808452611fbe81602086016020860161239f565b601f01601f19169290920160200192915050565b60007f416363657373436f6e74726f6c3a206163636f756e74200000000000000000008252835161200a81601785016020880161239f565b7001034b99036b4b9b9b4b733903937b6329607d1b601791840191820152835161203b81602884016020880161239f565b01602801949350505050565b6001600160a01b0386811682528516602082015260a06040820181905260009061207390830186611f6c565b82810360608401526120858186611f6c565b905082810360808401526120998185611fa6565b98975050505050505050565b6001600160a01b03868116825285166020820152604081018490526060810183905260a0608082018190526000906120df90830184611fa6565b979650505050505050565b600060208252610a356020830184611f6c565b6000604082526121106040830185611f6c565b82810360208401526121228185611f6c565b95945050505050565b600060208252610a356020830184611fa6565b60208082526028908201527f455243313135353a204552433131353552656365697665722072656a656374656040820152676420746f6b656e7360c01b606082015260800190565b60208082526024908201527f455243313135353a206275726e20616d6f756e7420657863656564732062616c604082015263616e636560e01b606082015260800190565b60208082526029908201527f455243313135353a2063616c6c6572206973206e6f74206f776e6572206e6f7260408201526808185c1c1c9bdd995960ba1b606082015260800190565b60208082526025908201527f455243313135353a207472616e7366657220746f20746865207a65726f206164604082015264647265737360d81b606082015260800190565b60208082526023908201527f455243313135353a206275726e2066726f6d20746865207a65726f206164647260408201526265737360e81b606082015260800190565b6020808252602a908201527f455243313135353a20696e73756666696369656e742062616c616e636520666f60408201526939103a3930b739b332b960b11b606082015260800190565b60208082526028908201527f455243313135353a2069647320616e6420616d6f756e7473206c656e677468206040820152670dad2e6dac2e8c6d60c31b606082015260800190565b600067ffffffffffffffff8211156123475761234761247f565b5060051b60200190565b6000821982111561236457612364612469565b500190565b600081600019048311821515161561238357612383612469565b500290565b60008282101561239a5761239a612469565b500390565b60005b838110156123ba5781810151838201526020016123a2565b838111156123c9576000848401525b50505050565b6000816123de576123de612469565b506000190190565b600181811c908216806123fa57607f821691505b6020821081141561241b57634e487b7160e01b600052602260045260246000fd5b50919050565b601f8201601f1916810167ffffffffffffffff811182821017156124475761244761247f565b6040525050565b600060001982141561246257612462612469565b5060010190565b634e487b7160e01b600052601160045260246000fd5b634e487b7160e01b600052604160045260246000fd5b600060033d111561096457600481823e5160e01c90565b600060443d10156124bc57610964565b6040516003193d81016004833e81513d67ffffffffffffffff81602484011181841117156124ee575050505050610964565b828501915081518181111561250857505050505050610964565b843d870101602082850101111561252457505050505050610964565b61253360208286010187612421565b509094505050505090565b6001600160e01b03198116811461255457600080fd5b5056fea26469706673582212201b5b320b10d52d8b3b159fee3cac46437dc6f76b07676d32b8427051b2005a6364736f6c63430008030033",
  "immutableReferences": {},
  "source": "// SPDX-License-Identifier: MIT\npragma solidity ^0.8.3;\n\nimport \"../node_modules/@openzeppelin/contracts-upgradeable/token/ERC1155/ERC1155Upgradeable.sol\";\nimport \"../node_modules/@openzeppelin/contracts-upgradeable/token/ERC1155/extensions/ERC1155PausableUpgradeable.sol\";\nimport \"../node_modules/@openzeppelin/contracts-upgradeable/token/ERC1155/extensions/ERC1155BurnableUpgradeable.sol\";\nimport \"../node_modules/@openzeppelin/contracts-upgradeable/access/AccessControlEnumerableUpgradeable.sol\";\nimport \"../node_modules/@openzeppelin/contracts-upgradeable/utils/ContextUpgradeable.sol\";\nimport \"../node_modules/@openzeppelin/contracts-upgradeable/proxy/utils/Initializable.sol\";\n\ncontract ERC1155Token is Initializable, ContextUpgradeable, AccessControlEnumerableUpgradeable, ERC1155BurnableUpgradeable, ERC1155PausableUpgradeable {\n\n  bytes32 public constant MINTER_ROLE = keccak256(\"MINTER_ROLE\");\n\n  function __ERC1155Token_init(string memory uri, address minter) internal initializer {\n    __Context_init_unchained();\n    __ERC165_init_unchained();\n    __AccessControl_init_unchained();\n    __AccessControlEnumerable_init_unchained();\n    __ERC1155_init_unchained(uri);\n    __ERC1155Burnable_init_unchained();\n    __Pausable_init_unchained();\n    __ERC1155Pausable_init_unchained();\n    __ERC1155Token_init_unchained(minter);\n  }\n\n  function __ERC1155Token_init_unchained(address minter) internal initializer {\n    _setupRole(DEFAULT_ADMIN_ROLE, _msgSender());\n    _setupRole(MINTER_ROLE, minter);\n  }\n\n  function pause() public {\n    require(hasRole(DEFAULT_ADMIN_ROLE, _msgSender()), \"ERC1155Token: must have admin role to pause\");\n    _pause();\n  }\n\n  function unpause() public {\n    require(hasRole(DEFAULT_ADMIN_ROLE, _msgSender()), \"ERC1155Token: must have admin role to unpause\");\n    _unpause();\n  }\n\n  function supportsInterface(bytes4 interfaceId) public view override(AccessControlEnumerableUpgradeable, ERC1155Upgradeable) returns (bool) {\n    return super.supportsInterface(interfaceId);\n  }\n\n  function _beforeTokenTransfer(\n      address operator,\n      address from,\n      address to,\n      uint256[] memory ids,\n      uint256[] memory amounts,\n      bytes memory data\n  )\n      internal override(ERC1155Upgradeable, ERC1155PausableUpgradeable)\n  {\n      super._beforeTokenTransfer(operator, from, to, ids, amounts, data);\n  }\n  uint256[50] private __gap;\n}",
  "sourcePath": "/Users/jernejpregelj/dev/Trill/smartcontracts/contracts/ERC1155Token.sol",
  "compiler": {
    "name": "solc",
    "version": "0.8.3+commit.8d00100c.Emscripten.clang"
  },
  "schemaVersion": "3.3.3",
  "updatedAt": "2021-05-22T14:30:29.982Z",
  "devdoc": {
    "kind": "dev",
    "methods": {
      "balanceOf(address,uint256)": {
        "details": "See {IERC1155-balanceOf}. Requirements: - `account` cannot be the zero address."
      },
      "balanceOfBatch(address[],uint256[])": {
        "details": "See {IERC1155-balanceOfBatch}. Requirements: - `accounts` and `ids` must have the same length."
      },
      "getRoleAdmin(bytes32)": {
        "details": "Returns the admin role that controls `role`. See {grantRole} and {revokeRole}. To change a role's admin, use {_setRoleAdmin}."
      },
      "getRoleMember(bytes32,uint256)": {
        "details": "Returns one of the accounts that have `role`. `index` must be a value between 0 and {getRoleMemberCount}, non-inclusive. Role bearers are not sorted in any particular way, and their ordering may change at any point. WARNING: When using {getRoleMember} and {getRoleMemberCount}, make sure you perform all queries on the same block. See the following https://forum.openzeppelin.com/t/iterating-over-elements-on-enumerableset-in-openzeppelin-contracts/2296[forum post] for more information."
      },
      "getRoleMemberCount(bytes32)": {
        "details": "Returns the number of accounts that have `role`. Can be used together with {getRoleMember} to enumerate all bearers of a role."
      },
      "grantRole(bytes32,address)": {
        "details": "Overload {grantRole} to track enumerable memberships"
      },
      "hasRole(bytes32,address)": {
        "details": "Returns `true` if `account` has been granted `role`."
      },
      "isApprovedForAll(address,address)": {
        "details": "See {IERC1155-isApprovedForAll}."
      },
      "paused()": {
        "details": "Returns true if the contract is paused, and false otherwise."
      },
      "renounceRole(bytes32,address)": {
        "details": "Overload {renounceRole} to track enumerable memberships"
      },
      "revokeRole(bytes32,address)": {
        "details": "Overload {revokeRole} to track enumerable memberships"
      },
      "safeBatchTransferFrom(address,address,uint256[],uint256[],bytes)": {
        "details": "See {IERC1155-safeBatchTransferFrom}."
      },
      "safeTransferFrom(address,address,uint256,uint256,bytes)": {
        "details": "See {IERC1155-safeTransferFrom}."
      },
      "setApprovalForAll(address,bool)": {
        "details": "See {IERC1155-setApprovalForAll}."
      },
      "uri(uint256)": {
        "details": "See {IERC1155MetadataURI-uri}. This implementation returns the same URI for *all* token types. It relies on the token type ID substitution mechanism https://eips.ethereum.org/EIPS/eip-1155#metadata[defined in the EIP]. Clients calling this function must replace the `\\{id\\}` substring with the actual token type ID."
      }
    },
    "version": 1
  },
  "userdoc": {
    "kind": "user",
    "methods": {},
    "version": 1
  }
}