{
  "contractName": "Marketplace",
  "abi": [
    {
      "anonymous": false,
      "inputs": [
        {
          "indexed": false,
          "internalType": "uint8",
          "name": "_action",
          "type": "uint8"
        },
        {
          "indexed": false,
          "internalType": "uint256",
          "name": "_tokenId",
          "type": "uint256"
        },
        {
          "indexed": false,
          "internalType": "uint256",
          "name": "_amount",
          "type": "uint256"
        },
        {
          "indexed": false,
          "internalType": "address",
          "name": "_from",
          "type": "address"
        },
        {
          "indexed": false,
          "internalType": "address",
          "name": "_to",
          "type": "address"
        }
      ],
      "name": "MarketplaceEthTransfer",
      "type": "event"
    },
    {
      "anonymous": false,
      "inputs": [
        {
          "indexed": false,
          "internalType": "address",
          "name": "account",
          "type": "address"
        },
        {
          "indexed": false,
          "internalType": "uint256",
          "name": "tokenId",
          "type": "uint256"
        }
      ],
      "name": "OrderBought",
      "type": "event"
    },
    {
      "anonymous": false,
      "inputs": [
        {
          "indexed": false,
          "internalType": "uint256",
          "name": "tokenId",
          "type": "uint256"
        }
      ],
      "name": "OrderCanceled",
      "type": "event"
    },
    {
      "anonymous": false,
      "inputs": [
        {
          "indexed": false,
          "internalType": "address",
          "name": "seller",
          "type": "address"
        },
        {
          "indexed": false,
          "internalType": "uint256",
          "name": "tokenId",
          "type": "uint256"
        },
        {
          "indexed": false,
          "internalType": "uint256",
          "name": "price",
          "type": "uint256"
        }
      ],
      "name": "OrderCreated",
      "type": "event"
    },
    {
      "inputs": [
        {
          "internalType": "uint256",
          "name": "",
          "type": "uint256"
        }
      ],
      "name": "market",
      "outputs": [
        {
          "internalType": "address",
          "name": "seller",
          "type": "address"
        },
        {
          "internalType": "uint256",
          "name": "price",
          "type": "uint256"
        }
      ],
      "stateMutability": "view",
      "type": "function",
      "constant": true
    },
    {
      "inputs": [
        {
          "internalType": "bytes4",
          "name": "interfaceId",
          "type": "bytes4"
        }
      ],
      "name": "supportsInterface",
      "outputs": [
        {
          "internalType": "bool",
          "name": "",
          "type": "bool"
        }
      ],
      "stateMutability": "view",
      "type": "function",
      "constant": true
    },
    {
      "inputs": [],
      "name": "topxInstance",
      "outputs": [
        {
          "internalType": "contract Topx",
          "name": "",
          "type": "address"
        }
      ],
      "stateMutability": "view",
      "type": "function",
      "constant": true
    },
    {
      "inputs": [
        {
          "internalType": "contract Topx",
          "name": "_topxInstance",
          "type": "address"
        }
      ],
      "name": "initialize",
      "outputs": [],
      "stateMutability": "nonpayable",
      "type": "function"
    },
    {
      "inputs": [
        {
          "internalType": "uint256",
          "name": "tokenId",
          "type": "uint256"
        }
      ],
      "name": "buyOrder",
      "outputs": [],
      "stateMutability": "payable",
      "type": "function",
      "payable": true
    },
    {
      "inputs": [
        {
          "internalType": "uint256",
          "name": "tokenId",
          "type": "uint256"
        }
      ],
      "name": "cancelOrder",
      "outputs": [],
      "stateMutability": "nonpayable",
      "type": "function"
    },
    {
      "inputs": [
        {
          "internalType": "uint256",
          "name": "tokenId",
          "type": "uint256"
        },
        {
          "internalType": "uint256",
          "name": "price",
          "type": "uint256"
        }
      ],
      "name": "addOrder",
      "outputs": [],
      "stateMutability": "nonpayable",
      "type": "function"
    },
    {
      "inputs": [
        {
          "internalType": "uint256",
          "name": "tokenId",
          "type": "uint256"
        }
      ],
      "name": "getOrder",
      "outputs": [
        {
          "internalType": "address",
          "name": "",
          "type": "address"
        },
        {
          "internalType": "uint256",
          "name": "",
          "type": "uint256"
        }
      ],
      "stateMutability": "view",
      "type": "function",
      "constant": true
    },
    {
      "inputs": [
        {
          "internalType": "address",
          "name": "operator",
          "type": "address"
        },
        {
          "internalType": "address",
          "name": "from",
          "type": "address"
        },
        {
          "internalType": "uint256",
          "name": "id",
          "type": "uint256"
        },
        {
          "internalType": "uint256",
          "name": "value",
          "type": "uint256"
        },
        {
          "internalType": "bytes",
          "name": "data",
          "type": "bytes"
        }
      ],
      "name": "onERC1155Received",
      "outputs": [
        {
          "internalType": "bytes4",
          "name": "",
          "type": "bytes4"
        }
      ],
      "stateMutability": "pure",
      "type": "function",
      "constant": true
    },
    {
      "inputs": [
        {
          "internalType": "address",
          "name": "operator",
          "type": "address"
        },
        {
          "internalType": "address",
          "name": "from",
          "type": "address"
        },
        {
          "internalType": "uint256[]",
          "name": "ids",
          "type": "uint256[]"
        },
        {
          "internalType": "uint256[]",
          "name": "values",
          "type": "uint256[]"
        },
        {
          "internalType": "bytes",
          "name": "data",
          "type": "bytes"
        }
      ],
      "name": "onERC1155BatchReceived",
      "outputs": [
        {
          "internalType": "bytes4",
          "name": "",
          "type": "bytes4"
        }
      ],
      "stateMutability": "pure",
      "type": "function",
      "constant": true
    }
  ],
  "bytecode": "0x608060405234801561001057600080fd5b50611276806100206000396000f3fe6080604052600436106100915760003560e01c8063bc197c8111610059578063bc197c8114610197578063c4d66de8146101d0578063d09ef241146101f0578063f23a6e6114610210578063f28db6c41461025657610091565b806301ffc9a71461009657806322f85eaa146100cb57806328861d22146100e0578063514fcac71461013f578063748029b71461015f575b600080fd5b3480156100a257600080fd5b506100b66100b1366004611092565b610276565b60405190151581526020015b60405180910390f35b6100de6100d93660046110d6565b6102ad565b005b3480156100ec57600080fd5b506101206100fb3660046110d6565b609860205260009081526040902080546001909101546001600160a01b039091169082565b604080516001600160a01b0390931683526020830191909152016100c2565b34801561014b57600080fd5b506100de61015a3660046110d6565b610ad0565b34801561016b57600080fd5b5060975461017f906001600160a01b031681565b6040516001600160a01b0390911681526020016100c2565b3480156101a357600080fd5b506101b76101b2366004610f5d565b610be8565b6040516001600160e01b031990911681526020016100c2565b3480156101dc57600080fd5b506100de6101eb3660046110ba565b610bef565b3480156101fc57600080fd5b5061012061020b3660046110d6565b610cbe565b34801561021c57600080fd5b506101b761022b366004611018565b7ff23a6e612e1ff4830e658fe43f4e3cb4a5f8170bd5d9e69fb5d7a7fa9e4fdf979695505050505050565b34801561026257600080fd5b506100de610271366004611106565b610d2e565b60006001600160e01b03198216630271189760e51b14806102a757506301ffc9a760e01b6001600160e01b03198316145b92915050565b6000818152609860205260409020546001600160a01b03166102ea5760405162461bcd60e51b81526004016102e19061119e565b60405180910390fd5b600081815260986020908152604091829020825180840190935280546001600160a01b03168352600101549082018190523410156103625760405162461bcd60e51b815260206004820152601560248201527456616c7565206c657373207468616e20707269636560581b60448201526064016102e1565b6097546040516350e1376360e11b8152600481018490523460248201526000916001600160a01b03169063a1c26ec69060440160206040518083038186803b1580156103ad57600080fd5b505afa1580156103c1573d6000803e3d6000fd5b505050506040513d601f19601f820116820180604052508101906103e591906110ee565b6097546040516302e3a67360e61b8152600481018690529192506000916001600160a01b039091169063b8e99cc09060240160206040518083038186803b15801561042f57600080fd5b505afa158015610443573d6000803e3d6000fd5b505050506040513d601f19601f820116820180604052508101906104679190610f3a565b60975460405163666d849360e01b8152600481018790523460248201529192506000916001600160a01b039091169063666d84939060440160206040518083038186803b1580156104b757600080fd5b505afa1580156104cb573d6000803e3d6000fd5b505050506040513d601f19601f820116820180604052508101906104ef91906110ee565b609754604051630bc9373f60e31b8152600481018890529192506000916001600160a01b0390911690635e49b9f89060240160206040518083038186803b15801561053957600080fd5b505afa15801561054d573d6000803e3d6000fd5b505050506040513d601f19601f820116820180604052508101906105719190610f3a565b609754604051630788382b60e21b81523460048201529192506000916001600160a01b0390911690631e20e0ac9060240160206040518083038186803b1580156105ba57600080fd5b505afa1580156105ce573d6000803e3d6000fd5b505050506040513d601f19601f820116820180604052508101906105f291906110ee565b90506000609760009054906101000a90046001600160a01b03166001600160a01b0316633b19e84a6040518163ffffffff1660e01b815260040160206040518083038186803b15801561064457600080fd5b505afa158015610658573d6000803e3d6000fd5b505050506040513d601f19601f8201168201806040525081019061067c9190610f3a565b905060008411801561069657506001600160a01b03831615155b15610898576040516001600160a01b0384169085156108fc029086906000818181858888f193505050501580156106d1573d6000803e3d6000fd5b506040516001600160a01b0386169087156108fc029088906000818181858888f19350505050158015610708573d6000803e3d6000fd5b506040516001600160a01b0382169083156108fc029084906000818181858888f1935050505015801561073f573d6000803e3d6000fd5b506000888152609860205260409020546001600160a01b03166108fc838861076788346111e5565b61077191906111e5565b61077b91906111e5565b6040518115909202916000818181858888f193505050501580156107a3573d6000803e3d6000fd5b506000805160206112218339815191526001898833896040516107ca95949392919061116a565b60405180910390a16000805160206112218339815191526002898633876040516107f895949392919061116a565b60405180910390a160008051602061122183398151915260048984338560405161082695949392919061116a565b60405180910390a1600080516020611221833981519152600389848961084c89346111e5565b61085691906111e5565b61086091906111e5565b3360008d8152609860205260409081902054905161088b95949392916001600160a01b03169061116a565b60405180910390a1610a16565b6040516001600160a01b0386169087156108fc029088906000818181858888f193505050501580156108ce573d6000803e3d6000fd5b506040516001600160a01b0382169083156108fc029084906000818181858888f19350505050158015610905573d6000803e3d6000fd5b506000888152609860205260409020546001600160a01b03166108fc8361092c89346111e5565b61093691906111e5565b6040518115909202916000818181858888f1935050505015801561095e573d6000803e3d6000fd5b5060008051602061122183398151915260018988338960405161098595949392919061116a565b60405180910390a16000805160206112218339815191526004898433856040516109b395949392919061116a565b60405180910390a1600080516020611221833981519152600389846109d88a346111e5565b6109e291906111e5565b3360008d81526098602052604090819020549051610a0d95949392916001600160a01b03169061116a565b60405180910390a15b6097546001600160a01b031663f242432a30338b60016040518563ffffffff1660e01b8152600401610a4b9493929190611127565b600060405180830381600087803b158015610a6557600080fd5b505af1158015610a79573d6000803e3d6000fd5b505050507f831d0f226015280215c448c7bec3804ac62a60a732805b623de7ce3258411062610aa53390565b604080516001600160a01b039092168252602082018b90520160405180910390a15050505050505050565b6000818152609860205260409020546001600160a01b0316610b045760405162461bcd60e51b81526004016102e19061119e565b600081815260986020908152604091829020825180840190935280546001600160a01b0316808452600190910154918301919091523314610b4457600080fd5b6097546001600160a01b031663f242432a30338560016040518563ffffffff1660e01b8152600401610b799493929190611127565b600060405180830381600087803b158015610b9357600080fd5b505af1158015610ba7573d6000803e3d6000fd5b505050507fc41f4ceb2938876c35e61b705e9d2f18a02c4a26ce5e049a6308a943d46851b382604051610bdc91815260200190565b60405180910390a15050565b6000806000fd5b600054610100900460ff1680610c08575060005460ff16155b610c6b5760405162461bcd60e51b815260206004820152602e60248201527f496e697469616c697a61626c653a20636f6e747261637420697320616c72656160448201526d191e481a5b9a5d1a585b1a5e995960921b60648201526084016102e1565b600054610100900460ff16158015610c8d576000805461ffff19166101011790555b609780546001600160a01b0319166001600160a01b0384161790558015610cba576000805461ff00191690555b5050565b60008181526098602052604081205481906001600160a01b0316610cf45760405162461bcd60e51b81526004016102e19061119e565b5050600090815260986020908152604091829020825180840190935280546001600160a01b03168084526001909101549290910182905291565b6000828152609860205260409020546001600160a01b031615610da95760405162461bcd60e51b815260206004820152602d60248201527f546865726520616c726561647920697320616e206f70656e206f72646572206660448201526c37b9103a3430ba103a37b5b2b760991b60648201526084016102e1565b6097546001600160a01b031663f242432a33308560016040518563ffffffff1660e01b8152600401610dde9493929190611127565b600060405180830381600087803b158015610df857600080fd5b505af1158015610e0c573d6000803e3d6000fd5b505050506040518060400160405280610e223390565b6001600160a01b039081168252602091820184905260008581526098835260409020835181546001600160a01b03191692169190911781559101516001909101557fbb4cd350108fec46a02c87acb34a38f6c465fb2dc050687359c97229703bb8f4610e8b3390565b604080516001600160a01b039092168252602082018590528101839052606001610bdc565b60008083601f840112610ec1578182fd5b50813567ffffffffffffffff811115610ed8578182fd5b6020830191508360208260051b8501011115610ef357600080fd5b9250929050565b60008083601f840112610f0b578182fd5b50813567ffffffffffffffff811115610f22578182fd5b602083019150836020828501011115610ef357600080fd5b600060208284031215610f4b578081fd5b8151610f5681611208565b9392505050565b60008060008060008060008060a0898b031215610f78578384fd5b8835610f8381611208565b97506020890135610f9381611208565b9650604089013567ffffffffffffffff80821115610faf578586fd5b610fbb8c838d01610eb0565b909850965060608b0135915080821115610fd3578586fd5b610fdf8c838d01610eb0565b909650945060808b0135915080821115610ff7578384fd5b506110048b828c01610efa565b999c989b5096995094979396929594505050565b60008060008060008060a08789031215611030578182fd5b863561103b81611208565b9550602087013561104b81611208565b94506040870135935060608701359250608087013567ffffffffffffffff811115611074578283fd5b61108089828a01610efa565b979a9699509497509295939492505050565b6000602082840312156110a3578081fd5b81356001600160e01b031981168114610f56578182fd5b6000602082840312156110cb578081fd5b8135610f5681611208565b6000602082840312156110e7578081fd5b5035919050565b6000602082840312156110ff578081fd5b5051919050565b60008060408385031215611118578182fd5b50508035926020909101359150565b6001600160a01b0394851681529290931660208301526040820152606081019190915260a06080820181905260029082015261060f60f31b60c082015260e00190565b60ff959095168552602085019390935260408401919091526001600160a01b03908116606084015216608082015260a00190565b60208082526027908201527f546865726520617265206e6f206f70656e206f726465727320666f72207468616040820152663a103a37b5b2b760c91b606082015260800190565b60008282101561120357634e487b7160e01b81526011600452602481fd5b500390565b6001600160a01b038116811461121d57600080fd5b5056fe01288a3a3d5cde96f4a266fd8f3c93f927e724e2a2408e4021ff916e0d3b1138a26469706673582212209809b7efdaaa5d6c929b3aaca2fd5cf67b9007089de3d3adca2d223c9b46716d64736f6c63430008030033",
  "immutableReferences": {},
  "source": "// SPDX-License-Identifier: MIT\npragma solidity ^0.8.3;\n\nimport \"../node_modules/@openzeppelin/contracts-upgradeable/token/ERC1155/utils/ERC1155ReceiverUpgradeable.sol\";\nimport \"../node_modules/@openzeppelin/contracts-upgradeable/utils/ContextUpgradeable.sol\";\nimport \"../node_modules/@openzeppelin/contracts-upgradeable/proxy/utils/Initializable.sol\";\nimport \"./Topx.sol\";\n\nstruct Order {\n  address seller;\n  uint256 price;\n}\n\ncontract Marketplace is Initializable, ContextUpgradeable, ERC1155ReceiverUpgradeable {\n\n  Topx public topxInstance;\n\n  mapping(uint256 => Order) public market;\n\n  event OrderCreated(\n    address seller,\n    uint256 tokenId,\n    uint256 price\n  );\n\n  event OrderBought(\n    address account,\n    uint256 tokenId\n  );\n\n  event OrderCanceled(\n    uint256 tokenId\n  );\n\n  function initialize(Topx _topxInstance) public initializer {\n    topxInstance = _topxInstance;\n  }\n\n  event MarketplaceEthTransfer(uint8 _action, uint256 _tokenId, uint256 _amount, address _from, address _to);\n  \n  function buyOrder(uint256 tokenId) public payable {\n    require(market[tokenId].seller != address(0x0), \"There are no open orders for that token\");\n    Order memory order = market[tokenId];\n    require(msg.value >= order.price, \"Value less than price\");\n    uint256 creatorRoyalty = topxInstance.getCreatorRoyaltyFromAmountForTokenId(tokenId, msg.value);\n    address creator = topxInstance.getCreatorAddressForTokenId(tokenId);\n    uint256 artistRoyalty = topxInstance.getArtistRoyaltyFromAmountForTokenId(tokenId, msg.value);\n    address artist = topxInstance.getArtistForTokenId(tokenId);\n    uint256 platformRoyalty = topxInstance.getPlatformRoyalty(msg.value);\n    address platform = topxInstance.getTreasury();\n    if (artistRoyalty > 0 && artist != address(0x0)) {\n      payable(artist).transfer(artistRoyalty);\n      payable(creator).transfer(creatorRoyalty);\n      payable(platform).transfer(platformRoyalty);\n      payable(market[tokenId].seller).transfer(msg.value-artistRoyalty-creatorRoyalty-platformRoyalty);\n      emit MarketplaceEthTransfer(1, tokenId, creatorRoyalty, _msgSender(), creator);\n      emit MarketplaceEthTransfer(2, tokenId, artistRoyalty, _msgSender(), artist);\n      emit MarketplaceEthTransfer(4, tokenId, platformRoyalty, _msgSender(), platform);\n      emit MarketplaceEthTransfer(3, tokenId, msg.value-artistRoyalty-creatorRoyalty-platformRoyalty, _msgSender(), market[tokenId].seller);\n    } else {\n      payable(creator).transfer(creatorRoyalty);\n      payable(platform).transfer(platformRoyalty);\n      payable(market[tokenId].seller).transfer(msg.value-creatorRoyalty-platformRoyalty);\n      emit MarketplaceEthTransfer(1, tokenId, creatorRoyalty, _msgSender(), creator);\n      emit MarketplaceEthTransfer(4, tokenId, platformRoyalty, _msgSender(), platform);\n      emit MarketplaceEthTransfer(3, tokenId, msg.value-creatorRoyalty-platformRoyalty, _msgSender(), market[tokenId].seller);\n    }\n    topxInstance.safeTransferFrom(address(this), _msgSender(), tokenId, 1, '0x');\n    emit OrderBought(_msgSender(), tokenId);\n  }\n\n  function cancelOrder(uint256 tokenId) public {\n    require(market[tokenId].seller != address(0x0), \"There are no open orders for that token\");\n    Order memory order = market[tokenId];\n    require(order.seller == _msgSender());\n    topxInstance.safeTransferFrom(address(this), _msgSender(), tokenId, 1, '0x');\n    emit OrderCanceled(tokenId);\n  }\n\n  function addOrder(uint256 tokenId, uint256 price) public {\n    require(market[tokenId].seller == address(0x0), \"There already is an open order for that token\");\n    topxInstance.safeTransferFrom(_msgSender(), address(this), tokenId, 1, '0x');\n    market[tokenId] = Order(_msgSender(), price);\n    emit OrderCreated(_msgSender(), tokenId, price);\n  }\n\n  function getOrder(uint256 tokenId) public view returns ( address, uint256 ) {\n    require(market[tokenId].seller != address(0x0), \"There are no open orders for that token\");\n    Order memory order = market[tokenId];\n    return (order.seller, order.price);\n  }\n\n  function onERC1155Received(\n    address operator,\n    address from,\n    uint256 id,\n    uint256 value,\n    bytes calldata data\n  ) external override pure returns (bytes4) {\n    return (\n      bytes4(\n        keccak256(\n          \"onERC1155Received(address,address,uint256,uint256,bytes)\"\n        )\n      )\n    );\n  }\n\n  function onERC1155BatchReceived(\n    address operator,\n    address from,\n    uint256[] calldata ids,\n    uint256[] calldata values,\n    bytes calldata data\n  ) external override pure returns (bytes4) {\n    revert();\n    return \"\";\n  }   \n}",
  "sourcePath": "/Users/jernejpregelj/dev/topx/smartcontracts/contracts/Marketplace.sol",
  "compiler": {
    "name": "solc",
    "version": "0.8.3+commit.8d00100c.Emscripten.clang"
  },
  "schemaVersion": "3.3.3",
  "updatedAt": "2021-06-23T12:25:35.975Z",
  "networkType": "ethereum",
  "devdoc": {
    "kind": "dev",
    "methods": {
      "onERC1155BatchReceived(address,address,uint256[],uint256[],bytes)": {
        "details": "Handles the receipt of a multiple ERC1155 token types. This function is called at the end of a `safeBatchTransferFrom` after the balances have been updated. To accept the transfer(s), this must return `bytes4(keccak256(\"onERC1155BatchReceived(address,address,uint256[],uint256[],bytes)\"))` (i.e. 0xbc197c81, or its own function selector).",
        "params": {
          "data": "Additional data with no specified format",
          "from": "The address which previously owned the token",
          "ids": "An array containing ids of each token being transferred (order and length must match values array)",
          "operator": "The address which initiated the batch transfer (i.e. msg.sender)",
          "values": "An array containing amounts of each token being transferred (order and length must match ids array)"
        },
        "returns": {
          "_0": "`bytes4(keccak256(\"onERC1155BatchReceived(address,address,uint256[],uint256[],bytes)\"))` if transfer is allowed"
        }
      },
      "onERC1155Received(address,address,uint256,uint256,bytes)": {
        "details": "Handles the receipt of a single ERC1155 token type. This function is called at the end of a `safeTransferFrom` after the balance has been updated. To accept the transfer, this must return `bytes4(keccak256(\"onERC1155Received(address,address,uint256,uint256,bytes)\"))` (i.e. 0xf23a6e61, or its own function selector).",
        "params": {
          "data": "Additional data with no specified format",
          "from": "The address which previously owned the token",
          "id": "The ID of the token being transferred",
          "operator": "The address which initiated the transfer (i.e. msg.sender)",
          "value": "The amount of tokens being transferred"
        },
        "returns": {
          "_0": "`bytes4(keccak256(\"onERC1155Received(address,address,uint256,uint256,bytes)\"))` if transfer is allowed"
        }
      },
      "supportsInterface(bytes4)": {
        "details": "See {IERC165-supportsInterface}."
      }
    },
    "version": 1
  },
  "userdoc": {
    "kind": "user",
    "methods": {},
    "version": 1
  }
}