{
  "contractName": "Marketplace",
  "abi": [
    {
      "anonymous": false,
      "inputs": [
        {
          "indexed": false,
          "internalType": "uint8",
          "name": "_action",
          "type": "uint8"
        },
        {
          "indexed": false,
          "internalType": "uint256",
          "name": "_tokenId",
          "type": "uint256"
        },
        {
          "indexed": false,
          "internalType": "uint256",
          "name": "_amount",
          "type": "uint256"
        },
        {
          "indexed": false,
          "internalType": "address",
          "name": "_account",
          "type": "address"
        }
      ],
      "name": "MarketplaceEthTransfer",
      "type": "event"
    },
    {
      "anonymous": false,
      "inputs": [
        {
          "indexed": false,
          "internalType": "address",
          "name": "account",
          "type": "address"
        },
        {
          "indexed": false,
          "internalType": "uint256",
          "name": "tokenId",
          "type": "uint256"
        }
      ],
      "name": "OrderBought",
      "type": "event"
    },
    {
      "anonymous": false,
      "inputs": [
        {
          "indexed": false,
          "internalType": "uint256",
          "name": "tokenId",
          "type": "uint256"
        }
      ],
      "name": "OrderCanceled",
      "type": "event"
    },
    {
      "anonymous": false,
      "inputs": [
        {
          "indexed": false,
          "internalType": "address",
          "name": "seller",
          "type": "address"
        },
        {
          "indexed": false,
          "internalType": "uint256",
          "name": "tokenId",
          "type": "uint256"
        },
        {
          "indexed": false,
          "internalType": "uint256",
          "name": "price",
          "type": "uint256"
        }
      ],
      "name": "OrderCreated",
      "type": "event"
    },
    {
      "inputs": [
        {
          "internalType": "uint256",
          "name": "",
          "type": "uint256"
        }
      ],
      "name": "market",
      "outputs": [
        {
          "internalType": "address",
          "name": "seller",
          "type": "address"
        },
        {
          "internalType": "uint256",
          "name": "price",
          "type": "uint256"
        }
      ],
      "stateMutability": "view",
      "type": "function",
      "constant": true
    },
    {
      "inputs": [
        {
          "internalType": "bytes4",
          "name": "interfaceId",
          "type": "bytes4"
        }
      ],
      "name": "supportsInterface",
      "outputs": [
        {
          "internalType": "bool",
          "name": "",
          "type": "bool"
        }
      ],
      "stateMutability": "view",
      "type": "function",
      "constant": true
    },
    {
      "inputs": [],
      "name": "topxInstance",
      "outputs": [
        {
          "internalType": "contract Topx",
          "name": "",
          "type": "address"
        }
      ],
      "stateMutability": "view",
      "type": "function",
      "constant": true
    },
    {
      "inputs": [
        {
          "internalType": "contract Topx",
          "name": "_topxInstance",
          "type": "address"
        }
      ],
      "name": "initialize",
      "outputs": [],
      "stateMutability": "nonpayable",
      "type": "function"
    },
    {
      "inputs": [
        {
          "internalType": "uint256",
          "name": "tokenId",
          "type": "uint256"
        }
      ],
      "name": "buyOrder",
      "outputs": [],
      "stateMutability": "payable",
      "type": "function",
      "payable": true
    },
    {
      "inputs": [
        {
          "internalType": "uint256",
          "name": "tokenId",
          "type": "uint256"
        }
      ],
      "name": "cancelOrder",
      "outputs": [],
      "stateMutability": "nonpayable",
      "type": "function"
    },
    {
      "inputs": [
        {
          "internalType": "uint256",
          "name": "tokenId",
          "type": "uint256"
        },
        {
          "internalType": "uint256",
          "name": "price",
          "type": "uint256"
        }
      ],
      "name": "addOrder",
      "outputs": [],
      "stateMutability": "nonpayable",
      "type": "function"
    },
    {
      "inputs": [
        {
          "internalType": "uint256",
          "name": "tokenId",
          "type": "uint256"
        }
      ],
      "name": "getOrder",
      "outputs": [
        {
          "internalType": "address",
          "name": "",
          "type": "address"
        },
        {
          "internalType": "uint256",
          "name": "",
          "type": "uint256"
        }
      ],
      "stateMutability": "view",
      "type": "function",
      "constant": true
    },
    {
      "inputs": [
        {
          "internalType": "address",
          "name": "operator",
          "type": "address"
        },
        {
          "internalType": "address",
          "name": "from",
          "type": "address"
        },
        {
          "internalType": "uint256",
          "name": "id",
          "type": "uint256"
        },
        {
          "internalType": "uint256",
          "name": "value",
          "type": "uint256"
        },
        {
          "internalType": "bytes",
          "name": "data",
          "type": "bytes"
        }
      ],
      "name": "onERC1155Received",
      "outputs": [
        {
          "internalType": "bytes4",
          "name": "",
          "type": "bytes4"
        }
      ],
      "stateMutability": "pure",
      "type": "function",
      "constant": true
    },
    {
      "inputs": [
        {
          "internalType": "address",
          "name": "operator",
          "type": "address"
        },
        {
          "internalType": "address",
          "name": "from",
          "type": "address"
        },
        {
          "internalType": "uint256[]",
          "name": "ids",
          "type": "uint256[]"
        },
        {
          "internalType": "uint256[]",
          "name": "values",
          "type": "uint256[]"
        },
        {
          "internalType": "bytes",
          "name": "data",
          "type": "bytes"
        }
      ],
      "name": "onERC1155BatchReceived",
      "outputs": [
        {
          "internalType": "bytes4",
          "name": "",
          "type": "bytes4"
        }
      ],
      "stateMutability": "pure",
      "type": "function",
      "constant": true
    }
  ],
  "bytecode": "0x608060405234801561001057600080fd5b50611023806100206000396000f3fe6080604052600436106100915760003560e01c8063bc197c8111610059578063bc197c8114610197578063c4d66de8146101d0578063d09ef241146101f0578063f23a6e6114610210578063f28db6c41461025657610091565b806301ffc9a71461009657806322f85eaa146100cb57806328861d22146100e0578063514fcac71461013f578063748029b71461015f575b600080fd5b3480156100a257600080fd5b506100b66100b1366004610e4a565b610276565b60405190151581526020015b60405180910390f35b6100de6100d9366004610e8e565b6102ad565b005b3480156100ec57600080fd5b506101206100fb366004610e8e565b609860205260009081526040902080546001909101546001600160a01b039091169082565b604080516001600160a01b0390931683526020830191909152016100c2565b34801561014b57600080fd5b506100de61015a366004610e8e565b610888565b34801561016b57600080fd5b5060975461017f906001600160a01b031681565b6040516001600160a01b0390911681526020016100c2565b3480156101a357600080fd5b506101b76101b2366004610d15565b6109a0565b6040516001600160e01b031990911681526020016100c2565b3480156101dc57600080fd5b506100de6101eb366004610e72565b6109a7565b3480156101fc57600080fd5b5061012061020b366004610e8e565b610a76565b34801561021c57600080fd5b506101b761022b366004610dd0565b7ff23a6e612e1ff4830e658fe43f4e3cb4a5f8170bd5d9e69fb5d7a7fa9e4fdf979695505050505050565b34801561026257600080fd5b506100de610271366004610ebe565b610ae6565b60006001600160e01b03198216630271189760e51b14806102a757506301ffc9a760e01b6001600160e01b03198316145b92915050565b6000818152609860205260409020546001600160a01b03166102ea5760405162461bcd60e51b81526004016102e190610f4b565b60405180910390fd5b600081815260986020908152604091829020825180840190935280546001600160a01b031683526001015490820181905234101561032757600080fd5b6097546040516350e1376360e11b8152600481018490523460248201526000916001600160a01b03169063a1c26ec69060440160206040518083038186803b15801561037257600080fd5b505afa158015610386573d6000803e3d6000fd5b505050506040513d601f19601f820116820180604052508101906103aa9190610ea6565b6097546040516302e3a67360e61b8152600481018690529192506000916001600160a01b039091169063b8e99cc09060240160206040518083038186803b1580156103f457600080fd5b505afa158015610408573d6000803e3d6000fd5b505050506040513d601f19601f8201168201806040525081019061042c9190610cf2565b60975460405163666d849360e01b8152600481018790523460248201529192506000916001600160a01b039091169063666d84939060440160206040518083038186803b15801561047c57600080fd5b505afa158015610490573d6000803e3d6000fd5b505050506040513d601f19601f820116820180604052508101906104b49190610ea6565b609754604051630bc9373f60e31b8152600481018890529192506000916001600160a01b0390911690635e49b9f89060240160206040518083038186803b1580156104fe57600080fd5b505afa158015610512573d6000803e3d6000fd5b505050506040513d601f19601f820116820180604052508101906105369190610cf2565b905060008211801561055057506001600160a01b03811615155b156106d1576040516001600160a01b0382169083156108fc029084906000818181858888f1935050505015801561058b573d6000803e3d6000fd5b506040516001600160a01b0384169085156108fc029086906000818181858888f193505050501580156105c2573d6000803e3d6000fd5b506000868152609860205260409020546001600160a01b03166108fc856105e98534610f92565b6105f39190610f92565b6040518115909202916000818181858888f1935050505015801561061b573d6000803e3d6000fd5b50600080516020610fce83398151915260018786866040516106409493929190610f22565b60405180910390a1600080516020610fce833981519152600287848460405161066c9493929190610f22565b60405180910390a1600080516020610fce833981519152600387866106918634610f92565b61069b9190610f92565b60008a815260986020526040908190205490516106c4949392916001600160a01b031690610f22565b60405180910390a16107d0565b6040516001600160a01b0384169085156108fc029086906000818181858888f19350505050158015610707573d6000803e3d6000fd5b506000868152609860205260409020546001600160a01b03166108fc61072d8634610f92565b6040518115909202916000818181858888f19350505050158015610755573d6000803e3d6000fd5b50600080516020610fce833981519152600187868660405161077a9493929190610f22565b60405180910390a1600080516020610fce83398151915260038761079e8734610f92565b60008a815260986020526040908190205490516107c7949392916001600160a01b031690610f22565b60405180910390a15b6097546001600160a01b031663f242432a30338960016040518563ffffffff1660e01b81526004016108059493929190610edf565b600060405180830381600087803b15801561081f57600080fd5b505af1158015610833573d6000803e3d6000fd5b505050507f831d0f226015280215c448c7bec3804ac62a60a732805b623de7ce325841106261085f3390565b604080516001600160a01b039092168252602082018990520160405180910390a1505050505050565b6000818152609860205260409020546001600160a01b03166108bc5760405162461bcd60e51b81526004016102e190610f4b565b600081815260986020908152604091829020825180840190935280546001600160a01b03168084526001909101549183019190915233146108fc57600080fd5b6097546001600160a01b031663f242432a30338560016040518563ffffffff1660e01b81526004016109319493929190610edf565b600060405180830381600087803b15801561094b57600080fd5b505af115801561095f573d6000803e3d6000fd5b505050507fc41f4ceb2938876c35e61b705e9d2f18a02c4a26ce5e049a6308a943d46851b38260405161099491815260200190565b60405180910390a15050565b6000806000fd5b600054610100900460ff16806109c0575060005460ff16155b610a235760405162461bcd60e51b815260206004820152602e60248201527f496e697469616c697a61626c653a20636f6e747261637420697320616c72656160448201526d191e481a5b9a5d1a585b1a5e995960921b60648201526084016102e1565b600054610100900460ff16158015610a45576000805461ffff19166101011790555b609780546001600160a01b0319166001600160a01b0384161790558015610a72576000805461ff00191690555b5050565b60008181526098602052604081205481906001600160a01b0316610aac5760405162461bcd60e51b81526004016102e190610f4b565b5050600090815260986020908152604091829020825180840190935280546001600160a01b03168084526001909101549290910182905291565b6000828152609860205260409020546001600160a01b031615610b615760405162461bcd60e51b815260206004820152602d60248201527f546865726520616c726561647920697320616e206f70656e206f72646572206660448201526c37b9103a3430ba103a37b5b2b760991b60648201526084016102e1565b6097546001600160a01b031663f242432a33308560016040518563ffffffff1660e01b8152600401610b969493929190610edf565b600060405180830381600087803b158015610bb057600080fd5b505af1158015610bc4573d6000803e3d6000fd5b505050506040518060400160405280610bda3390565b6001600160a01b039081168252602091820184905260008581526098835260409020835181546001600160a01b03191692169190911781559101516001909101557fbb4cd350108fec46a02c87acb34a38f6c465fb2dc050687359c97229703bb8f4610c433390565b604080516001600160a01b039092168252602082018590528101839052606001610994565b60008083601f840112610c79578182fd5b50813567ffffffffffffffff811115610c90578182fd5b6020830191508360208260051b8501011115610cab57600080fd5b9250929050565b60008083601f840112610cc3578182fd5b50813567ffffffffffffffff811115610cda578182fd5b602083019150836020828501011115610cab57600080fd5b600060208284031215610d03578081fd5b8151610d0e81610fb5565b9392505050565b60008060008060008060008060a0898b031215610d30578384fd5b8835610d3b81610fb5565b97506020890135610d4b81610fb5565b9650604089013567ffffffffffffffff80821115610d67578586fd5b610d738c838d01610c68565b909850965060608b0135915080821115610d8b578586fd5b610d978c838d01610c68565b909650945060808b0135915080821115610daf578384fd5b50610dbc8b828c01610cb2565b999c989b5096995094979396929594505050565b60008060008060008060a08789031215610de8578182fd5b8635610df381610fb5565b95506020870135610e0381610fb5565b94506040870135935060608701359250608087013567ffffffffffffffff811115610e2c578283fd5b610e3889828a01610cb2565b979a9699509497509295939492505050565b600060208284031215610e5b578081fd5b81356001600160e01b031981168114610d0e578182fd5b600060208284031215610e83578081fd5b8135610d0e81610fb5565b600060208284031215610e9f578081fd5b5035919050565b600060208284031215610eb7578081fd5b5051919050565b60008060408385031215610ed0578182fd5b50508035926020909101359150565b6001600160a01b0394851681529290931660208301526040820152606081019190915260a06080820181905260029082015261060f60f31b60c082015260e00190565b60ff949094168452602084019290925260408301526001600160a01b0316606082015260800190565b60208082526027908201527f546865726520617265206e6f206f70656e206f726465727320666f72207468616040820152663a103a37b5b2b760c91b606082015260800190565b600082821015610fb057634e487b7160e01b81526011600452602481fd5b500390565b6001600160a01b0381168114610fca57600080fd5b5056feed7df9b19c89074aceb4d21f08acad438f9c4889ec2bcde9c2c24a8f0c6e810ca264697066735822122054846dfa89eafc599c34db29a327cf9a19965892daed53a6f22779054b53486364736f6c63430008030033",
  "immutableReferences": {},
  "source": "// SPDX-License-Identifier: MIT\npragma solidity ^0.8.3;\n\nimport \"../node_modules/@openzeppelin/contracts-upgradeable/token/ERC1155/utils/ERC1155ReceiverUpgradeable.sol\";\nimport \"../node_modules/@openzeppelin/contracts-upgradeable/utils/ContextUpgradeable.sol\";\nimport \"../node_modules/@openzeppelin/contracts-upgradeable/proxy/utils/Initializable.sol\";\nimport \"./Topx.sol\";\n\nstruct Order {\n  address seller;\n  uint256 price;\n}\n\ncontract Marketplace is Initializable, ContextUpgradeable, ERC1155ReceiverUpgradeable {\n\n  Topx public topxInstance;\n\n  mapping(uint256 => Order) public market;\n\n  event OrderCreated(\n    address seller,\n    uint256 tokenId,\n    uint256 price\n  );\n\n  event OrderBought(\n    address account,\n    uint256 tokenId\n  );\n\n  event OrderCanceled(\n    uint256 tokenId\n  );\n\n  function initialize(Topx _topxInstance) public initializer {\n    topxInstance = _topxInstance;\n  }\n\n  event MarketplaceEthTransfer(uint8 _action, uint256 _tokenId, uint256 _amount, address _account);\n  \n  function buyOrder(uint256 tokenId) public payable {\n    require(market[tokenId].seller != address(0x0), \"There are no open orders for that token\");\n    Order memory order = market[tokenId];\n    require(msg.value >= order.price);\n    uint256 creatorRoyalty = topxInstance.getCreatorRoyaltyFromAmountForTokenId(tokenId, msg.value);\n    address creator = topxInstance.getCreatorAddressForTokenId(tokenId);\n    uint256 artistRoyalty = topxInstance.getArtistRoyaltyFromAmountForTokenId(tokenId, msg.value);\n    address artist = topxInstance.getArtistForTokenId(tokenId);\n    if (artistRoyalty > 0 && artist != address(0x0)) {\n      payable(artist).transfer(artistRoyalty);\n      payable(creator).transfer(creatorRoyalty);\n      payable(market[tokenId].seller).transfer(msg.value-artistRoyalty-creatorRoyalty);\n      emit MarketplaceEthTransfer(1, tokenId, creatorRoyalty, creator);\n      emit MarketplaceEthTransfer(2, tokenId, artistRoyalty, artist);\n      emit MarketplaceEthTransfer(3, tokenId, msg.value-artistRoyalty-creatorRoyalty, market[tokenId].seller);\n    } else {\n      payable(creator).transfer(creatorRoyalty);\n      payable(market[tokenId].seller).transfer(msg.value-creatorRoyalty);\n      emit MarketplaceEthTransfer(1, tokenId, creatorRoyalty, creator);\n      emit MarketplaceEthTransfer(3, tokenId, msg.value-creatorRoyalty, market[tokenId].seller);\n    }\n    topxInstance.safeTransferFrom(address(this), _msgSender(), tokenId, 1, '0x');\n    emit OrderBought(_msgSender(), tokenId);\n  }\n\n  function cancelOrder(uint256 tokenId) public {\n    require(market[tokenId].seller != address(0x0), \"There are no open orders for that token\");\n    Order memory order = market[tokenId];\n    require(order.seller == _msgSender());\n    topxInstance.safeTransferFrom(address(this), _msgSender(), tokenId, 1, '0x');\n    emit OrderCanceled(tokenId);\n  }\n\n  function addOrder(uint256 tokenId, uint256 price) public {\n    require(market[tokenId].seller == address(0x0), \"There already is an open order for that token\");\n    topxInstance.safeTransferFrom(_msgSender(), address(this), tokenId, 1, '0x');\n    market[tokenId] = Order(_msgSender(), price);\n    emit OrderCreated(_msgSender(), tokenId, price);\n  }\n\n  function getOrder(uint256 tokenId) public view returns ( address, uint256 ) {\n    require(market[tokenId].seller != address(0x0), \"There are no open orders for that token\");\n    Order memory order = market[tokenId];\n    return (order.seller, order.price);\n  }\n\n  function onERC1155Received(\n    address operator,\n    address from,\n    uint256 id,\n    uint256 value,\n    bytes calldata data\n  ) external override pure returns (bytes4) {\n    return (\n      bytes4(\n        keccak256(\n          \"onERC1155Received(address,address,uint256,uint256,bytes)\"\n        )\n      )\n    );\n  }\n\n  function onERC1155BatchReceived(\n    address operator,\n    address from,\n    uint256[] calldata ids,\n    uint256[] calldata values,\n    bytes calldata data\n  ) external override pure returns (bytes4) {\n    revert();\n    return \"\";\n  }   \n}",
  "sourcePath": "/Users/jernejpregelj/dev/markeljc/trill/smartcontracts/contracts/Marketplace.sol",
  "compiler": {
    "name": "solc",
    "version": "0.8.3+commit.8d00100c.Emscripten.clang"
  },
  "schemaVersion": "3.3.4",
  "updatedAt": "2021-05-27T14:41:37.957Z",
  "networkType": "ethereum",
  "devdoc": {
    "kind": "dev",
    "methods": {
      "onERC1155BatchReceived(address,address,uint256[],uint256[],bytes)": {
        "details": "Handles the receipt of a multiple ERC1155 token types. This function is called at the end of a `safeBatchTransferFrom` after the balances have been updated. To accept the transfer(s), this must return `bytes4(keccak256(\"onERC1155BatchReceived(address,address,uint256[],uint256[],bytes)\"))` (i.e. 0xbc197c81, or its own function selector).",
        "params": {
          "data": "Additional data with no specified format",
          "from": "The address which previously owned the token",
          "ids": "An array containing ids of each token being transferred (order and length must match values array)",
          "operator": "The address which initiated the batch transfer (i.e. msg.sender)",
          "values": "An array containing amounts of each token being transferred (order and length must match ids array)"
        },
        "returns": {
          "_0": "`bytes4(keccak256(\"onERC1155BatchReceived(address,address,uint256[],uint256[],bytes)\"))` if transfer is allowed"
        }
      },
      "onERC1155Received(address,address,uint256,uint256,bytes)": {
        "details": "Handles the receipt of a single ERC1155 token type. This function is called at the end of a `safeTransferFrom` after the balance has been updated. To accept the transfer, this must return `bytes4(keccak256(\"onERC1155Received(address,address,uint256,uint256,bytes)\"))` (i.e. 0xf23a6e61, or its own function selector).",
        "params": {
          "data": "Additional data with no specified format",
          "from": "The address which previously owned the token",
          "id": "The ID of the token being transferred",
          "operator": "The address which initiated the transfer (i.e. msg.sender)",
          "value": "The amount of tokens being transferred"
        },
        "returns": {
          "_0": "`bytes4(keccak256(\"onERC1155Received(address,address,uint256,uint256,bytes)\"))` if transfer is allowed"
        }
      },
      "supportsInterface(bytes4)": {
        "details": "See {IERC165-supportsInterface}."
      }
    },
    "version": 1
  },
  "userdoc": {
    "kind": "user",
    "methods": {},
    "version": 1
  }
}