{
  "contractName": "Topx",
  "abi": [
    {
      "anonymous": false,
      "inputs": [
        {
          "indexed": true,
          "internalType": "address",
          "name": "account",
          "type": "address"
        },
        {
          "indexed": true,
          "internalType": "address",
          "name": "operator",
          "type": "address"
        },
        {
          "indexed": false,
          "internalType": "bool",
          "name": "approved",
          "type": "bool"
        }
      ],
      "name": "ApprovalForAll",
      "type": "event"
    },
    {
      "anonymous": false,
      "inputs": [
        {
          "indexed": false,
          "internalType": "uint8",
          "name": "_action",
          "type": "uint8"
        },
        {
          "indexed": false,
          "internalType": "uint256",
          "name": "_tokenId",
          "type": "uint256"
        },
        {
          "indexed": false,
          "internalType": "uint256",
          "name": "_amount",
          "type": "uint256"
        },
        {
          "indexed": false,
          "internalType": "address",
          "name": "_account",
          "type": "address"
        }
      ],
      "name": "EthTopxTransfer",
      "type": "event"
    },
    {
      "anonymous": false,
      "inputs": [
        {
          "indexed": false,
          "internalType": "address",
          "name": "account",
          "type": "address"
        }
      ],
      "name": "Paused",
      "type": "event"
    },
    {
      "anonymous": false,
      "inputs": [
        {
          "indexed": true,
          "internalType": "bytes32",
          "name": "role",
          "type": "bytes32"
        },
        {
          "indexed": true,
          "internalType": "bytes32",
          "name": "previousAdminRole",
          "type": "bytes32"
        },
        {
          "indexed": true,
          "internalType": "bytes32",
          "name": "newAdminRole",
          "type": "bytes32"
        }
      ],
      "name": "RoleAdminChanged",
      "type": "event"
    },
    {
      "anonymous": false,
      "inputs": [
        {
          "indexed": true,
          "internalType": "bytes32",
          "name": "role",
          "type": "bytes32"
        },
        {
          "indexed": true,
          "internalType": "address",
          "name": "account",
          "type": "address"
        },
        {
          "indexed": true,
          "internalType": "address",
          "name": "sender",
          "type": "address"
        }
      ],
      "name": "RoleGranted",
      "type": "event"
    },
    {
      "anonymous": false,
      "inputs": [
        {
          "indexed": true,
          "internalType": "bytes32",
          "name": "role",
          "type": "bytes32"
        },
        {
          "indexed": true,
          "internalType": "address",
          "name": "account",
          "type": "address"
        },
        {
          "indexed": true,
          "internalType": "address",
          "name": "sender",
          "type": "address"
        }
      ],
      "name": "RoleRevoked",
      "type": "event"
    },
    {
      "anonymous": false,
      "inputs": [
        {
          "indexed": true,
          "internalType": "address",
          "name": "operator",
          "type": "address"
        },
        {
          "indexed": true,
          "internalType": "address",
          "name": "from",
          "type": "address"
        },
        {
          "indexed": true,
          "internalType": "address",
          "name": "to",
          "type": "address"
        },
        {
          "indexed": false,
          "internalType": "uint256[]",
          "name": "ids",
          "type": "uint256[]"
        },
        {
          "indexed": false,
          "internalType": "uint256[]",
          "name": "values",
          "type": "uint256[]"
        }
      ],
      "name": "TransferBatch",
      "type": "event"
    },
    {
      "anonymous": false,
      "inputs": [
        {
          "indexed": true,
          "internalType": "address",
          "name": "operator",
          "type": "address"
        },
        {
          "indexed": true,
          "internalType": "address",
          "name": "from",
          "type": "address"
        },
        {
          "indexed": true,
          "internalType": "address",
          "name": "to",
          "type": "address"
        },
        {
          "indexed": false,
          "internalType": "uint256",
          "name": "id",
          "type": "uint256"
        },
        {
          "indexed": false,
          "internalType": "uint256",
          "name": "value",
          "type": "uint256"
        }
      ],
      "name": "TransferSingle",
      "type": "event"
    },
    {
      "anonymous": false,
      "inputs": [
        {
          "indexed": false,
          "internalType": "string",
          "name": "value",
          "type": "string"
        },
        {
          "indexed": true,
          "internalType": "uint256",
          "name": "id",
          "type": "uint256"
        }
      ],
      "name": "URI",
      "type": "event"
    },
    {
      "anonymous": false,
      "inputs": [
        {
          "indexed": false,
          "internalType": "address",
          "name": "account",
          "type": "address"
        }
      ],
      "name": "Unpaused",
      "type": "event"
    },
    {
      "anonymous": false,
      "inputs": [
        {
          "indexed": false,
          "internalType": "uint256",
          "name": "_packid",
          "type": "uint256"
        },
        {
          "indexed": false,
          "internalType": "uint256",
          "name": "_from",
          "type": "uint256"
        },
        {
          "indexed": false,
          "internalType": "uint256",
          "name": "_to",
          "type": "uint256"
        },
        {
          "indexed": false,
          "internalType": "uint256",
          "name": "_price",
          "type": "uint256"
        },
        {
          "indexed": false,
          "internalType": "uint256",
          "name": "_supply",
          "type": "uint256"
        }
      ],
      "name": "addLootBox",
      "type": "event"
    },
    {
      "anonymous": false,
      "inputs": [
        {
          "indexed": false,
          "internalType": "uint256",
          "name": "_itemid",
          "type": "uint256"
        },
        {
          "indexed": false,
          "internalType": "uint256",
          "name": "_packid",
          "type": "uint256"
        },
        {
          "indexed": false,
          "internalType": "uint256",
          "name": "_from",
          "type": "uint256"
        },
        {
          "indexed": false,
          "internalType": "uint256",
          "name": "_to",
          "type": "uint256"
        },
        {
          "indexed": false,
          "internalType": "uint256",
          "name": "_supply",
          "type": "uint256"
        }
      ],
      "name": "addLootBoxItem",
      "type": "event"
    },
    {
      "anonymous": false,
      "inputs": [
        {
          "indexed": false,
          "internalType": "uint256",
          "name": "_id",
          "type": "uint256"
        },
        {
          "indexed": false,
          "internalType": "address",
          "name": "_account",
          "type": "address"
        },
        {
          "indexed": false,
          "internalType": "uint256",
          "name": "_tokenId",
          "type": "uint256"
        }
      ],
      "name": "mintItem",
      "type": "event"
    },
    {
      "anonymous": false,
      "inputs": [
        {
          "indexed": false,
          "internalType": "uint256",
          "name": "_id",
          "type": "uint256"
        },
        {
          "indexed": false,
          "internalType": "address",
          "name": "_account",
          "type": "address"
        },
        {
          "indexed": false,
          "internalType": "uint256",
          "name": "_tokenId",
          "type": "uint256"
        },
        {
          "indexed": false,
          "internalType": "uint256",
          "name": "_count",
          "type": "uint256"
        }
      ],
      "name": "mintLootBox",
      "type": "event"
    },
    {
      "inputs": [],
      "name": "DEFAULT_ADMIN_ROLE",
      "outputs": [
        {
          "internalType": "bytes32",
          "name": "",
          "type": "bytes32"
        }
      ],
      "stateMutability": "view",
      "type": "function",
      "constant": true
    },
    {
      "inputs": [],
      "name": "MINTER_ROLE",
      "outputs": [
        {
          "internalType": "bytes32",
          "name": "",
          "type": "bytes32"
        }
      ],
      "stateMutability": "view",
      "type": "function",
      "constant": true
    },
    {
      "inputs": [
        {
          "internalType": "address",
          "name": "account",
          "type": "address"
        },
        {
          "internalType": "uint256",
          "name": "id",
          "type": "uint256"
        }
      ],
      "name": "balanceOf",
      "outputs": [
        {
          "internalType": "uint256",
          "name": "",
          "type": "uint256"
        }
      ],
      "stateMutability": "view",
      "type": "function",
      "constant": true
    },
    {
      "inputs": [
        {
          "internalType": "address[]",
          "name": "accounts",
          "type": "address[]"
        },
        {
          "internalType": "uint256[]",
          "name": "ids",
          "type": "uint256[]"
        }
      ],
      "name": "balanceOfBatch",
      "outputs": [
        {
          "internalType": "uint256[]",
          "name": "",
          "type": "uint256[]"
        }
      ],
      "stateMutability": "view",
      "type": "function",
      "constant": true
    },
    {
      "inputs": [
        {
          "internalType": "address",
          "name": "account",
          "type": "address"
        },
        {
          "internalType": "uint256",
          "name": "id",
          "type": "uint256"
        },
        {
          "internalType": "uint256",
          "name": "value",
          "type": "uint256"
        }
      ],
      "name": "burn",
      "outputs": [],
      "stateMutability": "nonpayable",
      "type": "function"
    },
    {
      "inputs": [
        {
          "internalType": "address",
          "name": "account",
          "type": "address"
        },
        {
          "internalType": "uint256[]",
          "name": "ids",
          "type": "uint256[]"
        },
        {
          "internalType": "uint256[]",
          "name": "values",
          "type": "uint256[]"
        }
      ],
      "name": "burnBatch",
      "outputs": [],
      "stateMutability": "nonpayable",
      "type": "function"
    },
    {
      "inputs": [
        {
          "internalType": "bytes32",
          "name": "role",
          "type": "bytes32"
        }
      ],
      "name": "getRoleAdmin",
      "outputs": [
        {
          "internalType": "bytes32",
          "name": "",
          "type": "bytes32"
        }
      ],
      "stateMutability": "view",
      "type": "function",
      "constant": true
    },
    {
      "inputs": [
        {
          "internalType": "bytes32",
          "name": "role",
          "type": "bytes32"
        },
        {
          "internalType": "uint256",
          "name": "index",
          "type": "uint256"
        }
      ],
      "name": "getRoleMember",
      "outputs": [
        {
          "internalType": "address",
          "name": "",
          "type": "address"
        }
      ],
      "stateMutability": "view",
      "type": "function",
      "constant": true
    },
    {
      "inputs": [
        {
          "internalType": "bytes32",
          "name": "role",
          "type": "bytes32"
        }
      ],
      "name": "getRoleMemberCount",
      "outputs": [
        {
          "internalType": "uint256",
          "name": "",
          "type": "uint256"
        }
      ],
      "stateMutability": "view",
      "type": "function",
      "constant": true
    },
    {
      "inputs": [
        {
          "internalType": "bytes32",
          "name": "role",
          "type": "bytes32"
        },
        {
          "internalType": "address",
          "name": "account",
          "type": "address"
        }
      ],
      "name": "grantRole",
      "outputs": [],
      "stateMutability": "nonpayable",
      "type": "function"
    },
    {
      "inputs": [
        {
          "internalType": "bytes32",
          "name": "role",
          "type": "bytes32"
        },
        {
          "internalType": "address",
          "name": "account",
          "type": "address"
        }
      ],
      "name": "hasRole",
      "outputs": [
        {
          "internalType": "bool",
          "name": "",
          "type": "bool"
        }
      ],
      "stateMutability": "view",
      "type": "function",
      "constant": true
    },
    {
      "inputs": [
        {
          "internalType": "address",
          "name": "account",
          "type": "address"
        },
        {
          "internalType": "address",
          "name": "operator",
          "type": "address"
        }
      ],
      "name": "isApprovedForAll",
      "outputs": [
        {
          "internalType": "bool",
          "name": "",
          "type": "bool"
        }
      ],
      "stateMutability": "view",
      "type": "function",
      "constant": true
    },
    {
      "inputs": [
        {
          "internalType": "uint256",
          "name": "",
          "type": "uint256"
        }
      ],
      "name": "lootBoxItems",
      "outputs": [
        {
          "internalType": "uint256",
          "name": "index",
          "type": "uint256"
        },
        {
          "internalType": "uint256",
          "name": "lootBoxIndex",
          "type": "uint256"
        },
        {
          "internalType": "uint256",
          "name": "fromId",
          "type": "uint256"
        },
        {
          "internalType": "uint256",
          "name": "toId",
          "type": "uint256"
        },
        {
          "internalType": "uint256",
          "name": "count",
          "type": "uint256"
        },
        {
          "internalType": "uint256",
          "name": "supply",
          "type": "uint256"
        },
        {
          "internalType": "address",
          "name": "artist",
          "type": "address"
        },
        {
          "internalType": "uint256",
          "name": "artistRoyalty",
          "type": "uint256"
        }
      ],
      "stateMutability": "view",
      "type": "function",
      "constant": true
    },
    {
      "inputs": [
        {
          "internalType": "uint256",
          "name": "",
          "type": "uint256"
        }
      ],
      "name": "lootBoxes",
      "outputs": [
        {
          "internalType": "uint256",
          "name": "index",
          "type": "uint256"
        },
        {
          "internalType": "uint256",
          "name": "fromId",
          "type": "uint256"
        },
        {
          "internalType": "uint256",
          "name": "toId",
          "type": "uint256"
        },
        {
          "internalType": "uint256",
          "name": "count",
          "type": "uint256"
        },
        {
          "internalType": "uint256",
          "name": "supply",
          "type": "uint256"
        },
        {
          "internalType": "address",
          "name": "seller",
          "type": "address"
        },
        {
          "internalType": "address",
          "name": "creator",
          "type": "address"
        },
        {
          "internalType": "uint256",
          "name": "creatorRoyalty",
          "type": "uint256"
        },
        {
          "internalType": "uint256",
          "name": "price",
          "type": "uint256"
        },
        {
          "internalType": "uint256",
          "name": "release",
          "type": "uint256"
        },
        {
          "internalType": "uint256",
          "name": "dropRate",
          "type": "uint256"
        }
      ],
      "stateMutability": "view",
      "type": "function",
      "constant": true
    },
    {
      "inputs": [],
      "name": "pause",
      "outputs": [],
      "stateMutability": "nonpayable",
      "type": "function"
    },
    {
      "inputs": [],
      "name": "paused",
      "outputs": [
        {
          "internalType": "bool",
          "name": "",
          "type": "bool"
        }
      ],
      "stateMutability": "view",
      "type": "function",
      "constant": true
    },
    {
      "inputs": [
        {
          "internalType": "bytes32",
          "name": "role",
          "type": "bytes32"
        },
        {
          "internalType": "address",
          "name": "account",
          "type": "address"
        }
      ],
      "name": "renounceRole",
      "outputs": [],
      "stateMutability": "nonpayable",
      "type": "function"
    },
    {
      "inputs": [
        {
          "internalType": "bytes32",
          "name": "role",
          "type": "bytes32"
        },
        {
          "internalType": "address",
          "name": "account",
          "type": "address"
        }
      ],
      "name": "revokeRole",
      "outputs": [],
      "stateMutability": "nonpayable",
      "type": "function"
    },
    {
      "inputs": [
        {
          "internalType": "address",
          "name": "from",
          "type": "address"
        },
        {
          "internalType": "address",
          "name": "to",
          "type": "address"
        },
        {
          "internalType": "uint256[]",
          "name": "ids",
          "type": "uint256[]"
        },
        {
          "internalType": "uint256[]",
          "name": "amounts",
          "type": "uint256[]"
        },
        {
          "internalType": "bytes",
          "name": "data",
          "type": "bytes"
        }
      ],
      "name": "safeBatchTransferFrom",
      "outputs": [],
      "stateMutability": "nonpayable",
      "type": "function"
    },
    {
      "inputs": [
        {
          "internalType": "address",
          "name": "from",
          "type": "address"
        },
        {
          "internalType": "address",
          "name": "to",
          "type": "address"
        },
        {
          "internalType": "uint256",
          "name": "id",
          "type": "uint256"
        },
        {
          "internalType": "uint256",
          "name": "amount",
          "type": "uint256"
        },
        {
          "internalType": "bytes",
          "name": "data",
          "type": "bytes"
        }
      ],
      "name": "safeTransferFrom",
      "outputs": [],
      "stateMutability": "nonpayable",
      "type": "function"
    },
    {
      "inputs": [
        {
          "internalType": "address",
          "name": "operator",
          "type": "address"
        },
        {
          "internalType": "bool",
          "name": "approved",
          "type": "bool"
        }
      ],
      "name": "setApprovalForAll",
      "outputs": [],
      "stateMutability": "nonpayable",
      "type": "function"
    },
    {
      "inputs": [
        {
          "internalType": "bytes4",
          "name": "interfaceId",
          "type": "bytes4"
        }
      ],
      "name": "supportsInterface",
      "outputs": [
        {
          "internalType": "bool",
          "name": "",
          "type": "bool"
        }
      ],
      "stateMutability": "view",
      "type": "function",
      "constant": true
    },
    {
      "inputs": [
        {
          "internalType": "uint256",
          "name": "",
          "type": "uint256"
        }
      ],
      "name": "tokenIdToLootBoxIndex",
      "outputs": [
        {
          "internalType": "uint256",
          "name": "",
          "type": "uint256"
        }
      ],
      "stateMutability": "view",
      "type": "function",
      "constant": true
    },
    {
      "inputs": [
        {
          "internalType": "uint256",
          "name": "",
          "type": "uint256"
        }
      ],
      "name": "tokenIdToLootBoxItemsIndex",
      "outputs": [
        {
          "internalType": "uint256",
          "name": "",
          "type": "uint256"
        }
      ],
      "stateMutability": "view",
      "type": "function",
      "constant": true
    },
    {
      "inputs": [
        {
          "internalType": "uint256",
          "name": "",
          "type": "uint256"
        }
      ],
      "name": "tokenIdType",
      "outputs": [
        {
          "internalType": "uint8",
          "name": "",
          "type": "uint8"
        }
      ],
      "stateMutability": "view",
      "type": "function",
      "constant": true
    },
    {
      "inputs": [],
      "name": "unpause",
      "outputs": [],
      "stateMutability": "nonpayable",
      "type": "function"
    },
    {
      "inputs": [
        {
          "internalType": "uint256",
          "name": "",
          "type": "uint256"
        }
      ],
      "name": "uri",
      "outputs": [
        {
          "internalType": "string",
          "name": "",
          "type": "string"
        }
      ],
      "stateMutability": "view",
      "type": "function",
      "constant": true
    },
    {
      "inputs": [
        {
          "internalType": "string",
          "name": "_uri",
          "type": "string"
        },
        {
          "internalType": "address",
          "name": "_minter",
          "type": "address"
        }
      ],
      "name": "initialize",
      "outputs": [],
      "stateMutability": "nonpayable",
      "type": "function"
    },
    {
      "inputs": [
        {
          "components": [
            {
              "internalType": "uint256",
              "name": "index",
              "type": "uint256"
            },
            {
              "internalType": "uint256",
              "name": "fromId",
              "type": "uint256"
            },
            {
              "internalType": "uint256",
              "name": "toId",
              "type": "uint256"
            },
            {
              "internalType": "uint256",
              "name": "count",
              "type": "uint256"
            },
            {
              "internalType": "uint256",
              "name": "supply",
              "type": "uint256"
            },
            {
              "internalType": "address",
              "name": "seller",
              "type": "address"
            },
            {
              "internalType": "address",
              "name": "creator",
              "type": "address"
            },
            {
              "internalType": "uint256",
              "name": "creatorRoyalty",
              "type": "uint256"
            },
            {
              "internalType": "uint256",
              "name": "price",
              "type": "uint256"
            },
            {
              "internalType": "uint256[]",
              "name": "lootBoxItemsIndex",
              "type": "uint256[]"
            },
            {
              "internalType": "uint256",
              "name": "release",
              "type": "uint256"
            },
            {
              "internalType": "uint256",
              "name": "dropRate",
              "type": "uint256"
            }
          ],
          "internalType": "struct LootBox",
          "name": "_lootBox",
          "type": "tuple"
        },
        {
          "components": [
            {
              "internalType": "uint256",
              "name": "index",
              "type": "uint256"
            },
            {
              "internalType": "uint256",
              "name": "lootBoxIndex",
              "type": "uint256"
            },
            {
              "internalType": "uint256",
              "name": "fromId",
              "type": "uint256"
            },
            {
              "internalType": "uint256",
              "name": "toId",
              "type": "uint256"
            },
            {
              "internalType": "uint256",
              "name": "count",
              "type": "uint256"
            },
            {
              "internalType": "uint256",
              "name": "supply",
              "type": "uint256"
            },
            {
              "internalType": "address",
              "name": "artist",
              "type": "address"
            },
            {
              "internalType": "uint256",
              "name": "artistRoyalty",
              "type": "uint256"
            }
          ],
          "internalType": "struct LootBoxItem[]",
          "name": "_lootBoxItems",
          "type": "tuple[]"
        }
      ],
      "name": "addLootBoxes",
      "outputs": [],
      "stateMutability": "nonpayable",
      "type": "function"
    },
    {
      "inputs": [
        {
          "internalType": "uint256",
          "name": "lootBoxIndex",
          "type": "uint256"
        }
      ],
      "name": "buyLootBox",
      "outputs": [
        {
          "internalType": "uint256",
          "name": "",
          "type": "uint256"
        }
      ],
      "stateMutability": "payable",
      "type": "function",
      "payable": true
    },
    {
      "inputs": [
        {
          "internalType": "uint256",
          "name": "tokenId",
          "type": "uint256"
        }
      ],
      "name": "openLootBox",
      "outputs": [
        {
          "internalType": "uint256[]",
          "name": "",
          "type": "uint256[]"
        }
      ],
      "stateMutability": "nonpayable",
      "type": "function"
    },
    {
      "inputs": [
        {
          "internalType": "uint256",
          "name": "lootBoxIndex",
          "type": "uint256"
        }
      ],
      "name": "buyAndOpenLootBox",
      "outputs": [
        {
          "internalType": "uint256[]",
          "name": "",
          "type": "uint256[]"
        }
      ],
      "stateMutability": "payable",
      "type": "function",
      "payable": true
    },
    {
      "inputs": [
        {
          "internalType": "uint256",
          "name": "tokenId",
          "type": "uint256"
        },
        {
          "internalType": "uint256",
          "name": "amount",
          "type": "uint256"
        }
      ],
      "name": "getCreatorRoyaltyFromAmountForTokenId",
      "outputs": [
        {
          "internalType": "uint256",
          "name": "",
          "type": "uint256"
        }
      ],
      "stateMutability": "view",
      "type": "function",
      "constant": true
    },
    {
      "inputs": [
        {
          "internalType": "uint256",
          "name": "tokenId",
          "type": "uint256"
        }
      ],
      "name": "getCreatorAddressForTokenId",
      "outputs": [
        {
          "internalType": "address",
          "name": "",
          "type": "address"
        }
      ],
      "stateMutability": "view",
      "type": "function",
      "constant": true
    },
    {
      "inputs": [
        {
          "internalType": "uint256",
          "name": "tokenId",
          "type": "uint256"
        },
        {
          "internalType": "uint256",
          "name": "amount",
          "type": "uint256"
        }
      ],
      "name": "getArtistRoyaltyFromAmountForTokenId",
      "outputs": [
        {
          "internalType": "uint256",
          "name": "",
          "type": "uint256"
        }
      ],
      "stateMutability": "view",
      "type": "function",
      "constant": true
    },
    {
      "inputs": [
        {
          "internalType": "uint256",
          "name": "tokenId",
          "type": "uint256"
        }
      ],
      "name": "getArtistForTokenId",
      "outputs": [
        {
          "internalType": "address",
          "name": "",
          "type": "address"
        }
      ],
      "stateMutability": "view",
      "type": "function",
      "constant": true
    },
    {
      "inputs": [
        {
          "internalType": "uint256",
          "name": "x",
          "type": "uint256"
        },
        {
          "internalType": "uint256",
          "name": "y",
          "type": "uint256"
        }
      ],
      "name": "mulDiv",
      "outputs": [
        {
          "internalType": "uint256",
          "name": "",
          "type": "uint256"
        }
      ],
      "stateMutability": "pure",
      "type": "function",
      "constant": true
    }
  ],
  "bytecode": "0x608060405234801561001057600080fd5b50613f81806100206000396000f3fe6080604052600436106102195760003560e01c8063780bfe5411610123578063b95f71de116100ab578063e6b9d9871161006f578063e6b9d9871461075c578063e985e9c51461076f578063ec399b97146107b8578063f242432a14610867578063f5298aca1461088757610219565b8063b95f71de146105eb578063ca15c873146106c8578063d5391393146106e8578063d547741f1461071c578063e43972ac1461073c57610219565b806391d14854116100f257806391d1485414610556578063a1c26ec614610576578063a217fddf14610596578063a22cb465146105ab578063b8e99cc0146105cb57610219565b8063780bfe54146104d35780637ab4339d146105015780638456cb59146105215780639010d07c1461053657610219565b80634a6ca015116101a65780635c975abb116101755780635c975abb146104035780635e49b9f814610418578063666d8493146104505780636b20c454146104705780636f2829ba1461049057610219565b80634a6ca015146103755780634e1273f4146103a357806352bcd0ef146103d057806355a02c2d146103e357610219565b80632eb2c2d6116101ed5780632eb2c2d6146102de5780632f2ff15d1461030057806336568abe146103205780633f4ba83a1461034057806347dbc53b1461035557610219565b8062fdd58e1461021e57806301ffc9a7146102515780630e89341c14610281578063248a9ca3146102ae575b600080fd5b34801561022a57600080fd5b5061023e6102393660046135be565b6108a7565b6040519081526020015b60405180910390f35b34801561025d57600080fd5b5061027161026c36600461373e565b610943565b6040519015158152602001610248565b34801561028d57600080fd5b506102a161029c3660046136e3565b610956565b6040516102489190613a8c565b3480156102ba57600080fd5b5061023e6102c93660046136e3565b60009081526065602052604090206001015490565b3480156102ea57600080fd5b506102fe6102f936600461340d565b6109ea565b005b34801561030c57600080fd5b506102fe61031b3660046136fb565b610c81565b34801561032c57600080fd5b506102fe61033b3660046136fb565b610ca8565b34801561034c57600080fd5b506102fe610cca565b34801561036157600080fd5b506102fe6103703660046137cb565b610d41565b34801561038157600080fd5b5061023e6103903660046136e3565b6101c66020526000908152604090205481565b3480156103af57600080fd5b506103c36103be366004613619565b610fee565b6040516102489190613a4b565b6103c36103de3660046136e3565b61114f565b3480156103ef57600080fd5b506103c36103fe3660046136e3565b611171565b34801561040f57600080fd5b506102716114cd565b34801561042457600080fd5b506104386104333660046136e3565b6114d8565b6040516001600160a01b039091168152602001610248565b34801561045c57600080fd5b5061023e61046b36600461371d565b611528565b34801561047c57600080fd5b506102fe61048b366004613514565b61157e565b34801561049c57600080fd5b506104c16104ab3660046136e3565b6101c86020526000908152604090205460ff1681565b60405160ff9091168152602001610248565b3480156104df57600080fd5b5061023e6104ee3660046136e3565b6101c76020526000908152604090205481565b34801561050d57600080fd5b506102fe61051c366004613776565b6115c1565b34801561052d57600080fd5b506102fe611638565b34801561054257600080fd5b5061043861055136600461371d565b6116ab565b34801561056257600080fd5b506102716105713660046136fb565b6116c3565b34801561058257600080fd5b5061023e61059136600461371d565b6116ee565b3480156105a257600080fd5b5061023e600081565b3480156105b757600080fd5b506102fe6105c6366004613584565b61179a565b3480156105d757600080fd5b506104386105e63660046136e3565b61187e565b3480156105f757600080fd5b5061066c6106063660046136e3565b6101c4602052600090815260409020805460018201546002830154600384015460048501546005860154600687015460078801546008890154600a8a0154600b909a0154989997989697959694956001600160a01b03948516959490931693919290918b565b604080519b8c5260208c019a909a52988a0197909752606089019590955260808801939093526001600160a01b0391821660a08801521660c086015260e085015261010084015261012083015261014082015261016001610248565b3480156106d457600080fd5b5061023e6106e33660046136e3565b611929565b3480156106f457600080fd5b5061023e7f9f2df0fed2c77648de5860a4cc508cd0818c85b8b8a1ab4ceeef8d981c8956a681565b34801561072857600080fd5b506102fe6107373660046136fb565b611940565b34801561074857600080fd5b5061023e61075736600461371d565b61194a565b61023e61076a3660046136e3565b6119ee565b34801561077b57600080fd5b5061027161078a3660046133db565b6001600160a01b03918216600090815260ca6020908152604080832093909416825291909152205460ff1690565b3480156107c457600080fd5b506108236107d33660046136e3565b6101c560205260009081526040902080546001820154600283015460038401546004850154600586015460068701546007909701549596949593949293919290916001600160a01b039091169088565b604080519889526020890197909752958701949094526060860192909252608085015260a08401526001600160a01b031660c083015260e082015261010001610248565b34801561087357600080fd5b506102fe6108823660046134b2565b611d9e565b34801561089357600080fd5b506102fe6108a23660046135e7565b611f0f565b60006001600160a01b0383166109185760405162461bcd60e51b815260206004820152602b60248201527f455243313135353a2062616c616e636520717565727920666f7220746865207a60448201526a65726f206164647265737360a81b60648201526084015b60405180910390fd5b50600081815260c9602090815260408083206001600160a01b03861684529091529020545b92915050565b600061094e82611f52565b90505b919050565b606060cb805461096590613db5565b80601f016020809104026020016040519081016040528092919081815260200182805461099190613db5565b80156109de5780601f106109b3576101008083540402835291602001916109de565b820191906000526020600020905b8154815290600101906020018083116109c157829003601f168201915b50505050509050919050565b8151835114610a0b5760405162461bcd60e51b815260040161090f90613c94565b6001600160a01b038416610a315760405162461bcd60e51b815260040161090f90613b74565b6001600160a01b038516331480610a4d5750610a4d853361078a565b610ab45760405162461bcd60e51b815260206004820152603260248201527f455243313135353a207472616e736665722063616c6c6572206973206e6f74206044820152711bdddb995c881b9bdc88185c1c1c9bdd995960721b606482015260840161090f565b33610ac3818787878787611f92565b60005b8451811015610c13576000858281518110610af157634e487b7160e01b600052603260045260246000fd5b602002602001015190506000858381518110610b1d57634e487b7160e01b600052603260045260246000fd5b602090810291909101810151600084815260c9835260408082206001600160a01b038e168352909352919091205490915081811015610b6e5760405162461bcd60e51b815260040161090f90613c4a565b610b788282613d57565b60c9600085815260200190815260200160002060008c6001600160a01b03166001600160a01b03168152602001908152602001600020819055508160c9600085815260200190815260200160002060008b6001600160a01b03166001600160a01b031681526020019081526020016000206000828254610bf89190613d0c565b9250508190555050505080610c0c90613e1c565b9050610ac6565b50846001600160a01b0316866001600160a01b0316826001600160a01b03167f4a39dc06d4c0dbc64b70af90fd698a233a518aa5d07e595d983b8c0526c8f7fb8787604051610c63929190613a5e565b60405180910390a4610c79818787878787611fa0565b505050505050565b610c8b828261210b565b6000828152609760205260409020610ca39082612132565b505050565b610cb28282612147565b6000828152609760205260409020610ca390826121c5565b610cd5600033610571565b610d375760405162461bcd60e51b815260206004820152602d60248201527f45524331313535546f6b656e3a206d75737420686176652061646d696e20726f60448201526c6c6520746f20756e706175736560981b606482015260840161090f565b610d3f6121da565b565b610d6b7f9f2df0fed2c77648de5860a4cc508cd0818c85b8b8a1ab4ceeef8d981c8956a633610571565b610da65760405162461bcd60e51b815260206004820152600c60248201526b2737ba10309036b4b73a32b960a11b604482015260640161090f565b805182516020808501516040808701516101008801516080808a01518451978852958701949094529185015260608401528201528391907f898b5cef4d51f84a488d60feafcefb52ccb11293d52136b3de2692de569061089060a00160405180910390a160005b81811015610f24576000848281518110610e3757634e487b7160e01b600052603260045260246000fd5b602090810291909101810151805160009081526101c583526040908190208251808255838501516001830155828401516002830181905560608086015160038501819055608080880151600487015560a0808901516005880181905560c08a01516006890180546001600160a01b0319166001600160a01b0390921691909117905560e08a01516007909801979097558d5188519687529986019990995295840192909252820152918201529092507f4b58f4edbba4faba896401081cac39c5475ec515c20b3544fb020fe764963f51910160405180910390a15080610f1c81613e1c565b915050610e0d565b50815160009081526101c4602090815260409182902084518155818501516001820155918401516002830155606084015160038301556080840151600483015560a08401516005830180546001600160a01b039283166001600160a01b03199182161790915560c086015160068501805491909316911617905560e0840151600783015561010084015160088301556101208401518051859392610fcf926009850192910190613123565b50610140820151600a82015561016090910151600b9091015550505050565b606081518351146110535760405162461bcd60e51b815260206004820152602960248201527f455243313135353a206163636f756e747320616e6420696473206c656e677468604482015268040dad2e6dac2e8c6d60bb1b606482015260840161090f565b600083516001600160401b0381111561107c57634e487b7160e01b600052604160045260246000fd5b6040519080825280602002602001820160405280156110a5578160200160208202803683370190505b50905060005b84518110156111475761110c8582815181106110d757634e487b7160e01b600052603260045260246000fd5b60200260200101518583815181106110ff57634e487b7160e01b600052603260045260246000fd5b60200260200101516108a7565b82828151811061112c57634e487b7160e01b600052603260045260246000fd5b602090810291909101015261114081613e1c565b90506110ab565b509392505050565b6060600061115c836119ee565b9050600061116982611171565b949350505050565b60008181526101c6602090815260408083205483526101c49091529020546060906111c75760405162461bcd60e51b815260206004820152600660248201526545786973747360d01b604482015260640161090f565b60008281526101c8602052604090205460ff166001146112125760405162461bcd60e51b8152602060048201526006602482015265092e640c4def60d31b604482015260640161090f565b61121e33836001612270565b60008281526101c660209081526040808320548084526101c49092528220600b01549091906001600160401b0381111561126857634e487b7160e01b600052604160045260246000fd5b604051908082528060200260200182016040528015611291578160200160208202803683370190505b50905060005b60008381526101c460205260409020600b01548110156111475760008381526101c460205260408120600b810154600382015460049092015490916112db91613d57565b6112e6906001613d0c565b6112f09190613d38565b905060006113066113018484613d57565b61237d565b90506000805b60008781526101c460205260409020600901548110156114b65760008781526101c46020526040812060090180548390811061135857634e487b7160e01b600052603260045260246000fd5b60009182526020808320909101548083526101c59091526040909120600481015460059091015491925061138b91613d57565b6113959084613d0c565b92508383116114a35760008181526101c56020526040812060048101546002909101546113c29190613d0c565b60008381526101c5602052604081206004018054929350906113e383613e1c565b9091555050604080518381523360208201529081018290527f1dd69ba1529ee26c893974d206b7b8a51903ee28643880696d4f4809ed621e349060600160405180910390a161144433826001604051806020016040528060008152506123ec565b60008181526101c860209081526040808320805460ff191660021790556101c790915290208290558751819089908990811061149057634e487b7160e01b600052603260045260246000fd5b60200260200101818152505050506114b6565b50806114ae81613e1c565b91505061130c565b5050505080806114c590613e1c565b915050611297565b61012d5460ff165b90565b60008181526101c8602052604081205460ff16600114156114fa575030610951565b5060009081526101c7602090815260408083205483526101c59091529020600601546001600160a01b031690565b60008281526101c8602052604081205460ff166001141561154b5750600061093d565b60008381526101c7602090815260408083205483526101c590915290206007015461157790839061194a565b9392505050565b6001600160a01b03831633148061159a575061159a833361078a565b6115b65760405162461bcd60e51b815260040161090f90613b2b565b610ca38383836124f6565b600054610100900460ff16806115da575060005460ff16155b6115f65760405162461bcd60e51b815260040161090f90613bb9565b600054610100900460ff16158015611618576000805461ffff19166101011790555b61162283836126b0565b8015610ca3576000805461ff0019169055505050565b611643600033610571565b6116a35760405162461bcd60e51b815260206004820152602b60248201527f45524331313535546f6b656e3a206d75737420686176652061646d696e20726f60448201526a6c6520746f20706175736560a81b606482015260840161090f565b610d3f612751565b600082815260976020526040812061157790836127cf565b60009182526065602090815260408084206001600160a01b0393909316845291905290205460ff1690565b60008281526101c8602052604081205460ff166001141561173c5760008381526101c6602090815260408083205483526101c490915290206007015461173590839061194a565b905061093d565b60008381526101c8602052604090205460ff16600214156117915760008381526101c7602090815260408083205483526101c582528083206001015483526101c490915290206007015461173590839061194a565b50600092915050565b336001600160a01b03831614156118055760405162461bcd60e51b815260206004820152602960248201527f455243313135353a2073657474696e6720617070726f76616c20737461747573604482015268103337b91039b2b63360b91b606482015260840161090f565b33600081815260ca602090815260408083206001600160a01b0387168085529252909120805460ff1916841515179055906001600160a01b03167f17307eab39ab6107e8899845ad3d59bd9653f200f220920489ca2b5937696c3183604051611872911515815260200190565b60405180910390a35050565b60008181526101c8602052604081205460ff16600114156118c9575060008181526101c6602090815260408083205483526101c49091529020600601546001600160a01b0316610951565b60008281526101c8602052604090205460ff1660021415611922575060008181526101c7602090815260408083205483526101c582528083206001015483526101c49091529020600601546001600160a01b0316610951565b5030919050565b600081815260976020526040812061094e906127db565b610cb282826127e5565b60006127108161195a8286613d24565b905060006119688387613e37565b905060006119768487613d24565b905060006119848588613e37565b9050846119918285613d38565b61199b9190613d24565b6119a58385613d38565b6119af8387613d38565b876119ba8789613d38565b6119c49190613d38565b6119ce9190613d0c565b6119d89190613d0c565b6119e29190613d0c565b98975050505050505050565b60008181526101c46020526040812054611a335760405162461bcd60e51b815260206004820152600660248201526545786973747360d01b604482015260640161090f565b60008281526101c46020526040902060080154341015611a7d5760405162461bcd60e51b8152602060048201526005602482015264507269636560d81b604482015260640161090f565b60008281526101c460205260409020600a0154421015611ac95760405162461bcd60e51b815260206004820152600760248201526652656c6561736560c81b604482015260640161090f565b60008281526101c46020526040902060048101546003909101541115611b1a5760405162461bcd60e51b8152602060048201526006602482015265537570706c7960d01b604482015260640161090f565b60008281526101c46020526040812060070154611b3890349061194a565b60008481526101c460205260408082206006015490519293506001600160a01b03169183156108fc0291849190818181858888f19350505050158015611b82573d6000803e3d6000fd5b5060008381526101c460205260409020600501546001600160a01b03166108fc611bac8334613d57565b6040518115909202916000818181858888f19350505050158015611bd4573d6000803e3d6000fd5b5060008381526101c4602052604081206003810154600190910154611bf99190613d0c565b60008181526101c6602090815260408083208890556101c88252808320805460ff191660019081179091558884526101c4909252822060030180549394509092909190611c47908490613d0c565b909155505060008481526101c460209081526040918290206003015482518781523392810192909252818301849052606082015290517f6cdfe1ee3b71ebe30d1ff469b66a065b40e19e61efc4d35b895c87f3b9ce828c9181900360800190a1611cc333826001604051806020016040528060008152506123ec565b7f348d5d022d312593f567daf3838025425d4d802fa3c8b8af74eae3d866af3239600082611cf18534613d57565b60008881526101c4602090815260409182902060050154825160ff9096168652908501939093528301526001600160a01b0316606082015260800160405180910390a160008481526101c46020908152604091829020600601548251600181529182018490528183018590526001600160a01b0316606082015290517f348d5d022d312593f567daf3838025425d4d802fa3c8b8af74eae3d866af32399181900360800190a19392505050565b6001600160a01b038416611dc45760405162461bcd60e51b815260040161090f90613b74565b6001600160a01b038516331480611de05750611de0853361078a565b611dfc5760405162461bcd60e51b815260040161090f90613b2b565b33611e1b818787611e0c8861280b565b611e158861280b565b87611f92565b600084815260c9602090815260408083206001600160a01b038a16845290915290205483811015611e5e5760405162461bcd60e51b815260040161090f90613c4a565b611e688482613d57565b600086815260c9602090815260408083206001600160a01b038c81168552925280832093909355881681529081208054869290611ea6908490613d0c565b909155505060408051868152602081018690526001600160a01b03808916928a821692918616917fc3d58168c5ae7397731d063d5bbf3d657854427343f4c083240f7aacaa2d0f62910160405180910390a4611f06828888888888612864565b50505050505050565b6001600160a01b038316331480611f2b5750611f2b833361078a565b611f475760405162461bcd60e51b815260040161090f90613b2b565b610ca3838383612270565b60006001600160e01b03198216636cdb3d1360e11b1480611f8357506001600160e01b031982166303a24d0760e21b145b8061094e575061094e8261292e565b610c79868686868686612953565b6001600160a01b0384163b15610c795760405163bc197c8160e01b81526001600160a01b0385169063bc197c8190611fe490899089908890889088906004016139b4565b602060405180830381600087803b158015611ffe57600080fd5b505af192505050801561202e575060408051601f3d908101601f1916820190925261202b9181019061375a565b60015b6120db5761203a613e8d565b806308c379a01415612074575061204f613ea4565b8061205a5750612076565b8060405162461bcd60e51b815260040161090f9190613a8c565b505b60405162461bcd60e51b815260206004820152603460248201527f455243313135353a207472616e7366657220746f206e6f6e20455243313135356044820152732932b1b2b4bb32b91034b6b83632b6b2b73a32b960611b606482015260840161090f565b6001600160e01b0319811663bc197c8160e01b14611f065760405162461bcd60e51b815260040161090f90613a9f565b60008281526065602052604090206001015461212881335b6129bd565b610ca38383612a21565b6000611577836001600160a01b038416612aa7565b6001600160a01b03811633146121b75760405162461bcd60e51b815260206004820152602f60248201527f416363657373436f6e74726f6c3a2063616e206f6e6c792072656e6f756e636560448201526e103937b632b9903337b91039b2b63360891b606482015260840161090f565b6121c18282612af6565b5050565b6000611577836001600160a01b038416612b5d565b6121e26114cd565b6122255760405162461bcd60e51b815260206004820152601460248201527314185d5cd8589b194e881b9bdd081c185d5cd95960621b604482015260640161090f565b61012d805460ff191690557f5db9ee0a495bf2e6ff9c91a7834c1ba4fdd244a5e8aa4e537bd38aeae4b073aa335b6040516001600160a01b03909116815260200160405180910390a1565b6001600160a01b0383166122965760405162461bcd60e51b815260040161090f90613c07565b336122c5818560006122a78761280b565b6122b08761280b565b60405180602001604052806000815250611f92565b600083815260c9602090815260408083206001600160a01b0388168452909152902054828110156123085760405162461bcd60e51b815260040161090f90613ae7565b6123128382613d57565b600085815260c9602090815260408083206001600160a01b038a811680865291845282852095909555815189815292830188905292938616917fc3d58168c5ae7397731d063d5bbf3d657854427343f4c083240f7aacaa2d0f62910160405180910390a45050505050565b6101c380546000918261238f83613e1c565b90915550506101c354604080514260208201526bffffffffffffffffffffffff193360601b1691810191909152605481019190915282906074016040516020818303038152906040528051906020012060001c61094e9190613e37565b6001600160a01b03841661244c5760405162461bcd60e51b815260206004820152602160248201527f455243313135353a206d696e7420746f20746865207a65726f206164647265736044820152607360f81b606482015260840161090f565b3361245d81600087611e0c8861280b565b600084815260c9602090815260408083206001600160a01b03891684529091528120805485929061248f908490613d0c565b909155505060408051858152602081018590526001600160a01b0380881692600092918516917fc3d58168c5ae7397731d063d5bbf3d657854427343f4c083240f7aacaa2d0f62910160405180910390a46124ef81600087878787612864565b5050505050565b6001600160a01b03831661251c5760405162461bcd60e51b815260040161090f90613c07565b805182511461253d5760405162461bcd60e51b815260040161090f90613c94565b600033905061256081856000868660405180602001604052806000815250611f92565b60005b835181101561265157600084828151811061258e57634e487b7160e01b600052603260045260246000fd5b6020026020010151905060008483815181106125ba57634e487b7160e01b600052603260045260246000fd5b602090810291909101810151600084815260c9835260408082206001600160a01b038c16835290935291909120549091508181101561260b5760405162461bcd60e51b815260040161090f90613ae7565b6126158282613d57565b600093845260c9602090815260408086206001600160a01b038c168752909152909320929092555081905061264981613e1c565b915050612563565b5060006001600160a01b0316846001600160a01b0316826001600160a01b03167f4a39dc06d4c0dbc64b70af90fd698a233a518aa5d07e595d983b8c0526c8f7fb86866040516126a2929190613a5e565b60405180910390a450505050565b600054610100900460ff16806126c9575060005460ff16155b6126e55760405162461bcd60e51b815260040161090f90613bb9565b600054610100900460ff16158015612707576000805461ffff19166101011790555b61270f612c74565b612717612c74565b61271f612c74565b612727612c74565b61273083612ce0565b612738612c74565b612740612d55565b612748612c74565b61162282612dcb565b6127596114cd565b156127995760405162461bcd60e51b815260206004820152601060248201526f14185d5cd8589b194e881c185d5cd95960821b604482015260640161090f565b61012d805460ff191660011790557f62e78cea01bee320cd4e420270b5ea74000d11b0c9f74754ebdbfc544b05a2586122533390565b60006115778383612e57565b600061094e825490565b6000828152606560205260409020600101546128018133612123565b610ca38383612af6565b6040805160018082528183019092526060916000919060208083019080368337019050509050828160008151811061285357634e487b7160e01b600052603260045260246000fd5b602090810291909101015292915050565b6001600160a01b0384163b15610c795760405163f23a6e6160e01b81526001600160a01b0385169063f23a6e61906128a89089908990889088908890600401613a06565b602060405180830381600087803b1580156128c257600080fd5b505af19250505080156128f2575060408051601f3d908101601f191682019092526128ef9181019061375a565b60015b6128fe5761203a613e8d565b6001600160e01b0319811663f23a6e6160e01b14611f065760405162461bcd60e51b815260040161090f90613a9f565b60006001600160e01b03198216635a05180f60e01b148061094e575061094e82612eeb565b61295b6114cd565b15610c795760405162461bcd60e51b815260206004820152602c60248201527f455243313135355061757361626c653a20746f6b656e207472616e736665722060448201526b1dda1a5b19481c185d5cd95960a21b606482015260840161090f565b6129c782826116c3565b6121c1576129df816001600160a01b03166014612f20565b6129ea836020612f20565b6040516020016129fb92919061393f565b60408051601f198184030181529082905262461bcd60e51b825261090f91600401613a8c565b612a2b82826116c3565b6121c15760008281526065602090815260408083206001600160a01b03851684529091529020805460ff19166001179055612a633390565b6001600160a01b0316816001600160a01b0316837f2f8788117e7eff1d82e926ec794901d17c78024a50270940304540a733656f0d60405160405180910390a45050565b6000818152600183016020526040812054612aee5750815460018181018455600084815260208082209093018490558454848252828601909352604090209190915561093d565b50600061093d565b612b0082826116c3565b156121c15760008281526065602090815260408083206001600160a01b0385168085529252808320805460ff1916905551339285917ff6391f5c32d9c69d2a47ea670b442974b53935d1edc7fd64eb21e047a839171b9190a45050565b60008181526001830160205260408120548015612c6a576000612b81600183613d57565b8554909150600090612b9590600190613d57565b90506000866000018281548110612bbc57634e487b7160e01b600052603260045260246000fd5b9060005260206000200154905080876000018481548110612bed57634e487b7160e01b600052603260045260246000fd5b600091825260208083209091019290925582815260018901909152604090208490558654879080612c2e57634e487b7160e01b600052603160045260246000fd5b6001900381819060005260206000200160009055905586600101600087815260200190815260200160002060009055600194505050505061093d565b600091505061093d565b600054610100900460ff1680612c8d575060005460ff16155b612ca95760405162461bcd60e51b815260040161090f90613bb9565b600054610100900460ff16158015612ccb576000805461ffff19166101011790555b8015612cdd576000805461ff00191690555b50565b600054610100900460ff1680612cf9575060005460ff16155b612d155760405162461bcd60e51b815260040161090f90613bb9565b600054610100900460ff16158015612d37576000805461ffff19166101011790555b612d4082613101565b80156121c1576000805461ff00191690555050565b600054610100900460ff1680612d6e575060005460ff16155b612d8a5760405162461bcd60e51b815260040161090f90613bb9565b600054610100900460ff16158015612dac576000805461ffff19166101011790555b61012d805460ff191690558015612cdd576000805461ff001916905550565b600054610100900460ff1680612de4575060005460ff16155b612e005760405162461bcd60e51b815260040161090f90613bb9565b600054610100900460ff16158015612e22576000805461ffff19166101011790555b612e2d600033613114565b612d407f9f2df0fed2c77648de5860a4cc508cd0818c85b8b8a1ab4ceeef8d981c8956a683613114565b81546000908210612eb55760405162461bcd60e51b815260206004820152602260248201527f456e756d657261626c655365743a20696e646578206f7574206f6620626f756e604482015261647360f01b606482015260840161090f565b826000018281548110612ed857634e487b7160e01b600052603260045260246000fd5b9060005260206000200154905092915050565b60006001600160e01b03198216637965db0b60e01b148061094e57506301ffc9a760e01b6001600160e01b031983161461094e565b60606000612f2f836002613d38565b612f3a906002613d0c565b6001600160401b03811115612f5f57634e487b7160e01b600052604160045260246000fd5b6040519080825280601f01601f191660200182016040528015612f89576020820181803683370190505b509050600360fc1b81600081518110612fb257634e487b7160e01b600052603260045260246000fd5b60200101906001600160f81b031916908160001a905350600f60fb1b81600181518110612fef57634e487b7160e01b600052603260045260246000fd5b60200101906001600160f81b031916908160001a9053506000613013846002613d38565b61301e906001613d0c565b90505b60018111156130b2576f181899199a1a9b1b9c1cb0b131b232b360811b85600f166010811061306057634e487b7160e01b600052603260045260246000fd5b1a60f81b82828151811061308457634e487b7160e01b600052603260045260246000fd5b60200101906001600160f81b031916908160001a90535060049490941c936130ab81613d9e565b9050613021565b5083156115775760405162461bcd60e51b815260206004820181905260248201527f537472696e67733a20686578206c656e67746820696e73756666696369656e74604482015260640161090f565b80516121c19060cb90602084019061316e565b610c8b82826121c18282612a21565b82805482825590600052602060002090810192821561315e579160200282015b8281111561315e578251825591602001919060010190613143565b5061316a9291506131e1565b5090565b82805461317a90613db5565b90600052602060002090601f01602090048101928261319c576000855561315e565b82601f106131b557805160ff191683800117855561315e565b8280016001018555821561315e579182018281111561315e578251825591602001919060010190613143565b5b8082111561316a57600081556001016131e2565b60006001600160401b0383111561320f5761320f613e77565b604051613226601f8501601f191660200182613df0565b80915083815284848401111561323b57600080fd5b83836020830137600060208583010152509392505050565b80356001600160a01b038116811461095157600080fd5b600082601f83011261327a578081fd5b8135602061328782613ce9565b604080516132958382613df0565b8481528381019250868401600886901b880185018910156132b4578687fd5b865b8681101561333a5761010080838c0312156132cf578889fd5b84516132db8282613df0565b8335815287840135888201528584013586820152606080850135908201526080808501359082015260a0808501359082015260c061331a818601613253565b9082015260e08481013590820152865294860194909101906001016132b6565b509098975050505050505050565b600082601f830112613358578081fd5b8135602061336582613ce9565b6040516133728282613df0565b8381528281019150858301600585901b87018401881015613391578586fd5b855b858110156133af57813584529284019290840190600101613393565b5090979650505050505050565b600082601f8301126133cc578081fd5b611577838335602085016131f6565b600080604083850312156133ed578182fd5b6133f683613253565b915061340460208401613253565b90509250929050565b600080600080600060a08688031215613424578081fd5b61342d86613253565b945061343b60208701613253565b935060408601356001600160401b0380821115613456578283fd5b61346289838a01613348565b94506060880135915080821115613477578283fd5b61348389838a01613348565b93506080880135915080821115613498578283fd5b506134a5888289016133bc565b9150509295509295909350565b600080600080600060a086880312156134c9578283fd5b6134d286613253565b94506134e060208701613253565b9350604086013592506060860135915060808601356001600160401b03811115613508578182fd5b6134a5888289016133bc565b600080600060608486031215613528578081fd5b61353184613253565b925060208401356001600160401b038082111561354c578283fd5b61355887838801613348565b9350604086013591508082111561356d578283fd5b5061357a86828701613348565b9150509250925092565b60008060408385031215613596578182fd5b61359f83613253565b9150602083013580151581146135b3578182fd5b809150509250929050565b600080604083850312156135d0578182fd5b6135d983613253565b946020939093013593505050565b6000806000606084860312156135fb578081fd5b61360484613253565b95602085013595506040909401359392505050565b6000806040838503121561362b578182fd5b82356001600160401b0380821115613641578384fd5b818501915085601f830112613654578384fd5b8135602061366182613ce9565b60405161366e8282613df0565b8381528281019150858301600585901b870184018b101561368d578889fd5b8896505b848710156136b6576136a281613253565b835260019690960195918301918301613691565b50965050860135925050808211156136cc578283fd5b506136d985828601613348565b9150509250929050565b6000602082840312156136f4578081fd5b5035919050565b6000806040838503121561370d578182fd5b8235915061340460208401613253565b6000806040838503121561372f578182fd5b50508035926020909101359150565b60006020828403121561374f578081fd5b813561157781613f35565b60006020828403121561376b578081fd5b815161157781613f35565b60008060408385031215613788578182fd5b82356001600160401b0381111561379d578283fd5b8301601f810185136137ad578283fd5b6137bc858235602084016131f6565b92505061340460208401613253565b600080604083850312156137dd578182fd5b82356001600160401b03808211156137f3578384fd5b8185019150610180808388031215613809578485fd5b61381281613cdc565b9050823581526020830135602082015260408301356040820152606083013560608201526080830135608082015261384c60a08401613253565b60a082015261385d60c08401613253565b60c082015260e083013560e0820152610100808401358183015250610120808401358381111561388b578687fd5b61389789828701613348565b8284015250506101408084013581830152506101608084013581830152508094505060208501359150808211156138cc578283fd5b506136d98582860161326a565b6000815180845260208085019450808401835b83811015613908578151875295820195908201906001016138ec565b509495945050505050565b6000815180845261392b816020860160208601613d6e565b601f01601f19169290920160200192915050565b60007f416363657373436f6e74726f6c3a206163636f756e742000000000000000000082528351613977816017850160208801613d6e565b7001034b99036b4b9b9b4b733903937b6329607d1b60179184019182015283516139a8816028840160208801613d6e565b01602801949350505050565b6001600160a01b0386811682528516602082015260a0604082018190526000906139e0908301866138d9565b82810360608401526139f281866138d9565b905082810360808401526119e28185613913565b6001600160a01b03868116825285166020820152604081018490526060810183905260a060808201819052600090613a4090830184613913565b979650505050505050565b60006020825261157760208301846138d9565b600060408252613a7160408301856138d9565b8281036020840152613a8381856138d9565b95945050505050565b6000602082526115776020830184613913565b60208082526028908201527f455243313135353a204552433131353552656365697665722072656a656374656040820152676420746f6b656e7360c01b606082015260800190565b60208082526024908201527f455243313135353a206275726e20616d6f756e7420657863656564732062616c604082015263616e636560e01b606082015260800190565b60208082526029908201527f455243313135353a2063616c6c6572206973206e6f74206f776e6572206e6f7260408201526808185c1c1c9bdd995960ba1b606082015260800190565b60208082526025908201527f455243313135353a207472616e7366657220746f20746865207a65726f206164604082015264647265737360d81b606082015260800190565b6020808252602e908201527f496e697469616c697a61626c653a20636f6e747261637420697320616c72656160408201526d191e481a5b9a5d1a585b1a5e995960921b606082015260800190565b60208082526023908201527f455243313135353a206275726e2066726f6d20746865207a65726f206164647260408201526265737360e81b606082015260800190565b6020808252602a908201527f455243313135353a20696e73756666696369656e742062616c616e636520666f60408201526939103a3930b739b332b960b11b606082015260800190565b60208082526028908201527f455243313135353a2069647320616e6420616d6f756e7473206c656e677468206040820152670dad2e6dac2e8c6d60c31b606082015260800190565b6040516109518282613df0565b60006001600160401b03821115613d0257613d02613e77565b5060051b60200190565b60008219821115613d1f57613d1f613e4b565b500190565b600082613d3357613d33613e61565b500490565b6000816000190483118215151615613d5257613d52613e4b565b500290565b600082821015613d6957613d69613e4b565b500390565b60005b83811015613d89578181015183820152602001613d71565b83811115613d98576000848401525b50505050565b600081613dad57613dad613e4b565b506000190190565b600181811c90821680613dc957607f821691505b60208210811415613dea57634e487b7160e01b600052602260045260246000fd5b50919050565b601f8201601f191681016001600160401b0381118282101715613e1557613e15613e77565b6040525050565b6000600019821415613e3057613e30613e4b565b5060010190565b600082613e4657613e46613e61565b500690565b634e487b7160e01b600052601160045260246000fd5b634e487b7160e01b600052601260045260246000fd5b634e487b7160e01b600052604160045260246000fd5b600060033d11156114d557600481823e5160e01c90565b600060443d1015613eb4576114d5565b6040516003193d81016004833e81513d6001600160401b038160248401118184111715613ee55750505050506114d5565b8285019150815181811115613eff575050505050506114d5565b843d8701016020828501011115613f1b575050505050506114d5565b613f2a60208286010187613df0565b509094505050505090565b6001600160e01b031981168114612cdd57600080fdfea2646970667358221220565b394d07e1f2062a9ec3e9ed60b3e37e7c04d9a7d661c77b16ce9ece17607664736f6c63430008030033",
  "immutableReferences": {},
  "source": "// SPDX-License-Identifier: MIT\npragma solidity ^0.8.3;\n\nimport \"../node_modules/@openzeppelin/contracts-upgradeable/proxy/utils/Initializable.sol\";\nimport \"./ERC1155Token.sol\";\n\nstruct LootBox {\n  uint256 index;\n  uint256 fromId;\n  uint256 toId;\n  uint256 count;\n  uint256 supply;\n  address seller;\n  address creator;\n  uint256 creatorRoyalty;\n  uint256 price;\n  uint256[] lootBoxItemsIndex;\n  uint256 release;\n  uint256 dropRate;\n}\n\nstruct LootBoxItem {\n  uint256 index;\n  uint256 lootBoxIndex;\n  uint256 fromId;\n  uint256 toId;\n  uint256 count;\n  uint256 supply;\n  address artist;\n  uint256 artistRoyalty;\n}\n\ncontract Topx is Initializable, ERC1155Token {\n\n  uint256 private randomNounce;\n\n  mapping(uint256 => LootBox) public lootBoxes;\n  mapping(uint256 => LootBoxItem) public lootBoxItems;\n  mapping(uint256 => uint256) public tokenIdToLootBoxIndex;\n  mapping(uint256 => uint256) public tokenIdToLootBoxItemsIndex;\n  mapping(uint256 => uint8) public tokenIdType;\n\n  function initialize(string memory _uri, address _minter) public initializer {\n    __ERC1155Token_init(_uri, _minter);\n  }\n\n  event EthTopxTransfer(uint8 _action, uint256 _tokenId, uint256 _amount, address _account);\n\n  event addLootBox(uint256 _packid, uint256 _from, uint256 _to, uint256 _price, uint256 _supply);\n  event addLootBoxItem(uint256 _itemid, uint256 _packid, uint256 _from, uint256 _to, uint256 _supply);\n\n  function addLootBoxes(LootBox memory _lootBox, LootBoxItem[] memory _lootBoxItems) public {\n    require(hasRole(MINTER_ROLE, _msgSender()), \"Not a minter\");\n    LootBox memory lootBox = _lootBox;\n    uint256 lootBoxItemsCount = _lootBoxItems.length;\n    emit addLootBox(lootBox.index, lootBox.fromId, lootBox.toId, lootBox.price, lootBox.supply);\n    for (uint256 i=0; i<lootBoxItemsCount; i++) {\n      LootBoxItem memory lootBoxItem = _lootBoxItems[i];\n      lootBoxItems[lootBoxItem.index] = lootBoxItem;\n      emit addLootBoxItem(lootBoxItem.index, lootBox.index, lootBoxItem.fromId, lootBoxItem.toId, lootBoxItem.supply);\n    }\n    lootBoxes[lootBox.index] = lootBox;\n  }\n\n  event mintLootBox(uint256 _id, address _account, uint256 _tokenId, uint256 _count);\n\n  function buyLootBox(uint256 lootBoxIndex) public payable returns (uint256) {\n    require(lootBoxes[lootBoxIndex].index > 0, \"Exists\");\n    require(msg.value >= lootBoxes[lootBoxIndex].price, \"Price\");\n    require(block.timestamp >= lootBoxes[lootBoxIndex].release, \"Release\");\n    require(lootBoxes[lootBoxIndex].count <= lootBoxes[lootBoxIndex].supply, \"Supply\");\n    uint256 toCreatorRoyalty = mulDiv(msg.value, lootBoxes[lootBoxIndex].creatorRoyalty);\n    payable(lootBoxes[lootBoxIndex].creator).transfer(toCreatorRoyalty);\n    payable(lootBoxes[lootBoxIndex].seller).transfer(msg.value - toCreatorRoyalty);\n    uint256 tokenId = lootBoxes[lootBoxIndex].fromId + lootBoxes[lootBoxIndex].count;\n    tokenIdToLootBoxIndex[tokenId] = lootBoxIndex;\n    tokenIdType[tokenId] = 1;\n    lootBoxes[lootBoxIndex].count += 1;\n    emit mintLootBox(lootBoxIndex, msg.sender, tokenId, lootBoxes[lootBoxIndex].count);\n    _mint(msg.sender, tokenId, 1, \"\");\n    emit EthTopxTransfer(0, tokenId, msg.value - toCreatorRoyalty, lootBoxes[lootBoxIndex].seller);\n    emit EthTopxTransfer(1, tokenId, toCreatorRoyalty, lootBoxes[lootBoxIndex].creator);\n    return tokenId;\n  }\n\n  event mintItem(uint256 _id, address _account, uint256 _tokenId);\n  \n  function openLootBox(uint256 tokenId) public returns (uint256[] memory) {\n    require(lootBoxes[tokenIdToLootBoxIndex[tokenId]].index > 0, \"Exists\");\n    require(tokenIdType[tokenId] == 1, \"Is box\");\n    _burn(msg.sender, tokenId, 1);\n    uint256 lootBoxIndex = tokenIdToLootBoxIndex[tokenId];\n    uint256[] memory mintedTokenIds = new uint256[](lootBoxes[lootBoxIndex].dropRate);\n    for (uint256 i=0; i<lootBoxes[lootBoxIndex].dropRate; i++) {\n      uint256 availables = (lootBoxes[lootBoxIndex].supply - lootBoxes[lootBoxIndex].count + 1) * lootBoxes[lootBoxIndex].dropRate;\n      uint256 rand = random(availables - i);\n      uint256 counter = 0;\n      for (uint256 j=0; j<lootBoxes[lootBoxIndex].lootBoxItemsIndex.length; j++) {\n        uint256 currentItem = lootBoxes[lootBoxIndex].lootBoxItemsIndex[j];\n        counter = counter + (lootBoxItems[currentItem].supply - lootBoxItems[currentItem].count);\n        if (counter <= rand) {\n          uint256 mintedTokenId = lootBoxItems[currentItem].fromId + lootBoxItems[currentItem].count;\n          lootBoxItems[currentItem].count++;\n          emit mintItem(currentItem, msg.sender, mintedTokenId);\n          _mint(msg.sender, mintedTokenId, 1, \"\");\n          tokenIdType[mintedTokenId] = 2;\n          tokenIdToLootBoxItemsIndex[mintedTokenId] = currentItem;\n          mintedTokenIds[i] = mintedTokenId;\n          break;\n        }\n      }\n    }\n    return mintedTokenIds;\n  }\n\n  function buyAndOpenLootBox(uint256 lootBoxIndex) public payable returns (uint256[] memory) {\n    uint256 tokenId = buyLootBox(lootBoxIndex);\n    uint256[] memory mintedTokens = openLootBox(tokenId);\n    return mintedTokens;\n  }\n\n  function getCreatorRoyaltyFromAmountForTokenId(uint256 tokenId, uint256 amount) public view returns (uint256) {\n    if (tokenIdType[tokenId] == 1) {\n      return mulDiv(amount, lootBoxes[tokenIdToLootBoxIndex[tokenId]].creatorRoyalty);\n    }\n    if (tokenIdType[tokenId] == 2) {\n      return mulDiv(amount, lootBoxes[lootBoxItems[tokenIdToLootBoxItemsIndex[tokenId]].lootBoxIndex].creatorRoyalty);\n    }\n    return 0;\n  }\n\n  function getCreatorAddressForTokenId(uint256 tokenId) public view returns (address) {\n    if (tokenIdType[tokenId] == 1) {\n      return lootBoxes[tokenIdToLootBoxIndex[tokenId]].creator;\n    }\n    if (tokenIdType[tokenId] == 2) {\n      return lootBoxes[lootBoxItems[tokenIdToLootBoxItemsIndex[tokenId]].lootBoxIndex].creator;\n    }\n    return address(this);\n  }\n\n  function getArtistRoyaltyFromAmountForTokenId(uint256 tokenId, uint256 amount) public view returns (uint256) {\n    if (tokenIdType[tokenId] == 1) {\n      return 0;\n    }\n    return mulDiv(amount, lootBoxItems[tokenIdToLootBoxItemsIndex[tokenId]].artistRoyalty);\n  }\n\n  function getArtistForTokenId(uint256 tokenId) public view returns (address) {\n    if (tokenIdType[tokenId] == 1) {\n      return address(this);\n    }\n    return lootBoxItems[tokenIdToLootBoxItemsIndex[tokenId]].artist;\n  }\n\n  function mulDiv(uint256 x, uint256 y) public pure returns (uint256) {\n    uint256 z = 10000;\n    uint256 a = x / z;\n    uint256 b = x % z;\n    uint256 c = y / z;\n    uint256 d = y % z;\n    return a * b * z + a * d + b * c + b * d / z;\n  }\n\n  function random(uint256 size) private returns (uint256) {\n    randomNounce++;\n    return uint256(keccak256(abi.encodePacked(block.timestamp, msg.sender, randomNounce))) % size;\n  }\n}",
  "sourcePath": "/Users/jernejpregelj/dev/markeljc/trill/smartcontracts/contracts/Topx.sol",
  "compiler": {
    "name": "solc",
    "version": "0.8.3+commit.8d00100c.Emscripten.clang"
  },
  "schemaVersion": "3.3.4",
  "updatedAt": "2021-05-27T14:41:37.942Z",
  "networkType": "ethereum",
  "devdoc": {
    "kind": "dev",
    "methods": {
      "balanceOf(address,uint256)": {
        "details": "See {IERC1155-balanceOf}. Requirements: - `account` cannot be the zero address."
      },
      "balanceOfBatch(address[],uint256[])": {
        "details": "See {IERC1155-balanceOfBatch}. Requirements: - `accounts` and `ids` must have the same length."
      },
      "getRoleAdmin(bytes32)": {
        "details": "Returns the admin role that controls `role`. See {grantRole} and {revokeRole}. To change a role's admin, use {_setRoleAdmin}."
      },
      "getRoleMember(bytes32,uint256)": {
        "details": "Returns one of the accounts that have `role`. `index` must be a value between 0 and {getRoleMemberCount}, non-inclusive. Role bearers are not sorted in any particular way, and their ordering may change at any point. WARNING: When using {getRoleMember} and {getRoleMemberCount}, make sure you perform all queries on the same block. See the following https://forum.openzeppelin.com/t/iterating-over-elements-on-enumerableset-in-openzeppelin-contracts/2296[forum post] for more information."
      },
      "getRoleMemberCount(bytes32)": {
        "details": "Returns the number of accounts that have `role`. Can be used together with {getRoleMember} to enumerate all bearers of a role."
      },
      "grantRole(bytes32,address)": {
        "details": "Overload {grantRole} to track enumerable memberships"
      },
      "hasRole(bytes32,address)": {
        "details": "Returns `true` if `account` has been granted `role`."
      },
      "isApprovedForAll(address,address)": {
        "details": "See {IERC1155-isApprovedForAll}."
      },
      "paused()": {
        "details": "Returns true if the contract is paused, and false otherwise."
      },
      "renounceRole(bytes32,address)": {
        "details": "Overload {renounceRole} to track enumerable memberships"
      },
      "revokeRole(bytes32,address)": {
        "details": "Overload {revokeRole} to track enumerable memberships"
      },
      "safeBatchTransferFrom(address,address,uint256[],uint256[],bytes)": {
        "details": "See {IERC1155-safeBatchTransferFrom}."
      },
      "safeTransferFrom(address,address,uint256,uint256,bytes)": {
        "details": "See {IERC1155-safeTransferFrom}."
      },
      "setApprovalForAll(address,bool)": {
        "details": "See {IERC1155-setApprovalForAll}."
      },
      "uri(uint256)": {
        "details": "See {IERC1155MetadataURI-uri}. This implementation returns the same URI for *all* token types. It relies on the token type ID substitution mechanism https://eips.ethereum.org/EIPS/eip-1155#metadata[defined in the EIP]. Clients calling this function must replace the `\\{id\\}` substring with the actual token type ID."
      }
    },
    "version": 1
  },
  "userdoc": {
    "kind": "user",
    "methods": {},
    "version": 1
  }
}