{
  "contractName": "Topx",
  "abi": [
    {
      "anonymous": false,
      "inputs": [
        {
          "indexed": true,
          "internalType": "address",
          "name": "account",
          "type": "address"
        },
        {
          "indexed": true,
          "internalType": "address",
          "name": "operator",
          "type": "address"
        },
        {
          "indexed": false,
          "internalType": "bool",
          "name": "approved",
          "type": "bool"
        }
      ],
      "name": "ApprovalForAll",
      "type": "event"
    },
    {
      "anonymous": false,
      "inputs": [
        {
          "indexed": false,
          "internalType": "uint8",
          "name": "_action",
          "type": "uint8"
        },
        {
          "indexed": false,
          "internalType": "uint256",
          "name": "_tokenId",
          "type": "uint256"
        },
        {
          "indexed": false,
          "internalType": "uint256",
          "name": "_amount",
          "type": "uint256"
        },
        {
          "indexed": false,
          "internalType": "address",
          "name": "_account",
          "type": "address"
        }
      ],
      "name": "EthTopxTransfer",
      "type": "event"
    },
    {
      "anonymous": false,
      "inputs": [
        {
          "indexed": false,
          "internalType": "address",
          "name": "account",
          "type": "address"
        }
      ],
      "name": "Paused",
      "type": "event"
    },
    {
      "anonymous": false,
      "inputs": [
        {
          "indexed": true,
          "internalType": "bytes32",
          "name": "role",
          "type": "bytes32"
        },
        {
          "indexed": true,
          "internalType": "bytes32",
          "name": "previousAdminRole",
          "type": "bytes32"
        },
        {
          "indexed": true,
          "internalType": "bytes32",
          "name": "newAdminRole",
          "type": "bytes32"
        }
      ],
      "name": "RoleAdminChanged",
      "type": "event"
    },
    {
      "anonymous": false,
      "inputs": [
        {
          "indexed": true,
          "internalType": "bytes32",
          "name": "role",
          "type": "bytes32"
        },
        {
          "indexed": true,
          "internalType": "address",
          "name": "account",
          "type": "address"
        },
        {
          "indexed": true,
          "internalType": "address",
          "name": "sender",
          "type": "address"
        }
      ],
      "name": "RoleGranted",
      "type": "event"
    },
    {
      "anonymous": false,
      "inputs": [
        {
          "indexed": true,
          "internalType": "bytes32",
          "name": "role",
          "type": "bytes32"
        },
        {
          "indexed": true,
          "internalType": "address",
          "name": "account",
          "type": "address"
        },
        {
          "indexed": true,
          "internalType": "address",
          "name": "sender",
          "type": "address"
        }
      ],
      "name": "RoleRevoked",
      "type": "event"
    },
    {
      "anonymous": false,
      "inputs": [
        {
          "indexed": true,
          "internalType": "address",
          "name": "operator",
          "type": "address"
        },
        {
          "indexed": true,
          "internalType": "address",
          "name": "from",
          "type": "address"
        },
        {
          "indexed": true,
          "internalType": "address",
          "name": "to",
          "type": "address"
        },
        {
          "indexed": false,
          "internalType": "uint256[]",
          "name": "ids",
          "type": "uint256[]"
        },
        {
          "indexed": false,
          "internalType": "uint256[]",
          "name": "values",
          "type": "uint256[]"
        }
      ],
      "name": "TransferBatch",
      "type": "event"
    },
    {
      "anonymous": false,
      "inputs": [
        {
          "indexed": true,
          "internalType": "address",
          "name": "operator",
          "type": "address"
        },
        {
          "indexed": true,
          "internalType": "address",
          "name": "from",
          "type": "address"
        },
        {
          "indexed": true,
          "internalType": "address",
          "name": "to",
          "type": "address"
        },
        {
          "indexed": false,
          "internalType": "uint256",
          "name": "id",
          "type": "uint256"
        },
        {
          "indexed": false,
          "internalType": "uint256",
          "name": "value",
          "type": "uint256"
        }
      ],
      "name": "TransferSingle",
      "type": "event"
    },
    {
      "anonymous": false,
      "inputs": [
        {
          "indexed": false,
          "internalType": "string",
          "name": "value",
          "type": "string"
        },
        {
          "indexed": true,
          "internalType": "uint256",
          "name": "id",
          "type": "uint256"
        }
      ],
      "name": "URI",
      "type": "event"
    },
    {
      "anonymous": false,
      "inputs": [
        {
          "indexed": false,
          "internalType": "address",
          "name": "account",
          "type": "address"
        }
      ],
      "name": "Unpaused",
      "type": "event"
    },
    {
      "anonymous": false,
      "inputs": [
        {
          "indexed": false,
          "internalType": "uint256",
          "name": "_packid",
          "type": "uint256"
        },
        {
          "indexed": false,
          "internalType": "uint256",
          "name": "_from",
          "type": "uint256"
        },
        {
          "indexed": false,
          "internalType": "uint256",
          "name": "_to",
          "type": "uint256"
        },
        {
          "indexed": false,
          "internalType": "uint256",
          "name": "_price",
          "type": "uint256"
        },
        {
          "indexed": false,
          "internalType": "uint256",
          "name": "_supply",
          "type": "uint256"
        }
      ],
      "name": "addLootBox",
      "type": "event"
    },
    {
      "anonymous": false,
      "inputs": [
        {
          "indexed": false,
          "internalType": "uint256",
          "name": "_itemid",
          "type": "uint256"
        },
        {
          "indexed": false,
          "internalType": "uint256",
          "name": "_packid",
          "type": "uint256"
        },
        {
          "indexed": false,
          "internalType": "uint256",
          "name": "_from",
          "type": "uint256"
        },
        {
          "indexed": false,
          "internalType": "uint256",
          "name": "_to",
          "type": "uint256"
        },
        {
          "indexed": false,
          "internalType": "uint256",
          "name": "_supply",
          "type": "uint256"
        }
      ],
      "name": "addLootBoxItem",
      "type": "event"
    },
    {
      "anonymous": false,
      "inputs": [
        {
          "indexed": false,
          "internalType": "uint256",
          "name": "_id",
          "type": "uint256"
        },
        {
          "indexed": false,
          "internalType": "address",
          "name": "_account",
          "type": "address"
        },
        {
          "indexed": false,
          "internalType": "uint256",
          "name": "_tokenId",
          "type": "uint256"
        }
      ],
      "name": "mintItem",
      "type": "event"
    },
    {
      "anonymous": false,
      "inputs": [
        {
          "indexed": false,
          "internalType": "uint256",
          "name": "_id",
          "type": "uint256"
        },
        {
          "indexed": false,
          "internalType": "address",
          "name": "_account",
          "type": "address"
        },
        {
          "indexed": false,
          "internalType": "uint256",
          "name": "_tokenId",
          "type": "uint256"
        },
        {
          "indexed": false,
          "internalType": "uint256",
          "name": "_count",
          "type": "uint256"
        }
      ],
      "name": "mintLootBox",
      "type": "event"
    },
    {
      "inputs": [],
      "name": "DEFAULT_ADMIN_ROLE",
      "outputs": [
        {
          "internalType": "bytes32",
          "name": "",
          "type": "bytes32"
        }
      ],
      "stateMutability": "view",
      "type": "function",
      "constant": true
    },
    {
      "inputs": [],
      "name": "MINTER_ROLE",
      "outputs": [
        {
          "internalType": "bytes32",
          "name": "",
          "type": "bytes32"
        }
      ],
      "stateMutability": "view",
      "type": "function",
      "constant": true
    },
    {
      "inputs": [
        {
          "internalType": "address",
          "name": "account",
          "type": "address"
        },
        {
          "internalType": "uint256",
          "name": "id",
          "type": "uint256"
        }
      ],
      "name": "balanceOf",
      "outputs": [
        {
          "internalType": "uint256",
          "name": "",
          "type": "uint256"
        }
      ],
      "stateMutability": "view",
      "type": "function",
      "constant": true
    },
    {
      "inputs": [
        {
          "internalType": "address[]",
          "name": "accounts",
          "type": "address[]"
        },
        {
          "internalType": "uint256[]",
          "name": "ids",
          "type": "uint256[]"
        }
      ],
      "name": "balanceOfBatch",
      "outputs": [
        {
          "internalType": "uint256[]",
          "name": "",
          "type": "uint256[]"
        }
      ],
      "stateMutability": "view",
      "type": "function",
      "constant": true
    },
    {
      "inputs": [
        {
          "internalType": "address",
          "name": "account",
          "type": "address"
        },
        {
          "internalType": "uint256",
          "name": "id",
          "type": "uint256"
        },
        {
          "internalType": "uint256",
          "name": "value",
          "type": "uint256"
        }
      ],
      "name": "burn",
      "outputs": [],
      "stateMutability": "nonpayable",
      "type": "function"
    },
    {
      "inputs": [
        {
          "internalType": "address",
          "name": "account",
          "type": "address"
        },
        {
          "internalType": "uint256[]",
          "name": "ids",
          "type": "uint256[]"
        },
        {
          "internalType": "uint256[]",
          "name": "values",
          "type": "uint256[]"
        }
      ],
      "name": "burnBatch",
      "outputs": [],
      "stateMutability": "nonpayable",
      "type": "function"
    },
    {
      "inputs": [
        {
          "internalType": "bytes32",
          "name": "role",
          "type": "bytes32"
        }
      ],
      "name": "getRoleAdmin",
      "outputs": [
        {
          "internalType": "bytes32",
          "name": "",
          "type": "bytes32"
        }
      ],
      "stateMutability": "view",
      "type": "function",
      "constant": true
    },
    {
      "inputs": [
        {
          "internalType": "bytes32",
          "name": "role",
          "type": "bytes32"
        },
        {
          "internalType": "uint256",
          "name": "index",
          "type": "uint256"
        }
      ],
      "name": "getRoleMember",
      "outputs": [
        {
          "internalType": "address",
          "name": "",
          "type": "address"
        }
      ],
      "stateMutability": "view",
      "type": "function",
      "constant": true
    },
    {
      "inputs": [
        {
          "internalType": "bytes32",
          "name": "role",
          "type": "bytes32"
        }
      ],
      "name": "getRoleMemberCount",
      "outputs": [
        {
          "internalType": "uint256",
          "name": "",
          "type": "uint256"
        }
      ],
      "stateMutability": "view",
      "type": "function",
      "constant": true
    },
    {
      "inputs": [
        {
          "internalType": "bytes32",
          "name": "role",
          "type": "bytes32"
        },
        {
          "internalType": "address",
          "name": "account",
          "type": "address"
        }
      ],
      "name": "grantRole",
      "outputs": [],
      "stateMutability": "nonpayable",
      "type": "function"
    },
    {
      "inputs": [
        {
          "internalType": "bytes32",
          "name": "role",
          "type": "bytes32"
        },
        {
          "internalType": "address",
          "name": "account",
          "type": "address"
        }
      ],
      "name": "hasRole",
      "outputs": [
        {
          "internalType": "bool",
          "name": "",
          "type": "bool"
        }
      ],
      "stateMutability": "view",
      "type": "function",
      "constant": true
    },
    {
      "inputs": [
        {
          "internalType": "address",
          "name": "account",
          "type": "address"
        },
        {
          "internalType": "address",
          "name": "operator",
          "type": "address"
        }
      ],
      "name": "isApprovedForAll",
      "outputs": [
        {
          "internalType": "bool",
          "name": "",
          "type": "bool"
        }
      ],
      "stateMutability": "view",
      "type": "function",
      "constant": true
    },
    {
      "inputs": [
        {
          "internalType": "uint256",
          "name": "",
          "type": "uint256"
        }
      ],
      "name": "lootBoxItems",
      "outputs": [
        {
          "internalType": "uint256",
          "name": "index",
          "type": "uint256"
        },
        {
          "internalType": "uint256",
          "name": "lootBoxIndex",
          "type": "uint256"
        },
        {
          "internalType": "uint256",
          "name": "fromId",
          "type": "uint256"
        },
        {
          "internalType": "uint256",
          "name": "toId",
          "type": "uint256"
        },
        {
          "internalType": "uint256",
          "name": "count",
          "type": "uint256"
        },
        {
          "internalType": "uint256",
          "name": "supply",
          "type": "uint256"
        },
        {
          "internalType": "address",
          "name": "artist",
          "type": "address"
        },
        {
          "internalType": "uint256",
          "name": "artistRoyalty",
          "type": "uint256"
        }
      ],
      "stateMutability": "view",
      "type": "function",
      "constant": true
    },
    {
      "inputs": [
        {
          "internalType": "uint256",
          "name": "",
          "type": "uint256"
        }
      ],
      "name": "lootBoxes",
      "outputs": [
        {
          "internalType": "uint256",
          "name": "index",
          "type": "uint256"
        },
        {
          "internalType": "uint256",
          "name": "fromId",
          "type": "uint256"
        },
        {
          "internalType": "uint256",
          "name": "toId",
          "type": "uint256"
        },
        {
          "internalType": "uint256",
          "name": "count",
          "type": "uint256"
        },
        {
          "internalType": "uint256",
          "name": "supply",
          "type": "uint256"
        },
        {
          "internalType": "address",
          "name": "seller",
          "type": "address"
        },
        {
          "internalType": "address",
          "name": "creator",
          "type": "address"
        },
        {
          "internalType": "uint256",
          "name": "creatorRoyalty",
          "type": "uint256"
        },
        {
          "internalType": "uint256",
          "name": "price",
          "type": "uint256"
        },
        {
          "internalType": "uint256",
          "name": "release",
          "type": "uint256"
        },
        {
          "internalType": "uint256",
          "name": "dropRate",
          "type": "uint256"
        }
      ],
      "stateMutability": "view",
      "type": "function",
      "constant": true
    },
    {
      "inputs": [],
      "name": "pause",
      "outputs": [],
      "stateMutability": "nonpayable",
      "type": "function"
    },
    {
      "inputs": [],
      "name": "paused",
      "outputs": [
        {
          "internalType": "bool",
          "name": "",
          "type": "bool"
        }
      ],
      "stateMutability": "view",
      "type": "function",
      "constant": true
    },
    {
      "inputs": [
        {
          "internalType": "bytes32",
          "name": "role",
          "type": "bytes32"
        },
        {
          "internalType": "address",
          "name": "account",
          "type": "address"
        }
      ],
      "name": "renounceRole",
      "outputs": [],
      "stateMutability": "nonpayable",
      "type": "function"
    },
    {
      "inputs": [
        {
          "internalType": "bytes32",
          "name": "role",
          "type": "bytes32"
        },
        {
          "internalType": "address",
          "name": "account",
          "type": "address"
        }
      ],
      "name": "revokeRole",
      "outputs": [],
      "stateMutability": "nonpayable",
      "type": "function"
    },
    {
      "inputs": [
        {
          "internalType": "address",
          "name": "from",
          "type": "address"
        },
        {
          "internalType": "address",
          "name": "to",
          "type": "address"
        },
        {
          "internalType": "uint256[]",
          "name": "ids",
          "type": "uint256[]"
        },
        {
          "internalType": "uint256[]",
          "name": "amounts",
          "type": "uint256[]"
        },
        {
          "internalType": "bytes",
          "name": "data",
          "type": "bytes"
        }
      ],
      "name": "safeBatchTransferFrom",
      "outputs": [],
      "stateMutability": "nonpayable",
      "type": "function"
    },
    {
      "inputs": [
        {
          "internalType": "address",
          "name": "from",
          "type": "address"
        },
        {
          "internalType": "address",
          "name": "to",
          "type": "address"
        },
        {
          "internalType": "uint256",
          "name": "id",
          "type": "uint256"
        },
        {
          "internalType": "uint256",
          "name": "amount",
          "type": "uint256"
        },
        {
          "internalType": "bytes",
          "name": "data",
          "type": "bytes"
        }
      ],
      "name": "safeTransferFrom",
      "outputs": [],
      "stateMutability": "nonpayable",
      "type": "function"
    },
    {
      "inputs": [
        {
          "internalType": "address",
          "name": "operator",
          "type": "address"
        },
        {
          "internalType": "bool",
          "name": "approved",
          "type": "bool"
        }
      ],
      "name": "setApprovalForAll",
      "outputs": [],
      "stateMutability": "nonpayable",
      "type": "function"
    },
    {
      "inputs": [
        {
          "internalType": "bytes4",
          "name": "interfaceId",
          "type": "bytes4"
        }
      ],
      "name": "supportsInterface",
      "outputs": [
        {
          "internalType": "bool",
          "name": "",
          "type": "bool"
        }
      ],
      "stateMutability": "view",
      "type": "function",
      "constant": true
    },
    {
      "inputs": [
        {
          "internalType": "uint256",
          "name": "",
          "type": "uint256"
        }
      ],
      "name": "tokenIdToLootBoxIndex",
      "outputs": [
        {
          "internalType": "uint256",
          "name": "",
          "type": "uint256"
        }
      ],
      "stateMutability": "view",
      "type": "function",
      "constant": true
    },
    {
      "inputs": [
        {
          "internalType": "uint256",
          "name": "",
          "type": "uint256"
        }
      ],
      "name": "tokenIdToLootBoxItemsIndex",
      "outputs": [
        {
          "internalType": "uint256",
          "name": "",
          "type": "uint256"
        }
      ],
      "stateMutability": "view",
      "type": "function",
      "constant": true
    },
    {
      "inputs": [
        {
          "internalType": "uint256",
          "name": "",
          "type": "uint256"
        }
      ],
      "name": "tokenIdType",
      "outputs": [
        {
          "internalType": "uint8",
          "name": "",
          "type": "uint8"
        }
      ],
      "stateMutability": "view",
      "type": "function",
      "constant": true
    },
    {
      "inputs": [],
      "name": "unpause",
      "outputs": [],
      "stateMutability": "nonpayable",
      "type": "function"
    },
    {
      "inputs": [
        {
          "internalType": "uint256",
          "name": "",
          "type": "uint256"
        }
      ],
      "name": "uri",
      "outputs": [
        {
          "internalType": "string",
          "name": "",
          "type": "string"
        }
      ],
      "stateMutability": "view",
      "type": "function",
      "constant": true
    },
    {
      "inputs": [
        {
          "internalType": "string",
          "name": "_uri",
          "type": "string"
        },
        {
          "internalType": "address",
          "name": "_minter",
          "type": "address"
        },
        {
          "internalType": "uint256",
          "name": "_platformRoyalty",
          "type": "uint256"
        },
        {
          "internalType": "address",
          "name": "_treasury",
          "type": "address"
        }
      ],
      "name": "initialize",
      "outputs": [],
      "stateMutability": "nonpayable",
      "type": "function"
    },
    {
      "inputs": [
        {
          "components": [
            {
              "internalType": "uint256",
              "name": "index",
              "type": "uint256"
            },
            {
              "internalType": "uint256",
              "name": "fromId",
              "type": "uint256"
            },
            {
              "internalType": "uint256",
              "name": "toId",
              "type": "uint256"
            },
            {
              "internalType": "uint256",
              "name": "count",
              "type": "uint256"
            },
            {
              "internalType": "uint256",
              "name": "supply",
              "type": "uint256"
            },
            {
              "internalType": "address",
              "name": "seller",
              "type": "address"
            },
            {
              "internalType": "address",
              "name": "creator",
              "type": "address"
            },
            {
              "internalType": "uint256",
              "name": "creatorRoyalty",
              "type": "uint256"
            },
            {
              "internalType": "uint256",
              "name": "price",
              "type": "uint256"
            },
            {
              "internalType": "uint256[]",
              "name": "lootBoxItemsIndex",
              "type": "uint256[]"
            },
            {
              "internalType": "uint256",
              "name": "release",
              "type": "uint256"
            },
            {
              "internalType": "uint256",
              "name": "dropRate",
              "type": "uint256"
            }
          ],
          "internalType": "struct LootBox",
          "name": "_lootBox",
          "type": "tuple"
        },
        {
          "components": [
            {
              "internalType": "uint256",
              "name": "index",
              "type": "uint256"
            },
            {
              "internalType": "uint256",
              "name": "lootBoxIndex",
              "type": "uint256"
            },
            {
              "internalType": "uint256",
              "name": "fromId",
              "type": "uint256"
            },
            {
              "internalType": "uint256",
              "name": "toId",
              "type": "uint256"
            },
            {
              "internalType": "uint256",
              "name": "count",
              "type": "uint256"
            },
            {
              "internalType": "uint256",
              "name": "supply",
              "type": "uint256"
            },
            {
              "internalType": "address",
              "name": "artist",
              "type": "address"
            },
            {
              "internalType": "uint256",
              "name": "artistRoyalty",
              "type": "uint256"
            }
          ],
          "internalType": "struct LootBoxItem[]",
          "name": "_lootBoxItems",
          "type": "tuple[]"
        }
      ],
      "name": "addLootBoxes",
      "outputs": [],
      "stateMutability": "nonpayable",
      "type": "function"
    },
    {
      "inputs": [
        {
          "internalType": "uint256",
          "name": "lootBoxIndex",
          "type": "uint256"
        }
      ],
      "name": "buyLootBox",
      "outputs": [
        {
          "internalType": "uint256",
          "name": "",
          "type": "uint256"
        }
      ],
      "stateMutability": "payable",
      "type": "function",
      "payable": true
    },
    {
      "inputs": [
        {
          "internalType": "uint256",
          "name": "tokenId",
          "type": "uint256"
        }
      ],
      "name": "openLootBox",
      "outputs": [
        {
          "internalType": "uint256[]",
          "name": "",
          "type": "uint256[]"
        }
      ],
      "stateMutability": "nonpayable",
      "type": "function"
    },
    {
      "inputs": [
        {
          "internalType": "uint256",
          "name": "lootBoxIndex",
          "type": "uint256"
        }
      ],
      "name": "buyAndOpenLootBox",
      "outputs": [
        {
          "internalType": "uint256[]",
          "name": "",
          "type": "uint256[]"
        }
      ],
      "stateMutability": "payable",
      "type": "function",
      "payable": true
    },
    {
      "inputs": [
        {
          "internalType": "uint256",
          "name": "tokenId",
          "type": "uint256"
        },
        {
          "internalType": "uint256",
          "name": "amount",
          "type": "uint256"
        }
      ],
      "name": "getCreatorRoyaltyFromAmountForTokenId",
      "outputs": [
        {
          "internalType": "uint256",
          "name": "",
          "type": "uint256"
        }
      ],
      "stateMutability": "view",
      "type": "function",
      "constant": true
    },
    {
      "inputs": [
        {
          "internalType": "uint256",
          "name": "tokenId",
          "type": "uint256"
        }
      ],
      "name": "getCreatorAddressForTokenId",
      "outputs": [
        {
          "internalType": "address",
          "name": "",
          "type": "address"
        }
      ],
      "stateMutability": "view",
      "type": "function",
      "constant": true
    },
    {
      "inputs": [
        {
          "internalType": "uint256",
          "name": "tokenId",
          "type": "uint256"
        },
        {
          "internalType": "uint256",
          "name": "amount",
          "type": "uint256"
        }
      ],
      "name": "getArtistRoyaltyFromAmountForTokenId",
      "outputs": [
        {
          "internalType": "uint256",
          "name": "",
          "type": "uint256"
        }
      ],
      "stateMutability": "view",
      "type": "function",
      "constant": true
    },
    {
      "inputs": [
        {
          "internalType": "uint256",
          "name": "tokenId",
          "type": "uint256"
        }
      ],
      "name": "getArtistForTokenId",
      "outputs": [
        {
          "internalType": "address",
          "name": "",
          "type": "address"
        }
      ],
      "stateMutability": "view",
      "type": "function",
      "constant": true
    },
    {
      "inputs": [
        {
          "internalType": "uint256",
          "name": "amount",
          "type": "uint256"
        }
      ],
      "name": "getPlatformRoyalty",
      "outputs": [
        {
          "internalType": "uint256",
          "name": "",
          "type": "uint256"
        }
      ],
      "stateMutability": "view",
      "type": "function",
      "constant": true
    },
    {
      "inputs": [
        {
          "internalType": "uint256",
          "name": "x",
          "type": "uint256"
        },
        {
          "internalType": "uint256",
          "name": "y",
          "type": "uint256"
        }
      ],
      "name": "mulDiv",
      "outputs": [
        {
          "internalType": "uint256",
          "name": "",
          "type": "uint256"
        }
      ],
      "stateMutability": "pure",
      "type": "function",
      "constant": true
    },
    {
      "inputs": [],
      "name": "getTreasury",
      "outputs": [
        {
          "internalType": "address",
          "name": "",
          "type": "address"
        }
      ],
      "stateMutability": "view",
      "type": "function",
      "constant": true
    }
  ],
  "bytecode": "0x608060405234801561001057600080fd5b50614039806100206000396000f3fe60806040526004361061022f5760003560e01c80636b20c4541161012e578063b95f71de116100ab578063e6b9d9871161006f578063e6b9d987146107ab578063e985e9c5146107be578063ec399b9714610807578063f242432a146108b6578063f5298aca146108d65761022f565b8063b95f71de1461063a578063ca15c87314610717578063d539139314610737578063d547741f1461076b578063e43972ac1461078b5761022f565b806391d14854116100f257806391d14854146105a5578063a1c26ec6146105c5578063a217fddf146105e5578063a22cb465146105fa578063b8e99cc01461061a5761022f565b80636b20c454146104df5780636f2829ba146104ff578063780bfe54146105425780638456cb59146105705780639010d07c146105855761022f565b80633f4ba83a116101bc57806355a02c2d1161018057806355a02c2d1461044657806355b09456146104665780635c975abb146104865780635e49b9f81461049f578063666d8493146104bf5761022f565b80633f4ba83a146103a357806347dbc53b146103b85780634a6ca015146103d85780634e1273f41461040657806352bcd0ef146104335761022f565b8063248a9ca311610203578063248a9ca3146102e45780632eb2c2d6146103145780632f2ff15d1461033657806336568abe146103565780633b19e84a146103765761022f565b8062fdd58e1461023457806301ffc9a7146102675780630e89341c146102975780631e20e0ac146102c4575b600080fd5b34801561024057600080fd5b5061025461024f366004613653565b6108f6565b6040519081526020015b60405180910390f35b34801561027357600080fd5b506102876102823660046137d3565b610992565b604051901515815260200161025e565b3480156102a357600080fd5b506102b76102b2366004613778565b6109a5565b60405161025e9190613b44565b3480156102d057600080fd5b506102546102df366004613778565b610a39565b3480156102f057600080fd5b506102546102ff366004613778565b60009081526065602052604090206001015490565b34801561032057600080fd5b5061033461032f3660046134a2565b610a48565b005b34801561034257600080fd5b50610334610351366004613790565b610cdf565b34801561036257600080fd5b50610334610371366004613790565b610d06565b34801561038257600080fd5b5061038b610d28565b6040516001600160a01b03909116815260200161025e565b3480156103af57600080fd5b50610334610d39565b3480156103c457600080fd5b506103346103d3366004613883565b610db0565b3480156103e457600080fd5b506102546103f3366004613778565b6101c86020526000908152604090205481565b34801561041257600080fd5b506104266104213660046136ae565b61105d565b60405161025e9190613b03565b610426610441366004613778565b6111be565b34801561045257600080fd5b50610426610461366004613778565b6111e0565b34801561047257600080fd5b5061033461048136600461380b565b61153c565b34801561049257600080fd5b5061012d5460ff16610287565b3480156104ab57600080fd5b5061038b6104ba366004613778565b6115d8565b3480156104cb57600080fd5b506102546104da3660046137b2565b611628565b3480156104eb57600080fd5b506103346104fa3660046135a9565b61167e565b34801561050b57600080fd5b5061053061051a366004613778565b6101ca6020526000908152604090205460ff1681565b60405160ff909116815260200161025e565b34801561054e57600080fd5b5061025461055d366004613778565b6101c96020526000908152604090205481565b34801561057c57600080fd5b506103346116c1565b34801561059157600080fd5b5061038b6105a03660046137b2565b611734565b3480156105b157600080fd5b506102876105c0366004613790565b61174c565b3480156105d157600080fd5b506102546105e03660046137b2565b611777565b3480156105f157600080fd5b50610254600081565b34801561060657600080fd5b50610334610615366004613619565b611823565b34801561062657600080fd5b5061038b610635366004613778565b611907565b34801561064657600080fd5b506106bb610655366004613778565b6101c6602052600090815260409020805460018201546002830154600384015460048501546005860154600687015460078801546008890154600a8a0154600b909a0154989997989697959694956001600160a01b03948516959490931693919290918b565b604080519b8c5260208c019a909a52988a0197909752606089019590955260808801939093526001600160a01b0391821660a08801521660c086015260e08501526101008401526101208301526101408201526101600161025e565b34801561072357600080fd5b50610254610732366004613778565b6119b2565b34801561074357600080fd5b506102547f9f2df0fed2c77648de5860a4cc508cd0818c85b8b8a1ab4ceeef8d981c8956a681565b34801561077757600080fd5b50610334610786366004613790565b6119c9565b34801561079757600080fd5b506102546107a63660046137b2565b6119d3565b6102546107b9366004613778565b611a77565b3480156107ca57600080fd5b506102876107d9366004613470565b6001600160a01b03918216600090815260ca6020908152604080832093909416825291909152205460ff1690565b34801561081357600080fd5b50610872610822366004613778565b6101c760205260009081526040902080546001820154600283015460038401546004850154600586015460068701546007909701549596949593949293919290916001600160a01b039091169088565b604080519889526020890197909752958701949094526060860192909252608085015260a08401526001600160a01b031660c083015260e08201526101000161025e565b3480156108c257600080fd5b506103346108d1366004613547565b611e27565b3480156108e257600080fd5b506103346108f136600461367c565b611f98565b60006001600160a01b0383166109675760405162461bcd60e51b815260206004820152602b60248201527f455243313135353a2062616c616e636520717565727920666f7220746865207a60448201526a65726f206164647265737360a81b60648201526084015b60405180910390fd5b50600081815260c9602090815260408083206001600160a01b03861684529091529020545b92915050565b600061099d82611fdb565b90505b919050565b606060cb80546109b490613e6d565b80601f01602080910402602001604051908101604052809291908181526020018280546109e090613e6d565b8015610a2d5780601f10610a0257610100808354040283529160200191610a2d565b820191906000526020600020905b815481529060010190602001808311610a1057829003601f168201915b50505050509050919050565b600061099d826101c4546119d3565b8151835114610a695760405162461bcd60e51b815260040161095e90613d4c565b6001600160a01b038416610a8f5760405162461bcd60e51b815260040161095e90613c2c565b6001600160a01b038516331480610aab5750610aab85336107d9565b610b125760405162461bcd60e51b815260206004820152603260248201527f455243313135353a207472616e736665722063616c6c6572206973206e6f74206044820152711bdddb995c881b9bdc88185c1c1c9bdd995960721b606482015260840161095e565b33610b2181878787878761201b565b60005b8451811015610c71576000858281518110610b4f57634e487b7160e01b600052603260045260246000fd5b602002602001015190506000858381518110610b7b57634e487b7160e01b600052603260045260246000fd5b602090810291909101810151600084815260c9835260408082206001600160a01b038e168352909352919091205490915081811015610bcc5760405162461bcd60e51b815260040161095e90613d02565b610bd68282613e0f565b60c9600085815260200190815260200160002060008c6001600160a01b03166001600160a01b03168152602001908152602001600020819055508160c9600085815260200190815260200160002060008b6001600160a01b03166001600160a01b031681526020019081526020016000206000828254610c569190613dc4565b9250508190555050505080610c6a90613ed4565b9050610b24565b50846001600160a01b0316866001600160a01b0316826001600160a01b03167f4a39dc06d4c0dbc64b70af90fd698a233a518aa5d07e595d983b8c0526c8f7fb8787604051610cc1929190613b16565b60405180910390a4610cd7818787878787612029565b505050505050565b610ce98282612194565b6000828152609760205260409020610d0190826121bb565b505050565b610d1082826121d0565b6000828152609760205260409020610d01908261224e565b6101c5546001600160a01b03165b90565b610d446000336105c0565b610da65760405162461bcd60e51b815260206004820152602d60248201527f45524331313535546f6b656e3a206d75737420686176652061646d696e20726f60448201526c6c6520746f20756e706175736560981b606482015260840161095e565b610dae612263565b565b610dda7f9f2df0fed2c77648de5860a4cc508cd0818c85b8b8a1ab4ceeef8d981c8956a6336105c0565b610e155760405162461bcd60e51b815260206004820152600c60248201526b2737ba10309036b4b73a32b960a11b604482015260640161095e565b805182516020808501516040808701516101008801516080808a01518451978852958701949094529185015260608401528201528391907f898b5cef4d51f84a488d60feafcefb52ccb11293d52136b3de2692de569061089060a00160405180910390a160005b81811015610f93576000848281518110610ea657634e487b7160e01b600052603260045260246000fd5b602090810291909101810151805160009081526101c783526040908190208251808255838501516001830155828401516002830181905560608086015160038501819055608080880151600487015560a0808901516005880181905560c08a01516006890180546001600160a01b0319166001600160a01b0390921691909117905560e08a01516007909801979097558d5188519687529986019990995295840192909252820152918201529092507f4b58f4edbba4faba896401081cac39c5475ec515c20b3544fb020fe764963f51910160405180910390a15080610f8b81613ed4565b915050610e7c565b50815160009081526101c6602090815260409182902084518155818501516001820155918401516002830155606084015160038301556080840151600483015560a08401516005830180546001600160a01b039283166001600160a01b03199182161790915560c086015160068501805491909316911617905560e084015160078301556101008401516008830155610120840151805185939261103e9260098501929101906131b8565b50610140820151600a82015561016090910151600b9091015550505050565b606081518351146110c25760405162461bcd60e51b815260206004820152602960248201527f455243313135353a206163636f756e747320616e6420696473206c656e677468604482015268040dad2e6dac2e8c6d60bb1b606482015260840161095e565b600083516001600160401b038111156110eb57634e487b7160e01b600052604160045260246000fd5b604051908082528060200260200182016040528015611114578160200160208202803683370190505b50905060005b84518110156111b65761117b85828151811061114657634e487b7160e01b600052603260045260246000fd5b602002602001015185838151811061116e57634e487b7160e01b600052603260045260246000fd5b60200260200101516108f6565b82828151811061119b57634e487b7160e01b600052603260045260246000fd5b60209081029190910101526111af81613ed4565b905061111a565b509392505050565b606060006111cb83611a77565b905060006111d8826111e0565b949350505050565b60008181526101c8602090815260408083205483526101c69091529020546060906112365760405162461bcd60e51b815260206004820152600660248201526545786973747360d01b604482015260640161095e565b60008281526101ca602052604090205460ff166001146112815760405162461bcd60e51b8152602060048201526006602482015265092e640c4def60d31b604482015260640161095e565b61128d338360016122f8565b60008281526101c860209081526040808320548084526101c69092528220600b01549091906001600160401b038111156112d757634e487b7160e01b600052604160045260246000fd5b604051908082528060200260200182016040528015611300578160200160208202803683370190505b50905060005b60008381526101c660205260409020600b01548110156111b65760008381526101c660205260408120600b8101546003820154600490920154909161134a91613e0f565b611355906001613dc4565b61135f9190613df0565b905060006113756113708484613e0f565b612405565b90506000805b60008781526101c660205260409020600901548110156115255760008781526101c6602052604081206009018054839081106113c757634e487b7160e01b600052603260045260246000fd5b60009182526020808320909101548083526101c7909152604090912060048101546005909101549192506113fa91613e0f565b6114049084613dc4565b92508284116115125760008181526101c76020526040812060048101546002909101546114319190613dc4565b60008381526101c76020526040812060040180549293509061145283613ed4565b9091555050604080518381523360208201529081018290527f1dd69ba1529ee26c893974d206b7b8a51903ee28643880696d4f4809ed621e349060600160405180910390a16114b33382600160405180602001604052806000815250612474565b60008181526101ca60209081526040808320805460ff191660021790556101c99091529020829055875181908990899081106114ff57634e487b7160e01b600052603260045260246000fd5b6020026020010181815250505050611525565b508061151d81613ed4565b91505061137b565b50505050808061153490613ed4565b915050611306565b600054610100900460ff1680611555575060005460ff16155b6115715760405162461bcd60e51b815260040161095e90613c71565b600054610100900460ff16158015611593576000805461ffff19166101011790555b61159d8585612577565b6101c48390556101c580546001600160a01b0319166001600160a01b03841617905580156115d1576000805461ff00191690555b5050505050565b60008181526101ca602052604081205460ff16600114156115fa5750306109a0565b5060009081526101c9602090815260408083205483526101c79091529020600601546001600160a01b031690565b60008281526101ca602052604081205460ff166001141561164b5750600061098c565b60008381526101c9602090815260408083205483526101c79091529020600701546116779083906119d3565b9392505050565b6001600160a01b03831633148061169a575061169a83336107d9565b6116b65760405162461bcd60e51b815260040161095e90613be3565b610d0183838361262e565b6116cc6000336105c0565b61172c5760405162461bcd60e51b815260206004820152602b60248201527f45524331313535546f6b656e3a206d75737420686176652061646d696e20726f60448201526a6c6520746f20706175736560a81b606482015260840161095e565b610dae6127e8565b60008281526097602052604081206116779083612865565b60009182526065602090815260408084206001600160a01b0393909316845291905290205460ff1690565b60008281526101ca602052604081205460ff16600114156117c55760008381526101c8602090815260408083205483526101c69091529020600701546117be9083906119d3565b905061098c565b60008381526101ca602052604090205460ff166002141561181a5760008381526101c9602090815260408083205483526101c782528083206001015483526101c69091529020600701546117be9083906119d3565b50600092915050565b336001600160a01b038316141561188e5760405162461bcd60e51b815260206004820152602960248201527f455243313135353a2073657474696e6720617070726f76616c20737461747573604482015268103337b91039b2b63360b91b606482015260840161095e565b33600081815260ca602090815260408083206001600160a01b0387168085529252909120805460ff1916841515179055906001600160a01b03167f17307eab39ab6107e8899845ad3d59bd9653f200f220920489ca2b5937696c31836040516118fb911515815260200190565b60405180910390a35050565b60008181526101ca602052604081205460ff1660011415611952575060008181526101c8602090815260408083205483526101c69091529020600601546001600160a01b03166109a0565b60008281526101ca602052604090205460ff16600214156119ab575060008181526101c9602090815260408083205483526101c782528083206001015483526101c69091529020600601546001600160a01b03166109a0565b5030919050565b600081815260976020526040812061099d90612871565b610d10828261287b565b6000612710816119e38286613ddc565b905060006119f18387613eef565b905060006119ff8487613ddc565b90506000611a0d8588613eef565b905084611a1a8285613df0565b611a249190613ddc565b611a2e8385613df0565b611a388387613df0565b87611a438789613df0565b611a4d9190613df0565b611a579190613dc4565b611a619190613dc4565b611a6b9190613dc4565b98975050505050505050565b60008181526101c66020526040812054611abc5760405162461bcd60e51b815260206004820152600660248201526545786973747360d01b604482015260640161095e565b60008281526101c66020526040902060080154341015611b065760405162461bcd60e51b8152602060048201526005602482015264507269636560d81b604482015260640161095e565b60008281526101c660205260409020600a0154421015611b525760405162461bcd60e51b815260206004820152600760248201526652656c6561736560c81b604482015260640161095e565b60008281526101c66020526040902060048101546003909101541115611ba35760405162461bcd60e51b8152602060048201526006602482015265537570706c7960d01b604482015260640161095e565b60008281526101c66020526040812060070154611bc19034906119d3565b60008481526101c660205260408082206006015490519293506001600160a01b03169183156108fc0291849190818181858888f19350505050158015611c0b573d6000803e3d6000fd5b5060008381526101c660205260409020600501546001600160a01b03166108fc611c358334613e0f565b6040518115909202916000818181858888f19350505050158015611c5d573d6000803e3d6000fd5b5060008381526101c6602052604081206003810154600190910154611c829190613dc4565b60008181526101c8602090815260408083208890556101ca8252808320805460ff191660019081179091558884526101c6909252822060030180549394509092909190611cd0908490613dc4565b909155505060008481526101c660209081526040918290206003015482518781523392810192909252818301849052606082015290517f6cdfe1ee3b71ebe30d1ff469b66a065b40e19e61efc4d35b895c87f3b9ce828c9181900360800190a1611d4c3382600160405180602001604052806000815250612474565b7f348d5d022d312593f567daf3838025425d4d802fa3c8b8af74eae3d866af3239600082611d7a8534613e0f565b60008881526101c6602090815260409182902060050154825160ff9096168652908501939093528301526001600160a01b0316606082015260800160405180910390a160008481526101c66020908152604091829020600601548251600181529182018490528183018590526001600160a01b0316606082015290517f348d5d022d312593f567daf3838025425d4d802fa3c8b8af74eae3d866af32399181900360800190a19392505050565b6001600160a01b038416611e4d5760405162461bcd60e51b815260040161095e90613c2c565b6001600160a01b038516331480611e695750611e6985336107d9565b611e855760405162461bcd60e51b815260040161095e90613be3565b33611ea4818787611e95886128a1565b611e9e886128a1565b8761201b565b600084815260c9602090815260408083206001600160a01b038a16845290915290205483811015611ee75760405162461bcd60e51b815260040161095e90613d02565b611ef18482613e0f565b600086815260c9602090815260408083206001600160a01b038c81168552925280832093909355881681529081208054869290611f2f908490613dc4565b909155505060408051868152602081018690526001600160a01b03808916928a821692918616917fc3d58168c5ae7397731d063d5bbf3d657854427343f4c083240f7aacaa2d0f62910160405180910390a4611f8f8288888888886128fa565b50505050505050565b6001600160a01b038316331480611fb45750611fb483336107d9565b611fd05760405162461bcd60e51b815260040161095e90613be3565b610d018383836122f8565b60006001600160e01b03198216636cdb3d1360e11b148061200c57506001600160e01b031982166303a24d0760e21b145b8061099d575061099d826129c4565b610cd78686868686866129e9565b6001600160a01b0384163b15610cd75760405163bc197c8160e01b81526001600160a01b0385169063bc197c819061206d9089908990889088908890600401613a6c565b602060405180830381600087803b15801561208757600080fd5b505af19250505080156120b7575060408051601f3d908101601f191682019092526120b4918101906137ef565b60015b612164576120c3613f45565b806308c379a014156120fd57506120d8613f5c565b806120e357506120ff565b8060405162461bcd60e51b815260040161095e9190613b44565b505b60405162461bcd60e51b815260206004820152603460248201527f455243313135353a207472616e7366657220746f206e6f6e20455243313135356044820152732932b1b2b4bb32b91034b6b83632b6b2b73a32b960611b606482015260840161095e565b6001600160e01b0319811663bc197c8160e01b14611f8f5760405162461bcd60e51b815260040161095e90613b57565b6000828152606560205260409020600101546121b181335b612a52565b610d018383612ab6565b6000611677836001600160a01b038416612b3c565b6001600160a01b03811633146122405760405162461bcd60e51b815260206004820152602f60248201527f416363657373436f6e74726f6c3a2063616e206f6e6c792072656e6f756e636560448201526e103937b632b9903337b91039b2b63360891b606482015260840161095e565b61224a8282612b8b565b5050565b6000611677836001600160a01b038416612bf2565b61012d5460ff166122ad5760405162461bcd60e51b815260206004820152601460248201527314185d5cd8589b194e881b9bdd081c185d5cd95960621b604482015260640161095e565b61012d805460ff191690557f5db9ee0a495bf2e6ff9c91a7834c1ba4fdd244a5e8aa4e537bd38aeae4b073aa335b6040516001600160a01b03909116815260200160405180910390a1565b6001600160a01b03831661231e5760405162461bcd60e51b815260040161095e90613cbf565b3361234d8185600061232f876128a1565b612338876128a1565b6040518060200160405280600081525061201b565b600083815260c9602090815260408083206001600160a01b0388168452909152902054828110156123905760405162461bcd60e51b815260040161095e90613b9f565b61239a8382613e0f565b600085815260c9602090815260408083206001600160a01b038a811680865291845282852095909555815189815292830188905292938616917fc3d58168c5ae7397731d063d5bbf3d657854427343f4c083240f7aacaa2d0f62910160405180910390a45050505050565b6101c380546000918261241783613ed4565b90915550506101c354604080514260208201526bffffffffffffffffffffffff193360601b1691810191909152605481019190915282906074016040516020818303038152906040528051906020012060001c61099d9190613eef565b6001600160a01b0384166124d45760405162461bcd60e51b815260206004820152602160248201527f455243313135353a206d696e7420746f20746865207a65726f206164647265736044820152607360f81b606482015260840161095e565b336124e581600087611e95886128a1565b600084815260c9602090815260408083206001600160a01b038916845290915281208054859290612517908490613dc4565b909155505060408051858152602081018590526001600160a01b0380881692600092918516917fc3d58168c5ae7397731d063d5bbf3d657854427343f4c083240f7aacaa2d0f62910160405180910390a46115d1816000878787876128fa565b600054610100900460ff1680612590575060005460ff16155b6125ac5760405162461bcd60e51b815260040161095e90613c71565b600054610100900460ff161580156125ce576000805461ffff19166101011790555b6125d6612d09565b6125de612d09565b6125e6612d09565b6125ee612d09565b6125f783612d75565b6125ff612d09565b612607612dea565b61260f612d09565b61261882612e60565b8015610d01576000805461ff0019169055505050565b6001600160a01b0383166126545760405162461bcd60e51b815260040161095e90613cbf565b80518251146126755760405162461bcd60e51b815260040161095e90613d4c565b60003390506126988185600086866040518060200160405280600081525061201b565b60005b83518110156127895760008482815181106126c657634e487b7160e01b600052603260045260246000fd5b6020026020010151905060008483815181106126f257634e487b7160e01b600052603260045260246000fd5b602090810291909101810151600084815260c9835260408082206001600160a01b038c1683529093529190912054909150818110156127435760405162461bcd60e51b815260040161095e90613b9f565b61274d8282613e0f565b600093845260c9602090815260408086206001600160a01b038c168752909152909320929092555081905061278181613ed4565b91505061269b565b5060006001600160a01b0316846001600160a01b0316826001600160a01b03167f4a39dc06d4c0dbc64b70af90fd698a233a518aa5d07e595d983b8c0526c8f7fb86866040516127da929190613b16565b60405180910390a450505050565b61012d5460ff161561282f5760405162461bcd60e51b815260206004820152601060248201526f14185d5cd8589b194e881c185d5cd95960821b604482015260640161095e565b61012d805460ff191660011790557f62e78cea01bee320cd4e420270b5ea74000d11b0c9f74754ebdbfc544b05a2586122db3390565b60006116778383612eec565b600061099d825490565b60008281526065602052604090206001015461289781336121ac565b610d018383612b8b565b604080516001808252818301909252606091600091906020808301908036833701905050905082816000815181106128e957634e487b7160e01b600052603260045260246000fd5b602090810291909101015292915050565b6001600160a01b0384163b15610cd75760405163f23a6e6160e01b81526001600160a01b0385169063f23a6e619061293e9089908990889088908890600401613abe565b602060405180830381600087803b15801561295857600080fd5b505af1925050508015612988575060408051601f3d908101601f19168201909252612985918101906137ef565b60015b612994576120c3613f45565b6001600160e01b0319811663f23a6e6160e01b14611f8f5760405162461bcd60e51b815260040161095e90613b57565b60006001600160e01b03198216635a05180f60e01b148061099d575061099d82612f80565b61012d5460ff1615610cd75760405162461bcd60e51b815260206004820152602c60248201527f455243313135355061757361626c653a20746f6b656e207472616e736665722060448201526b1dda1a5b19481c185d5cd95960a21b606482015260840161095e565b612a5c828261174c565b61224a57612a74816001600160a01b03166014612fb5565b612a7f836020612fb5565b604051602001612a909291906139f7565b60408051601f198184030181529082905262461bcd60e51b825261095e91600401613b44565b612ac0828261174c565b61224a5760008281526065602090815260408083206001600160a01b03851684529091529020805460ff19166001179055612af83390565b6001600160a01b0316816001600160a01b0316837f2f8788117e7eff1d82e926ec794901d17c78024a50270940304540a733656f0d60405160405180910390a45050565b6000818152600183016020526040812054612b835750815460018181018455600084815260208082209093018490558454848252828601909352604090209190915561098c565b50600061098c565b612b95828261174c565b1561224a5760008281526065602090815260408083206001600160a01b0385168085529252808320805460ff1916905551339285917ff6391f5c32d9c69d2a47ea670b442974b53935d1edc7fd64eb21e047a839171b9190a45050565b60008181526001830160205260408120548015612cff576000612c16600183613e0f565b8554909150600090612c2a90600190613e0f565b90506000866000018281548110612c5157634e487b7160e01b600052603260045260246000fd5b9060005260206000200154905080876000018481548110612c8257634e487b7160e01b600052603260045260246000fd5b600091825260208083209091019290925582815260018901909152604090208490558654879080612cc357634e487b7160e01b600052603160045260246000fd5b6001900381819060005260206000200160009055905586600101600087815260200190815260200160002060009055600194505050505061098c565b600091505061098c565b600054610100900460ff1680612d22575060005460ff16155b612d3e5760405162461bcd60e51b815260040161095e90613c71565b600054610100900460ff16158015612d60576000805461ffff19166101011790555b8015612d72576000805461ff00191690555b50565b600054610100900460ff1680612d8e575060005460ff16155b612daa5760405162461bcd60e51b815260040161095e90613c71565b600054610100900460ff16158015612dcc576000805461ffff19166101011790555b612dd582613196565b801561224a576000805461ff00191690555050565b600054610100900460ff1680612e03575060005460ff16155b612e1f5760405162461bcd60e51b815260040161095e90613c71565b600054610100900460ff16158015612e41576000805461ffff19166101011790555b61012d805460ff191690558015612d72576000805461ff001916905550565b600054610100900460ff1680612e79575060005460ff16155b612e955760405162461bcd60e51b815260040161095e90613c71565b600054610100900460ff16158015612eb7576000805461ffff19166101011790555b612ec26000336131a9565b612dd57f9f2df0fed2c77648de5860a4cc508cd0818c85b8b8a1ab4ceeef8d981c8956a6836131a9565b81546000908210612f4a5760405162461bcd60e51b815260206004820152602260248201527f456e756d657261626c655365743a20696e646578206f7574206f6620626f756e604482015261647360f01b606482015260840161095e565b826000018281548110612f6d57634e487b7160e01b600052603260045260246000fd5b9060005260206000200154905092915050565b60006001600160e01b03198216637965db0b60e01b148061099d57506301ffc9a760e01b6001600160e01b031983161461099d565b60606000612fc4836002613df0565b612fcf906002613dc4565b6001600160401b03811115612ff457634e487b7160e01b600052604160045260246000fd5b6040519080825280601f01601f19166020018201604052801561301e576020820181803683370190505b509050600360fc1b8160008151811061304757634e487b7160e01b600052603260045260246000fd5b60200101906001600160f81b031916908160001a905350600f60fb1b8160018151811061308457634e487b7160e01b600052603260045260246000fd5b60200101906001600160f81b031916908160001a90535060006130a8846002613df0565b6130b3906001613dc4565b90505b6001811115613147576f181899199a1a9b1b9c1cb0b131b232b360811b85600f16601081106130f557634e487b7160e01b600052603260045260246000fd5b1a60f81b82828151811061311957634e487b7160e01b600052603260045260246000fd5b60200101906001600160f81b031916908160001a90535060049490941c9361314081613e56565b90506130b6565b5083156116775760405162461bcd60e51b815260206004820181905260248201527f537472696e67733a20686578206c656e67746820696e73756666696369656e74604482015260640161095e565b805161224a9060cb906020840190613203565b610ce9828261224a8282612ab6565b8280548282559060005260206000209081019282156131f3579160200282015b828111156131f35782518255916020019190600101906131d8565b506131ff929150613276565b5090565b82805461320f90613e6d565b90600052602060002090601f01602090048101928261323157600085556131f3565b82601f1061324a57805160ff19168380011785556131f3565b828001600101855582156131f357918201828111156131f35782518255916020019190600101906131d8565b5b808211156131ff5760008155600101613277565b60006001600160401b038311156132a4576132a4613f2f565b6040516132bb601f8501601f191660200182613ea8565b8091508381528484840111156132d057600080fd5b83836020830137600060208583010152509392505050565b80356001600160a01b03811681146109a057600080fd5b600082601f83011261330f578081fd5b8135602061331c82613da1565b6040805161332a8382613ea8565b8481528381019250868401600886901b88018501891015613349578687fd5b865b868110156133cf5761010080838c031215613364578889fd5b84516133708282613ea8565b8335815287840135888201528584013586820152606080850135908201526080808501359082015260a0808501359082015260c06133af8186016132e8565b9082015260e084810135908201528652948601949091019060010161334b565b509098975050505050505050565b600082601f8301126133ed578081fd5b813560206133fa82613da1565b6040516134078282613ea8565b8381528281019150858301600585901b87018401881015613426578586fd5b855b8581101561344457813584529284019290840190600101613428565b5090979650505050505050565b600082601f830112613461578081fd5b6116778383356020850161328b565b60008060408385031215613482578182fd5b61348b836132e8565b9150613499602084016132e8565b90509250929050565b600080600080600060a086880312156134b9578081fd5b6134c2866132e8565b94506134d0602087016132e8565b935060408601356001600160401b03808211156134eb578283fd5b6134f789838a016133dd565b9450606088013591508082111561350c578283fd5b61351889838a016133dd565b9350608088013591508082111561352d578283fd5b5061353a88828901613451565b9150509295509295909350565b600080600080600060a0868803121561355e578283fd5b613567866132e8565b9450613575602087016132e8565b9350604086013592506060860135915060808601356001600160401b0381111561359d578182fd5b61353a88828901613451565b6000806000606084860312156135bd578081fd5b6135c6846132e8565b925060208401356001600160401b03808211156135e1578283fd5b6135ed878388016133dd565b93506040860135915080821115613602578283fd5b5061360f868287016133dd565b9150509250925092565b6000806040838503121561362b578182fd5b613634836132e8565b915060208301358015158114613648578182fd5b809150509250929050565b60008060408385031215613665578182fd5b61366e836132e8565b946020939093013593505050565b600080600060608486031215613690578081fd5b613699846132e8565b95602085013595506040909401359392505050565b600080604083850312156136c0578182fd5b82356001600160401b03808211156136d6578384fd5b818501915085601f8301126136e9578384fd5b813560206136f682613da1565b6040516137038282613ea8565b8381528281019150858301600585901b870184018b1015613722578889fd5b8896505b8487101561374b57613737816132e8565b835260019690960195918301918301613726565b5096505086013592505080821115613761578283fd5b5061376e858286016133dd565b9150509250929050565b600060208284031215613789578081fd5b5035919050565b600080604083850312156137a2578182fd5b82359150613499602084016132e8565b600080604083850312156137c4578182fd5b50508035926020909101359150565b6000602082840312156137e4578081fd5b813561167781613fed565b600060208284031215613800578081fd5b815161167781613fed565b60008060008060808587031215613820578182fd5b84356001600160401b03811115613835578283fd5b8501601f81018713613845578283fd5b6138548782356020840161328b565b945050613863602086016132e8565b925060408501359150613878606086016132e8565b905092959194509250565b60008060408385031215613895578182fd5b82356001600160401b03808211156138ab578384fd5b81850191506101808083880312156138c1578485fd5b6138ca81613d94565b9050823581526020830135602082015260408301356040820152606083013560608201526080830135608082015261390460a084016132e8565b60a082015261391560c084016132e8565b60c082015260e083013560e08201526101008084013581830152506101208084013583811115613943578687fd5b61394f898287016133dd565b828401525050610140808401358183015250610160808401358183015250809450506020850135915080821115613984578283fd5b5061376e858286016132ff565b6000815180845260208085019450808401835b838110156139c0578151875295820195908201906001016139a4565b509495945050505050565b600081518084526139e3816020860160208601613e26565b601f01601f19169290920160200192915050565b60007f416363657373436f6e74726f6c3a206163636f756e742000000000000000000082528351613a2f816017850160208801613e26565b7001034b99036b4b9b9b4b733903937b6329607d1b6017918401918201528351613a60816028840160208801613e26565b01602801949350505050565b6001600160a01b0386811682528516602082015260a060408201819052600090613a9890830186613991565b8281036060840152613aaa8186613991565b90508281036080840152611a6b81856139cb565b6001600160a01b03868116825285166020820152604081018490526060810183905260a060808201819052600090613af8908301846139cb565b979650505050505050565b6000602082526116776020830184613991565b600060408252613b296040830185613991565b8281036020840152613b3b8185613991565b95945050505050565b60006020825261167760208301846139cb565b60208082526028908201527f455243313135353a204552433131353552656365697665722072656a656374656040820152676420746f6b656e7360c01b606082015260800190565b60208082526024908201527f455243313135353a206275726e20616d6f756e7420657863656564732062616c604082015263616e636560e01b606082015260800190565b60208082526029908201527f455243313135353a2063616c6c6572206973206e6f74206f776e6572206e6f7260408201526808185c1c1c9bdd995960ba1b606082015260800190565b60208082526025908201527f455243313135353a207472616e7366657220746f20746865207a65726f206164604082015264647265737360d81b606082015260800190565b6020808252602e908201527f496e697469616c697a61626c653a20636f6e747261637420697320616c72656160408201526d191e481a5b9a5d1a585b1a5e995960921b606082015260800190565b60208082526023908201527f455243313135353a206275726e2066726f6d20746865207a65726f206164647260408201526265737360e81b606082015260800190565b6020808252602a908201527f455243313135353a20696e73756666696369656e742062616c616e636520666f60408201526939103a3930b739b332b960b11b606082015260800190565b60208082526028908201527f455243313135353a2069647320616e6420616d6f756e7473206c656e677468206040820152670dad2e6dac2e8c6d60c31b606082015260800190565b6040516109a08282613ea8565b60006001600160401b03821115613dba57613dba613f2f565b5060051b60200190565b60008219821115613dd757613dd7613f03565b500190565b600082613deb57613deb613f19565b500490565b6000816000190483118215151615613e0a57613e0a613f03565b500290565b600082821015613e2157613e21613f03565b500390565b60005b83811015613e41578181015183820152602001613e29565b83811115613e50576000848401525b50505050565b600081613e6557613e65613f03565b506000190190565b600181811c90821680613e8157607f821691505b60208210811415613ea257634e487b7160e01b600052602260045260246000fd5b50919050565b601f8201601f191681016001600160401b0381118282101715613ecd57613ecd613f2f565b6040525050565b6000600019821415613ee857613ee8613f03565b5060010190565b600082613efe57613efe613f19565b500690565b634e487b7160e01b600052601160045260246000fd5b634e487b7160e01b600052601260045260246000fd5b634e487b7160e01b600052604160045260246000fd5b600060033d1115610d3657600481823e5160e01c90565b600060443d1015613f6c57610d36565b6040516003193d81016004833e81513d6001600160401b038160248401118184111715613f9d575050505050610d36565b8285019150815181811115613fb757505050505050610d36565b843d8701016020828501011115613fd357505050505050610d36565b613fe260208286010187613ea8565b509094505050505090565b6001600160e01b031981168114612d7257600080fdfea26469706673582212202b1e2523548e346e7276765239eba06fc0395ecdbd8931f303307199cf8c2b7864736f6c63430008030033",
  "immutableReferences": {},
  "source": "// SPDX-License-Identifier: MIT\npragma solidity ^0.8.3;\n\nimport \"../node_modules/@openzeppelin/contracts-upgradeable/proxy/utils/Initializable.sol\";\nimport \"./ERC1155Token.sol\";\n\nstruct LootBox {\n  uint256 index;\n  uint256 fromId;\n  uint256 toId;\n  uint256 count;\n  uint256 supply;\n  address seller;\n  address creator;\n  uint256 creatorRoyalty;\n  uint256 price;\n  uint256[] lootBoxItemsIndex;\n  uint256 release;\n  uint256 dropRate;\n}\n\nstruct LootBoxItem {\n  uint256 index;\n  uint256 lootBoxIndex;\n  uint256 fromId;\n  uint256 toId;\n  uint256 count;\n  uint256 supply;\n  address artist;\n  uint256 artistRoyalty;\n}\n\ncontract Topx is Initializable, ERC1155Token {\n\n  uint256 private randomNounce;\n  uint256 private platformRoyalty;\n  address private treasury;\n\n  mapping(uint256 => LootBox) public lootBoxes;\n  mapping(uint256 => LootBoxItem) public lootBoxItems;\n  mapping(uint256 => uint256) public tokenIdToLootBoxIndex;\n  mapping(uint256 => uint256) public tokenIdToLootBoxItemsIndex;\n  mapping(uint256 => uint8) public tokenIdType;\n\n  function initialize(string memory _uri, address _minter, uint256 _platformRoyalty, address _treasury) public initializer {\n    __ERC1155Token_init(_uri, _minter);\n    platformRoyalty = _platformRoyalty;\n    treasury = _treasury;\n  }\n\n  event EthTopxTransfer(uint8 _action, uint256 _tokenId, uint256 _amount, address _account);\n\n  event addLootBox(uint256 _packid, uint256 _from, uint256 _to, uint256 _price, uint256 _supply);\n  event addLootBoxItem(uint256 _itemid, uint256 _packid, uint256 _from, uint256 _to, uint256 _supply);\n\n  function addLootBoxes(LootBox memory _lootBox, LootBoxItem[] memory _lootBoxItems) public {\n    require(hasRole(MINTER_ROLE, _msgSender()), \"Not a minter\");\n    LootBox memory lootBox = _lootBox;\n    uint256 lootBoxItemsCount = _lootBoxItems.length;\n    emit addLootBox(lootBox.index, lootBox.fromId, lootBox.toId, lootBox.price, lootBox.supply);\n    for (uint256 i=0; i<lootBoxItemsCount; i++) {\n      LootBoxItem memory lootBoxItem = _lootBoxItems[i];\n      lootBoxItems[lootBoxItem.index] = lootBoxItem;\n      emit addLootBoxItem(lootBoxItem.index, lootBox.index, lootBoxItem.fromId, lootBoxItem.toId, lootBoxItem.supply);\n    }\n    lootBoxes[lootBox.index] = lootBox;\n  }\n\n  event mintLootBox(uint256 _id, address _account, uint256 _tokenId, uint256 _count);\n\n  function buyLootBox(uint256 lootBoxIndex) public payable returns (uint256) {\n    require(lootBoxes[lootBoxIndex].index > 0, \"Exists\");\n    require(msg.value >= lootBoxes[lootBoxIndex].price, \"Price\");\n    require(block.timestamp >= lootBoxes[lootBoxIndex].release, \"Release\");\n    require(lootBoxes[lootBoxIndex].count <= lootBoxes[lootBoxIndex].supply, \"Supply\");\n    uint256 toCreatorRoyalty = mulDiv(msg.value, lootBoxes[lootBoxIndex].creatorRoyalty);\n    payable(lootBoxes[lootBoxIndex].creator).transfer(toCreatorRoyalty);\n    payable(lootBoxes[lootBoxIndex].seller).transfer(msg.value - toCreatorRoyalty);\n    uint256 tokenId = lootBoxes[lootBoxIndex].fromId + lootBoxes[lootBoxIndex].count;\n    tokenIdToLootBoxIndex[tokenId] = lootBoxIndex;\n    tokenIdType[tokenId] = 1;\n    lootBoxes[lootBoxIndex].count += 1;\n    emit mintLootBox(lootBoxIndex, msg.sender, tokenId, lootBoxes[lootBoxIndex].count);\n    _mint(msg.sender, tokenId, 1, \"\");\n    emit EthTopxTransfer(0, tokenId, msg.value - toCreatorRoyalty, lootBoxes[lootBoxIndex].seller);\n    emit EthTopxTransfer(1, tokenId, toCreatorRoyalty, lootBoxes[lootBoxIndex].creator);\n    return tokenId;\n  }\n\n  event mintItem(uint256 _id, address _account, uint256 _tokenId);\n\n  function openLootBox(uint256 tokenId) public returns (uint256[] memory) {\n    require(lootBoxes[tokenIdToLootBoxIndex[tokenId]].index > 0, \"Exists\");\n    require(tokenIdType[tokenId] == 1, \"Is box\");\n    _burn(msg.sender, tokenId, 1);\n    uint256 lootBoxIndex = tokenIdToLootBoxIndex[tokenId];\n    uint256[] memory mintedTokenIds = new uint256[](lootBoxes[lootBoxIndex].dropRate);\n    for (uint256 i=0; i<lootBoxes[lootBoxIndex].dropRate; i++) {\n      uint256 availables = (lootBoxes[lootBoxIndex].supply - lootBoxes[lootBoxIndex].count + 1) * lootBoxes[lootBoxIndex].dropRate;\n      uint256 rand = random(availables - i);\n      uint256 counter = 0;\n      for (uint256 j=0; j<lootBoxes[lootBoxIndex].lootBoxItemsIndex.length; j++) {\n        uint256 currentItem = lootBoxes[lootBoxIndex].lootBoxItemsIndex[j];\n        counter = counter + (lootBoxItems[currentItem].supply - lootBoxItems[currentItem].count);\n        if (rand <= counter) {\n          uint256 mintedTokenId = lootBoxItems[currentItem].fromId + lootBoxItems[currentItem].count;\n          lootBoxItems[currentItem].count++;\n          emit mintItem(currentItem, msg.sender, mintedTokenId);\n          _mint(msg.sender, mintedTokenId, 1, \"\");\n          tokenIdType[mintedTokenId] = 2;\n          tokenIdToLootBoxItemsIndex[mintedTokenId] = currentItem;\n          mintedTokenIds[i] = mintedTokenId;\n          break;\n        }\n      }\n    }\n    return mintedTokenIds;\n  }\n\n  function buyAndOpenLootBox(uint256 lootBoxIndex) public payable returns (uint256[] memory) {\n    uint256 tokenId = buyLootBox(lootBoxIndex);\n    uint256[] memory mintedTokens = openLootBox(tokenId);\n    return mintedTokens;\n  }\n\n  function getCreatorRoyaltyFromAmountForTokenId(uint256 tokenId, uint256 amount) public view returns (uint256) {\n    if (tokenIdType[tokenId] == 1) {\n      return mulDiv(amount, lootBoxes[tokenIdToLootBoxIndex[tokenId]].creatorRoyalty);\n    }\n    if (tokenIdType[tokenId] == 2) {\n      return mulDiv(amount, lootBoxes[lootBoxItems[tokenIdToLootBoxItemsIndex[tokenId]].lootBoxIndex].creatorRoyalty);\n    }\n    return 0;\n  }\n\n  function getCreatorAddressForTokenId(uint256 tokenId) public view returns (address) {\n    if (tokenIdType[tokenId] == 1) {\n      return lootBoxes[tokenIdToLootBoxIndex[tokenId]].creator;\n    }\n    if (tokenIdType[tokenId] == 2) {\n      return lootBoxes[lootBoxItems[tokenIdToLootBoxItemsIndex[tokenId]].lootBoxIndex].creator;\n    }\n    return address(this);\n  }\n\n  function getArtistRoyaltyFromAmountForTokenId(uint256 tokenId, uint256 amount) public view returns (uint256) {\n    if (tokenIdType[tokenId] == 1) {\n      return 0;\n    }\n    return mulDiv(amount, lootBoxItems[tokenIdToLootBoxItemsIndex[tokenId]].artistRoyalty);\n  }\n\n  function getArtistForTokenId(uint256 tokenId) public view returns (address) {\n    if (tokenIdType[tokenId] == 1) {\n      return address(this);\n    }\n    return lootBoxItems[tokenIdToLootBoxItemsIndex[tokenId]].artist;\n  }\n\n  function getPlatformRoyalty(uint256 amount) public view returns (uint256) {\n    return mulDiv(amount, platformRoyalty);\n  }\n\n  function mulDiv(uint256 x, uint256 y) public pure returns (uint256) {\n    uint256 z = 10000;\n    uint256 a = x / z;\n    uint256 b = x % z;\n    uint256 c = y / z;\n    uint256 d = y % z;\n    return a * b * z + a * d + b * c + b * d / z;\n  }\n\n  function random(uint256 size) private returns (uint256) {\n    randomNounce++;\n    return uint256(keccak256(abi.encodePacked(block.timestamp, msg.sender, randomNounce))) % size;\n  }\n\n  function updatePlatformRoyalty(uint256 _platformRoyalty) private {\n    require(hasRole(DEFAULT_ADMIN_ROLE, msg.sender), \"Not an admin\");\n    platformRoyalty = _platformRoyalty;\n  }\n\n  function getTreasury() public view returns (address) {\n    return treasury;\n  }\n}",
  "sourcePath": "/Users/jernejpregelj/dev/markeljc/trill/smartcontracts/contracts/Topx.sol",
  "compiler": {
    "name": "solc",
    "version": "0.8.3+commit.8d00100c.Emscripten.clang"
  },
  "schemaVersion": "3.3.4",
  "updatedAt": "2021-05-28T06:40:24.206Z",
  "networkType": "ethereum",
  "devdoc": {
    "kind": "dev",
    "methods": {
      "balanceOf(address,uint256)": {
        "details": "See {IERC1155-balanceOf}. Requirements: - `account` cannot be the zero address."
      },
      "balanceOfBatch(address[],uint256[])": {
        "details": "See {IERC1155-balanceOfBatch}. Requirements: - `accounts` and `ids` must have the same length."
      },
      "getRoleAdmin(bytes32)": {
        "details": "Returns the admin role that controls `role`. See {grantRole} and {revokeRole}. To change a role's admin, use {_setRoleAdmin}."
      },
      "getRoleMember(bytes32,uint256)": {
        "details": "Returns one of the accounts that have `role`. `index` must be a value between 0 and {getRoleMemberCount}, non-inclusive. Role bearers are not sorted in any particular way, and their ordering may change at any point. WARNING: When using {getRoleMember} and {getRoleMemberCount}, make sure you perform all queries on the same block. See the following https://forum.openzeppelin.com/t/iterating-over-elements-on-enumerableset-in-openzeppelin-contracts/2296[forum post] for more information."
      },
      "getRoleMemberCount(bytes32)": {
        "details": "Returns the number of accounts that have `role`. Can be used together with {getRoleMember} to enumerate all bearers of a role."
      },
      "grantRole(bytes32,address)": {
        "details": "Overload {grantRole} to track enumerable memberships"
      },
      "hasRole(bytes32,address)": {
        "details": "Returns `true` if `account` has been granted `role`."
      },
      "isApprovedForAll(address,address)": {
        "details": "See {IERC1155-isApprovedForAll}."
      },
      "paused()": {
        "details": "Returns true if the contract is paused, and false otherwise."
      },
      "renounceRole(bytes32,address)": {
        "details": "Overload {renounceRole} to track enumerable memberships"
      },
      "revokeRole(bytes32,address)": {
        "details": "Overload {revokeRole} to track enumerable memberships"
      },
      "safeBatchTransferFrom(address,address,uint256[],uint256[],bytes)": {
        "details": "See {IERC1155-safeBatchTransferFrom}."
      },
      "safeTransferFrom(address,address,uint256,uint256,bytes)": {
        "details": "See {IERC1155-safeTransferFrom}."
      },
      "setApprovalForAll(address,bool)": {
        "details": "See {IERC1155-setApprovalForAll}."
      },
      "uri(uint256)": {
        "details": "See {IERC1155MetadataURI-uri}. This implementation returns the same URI for *all* token types. It relies on the token type ID substitution mechanism https://eips.ethereum.org/EIPS/eip-1155#metadata[defined in the EIP]. Clients calling this function must replace the `\\{id\\}` substring with the actual token type ID."
      }
    },
    "version": 1
  },
  "userdoc": {
    "kind": "user",
    "methods": {},
    "version": 1
  }
}