{
  "contractName": "Topx",
  "abi": [
    {
      "anonymous": false,
      "inputs": [
        {
          "indexed": true,
          "internalType": "address",
          "name": "account",
          "type": "address"
        },
        {
          "indexed": true,
          "internalType": "address",
          "name": "operator",
          "type": "address"
        },
        {
          "indexed": false,
          "internalType": "bool",
          "name": "approved",
          "type": "bool"
        }
      ],
      "name": "ApprovalForAll",
      "type": "event"
    },
    {
      "anonymous": false,
      "inputs": [
        {
          "indexed": false,
          "internalType": "uint8",
          "name": "_action",
          "type": "uint8"
        },
        {
          "indexed": false,
          "internalType": "uint256",
          "name": "_tokenId",
          "type": "uint256"
        },
        {
          "indexed": false,
          "internalType": "uint256",
          "name": "_amount",
          "type": "uint256"
        },
        {
          "indexed": false,
          "internalType": "address",
          "name": "_from",
          "type": "address"
        },
        {
          "indexed": false,
          "internalType": "address",
          "name": "_to",
          "type": "address"
        }
      ],
      "name": "EthTopxTransfer",
      "type": "event"
    },
    {
      "anonymous": false,
      "inputs": [
        {
          "indexed": false,
          "internalType": "address",
          "name": "account",
          "type": "address"
        }
      ],
      "name": "Paused",
      "type": "event"
    },
    {
      "anonymous": false,
      "inputs": [
        {
          "indexed": true,
          "internalType": "bytes32",
          "name": "role",
          "type": "bytes32"
        },
        {
          "indexed": true,
          "internalType": "bytes32",
          "name": "previousAdminRole",
          "type": "bytes32"
        },
        {
          "indexed": true,
          "internalType": "bytes32",
          "name": "newAdminRole",
          "type": "bytes32"
        }
      ],
      "name": "RoleAdminChanged",
      "type": "event"
    },
    {
      "anonymous": false,
      "inputs": [
        {
          "indexed": true,
          "internalType": "bytes32",
          "name": "role",
          "type": "bytes32"
        },
        {
          "indexed": true,
          "internalType": "address",
          "name": "account",
          "type": "address"
        },
        {
          "indexed": true,
          "internalType": "address",
          "name": "sender",
          "type": "address"
        }
      ],
      "name": "RoleGranted",
      "type": "event"
    },
    {
      "anonymous": false,
      "inputs": [
        {
          "indexed": true,
          "internalType": "bytes32",
          "name": "role",
          "type": "bytes32"
        },
        {
          "indexed": true,
          "internalType": "address",
          "name": "account",
          "type": "address"
        },
        {
          "indexed": true,
          "internalType": "address",
          "name": "sender",
          "type": "address"
        }
      ],
      "name": "RoleRevoked",
      "type": "event"
    },
    {
      "anonymous": false,
      "inputs": [
        {
          "indexed": true,
          "internalType": "address",
          "name": "operator",
          "type": "address"
        },
        {
          "indexed": true,
          "internalType": "address",
          "name": "from",
          "type": "address"
        },
        {
          "indexed": true,
          "internalType": "address",
          "name": "to",
          "type": "address"
        },
        {
          "indexed": false,
          "internalType": "uint256[]",
          "name": "ids",
          "type": "uint256[]"
        },
        {
          "indexed": false,
          "internalType": "uint256[]",
          "name": "values",
          "type": "uint256[]"
        }
      ],
      "name": "TransferBatch",
      "type": "event"
    },
    {
      "anonymous": false,
      "inputs": [
        {
          "indexed": true,
          "internalType": "address",
          "name": "operator",
          "type": "address"
        },
        {
          "indexed": true,
          "internalType": "address",
          "name": "from",
          "type": "address"
        },
        {
          "indexed": true,
          "internalType": "address",
          "name": "to",
          "type": "address"
        },
        {
          "indexed": false,
          "internalType": "uint256",
          "name": "id",
          "type": "uint256"
        },
        {
          "indexed": false,
          "internalType": "uint256",
          "name": "value",
          "type": "uint256"
        }
      ],
      "name": "TransferSingle",
      "type": "event"
    },
    {
      "anonymous": false,
      "inputs": [
        {
          "indexed": false,
          "internalType": "string",
          "name": "value",
          "type": "string"
        },
        {
          "indexed": true,
          "internalType": "uint256",
          "name": "id",
          "type": "uint256"
        }
      ],
      "name": "URI",
      "type": "event"
    },
    {
      "anonymous": false,
      "inputs": [
        {
          "indexed": false,
          "internalType": "address",
          "name": "account",
          "type": "address"
        }
      ],
      "name": "Unpaused",
      "type": "event"
    },
    {
      "anonymous": false,
      "inputs": [
        {
          "indexed": false,
          "internalType": "uint256",
          "name": "_packid",
          "type": "uint256"
        },
        {
          "indexed": false,
          "internalType": "uint256",
          "name": "_from",
          "type": "uint256"
        },
        {
          "indexed": false,
          "internalType": "address",
          "name": "_creator",
          "type": "address"
        },
        {
          "indexed": false,
          "internalType": "uint256",
          "name": "_price",
          "type": "uint256"
        },
        {
          "indexed": false,
          "internalType": "uint256",
          "name": "_supply",
          "type": "uint256"
        }
      ],
      "name": "addLootBox",
      "type": "event"
    },
    {
      "anonymous": false,
      "inputs": [
        {
          "indexed": false,
          "internalType": "uint256",
          "name": "_itemid",
          "type": "uint256"
        },
        {
          "indexed": false,
          "internalType": "uint256",
          "name": "_packid",
          "type": "uint256"
        },
        {
          "indexed": false,
          "internalType": "uint256",
          "name": "_from",
          "type": "uint256"
        },
        {
          "indexed": false,
          "internalType": "address",
          "name": "_artist",
          "type": "address"
        },
        {
          "indexed": false,
          "internalType": "uint256",
          "name": "_supply",
          "type": "uint256"
        }
      ],
      "name": "addLootBoxItem",
      "type": "event"
    },
    {
      "anonymous": false,
      "inputs": [
        {
          "indexed": false,
          "internalType": "uint256",
          "name": "_id",
          "type": "uint256"
        },
        {
          "indexed": false,
          "internalType": "address",
          "name": "_account",
          "type": "address"
        },
        {
          "indexed": false,
          "internalType": "uint256",
          "name": "_tokenId",
          "type": "uint256"
        }
      ],
      "name": "mintItem",
      "type": "event"
    },
    {
      "anonymous": false,
      "inputs": [
        {
          "indexed": false,
          "internalType": "uint256",
          "name": "_id",
          "type": "uint256"
        },
        {
          "indexed": false,
          "internalType": "address",
          "name": "_account",
          "type": "address"
        },
        {
          "indexed": false,
          "internalType": "uint256",
          "name": "_tokenId",
          "type": "uint256"
        },
        {
          "indexed": false,
          "internalType": "uint256",
          "name": "_count",
          "type": "uint256"
        }
      ],
      "name": "mintLootBox",
      "type": "event"
    },
    {
      "inputs": [],
      "name": "DEFAULT_ADMIN_ROLE",
      "outputs": [
        {
          "internalType": "bytes32",
          "name": "",
          "type": "bytes32"
        }
      ],
      "stateMutability": "view",
      "type": "function",
      "constant": true
    },
    {
      "inputs": [],
      "name": "MINTER_ROLE",
      "outputs": [
        {
          "internalType": "bytes32",
          "name": "",
          "type": "bytes32"
        }
      ],
      "stateMutability": "view",
      "type": "function",
      "constant": true
    },
    {
      "inputs": [
        {
          "internalType": "address",
          "name": "account",
          "type": "address"
        },
        {
          "internalType": "uint256",
          "name": "id",
          "type": "uint256"
        }
      ],
      "name": "balanceOf",
      "outputs": [
        {
          "internalType": "uint256",
          "name": "",
          "type": "uint256"
        }
      ],
      "stateMutability": "view",
      "type": "function",
      "constant": true
    },
    {
      "inputs": [
        {
          "internalType": "address[]",
          "name": "accounts",
          "type": "address[]"
        },
        {
          "internalType": "uint256[]",
          "name": "ids",
          "type": "uint256[]"
        }
      ],
      "name": "balanceOfBatch",
      "outputs": [
        {
          "internalType": "uint256[]",
          "name": "",
          "type": "uint256[]"
        }
      ],
      "stateMutability": "view",
      "type": "function",
      "constant": true
    },
    {
      "inputs": [
        {
          "internalType": "address",
          "name": "account",
          "type": "address"
        },
        {
          "internalType": "uint256",
          "name": "id",
          "type": "uint256"
        },
        {
          "internalType": "uint256",
          "name": "value",
          "type": "uint256"
        }
      ],
      "name": "burn",
      "outputs": [],
      "stateMutability": "nonpayable",
      "type": "function"
    },
    {
      "inputs": [
        {
          "internalType": "address",
          "name": "account",
          "type": "address"
        },
        {
          "internalType": "uint256[]",
          "name": "ids",
          "type": "uint256[]"
        },
        {
          "internalType": "uint256[]",
          "name": "values",
          "type": "uint256[]"
        }
      ],
      "name": "burnBatch",
      "outputs": [],
      "stateMutability": "nonpayable",
      "type": "function"
    },
    {
      "inputs": [
        {
          "internalType": "bytes32",
          "name": "role",
          "type": "bytes32"
        }
      ],
      "name": "getRoleAdmin",
      "outputs": [
        {
          "internalType": "bytes32",
          "name": "",
          "type": "bytes32"
        }
      ],
      "stateMutability": "view",
      "type": "function",
      "constant": true
    },
    {
      "inputs": [
        {
          "internalType": "bytes32",
          "name": "role",
          "type": "bytes32"
        },
        {
          "internalType": "uint256",
          "name": "index",
          "type": "uint256"
        }
      ],
      "name": "getRoleMember",
      "outputs": [
        {
          "internalType": "address",
          "name": "",
          "type": "address"
        }
      ],
      "stateMutability": "view",
      "type": "function",
      "constant": true
    },
    {
      "inputs": [
        {
          "internalType": "bytes32",
          "name": "role",
          "type": "bytes32"
        }
      ],
      "name": "getRoleMemberCount",
      "outputs": [
        {
          "internalType": "uint256",
          "name": "",
          "type": "uint256"
        }
      ],
      "stateMutability": "view",
      "type": "function",
      "constant": true
    },
    {
      "inputs": [
        {
          "internalType": "bytes32",
          "name": "role",
          "type": "bytes32"
        },
        {
          "internalType": "address",
          "name": "account",
          "type": "address"
        }
      ],
      "name": "grantRole",
      "outputs": [],
      "stateMutability": "nonpayable",
      "type": "function"
    },
    {
      "inputs": [
        {
          "internalType": "bytes32",
          "name": "role",
          "type": "bytes32"
        },
        {
          "internalType": "address",
          "name": "account",
          "type": "address"
        }
      ],
      "name": "hasRole",
      "outputs": [
        {
          "internalType": "bool",
          "name": "",
          "type": "bool"
        }
      ],
      "stateMutability": "view",
      "type": "function",
      "constant": true
    },
    {
      "inputs": [
        {
          "internalType": "address",
          "name": "account",
          "type": "address"
        },
        {
          "internalType": "address",
          "name": "operator",
          "type": "address"
        }
      ],
      "name": "isApprovedForAll",
      "outputs": [
        {
          "internalType": "bool",
          "name": "",
          "type": "bool"
        }
      ],
      "stateMutability": "view",
      "type": "function",
      "constant": true
    },
    {
      "inputs": [
        {
          "internalType": "uint256",
          "name": "",
          "type": "uint256"
        }
      ],
      "name": "lootBoxItems",
      "outputs": [
        {
          "internalType": "uint256",
          "name": "index",
          "type": "uint256"
        },
        {
          "internalType": "uint256",
          "name": "lootBoxIndex",
          "type": "uint256"
        },
        {
          "internalType": "uint256",
          "name": "fromId",
          "type": "uint256"
        },
        {
          "internalType": "uint256",
          "name": "toId",
          "type": "uint256"
        },
        {
          "internalType": "uint256",
          "name": "count",
          "type": "uint256"
        },
        {
          "internalType": "uint256",
          "name": "supply",
          "type": "uint256"
        },
        {
          "internalType": "address",
          "name": "artist",
          "type": "address"
        },
        {
          "internalType": "uint256",
          "name": "artistRoyalty",
          "type": "uint256"
        }
      ],
      "stateMutability": "view",
      "type": "function",
      "constant": true
    },
    {
      "inputs": [
        {
          "internalType": "uint256",
          "name": "",
          "type": "uint256"
        }
      ],
      "name": "lootBoxes",
      "outputs": [
        {
          "internalType": "uint256",
          "name": "index",
          "type": "uint256"
        },
        {
          "internalType": "uint256",
          "name": "fromId",
          "type": "uint256"
        },
        {
          "internalType": "uint256",
          "name": "toId",
          "type": "uint256"
        },
        {
          "internalType": "uint256",
          "name": "count",
          "type": "uint256"
        },
        {
          "internalType": "uint256",
          "name": "supply",
          "type": "uint256"
        },
        {
          "internalType": "address",
          "name": "seller",
          "type": "address"
        },
        {
          "internalType": "address",
          "name": "creator",
          "type": "address"
        },
        {
          "internalType": "uint256",
          "name": "creatorRoyalty",
          "type": "uint256"
        },
        {
          "internalType": "uint256",
          "name": "price",
          "type": "uint256"
        },
        {
          "internalType": "uint256",
          "name": "release",
          "type": "uint256"
        },
        {
          "internalType": "uint256",
          "name": "dropRate",
          "type": "uint256"
        }
      ],
      "stateMutability": "view",
      "type": "function",
      "constant": true
    },
    {
      "inputs": [],
      "name": "pause",
      "outputs": [],
      "stateMutability": "nonpayable",
      "type": "function"
    },
    {
      "inputs": [],
      "name": "paused",
      "outputs": [
        {
          "internalType": "bool",
          "name": "",
          "type": "bool"
        }
      ],
      "stateMutability": "view",
      "type": "function",
      "constant": true
    },
    {
      "inputs": [
        {
          "internalType": "bytes32",
          "name": "role",
          "type": "bytes32"
        },
        {
          "internalType": "address",
          "name": "account",
          "type": "address"
        }
      ],
      "name": "renounceRole",
      "outputs": [],
      "stateMutability": "nonpayable",
      "type": "function"
    },
    {
      "inputs": [
        {
          "internalType": "bytes32",
          "name": "role",
          "type": "bytes32"
        },
        {
          "internalType": "address",
          "name": "account",
          "type": "address"
        }
      ],
      "name": "revokeRole",
      "outputs": [],
      "stateMutability": "nonpayable",
      "type": "function"
    },
    {
      "inputs": [
        {
          "internalType": "address",
          "name": "from",
          "type": "address"
        },
        {
          "internalType": "address",
          "name": "to",
          "type": "address"
        },
        {
          "internalType": "uint256[]",
          "name": "ids",
          "type": "uint256[]"
        },
        {
          "internalType": "uint256[]",
          "name": "amounts",
          "type": "uint256[]"
        },
        {
          "internalType": "bytes",
          "name": "data",
          "type": "bytes"
        }
      ],
      "name": "safeBatchTransferFrom",
      "outputs": [],
      "stateMutability": "nonpayable",
      "type": "function"
    },
    {
      "inputs": [
        {
          "internalType": "address",
          "name": "from",
          "type": "address"
        },
        {
          "internalType": "address",
          "name": "to",
          "type": "address"
        },
        {
          "internalType": "uint256",
          "name": "id",
          "type": "uint256"
        },
        {
          "internalType": "uint256",
          "name": "amount",
          "type": "uint256"
        },
        {
          "internalType": "bytes",
          "name": "data",
          "type": "bytes"
        }
      ],
      "name": "safeTransferFrom",
      "outputs": [],
      "stateMutability": "nonpayable",
      "type": "function"
    },
    {
      "inputs": [
        {
          "internalType": "address",
          "name": "operator",
          "type": "address"
        },
        {
          "internalType": "bool",
          "name": "approved",
          "type": "bool"
        }
      ],
      "name": "setApprovalForAll",
      "outputs": [],
      "stateMutability": "nonpayable",
      "type": "function"
    },
    {
      "inputs": [
        {
          "internalType": "bytes4",
          "name": "interfaceId",
          "type": "bytes4"
        }
      ],
      "name": "supportsInterface",
      "outputs": [
        {
          "internalType": "bool",
          "name": "",
          "type": "bool"
        }
      ],
      "stateMutability": "view",
      "type": "function",
      "constant": true
    },
    {
      "inputs": [
        {
          "internalType": "uint256",
          "name": "",
          "type": "uint256"
        }
      ],
      "name": "tokenIdToLootBoxIndex",
      "outputs": [
        {
          "internalType": "uint256",
          "name": "",
          "type": "uint256"
        }
      ],
      "stateMutability": "view",
      "type": "function",
      "constant": true
    },
    {
      "inputs": [
        {
          "internalType": "uint256",
          "name": "",
          "type": "uint256"
        }
      ],
      "name": "tokenIdToLootBoxItemsIndex",
      "outputs": [
        {
          "internalType": "uint256",
          "name": "",
          "type": "uint256"
        }
      ],
      "stateMutability": "view",
      "type": "function",
      "constant": true
    },
    {
      "inputs": [
        {
          "internalType": "uint256",
          "name": "",
          "type": "uint256"
        }
      ],
      "name": "tokenIdType",
      "outputs": [
        {
          "internalType": "uint8",
          "name": "",
          "type": "uint8"
        }
      ],
      "stateMutability": "view",
      "type": "function",
      "constant": true
    },
    {
      "inputs": [],
      "name": "unpause",
      "outputs": [],
      "stateMutability": "nonpayable",
      "type": "function"
    },
    {
      "inputs": [
        {
          "internalType": "uint256",
          "name": "",
          "type": "uint256"
        }
      ],
      "name": "uri",
      "outputs": [
        {
          "internalType": "string",
          "name": "",
          "type": "string"
        }
      ],
      "stateMutability": "view",
      "type": "function",
      "constant": true
    },
    {
      "inputs": [
        {
          "internalType": "string",
          "name": "_uri",
          "type": "string"
        },
        {
          "internalType": "address",
          "name": "_minter",
          "type": "address"
        },
        {
          "internalType": "uint256",
          "name": "_platformRoyalty",
          "type": "uint256"
        },
        {
          "internalType": "address",
          "name": "_treasury",
          "type": "address"
        }
      ],
      "name": "initialize",
      "outputs": [],
      "stateMutability": "nonpayable",
      "type": "function"
    },
    {
      "inputs": [
        {
          "components": [
            {
              "internalType": "uint256",
              "name": "index",
              "type": "uint256"
            },
            {
              "internalType": "uint256",
              "name": "fromId",
              "type": "uint256"
            },
            {
              "internalType": "uint256",
              "name": "toId",
              "type": "uint256"
            },
            {
              "internalType": "uint256",
              "name": "count",
              "type": "uint256"
            },
            {
              "internalType": "uint256",
              "name": "supply",
              "type": "uint256"
            },
            {
              "internalType": "address",
              "name": "seller",
              "type": "address"
            },
            {
              "internalType": "address",
              "name": "creator",
              "type": "address"
            },
            {
              "internalType": "uint256",
              "name": "creatorRoyalty",
              "type": "uint256"
            },
            {
              "internalType": "uint256",
              "name": "price",
              "type": "uint256"
            },
            {
              "internalType": "uint256[]",
              "name": "lootBoxItemsIndex",
              "type": "uint256[]"
            },
            {
              "internalType": "uint256",
              "name": "release",
              "type": "uint256"
            },
            {
              "internalType": "uint256",
              "name": "dropRate",
              "type": "uint256"
            }
          ],
          "internalType": "struct LootBox",
          "name": "_lootBox",
          "type": "tuple"
        },
        {
          "components": [
            {
              "internalType": "uint256",
              "name": "index",
              "type": "uint256"
            },
            {
              "internalType": "uint256",
              "name": "lootBoxIndex",
              "type": "uint256"
            },
            {
              "internalType": "uint256",
              "name": "fromId",
              "type": "uint256"
            },
            {
              "internalType": "uint256",
              "name": "toId",
              "type": "uint256"
            },
            {
              "internalType": "uint256",
              "name": "count",
              "type": "uint256"
            },
            {
              "internalType": "uint256",
              "name": "supply",
              "type": "uint256"
            },
            {
              "internalType": "address",
              "name": "artist",
              "type": "address"
            },
            {
              "internalType": "uint256",
              "name": "artistRoyalty",
              "type": "uint256"
            }
          ],
          "internalType": "struct LootBoxItem[]",
          "name": "_lootBoxItems",
          "type": "tuple[]"
        }
      ],
      "name": "addLootBoxes",
      "outputs": [],
      "stateMutability": "nonpayable",
      "type": "function"
    },
    {
      "inputs": [
        {
          "internalType": "uint256",
          "name": "lootBoxIndex",
          "type": "uint256"
        }
      ],
      "name": "buyLootBox",
      "outputs": [
        {
          "internalType": "uint256",
          "name": "",
          "type": "uint256"
        }
      ],
      "stateMutability": "payable",
      "type": "function",
      "payable": true
    },
    {
      "inputs": [
        {
          "internalType": "uint256",
          "name": "tokenId",
          "type": "uint256"
        }
      ],
      "name": "openLootBox",
      "outputs": [],
      "stateMutability": "nonpayable",
      "type": "function"
    },
    {
      "inputs": [
        {
          "internalType": "uint256",
          "name": "lootBoxIndex",
          "type": "uint256"
        }
      ],
      "name": "buyAndOpenLootBox",
      "outputs": [],
      "stateMutability": "payable",
      "type": "function",
      "payable": true
    },
    {
      "inputs": [
        {
          "internalType": "uint256",
          "name": "tokenId",
          "type": "uint256"
        },
        {
          "internalType": "uint256",
          "name": "amount",
          "type": "uint256"
        }
      ],
      "name": "getCreatorRoyaltyFromAmountForTokenId",
      "outputs": [
        {
          "internalType": "uint256",
          "name": "",
          "type": "uint256"
        }
      ],
      "stateMutability": "view",
      "type": "function",
      "constant": true
    },
    {
      "inputs": [
        {
          "internalType": "uint256",
          "name": "tokenId",
          "type": "uint256"
        }
      ],
      "name": "getCreatorAddressForTokenId",
      "outputs": [
        {
          "internalType": "address",
          "name": "",
          "type": "address"
        }
      ],
      "stateMutability": "view",
      "type": "function",
      "constant": true
    },
    {
      "inputs": [
        {
          "internalType": "uint256",
          "name": "tokenId",
          "type": "uint256"
        },
        {
          "internalType": "uint256",
          "name": "amount",
          "type": "uint256"
        }
      ],
      "name": "getArtistRoyaltyFromAmountForTokenId",
      "outputs": [
        {
          "internalType": "uint256",
          "name": "",
          "type": "uint256"
        }
      ],
      "stateMutability": "view",
      "type": "function",
      "constant": true
    },
    {
      "inputs": [
        {
          "internalType": "uint256",
          "name": "tokenId",
          "type": "uint256"
        }
      ],
      "name": "getArtistForTokenId",
      "outputs": [
        {
          "internalType": "address",
          "name": "",
          "type": "address"
        }
      ],
      "stateMutability": "view",
      "type": "function",
      "constant": true
    },
    {
      "inputs": [
        {
          "internalType": "uint256",
          "name": "amount",
          "type": "uint256"
        }
      ],
      "name": "getPlatformRoyalty",
      "outputs": [
        {
          "internalType": "uint256",
          "name": "",
          "type": "uint256"
        }
      ],
      "stateMutability": "view",
      "type": "function",
      "constant": true
    },
    {
      "inputs": [
        {
          "internalType": "uint256",
          "name": "x",
          "type": "uint256"
        },
        {
          "internalType": "uint256",
          "name": "y",
          "type": "uint256"
        }
      ],
      "name": "mulDiv",
      "outputs": [
        {
          "internalType": "uint256",
          "name": "",
          "type": "uint256"
        }
      ],
      "stateMutability": "pure",
      "type": "function",
      "constant": true
    },
    {
      "inputs": [],
      "name": "getTreasury",
      "outputs": [
        {
          "internalType": "address",
          "name": "",
          "type": "address"
        }
      ],
      "stateMutability": "view",
      "type": "function",
      "constant": true
    }
  ],
  "bytecode": "0x608060405234801561001057600080fd5b50613fb5806100206000396000f3fe60806040526004361061022f5760003560e01c80636b20c4541161012e578063b95f71de116100ab578063e6b9d9871161006f578063e6b9d987146107ab578063e985e9c5146107be578063ec399b9714610807578063f242432a146108b6578063f5298aca146108d65761022f565b8063b95f71de1461063a578063ca15c87314610717578063d539139314610737578063d547741f1461076b578063e43972ac1461078b5761022f565b806391d14854116100f257806391d14854146105a5578063a1c26ec6146105c5578063a217fddf146105e5578063a22cb465146105fa578063b8e99cc01461061a5761022f565b80636b20c454146104df5780636f2829ba146104ff578063780bfe54146105425780638456cb59146105705780639010d07c146105855761022f565b80633f4ba83a116101bc57806355a02c2d1161018057806355a02c2d1461044657806355b09456146104665780635c975abb146104865780635e49b9f81461049f578063666d8493146104bf5761022f565b80633f4ba83a146103a357806347dbc53b146103b85780634a6ca015146103d85780634e1273f41461040657806352bcd0ef146104335761022f565b8063248a9ca311610203578063248a9ca3146102e45780632eb2c2d6146103145780632f2ff15d1461033657806336568abe146103565780633b19e84a146103765761022f565b8062fdd58e1461023457806301ffc9a7146102675780630e89341c146102975780631e20e0ac146102c4575b600080fd5b34801561024057600080fd5b5061025461024f3660046135c9565b6108f6565b6040519081526020015b60405180910390f35b34801561027357600080fd5b5061028761028236600461374a565b610992565b604051901515815260200161025e565b3480156102a357600080fd5b506102b76102b23660046136ef565b6109a5565b60405161025e9190613abd565b3480156102d057600080fd5b506102546102df3660046136ef565b610a39565b3480156102f057600080fd5b506102546102ff3660046136ef565b60009081526065602052604090206001015490565b34801561032057600080fd5b5061033461032f366004613415565b610a48565b005b34801561034257600080fd5b50610334610351366004613707565b610cdf565b34801561036257600080fd5b50610334610371366004613707565b610d06565b34801561038257600080fd5b5061038b610d28565b6040516001600160a01b03909116815260200161025e565b3480156103af57600080fd5b50610334610d39565b3480156103c457600080fd5b506103346103d33660046137fb565b610db0565b3480156103e457600080fd5b506102546103f33660046136ef565b6101c86020526000908152604090205481565b34801561041257600080fd5b50610426610421366004613624565b61106b565b60405161025e9190613a7c565b6103346104413660046136ef565b6111cd565b34801561045257600080fd5b506103346104613660046136ef565b6111e7565b34801561047257600080fd5b50610334610481366004613782565b6114a5565b34801561049257600080fd5b5061012d5460ff16610287565b3480156104ab57600080fd5b5061038b6104ba3660046136ef565b611541565b3480156104cb57600080fd5b506102546104da366004613729565b611591565b3480156104eb57600080fd5b506103346104fa36600461351e565b6115e7565b34801561050b57600080fd5b5061053061051a3660046136ef565b6101ca6020526000908152604090205460ff1681565b60405160ff909116815260200161025e565b34801561054e57600080fd5b5061025461055d3660046136ef565b6101c96020526000908152604090205481565b34801561057c57600080fd5b5061033461162a565b34801561059157600080fd5b5061038b6105a0366004613729565b61169d565b3480156105b157600080fd5b506102876105c0366004613707565b6116b5565b3480156105d157600080fd5b506102546105e0366004613729565b6116e0565b3480156105f157600080fd5b50610254600081565b34801561060657600080fd5b5061033461061536600461358f565b61178c565b34801561062657600080fd5b5061038b6106353660046136ef565b611870565b34801561064657600080fd5b506106bb6106553660046136ef565b6101c6602052600090815260409020805460018201546002830154600384015460048501546005860154600687015460078801546008890154600a8a0154600b909a0154989997989697959694956001600160a01b03948516959490931693919290918b565b604080519b8c5260208c019a909a52988a0197909752606089019590955260808801939093526001600160a01b0391821660a08801521660c086015260e08501526101008401526101208301526101408201526101600161025e565b34801561072357600080fd5b506102546107323660046136ef565b61191b565b34801561074357600080fd5b506102547f9f2df0fed2c77648de5860a4cc508cd0818c85b8b8a1ab4ceeef8d981c8956a681565b34801561077757600080fd5b50610334610786366004613707565b611932565b34801561079757600080fd5b506102546107a6366004613729565b61193c565b6102546107b93660046136ef565b6119e0565b3480156107ca57600080fd5b506102876107d93660046133e3565b6001600160a01b03918216600090815260ca6020908152604080832093909416825291909152205460ff1690565b34801561081357600080fd5b506108726108223660046136ef565b6101c760205260009081526040902080546001820154600283015460038401546004850154600586015460068701546007909701549596949593949293919290916001600160a01b039091169088565b604080519889526020890197909752958701949094526060860192909252608085015260a08401526001600160a01b031660c083015260e08201526101000161025e565b3480156108c257600080fd5b506103346108d13660046134bb565b611d9c565b3480156108e257600080fd5b506103346108f13660046135f2565b611f0d565b60006001600160a01b0383166109675760405162461bcd60e51b815260206004820152602b60248201527f455243313135353a2062616c616e636520717565727920666f7220746865207a60448201526a65726f206164647265737360a81b60648201526084015b60405180910390fd5b50600081815260c9602090815260408083206001600160a01b03861684529091529020545b92915050565b600061099d82611f50565b90505b919050565b606060cb80546109b490613de7565b80601f01602080910402602001604051908101604052809291908181526020018280546109e090613de7565b8015610a2d5780601f10610a0257610100808354040283529160200191610a2d565b820191906000526020600020905b815481529060010190602001808311610a1057829003601f168201915b50505050509050919050565b600061099d826101c45461193c565b8151835114610a695760405162461bcd60e51b815260040161095e90613cc5565b6001600160a01b038416610a8f5760405162461bcd60e51b815260040161095e90613ba5565b6001600160a01b038516331480610aab5750610aab85336107d9565b610b125760405162461bcd60e51b815260206004820152603260248201527f455243313135353a207472616e736665722063616c6c6572206973206e6f74206044820152711bdddb995c881b9bdc88185c1c1c9bdd995960721b606482015260840161095e565b33610b21818787878787611f90565b60005b8451811015610c71576000858281518110610b4f57634e487b7160e01b600052603260045260246000fd5b602002602001015190506000858381518110610b7b57634e487b7160e01b600052603260045260246000fd5b602090810291909101810151600084815260c9835260408082206001600160a01b038e168352909352919091205490915081811015610bcc5760405162461bcd60e51b815260040161095e90613c7b565b610bd68282613d89565b60c9600085815260200190815260200160002060008c6001600160a01b03166001600160a01b03168152602001908152602001600020819055508160c9600085815260200190815260200160002060008b6001600160a01b03166001600160a01b031681526020019081526020016000206000828254610c569190613d3e565b9250508190555050505080610c6a90613e4f565b9050610b24565b50846001600160a01b0316866001600160a01b0316826001600160a01b03167f4a39dc06d4c0dbc64b70af90fd698a233a518aa5d07e595d983b8c0526c8f7fb8787604051610cc1929190613a8f565b60405180910390a4610cd7818787878787611f9e565b505050505050565b610ce98282612109565b6000828152609760205260409020610d019082612130565b505050565b610d108282612145565b6000828152609760205260409020610d0190826121bf565b6101c5546001600160a01b03165b90565b610d446000336105c0565b610da65760405162461bcd60e51b815260206004820152602d60248201527f45524331313535546f6b656e3a206d75737420686176652061646d696e20726f60448201526c6c6520746f20756e706175736560981b606482015260840161095e565b610dae6121d4565b565b610dda7f9f2df0fed2c77648de5860a4cc508cd0818c85b8b8a1ab4ceeef8d981c8956a6336105c0565b610e155760405162461bcd60e51b815260206004820152600c60248201526b2737ba10309036b4b73a32b960a11b604482015260640161095e565b8051825160208085015160c086015161010087015160808089015160408051978852958701949094526001600160a01b03909216858501526060850152830152518492917fbcc7c928b2374fb01d418b9d80abdcb2a7b57d11f9eb2ca1c4f44a66ec7648fd919081900360a00190a160005b81811015610fa1576000848281518110610eb157634e487b7160e01b600052603260045260246000fd5b602090810291909101810151805160009081526101c78352604090819020825180825583850151600183015582840151600283018190556060808601516003850155608080870151600486015560a0808801516005870181905560c08901516006880180546001600160a01b0319166001600160a01b03909216918217905560e08a01516007909801979097558d5188519687529986019990995295840192909252820192909252908101939093529092507ffa98e43961ed7bc677e844029bc13a14e4d8e08fe99ef420e8fa6fc96e8e18c5910160405180910390a15080610f9981613e4f565b915050610e87565b50815160009081526101c6602090815260409182902084518155818501516001820155918401516002830155606084015160038301556080840151600483015560a08401516005830180546001600160a01b039283166001600160a01b03199182161790915560c086015160068501805491909316911617905560e084015160078301556101008401516008830155610120840151805185939261104c92600985019291019061312a565b50610140820151600a82015561016090910151600b9091015550505050565b606081518351146110d05760405162461bcd60e51b815260206004820152602960248201527f455243313135353a206163636f756e747320616e6420696473206c656e677468604482015268040dad2e6dac2e8c6d60bb1b606482015260840161095e565b6000835167ffffffffffffffff8111156110fa57634e487b7160e01b600052604160045260246000fd5b604051908082528060200260200182016040528015611123578160200160208202803683370190505b50905060005b84518110156111c55761118a85828151811061115557634e487b7160e01b600052603260045260246000fd5b602002602001015185838151811061117d57634e487b7160e01b600052603260045260246000fd5b60200260200101516108f6565b8282815181106111aa57634e487b7160e01b600052603260045260246000fd5b60209081029190910101526111be81613e4f565b9050611129565b509392505050565b60006111d8826119e0565b90506111e3816111e7565b5050565b60008181526101c8602090815260408083205483526101c690915290205461123a5760405162461bcd60e51b815260206004820152600660248201526545786973747360d01b604482015260640161095e565b60008181526101ca602052604090205460ff166001146112855760405162461bcd60e51b8152602060048201526006602482015265092e640c4def60d31b604482015260640161095e565b61129133826001612269565b60008181526101c86020526040812054905b60008281526101c660205260409020600b0154811015610d015760008281526101c660205260408120600b810154600382015460049092015490916112e791613d89565b6112f2906001613d3e565b6112fc9190613d6a565b9050600061131261130d8484613d89565b612376565b90506000805b60008681526101c6602052604090206009015481101561148e5760008681526101c66020526040812060090180548390811061136457634e487b7160e01b600052603260045260246000fd5b60009182526020808320909101548083526101c79091526040909120600481015460059091015491925061139791613d89565b6113a19084613d3e565b925082841161147b5760008181526101c76020526040812060048101546002909101546113ce9190613d3e565b60008381526101c7602052604081206004018054929350906113ef83613e4f565b9091555050604080518381523360208201529081018290527f1dd69ba1529ee26c893974d206b7b8a51903ee28643880696d4f4809ed621e349060600160405180910390a161145033826001604051806020016040528060008152506123e5565b60009081526101ca60209081526040808320805460ff191660021790556101c990915290205561148e565b508061148681613e4f565b915050611318565b50505050808061149d90613e4f565b9150506112a3565b600054610100900460ff16806114be575060005460ff16155b6114da5760405162461bcd60e51b815260040161095e90613bea565b600054610100900460ff161580156114fc576000805461ffff19166101011790555b61150685856124e8565b6101c48390556101c580546001600160a01b0319166001600160a01b038416179055801561153a576000805461ff00191690555b5050505050565b60008181526101ca602052604081205460ff16600114156115635750306109a0565b5060009081526101c9602090815260408083205483526101c79091529020600601546001600160a01b031690565b60008281526101ca602052604081205460ff16600114156115b45750600061098c565b60008381526101c9602090815260408083205483526101c79091529020600701546115e090839061193c565b9392505050565b6001600160a01b038316331480611603575061160383336107d9565b61161f5760405162461bcd60e51b815260040161095e90613b5c565b610d0183838361259f565b6116356000336105c0565b6116955760405162461bcd60e51b815260206004820152602b60248201527f45524331313535546f6b656e3a206d75737420686176652061646d696e20726f60448201526a6c6520746f20706175736560a81b606482015260840161095e565b610dae612759565b60008281526097602052604081206115e090836127d6565b60009182526065602090815260408084206001600160a01b0393909316845291905290205460ff1690565b60008281526101ca602052604081205460ff166001141561172e5760008381526101c8602090815260408083205483526101c690915290206007015461172790839061193c565b905061098c565b60008381526101ca602052604090205460ff16600214156117835760008381526101c9602090815260408083205483526101c782528083206001015483526101c690915290206007015461172790839061193c565b50600092915050565b336001600160a01b03831614156117f75760405162461bcd60e51b815260206004820152602960248201527f455243313135353a2073657474696e6720617070726f76616c20737461747573604482015268103337b91039b2b63360b91b606482015260840161095e565b33600081815260ca602090815260408083206001600160a01b0387168085529252909120805460ff1916841515179055906001600160a01b03167f17307eab39ab6107e8899845ad3d59bd9653f200f220920489ca2b5937696c3183604051611864911515815260200190565b60405180910390a35050565b60008181526101ca602052604081205460ff16600114156118bb575060008181526101c8602090815260408083205483526101c69091529020600601546001600160a01b03166109a0565b60008281526101ca602052604090205460ff1660021415611914575060008181526101c9602090815260408083205483526101c782528083206001015483526101c69091529020600601546001600160a01b03166109a0565b5030919050565b600081815260976020526040812061099d906127e2565b610d1082826127ec565b60006127108161194c8286613d56565b9050600061195a8387613e6a565b905060006119688487613d56565b905060006119768588613e6a565b9050846119838285613d6a565b61198d9190613d56565b6119978385613d6a565b6119a18387613d6a565b876119ac8789613d6a565b6119b69190613d6a565b6119c09190613d3e565b6119ca9190613d3e565b6119d49190613d3e565b98975050505050505050565b60008181526101c66020526040812054611a255760405162461bcd60e51b815260206004820152600660248201526545786973747360d01b604482015260640161095e565b60008281526101c66020526040902060080154341015611a6f5760405162461bcd60e51b8152602060048201526005602482015264507269636560d81b604482015260640161095e565b60008281526101c660205260409020600a0154421015611abb5760405162461bcd60e51b815260206004820152600760248201526652656c6561736560c81b604482015260640161095e565b60008281526101c66020526040902060048101546003909101541115611b0c5760405162461bcd60e51b8152602060048201526006602482015265537570706c7960d01b604482015260640161095e565b60008281526101c66020526040812060070154611b2a90349061193c565b60008481526101c660205260408082206006015490519293506001600160a01b03169183156108fc0291849190818181858888f19350505050158015611b74573d6000803e3d6000fd5b5060008381526101c660205260409020600501546001600160a01b03166108fc611b9e8334613d89565b6040518115909202916000818181858888f19350505050158015611bc6573d6000803e3d6000fd5b5060008381526101c6602052604081206003810154600190910154611beb9190613d3e565b60008181526101c8602090815260408083208890556101ca8252808320805460ff191660019081179091558884526101c6909252822060030180549394509092909190611c39908490613d3e565b909155505060008481526101c660209081526040918290206003015482518781523392810192909252818301849052606082015290517f6cdfe1ee3b71ebe30d1ff469b66a065b40e19e61efc4d35b895c87f3b9ce828c9181900360800190a1611cb533826001604051806020016040528060008152506123e5565b7f7532b65a0a99528e5e77bc96184e45edcd58ef6ecfc1402135e9c954df4817c9600082611ce38534613d89565b60008881526101c6602090815260409182902060050154825160ff9096168652908501939093528301523360608301526001600160a01b0316608082015260a00160405180910390a160008481526101c66020908152604091829020600601548251600181529182018490528183018590523360608301526001600160a01b0316608082015290517f7532b65a0a99528e5e77bc96184e45edcd58ef6ecfc1402135e9c954df4817c99181900360a00190a19392505050565b6001600160a01b038416611dc25760405162461bcd60e51b815260040161095e90613ba5565b6001600160a01b038516331480611dde5750611dde85336107d9565b611dfa5760405162461bcd60e51b815260040161095e90613b5c565b33611e19818787611e0a88612812565b611e1388612812565b87611f90565b600084815260c9602090815260408083206001600160a01b038a16845290915290205483811015611e5c5760405162461bcd60e51b815260040161095e90613c7b565b611e668482613d89565b600086815260c9602090815260408083206001600160a01b038c81168552925280832093909355881681529081208054869290611ea4908490613d3e565b909155505060408051868152602081018690526001600160a01b03808916928a821692918616917fc3d58168c5ae7397731d063d5bbf3d657854427343f4c083240f7aacaa2d0f62910160405180910390a4611f0482888888888861286b565b50505050505050565b6001600160a01b038316331480611f295750611f2983336107d9565b611f455760405162461bcd60e51b815260040161095e90613b5c565b610d01838383612269565b60006001600160e01b03198216636cdb3d1360e11b1480611f8157506001600160e01b031982166303a24d0760e21b145b8061099d575061099d82612935565b610cd786868686868661295a565b6001600160a01b0384163b15610cd75760405163bc197c8160e01b81526001600160a01b0385169063bc197c8190611fe290899089908890889088906004016139e5565b602060405180830381600087803b158015611ffc57600080fd5b505af192505050801561202c575060408051601f3d908101601f1916820190925261202991810190613766565b60015b6120d957612038613ec0565b806308c379a01415612072575061204d613ed7565b806120585750612074565b8060405162461bcd60e51b815260040161095e9190613abd565b505b60405162461bcd60e51b815260206004820152603460248201527f455243313135353a207472616e7366657220746f206e6f6e20455243313135356044820152732932b1b2b4bb32b91034b6b83632b6b2b73a32b960611b606482015260840161095e565b6001600160e01b0319811663bc197c8160e01b14611f045760405162461bcd60e51b815260040161095e90613ad0565b60008281526065602052604090206001015461212681335b6129c3565b610d018383612a27565b60006115e0836001600160a01b038416612aad565b6001600160a01b03811633146121b55760405162461bcd60e51b815260206004820152602f60248201527f416363657373436f6e74726f6c3a2063616e206f6e6c792072656e6f756e636560448201526e103937b632b9903337b91039b2b63360891b606482015260840161095e565b6111e38282612afc565b60006115e0836001600160a01b038416612b63565b61012d5460ff1661221e5760405162461bcd60e51b815260206004820152601460248201527314185d5cd8589b194e881b9bdd081c185d5cd95960621b604482015260640161095e565b61012d805460ff191690557f5db9ee0a495bf2e6ff9c91a7834c1ba4fdd244a5e8aa4e537bd38aeae4b073aa335b6040516001600160a01b03909116815260200160405180910390a1565b6001600160a01b03831661228f5760405162461bcd60e51b815260040161095e90613c38565b336122be818560006122a087612812565b6122a987612812565b60405180602001604052806000815250611f90565b600083815260c9602090815260408083206001600160a01b0388168452909152902054828110156123015760405162461bcd60e51b815260040161095e90613b18565b61230b8382613d89565b600085815260c9602090815260408083206001600160a01b038a811680865291845282852095909555815189815292830188905292938616917fc3d58168c5ae7397731d063d5bbf3d657854427343f4c083240f7aacaa2d0f62910160405180910390a45050505050565b6101c380546000918261238883613e4f565b90915550506101c354604080514260208201526bffffffffffffffffffffffff193360601b1691810191909152605481019190915282906074016040516020818303038152906040528051906020012060001c61099d9190613e6a565b6001600160a01b0384166124455760405162461bcd60e51b815260206004820152602160248201527f455243313135353a206d696e7420746f20746865207a65726f206164647265736044820152607360f81b606482015260840161095e565b3361245681600087611e0a88612812565b600084815260c9602090815260408083206001600160a01b038916845290915281208054859290612488908490613d3e565b909155505060408051858152602081018590526001600160a01b0380881692600092918516917fc3d58168c5ae7397731d063d5bbf3d657854427343f4c083240f7aacaa2d0f62910160405180910390a461153a8160008787878761286b565b600054610100900460ff1680612501575060005460ff16155b61251d5760405162461bcd60e51b815260040161095e90613bea565b600054610100900460ff1615801561253f576000805461ffff19166101011790555b612547612c7a565b61254f612c7a565b612557612c7a565b61255f612c7a565b61256883612ce6565b612570612c7a565b612578612d5b565b612580612c7a565b61258982612dd1565b8015610d01576000805461ff0019169055505050565b6001600160a01b0383166125c55760405162461bcd60e51b815260040161095e90613c38565b80518251146125e65760405162461bcd60e51b815260040161095e90613cc5565b600033905061260981856000868660405180602001604052806000815250611f90565b60005b83518110156126fa57600084828151811061263757634e487b7160e01b600052603260045260246000fd5b60200260200101519050600084838151811061266357634e487b7160e01b600052603260045260246000fd5b602090810291909101810151600084815260c9835260408082206001600160a01b038c1683529093529190912054909150818110156126b45760405162461bcd60e51b815260040161095e90613b18565b6126be8282613d89565b600093845260c9602090815260408086206001600160a01b038c16875290915290932092909255508190506126f281613e4f565b91505061260c565b5060006001600160a01b0316846001600160a01b0316826001600160a01b03167f4a39dc06d4c0dbc64b70af90fd698a233a518aa5d07e595d983b8c0526c8f7fb868660405161274b929190613a8f565b60405180910390a450505050565b61012d5460ff16156127a05760405162461bcd60e51b815260206004820152601060248201526f14185d5cd8589b194e881c185d5cd95960821b604482015260640161095e565b61012d805460ff191660011790557f62e78cea01bee320cd4e420270b5ea74000d11b0c9f74754ebdbfc544b05a25861224c3390565b60006115e08383612e5d565b600061099d825490565b6000828152606560205260409020600101546128088133612121565b610d018383612afc565b6040805160018082528183019092526060916000919060208083019080368337019050509050828160008151811061285a57634e487b7160e01b600052603260045260246000fd5b602090810291909101015292915050565b6001600160a01b0384163b15610cd75760405163f23a6e6160e01b81526001600160a01b0385169063f23a6e61906128af9089908990889088908890600401613a37565b602060405180830381600087803b1580156128c957600080fd5b505af19250505080156128f9575060408051601f3d908101601f191682019092526128f691810190613766565b60015b61290557612038613ec0565b6001600160e01b0319811663f23a6e6160e01b14611f045760405162461bcd60e51b815260040161095e90613ad0565b60006001600160e01b03198216635a05180f60e01b148061099d575061099d82612ef1565b61012d5460ff1615610cd75760405162461bcd60e51b815260206004820152602c60248201527f455243313135355061757361626c653a20746f6b656e207472616e736665722060448201526b1dda1a5b19481c185d5cd95960a21b606482015260840161095e565b6129cd82826116b5565b6111e3576129e5816001600160a01b03166014612f26565b6129f0836020612f26565b604051602001612a01929190613970565b60408051601f198184030181529082905262461bcd60e51b825261095e91600401613abd565b612a3182826116b5565b6111e35760008281526065602090815260408083206001600160a01b03851684529091529020805460ff19166001179055612a693390565b6001600160a01b0316816001600160a01b0316837f2f8788117e7eff1d82e926ec794901d17c78024a50270940304540a733656f0d60405160405180910390a45050565b6000818152600183016020526040812054612af45750815460018181018455600084815260208082209093018490558454848252828601909352604090209190915561098c565b50600061098c565b612b0682826116b5565b156111e35760008281526065602090815260408083206001600160a01b0385168085529252808320805460ff1916905551339285917ff6391f5c32d9c69d2a47ea670b442974b53935d1edc7fd64eb21e047a839171b9190a45050565b60008181526001830160205260408120548015612c70576000612b87600183613d89565b8554909150600090612b9b90600190613d89565b90506000866000018281548110612bc257634e487b7160e01b600052603260045260246000fd5b9060005260206000200154905080876000018481548110612bf357634e487b7160e01b600052603260045260246000fd5b600091825260208083209091019290925582815260018901909152604090208490558654879080612c3457634e487b7160e01b600052603160045260246000fd5b6001900381819060005260206000200160009055905586600101600087815260200190815260200160002060009055600194505050505061098c565b600091505061098c565b600054610100900460ff1680612c93575060005460ff16155b612caf5760405162461bcd60e51b815260040161095e90613bea565b600054610100900460ff16158015612cd1576000805461ffff19166101011790555b8015612ce3576000805461ff00191690555b50565b600054610100900460ff1680612cff575060005460ff16155b612d1b5760405162461bcd60e51b815260040161095e90613bea565b600054610100900460ff16158015612d3d576000805461ffff19166101011790555b612d4682613108565b80156111e3576000805461ff00191690555050565b600054610100900460ff1680612d74575060005460ff16155b612d905760405162461bcd60e51b815260040161095e90613bea565b600054610100900460ff16158015612db2576000805461ffff19166101011790555b61012d805460ff191690558015612ce3576000805461ff001916905550565b600054610100900460ff1680612dea575060005460ff16155b612e065760405162461bcd60e51b815260040161095e90613bea565b600054610100900460ff16158015612e28576000805461ffff19166101011790555b612e3360003361311b565b612d467f9f2df0fed2c77648de5860a4cc508cd0818c85b8b8a1ab4ceeef8d981c8956a68361311b565b81546000908210612ebb5760405162461bcd60e51b815260206004820152602260248201527f456e756d657261626c655365743a20696e646578206f7574206f6620626f756e604482015261647360f01b606482015260840161095e565b826000018281548110612ede57634e487b7160e01b600052603260045260246000fd5b9060005260206000200154905092915050565b60006001600160e01b03198216637965db0b60e01b148061099d57506301ffc9a760e01b6001600160e01b031983161461099d565b60606000612f35836002613d6a565b612f40906002613d3e565b67ffffffffffffffff811115612f6657634e487b7160e01b600052604160045260246000fd5b6040519080825280601f01601f191660200182016040528015612f90576020820181803683370190505b509050600360fc1b81600081518110612fb957634e487b7160e01b600052603260045260246000fd5b60200101906001600160f81b031916908160001a905350600f60fb1b81600181518110612ff657634e487b7160e01b600052603260045260246000fd5b60200101906001600160f81b031916908160001a905350600061301a846002613d6a565b613025906001613d3e565b90505b60018111156130b9576f181899199a1a9b1b9c1cb0b131b232b360811b85600f166010811061306757634e487b7160e01b600052603260045260246000fd5b1a60f81b82828151811061308b57634e487b7160e01b600052603260045260246000fd5b60200101906001600160f81b031916908160001a90535060049490941c936130b281613dd0565b9050613028565b5083156115e05760405162461bcd60e51b815260206004820181905260248201527f537472696e67733a20686578206c656e67746820696e73756666696369656e74604482015260640161095e565b80516111e39060cb906020840190613175565b610ce982826111e38282612a27565b828054828255906000526020600020908101928215613165579160200282015b8281111561316557825182559160200191906001019061314a565b506131719291506131e8565b5090565b82805461318190613de7565b90600052602060002090601f0160209004810192826131a35760008555613165565b82601f106131bc57805160ff1916838001178555613165565b82800160010185558215613165579182018281111561316557825182559160200191906001019061314a565b5b8082111561317157600081556001016131e9565b600067ffffffffffffffff83111561321757613217613eaa565b60405161322e601f8501601f191660200182613e22565b80915083815284848401111561324357600080fd5b83836020830137600060208583010152509392505050565b80356001600160a01b03811681146109a057600080fd5b600082601f830112613282578081fd5b8135602061328f82613d1a565b6040805161329d8382613e22565b8481528381019250868401600886901b880185018910156132bc578687fd5b865b868110156133425761010080838c0312156132d7578889fd5b84516132e38282613e22565b8335815287840135888201528584013586820152606080850135908201526080808501359082015260a0808501359082015260c061332281860161325b565b9082015260e08481013590820152865294860194909101906001016132be565b509098975050505050505050565b600082601f830112613360578081fd5b8135602061336d82613d1a565b60405161337a8282613e22565b8381528281019150858301600585901b87018401881015613399578586fd5b855b858110156133b75781358452928401929084019060010161339b565b5090979650505050505050565b600082601f8301126133d4578081fd5b6115e0838335602085016131fd565b600080604083850312156133f5578182fd5b6133fe8361325b565b915061340c6020840161325b565b90509250929050565b600080600080600060a0868803121561342c578081fd5b6134358661325b565b94506134436020870161325b565b9350604086013567ffffffffffffffff8082111561345f578283fd5b61346b89838a01613350565b94506060880135915080821115613480578283fd5b61348c89838a01613350565b935060808801359150808211156134a1578283fd5b506134ae888289016133c4565b9150509295509295909350565b600080600080600060a086880312156134d2578283fd5b6134db8661325b565b94506134e96020870161325b565b93506040860135925060608601359150608086013567ffffffffffffffff811115613512578182fd5b6134ae888289016133c4565b600080600060608486031215613532578081fd5b61353b8461325b565b9250602084013567ffffffffffffffff80821115613557578283fd5b61356387838801613350565b93506040860135915080821115613578578283fd5b5061358586828701613350565b9150509250925092565b600080604083850312156135a1578182fd5b6135aa8361325b565b9150602083013580151581146135be578182fd5b809150509250929050565b600080604083850312156135db578182fd5b6135e48361325b565b946020939093013593505050565b600080600060608486031215613606578081fd5b61360f8461325b565b95602085013595506040909401359392505050565b60008060408385031215613636578182fd5b823567ffffffffffffffff8082111561364d578384fd5b818501915085601f830112613660578384fd5b8135602061366d82613d1a565b60405161367a8282613e22565b8381528281019150858301600585901b870184018b1015613699578889fd5b8896505b848710156136c2576136ae8161325b565b83526001969096019591830191830161369d565b50965050860135925050808211156136d8578283fd5b506136e585828601613350565b9150509250929050565b600060208284031215613700578081fd5b5035919050565b60008060408385031215613719578182fd5b8235915061340c6020840161325b565b6000806040838503121561373b578182fd5b50508035926020909101359150565b60006020828403121561375b578081fd5b81356115e081613f69565b600060208284031215613777578081fd5b81516115e081613f69565b60008060008060808587031215613797578182fd5b843567ffffffffffffffff8111156137ad578283fd5b8501601f810187136137bd578283fd5b6137cc878235602084016131fd565b9450506137db6020860161325b565b9250604085013591506137f06060860161325b565b905092959194509250565b6000806040838503121561380d578182fd5b823567ffffffffffffffff80821115613824578384fd5b818501915061018080838803121561383a578485fd5b61384381613d0d565b9050823581526020830135602082015260408301356040820152606083013560608201526080830135608082015261387d60a0840161325b565b60a082015261388e60c0840161325b565b60c082015260e083013560e082015261010080840135818301525061012080840135838111156138bc578687fd5b6138c889828701613350565b8284015250506101408084013581830152506101608084013581830152508094505060208501359150808211156138fd578283fd5b506136e585828601613272565b6000815180845260208085019450808401835b838110156139395781518752958201959082019060010161391d565b509495945050505050565b6000815180845261395c816020860160208601613da0565b601f01601f19169290920160200192915050565b60007f416363657373436f6e74726f6c3a206163636f756e7420000000000000000000825283516139a8816017850160208801613da0565b7001034b99036b4b9b9b4b733903937b6329607d1b60179184019182015283516139d9816028840160208801613da0565b01602801949350505050565b6001600160a01b0386811682528516602082015260a060408201819052600090613a119083018661390a565b8281036060840152613a23818661390a565b905082810360808401526119d48185613944565b6001600160a01b03868116825285166020820152604081018490526060810183905260a060808201819052600090613a7190830184613944565b979650505050505050565b6000602082526115e0602083018461390a565b600060408252613aa2604083018561390a565b8281036020840152613ab4818561390a565b95945050505050565b6000602082526115e06020830184613944565b60208082526028908201527f455243313135353a204552433131353552656365697665722072656a656374656040820152676420746f6b656e7360c01b606082015260800190565b60208082526024908201527f455243313135353a206275726e20616d6f756e7420657863656564732062616c604082015263616e636560e01b606082015260800190565b60208082526029908201527f455243313135353a2063616c6c6572206973206e6f74206f776e6572206e6f7260408201526808185c1c1c9bdd995960ba1b606082015260800190565b60208082526025908201527f455243313135353a207472616e7366657220746f20746865207a65726f206164604082015264647265737360d81b606082015260800190565b6020808252602e908201527f496e697469616c697a61626c653a20636f6e747261637420697320616c72656160408201526d191e481a5b9a5d1a585b1a5e995960921b606082015260800190565b60208082526023908201527f455243313135353a206275726e2066726f6d20746865207a65726f206164647260408201526265737360e81b606082015260800190565b6020808252602a908201527f455243313135353a20696e73756666696369656e742062616c616e636520666f60408201526939103a3930b739b332b960b11b606082015260800190565b60208082526028908201527f455243313135353a2069647320616e6420616d6f756e7473206c656e677468206040820152670dad2e6dac2e8c6d60c31b606082015260800190565b6040516109a08282613e22565b600067ffffffffffffffff821115613d3457613d34613eaa565b5060051b60200190565b60008219821115613d5157613d51613e7e565b500190565b600082613d6557613d65613e94565b500490565b6000816000190483118215151615613d8457613d84613e7e565b500290565b600082821015613d9b57613d9b613e7e565b500390565b60005b83811015613dbb578181015183820152602001613da3565b83811115613dca576000848401525b50505050565b600081613ddf57613ddf613e7e565b506000190190565b600181811c90821680613dfb57607f821691505b60208210811415613e1c57634e487b7160e01b600052602260045260246000fd5b50919050565b601f8201601f1916810167ffffffffffffffff81118282101715613e4857613e48613eaa565b6040525050565b6000600019821415613e6357613e63613e7e565b5060010190565b600082613e7957613e79613e94565b500690565b634e487b7160e01b600052601160045260246000fd5b634e487b7160e01b600052601260045260246000fd5b634e487b7160e01b600052604160045260246000fd5b600060033d1115610d3657600481823e5160e01c90565b600060443d1015613ee757610d36565b6040516003193d81016004833e81513d67ffffffffffffffff8160248401118184111715613f19575050505050610d36565b8285019150815181811115613f3357505050505050610d36565b843d8701016020828501011115613f4f57505050505050610d36565b613f5e60208286010187613e22565b509094505050505090565b6001600160e01b031981168114612ce357600080fdfea2646970667358221220a624f1dbcefc1971536f6c50ad80fffd06fbb1b170a09f05dfaa14591269200a64736f6c63430008030033",
  "immutableReferences": {},
  "source": "// SPDX-License-Identifier: MIT\npragma solidity ^0.8.3;\n\nimport \"../node_modules/@openzeppelin/contracts-upgradeable/proxy/utils/Initializable.sol\";\nimport \"./ERC1155Token.sol\";\n\nstruct LootBox {\n  uint256 index;\n  uint256 fromId;\n  uint256 toId;\n  uint256 count;\n  uint256 supply;\n  address seller;\n  address creator;\n  uint256 creatorRoyalty;\n  uint256 price;\n  uint256[] lootBoxItemsIndex;\n  uint256 release;\n  uint256 dropRate;\n}\n\nstruct LootBoxItem {\n  uint256 index;\n  uint256 lootBoxIndex;\n  uint256 fromId;\n  uint256 toId;\n  uint256 count;\n  uint256 supply;\n  address artist;\n  uint256 artistRoyalty;\n}\n\ncontract Topx is Initializable, ERC1155Token {\n\n  uint256 private randomNounce;\n  uint256 private platformRoyalty;\n  address private treasury;\n\n  mapping(uint256 => LootBox) public lootBoxes;\n  mapping(uint256 => LootBoxItem) public lootBoxItems;\n  mapping(uint256 => uint256) public tokenIdToLootBoxIndex;\n  mapping(uint256 => uint256) public tokenIdToLootBoxItemsIndex;\n  mapping(uint256 => uint8) public tokenIdType;\n\n  function initialize(string memory _uri, address _minter, uint256 _platformRoyalty, address _treasury) public initializer {\n    __ERC1155Token_init(_uri, _minter);\n    platformRoyalty = _platformRoyalty;\n    treasury = _treasury;\n  }\n\n  event EthTopxTransfer(uint8 _action, uint256 _tokenId, uint256 _amount, address _from, address _to);\n\n  event addLootBox(uint256 _packid, uint256 _from, address _creator, uint256 _price, uint256 _supply);\n  event addLootBoxItem(uint256 _itemid, uint256 _packid, uint256 _from, address _artist, uint256 _supply);\n\n  function addLootBoxes(LootBox memory _lootBox, LootBoxItem[] memory _lootBoxItems) public {\n    require(hasRole(MINTER_ROLE, _msgSender()), \"Not a minter\");\n    LootBox memory lootBox = _lootBox;\n    uint256 lootBoxItemsCount = _lootBoxItems.length;\n    emit addLootBox(lootBox.index, lootBox.fromId, lootBox.creator, lootBox.price, lootBox.supply);\n    for (uint256 i=0; i<lootBoxItemsCount; i++) {\n      LootBoxItem memory lootBoxItem = _lootBoxItems[i];\n      lootBoxItems[lootBoxItem.index] = lootBoxItem;\n      emit addLootBoxItem(lootBoxItem.index, lootBox.index, lootBoxItem.fromId, lootBoxItem.artist, lootBoxItem.supply);\n    }\n    lootBoxes[lootBox.index] = lootBox;\n  }\n\n  event mintLootBox(uint256 _id, address _account, uint256 _tokenId, uint256 _count);\n\n  function buyLootBox(uint256 lootBoxIndex) public payable returns (uint256) {\n    require(lootBoxes[lootBoxIndex].index > 0, \"Exists\");\n    require(msg.value >= lootBoxes[lootBoxIndex].price, \"Price\");\n    require(block.timestamp >= lootBoxes[lootBoxIndex].release, \"Release\");\n    require(lootBoxes[lootBoxIndex].count <= lootBoxes[lootBoxIndex].supply, \"Supply\");\n    uint256 toCreatorRoyalty = mulDiv(msg.value, lootBoxes[lootBoxIndex].creatorRoyalty);\n    payable(lootBoxes[lootBoxIndex].creator).transfer(toCreatorRoyalty);\n    payable(lootBoxes[lootBoxIndex].seller).transfer(msg.value - toCreatorRoyalty);\n    uint256 tokenId = lootBoxes[lootBoxIndex].fromId + lootBoxes[lootBoxIndex].count;\n    tokenIdToLootBoxIndex[tokenId] = lootBoxIndex;\n    tokenIdType[tokenId] = 1;\n    lootBoxes[lootBoxIndex].count += 1;\n    emit mintLootBox(lootBoxIndex, msg.sender, tokenId, lootBoxes[lootBoxIndex].count);\n    _mint(msg.sender, tokenId, 1, \"\");\n    emit EthTopxTransfer(0, tokenId, msg.value - toCreatorRoyalty, msg.sender, lootBoxes[lootBoxIndex].seller);\n    emit EthTopxTransfer(1, tokenId, toCreatorRoyalty, msg.sender, lootBoxes[lootBoxIndex].creator);\n    return tokenId;\n  }\n\n  event mintItem(uint256 _id, address _account, uint256 _tokenId);\n\n  function openLootBox(uint256 tokenId) public {\n    require(lootBoxes[tokenIdToLootBoxIndex[tokenId]].index > 0, \"Exists\");\n    require(tokenIdType[tokenId] == 1, \"Is box\");\n    _burn(msg.sender, tokenId, 1);\n    uint256 lootBoxIndex = tokenIdToLootBoxIndex[tokenId];\n    for (uint256 i=0; i<lootBoxes[lootBoxIndex].dropRate; i++) {\n      uint256 availables = (lootBoxes[lootBoxIndex].supply - lootBoxes[lootBoxIndex].count + 1) * lootBoxes[lootBoxIndex].dropRate;\n      uint256 rand = random(availables - i);\n      uint256 counter = 0;\n      for (uint256 j=0; j<lootBoxes[lootBoxIndex].lootBoxItemsIndex.length; j++) {\n        uint256 currentItem = lootBoxes[lootBoxIndex].lootBoxItemsIndex[j];\n        counter = counter + (lootBoxItems[currentItem].supply - lootBoxItems[currentItem].count);\n        if (rand <= counter) {\n          uint256 mintedTokenId = lootBoxItems[currentItem].fromId + lootBoxItems[currentItem].count;\n          lootBoxItems[currentItem].count++;\n          emit mintItem(currentItem, msg.sender, mintedTokenId);\n          _mint(msg.sender, mintedTokenId, 1, \"\");\n          tokenIdType[mintedTokenId] = 2;\n          tokenIdToLootBoxItemsIndex[mintedTokenId] = currentItem;\n          break;\n        }\n      }\n    }\n  }\n\n  function buyAndOpenLootBox(uint256 lootBoxIndex) public payable{\n    uint256 tokenId = buyLootBox(lootBoxIndex);\n    openLootBox(tokenId);\n  }\n\n  function getCreatorRoyaltyFromAmountForTokenId(uint256 tokenId, uint256 amount) public view returns (uint256) {\n    if (tokenIdType[tokenId] == 1) {\n      return mulDiv(amount, lootBoxes[tokenIdToLootBoxIndex[tokenId]].creatorRoyalty);\n    }\n    if (tokenIdType[tokenId] == 2) {\n      return mulDiv(amount, lootBoxes[lootBoxItems[tokenIdToLootBoxItemsIndex[tokenId]].lootBoxIndex].creatorRoyalty);\n    }\n    return 0;\n  }\n\n  function getCreatorAddressForTokenId(uint256 tokenId) public view returns (address) {\n    if (tokenIdType[tokenId] == 1) {\n      return lootBoxes[tokenIdToLootBoxIndex[tokenId]].creator;\n    }\n    if (tokenIdType[tokenId] == 2) {\n      return lootBoxes[lootBoxItems[tokenIdToLootBoxItemsIndex[tokenId]].lootBoxIndex].creator;\n    }\n    return address(this);\n  }\n\n  function getArtistRoyaltyFromAmountForTokenId(uint256 tokenId, uint256 amount) public view returns (uint256) {\n    if (tokenIdType[tokenId] == 1) {\n      return 0;\n    }\n    return mulDiv(amount, lootBoxItems[tokenIdToLootBoxItemsIndex[tokenId]].artistRoyalty);\n  }\n\n  function getArtistForTokenId(uint256 tokenId) public view returns (address) {\n    if (tokenIdType[tokenId] == 1) {\n      return address(this);\n    }\n    return lootBoxItems[tokenIdToLootBoxItemsIndex[tokenId]].artist;\n  }\n\n  function getPlatformRoyalty(uint256 amount) public view returns (uint256) {\n    return mulDiv(amount, platformRoyalty);\n  }\n\n  function mulDiv(uint256 x, uint256 y) public pure returns (uint256) {\n    uint256 z = 10000;\n    uint256 a = x / z;\n    uint256 b = x % z;\n    uint256 c = y / z;\n    uint256 d = y % z;\n    return a * b * z + a * d + b * c + b * d / z;\n  }\n\n  function random(uint256 size) private returns (uint256) {\n    randomNounce++;\n    return uint256(keccak256(abi.encodePacked(block.timestamp, msg.sender, randomNounce))) % size;\n  }\n\n  function updatePlatformRoyalty(uint256 _platformRoyalty) private {\n    require(hasRole(DEFAULT_ADMIN_ROLE, msg.sender), \"Not an admin\");\n    platformRoyalty = _platformRoyalty;\n  }\n\n  function getTreasury() public view returns (address) {\n    return treasury;\n  }\n}",
  "sourcePath": "/Users/jernejpregelj/dev/topx/smartcontracts/contracts/Topx.sol",
  "compiler": {
    "name": "solc",
    "version": "0.8.3+commit.8d00100c.Emscripten.clang"
  },
  "schemaVersion": "3.3.3",
  "updatedAt": "2021-06-23T12:25:35.948Z",
  "networkType": "ethereum",
  "devdoc": {
    "kind": "dev",
    "methods": {
      "balanceOf(address,uint256)": {
        "details": "See {IERC1155-balanceOf}. Requirements: - `account` cannot be the zero address."
      },
      "balanceOfBatch(address[],uint256[])": {
        "details": "See {IERC1155-balanceOfBatch}. Requirements: - `accounts` and `ids` must have the same length."
      },
      "getRoleAdmin(bytes32)": {
        "details": "Returns the admin role that controls `role`. See {grantRole} and {revokeRole}. To change a role's admin, use {_setRoleAdmin}."
      },
      "getRoleMember(bytes32,uint256)": {
        "details": "Returns one of the accounts that have `role`. `index` must be a value between 0 and {getRoleMemberCount}, non-inclusive. Role bearers are not sorted in any particular way, and their ordering may change at any point. WARNING: When using {getRoleMember} and {getRoleMemberCount}, make sure you perform all queries on the same block. See the following https://forum.openzeppelin.com/t/iterating-over-elements-on-enumerableset-in-openzeppelin-contracts/2296[forum post] for more information."
      },
      "getRoleMemberCount(bytes32)": {
        "details": "Returns the number of accounts that have `role`. Can be used together with {getRoleMember} to enumerate all bearers of a role."
      },
      "grantRole(bytes32,address)": {
        "details": "Overload {grantRole} to track enumerable memberships"
      },
      "hasRole(bytes32,address)": {
        "details": "Returns `true` if `account` has been granted `role`."
      },
      "isApprovedForAll(address,address)": {
        "details": "See {IERC1155-isApprovedForAll}."
      },
      "paused()": {
        "details": "Returns true if the contract is paused, and false otherwise."
      },
      "renounceRole(bytes32,address)": {
        "details": "Overload {renounceRole} to track enumerable memberships"
      },
      "revokeRole(bytes32,address)": {
        "details": "Overload {revokeRole} to track enumerable memberships"
      },
      "safeBatchTransferFrom(address,address,uint256[],uint256[],bytes)": {
        "details": "See {IERC1155-safeBatchTransferFrom}."
      },
      "safeTransferFrom(address,address,uint256,uint256,bytes)": {
        "details": "See {IERC1155-safeTransferFrom}."
      },
      "setApprovalForAll(address,bool)": {
        "details": "See {IERC1155-setApprovalForAll}."
      },
      "uri(uint256)": {
        "details": "See {IERC1155MetadataURI-uri}. This implementation returns the same URI for *all* token types. It relies on the token type ID substitution mechanism https://eips.ethereum.org/EIPS/eip-1155#metadata[defined in the EIP]. Clients calling this function must replace the `\\{id\\}` substring with the actual token type ID."
      }
    },
    "version": 1
  },
  "userdoc": {
    "kind": "user",
    "methods": {},
    "version": 1
  }
}