{
  "contractName": "Topx",
  "abi": [
    {
      "anonymous": false,
      "inputs": [
        {
          "indexed": true,
          "internalType": "address",
          "name": "account",
          "type": "address"
        },
        {
          "indexed": true,
          "internalType": "address",
          "name": "operator",
          "type": "address"
        },
        {
          "indexed": false,
          "internalType": "bool",
          "name": "approved",
          "type": "bool"
        }
      ],
      "name": "ApprovalForAll",
      "type": "event"
    },
    {
      "anonymous": false,
      "inputs": [
        {
          "indexed": false,
          "internalType": "address",
          "name": "account",
          "type": "address"
        }
      ],
      "name": "Paused",
      "type": "event"
    },
    {
      "anonymous": false,
      "inputs": [
        {
          "indexed": true,
          "internalType": "bytes32",
          "name": "role",
          "type": "bytes32"
        },
        {
          "indexed": true,
          "internalType": "bytes32",
          "name": "previousAdminRole",
          "type": "bytes32"
        },
        {
          "indexed": true,
          "internalType": "bytes32",
          "name": "newAdminRole",
          "type": "bytes32"
        }
      ],
      "name": "RoleAdminChanged",
      "type": "event"
    },
    {
      "anonymous": false,
      "inputs": [
        {
          "indexed": true,
          "internalType": "bytes32",
          "name": "role",
          "type": "bytes32"
        },
        {
          "indexed": true,
          "internalType": "address",
          "name": "account",
          "type": "address"
        },
        {
          "indexed": true,
          "internalType": "address",
          "name": "sender",
          "type": "address"
        }
      ],
      "name": "RoleGranted",
      "type": "event"
    },
    {
      "anonymous": false,
      "inputs": [
        {
          "indexed": true,
          "internalType": "bytes32",
          "name": "role",
          "type": "bytes32"
        },
        {
          "indexed": true,
          "internalType": "address",
          "name": "account",
          "type": "address"
        },
        {
          "indexed": true,
          "internalType": "address",
          "name": "sender",
          "type": "address"
        }
      ],
      "name": "RoleRevoked",
      "type": "event"
    },
    {
      "anonymous": false,
      "inputs": [
        {
          "indexed": true,
          "internalType": "address",
          "name": "operator",
          "type": "address"
        },
        {
          "indexed": true,
          "internalType": "address",
          "name": "from",
          "type": "address"
        },
        {
          "indexed": true,
          "internalType": "address",
          "name": "to",
          "type": "address"
        },
        {
          "indexed": false,
          "internalType": "uint256[]",
          "name": "ids",
          "type": "uint256[]"
        },
        {
          "indexed": false,
          "internalType": "uint256[]",
          "name": "values",
          "type": "uint256[]"
        }
      ],
      "name": "TransferBatch",
      "type": "event"
    },
    {
      "anonymous": false,
      "inputs": [
        {
          "indexed": true,
          "internalType": "address",
          "name": "operator",
          "type": "address"
        },
        {
          "indexed": true,
          "internalType": "address",
          "name": "from",
          "type": "address"
        },
        {
          "indexed": true,
          "internalType": "address",
          "name": "to",
          "type": "address"
        },
        {
          "indexed": false,
          "internalType": "uint256",
          "name": "id",
          "type": "uint256"
        },
        {
          "indexed": false,
          "internalType": "uint256",
          "name": "value",
          "type": "uint256"
        }
      ],
      "name": "TransferSingle",
      "type": "event"
    },
    {
      "anonymous": false,
      "inputs": [
        {
          "indexed": false,
          "internalType": "string",
          "name": "value",
          "type": "string"
        },
        {
          "indexed": true,
          "internalType": "uint256",
          "name": "id",
          "type": "uint256"
        }
      ],
      "name": "URI",
      "type": "event"
    },
    {
      "anonymous": false,
      "inputs": [
        {
          "indexed": false,
          "internalType": "address",
          "name": "account",
          "type": "address"
        }
      ],
      "name": "Unpaused",
      "type": "event"
    },
    {
      "anonymous": false,
      "inputs": [
        {
          "indexed": false,
          "internalType": "uint256",
          "name": "_packid",
          "type": "uint256"
        },
        {
          "indexed": false,
          "internalType": "uint256",
          "name": "_from",
          "type": "uint256"
        },
        {
          "indexed": false,
          "internalType": "uint256",
          "name": "_to",
          "type": "uint256"
        },
        {
          "indexed": false,
          "internalType": "uint256",
          "name": "_price",
          "type": "uint256"
        },
        {
          "indexed": false,
          "internalType": "uint256",
          "name": "_supply",
          "type": "uint256"
        }
      ],
      "name": "addLootBox",
      "type": "event"
    },
    {
      "anonymous": false,
      "inputs": [
        {
          "indexed": false,
          "internalType": "uint256",
          "name": "_itemid",
          "type": "uint256"
        },
        {
          "indexed": false,
          "internalType": "uint256",
          "name": "_packid",
          "type": "uint256"
        },
        {
          "indexed": false,
          "internalType": "uint256",
          "name": "_from",
          "type": "uint256"
        },
        {
          "indexed": false,
          "internalType": "uint256",
          "name": "_to",
          "type": "uint256"
        },
        {
          "indexed": false,
          "internalType": "uint256",
          "name": "_supply",
          "type": "uint256"
        }
      ],
      "name": "addLootBoxItem",
      "type": "event"
    },
    {
      "anonymous": false,
      "inputs": [
        {
          "indexed": false,
          "internalType": "uint256",
          "name": "_id",
          "type": "uint256"
        },
        {
          "indexed": false,
          "internalType": "address",
          "name": "_account",
          "type": "address"
        },
        {
          "indexed": false,
          "internalType": "uint256",
          "name": "_tokenId",
          "type": "uint256"
        }
      ],
      "name": "mintItem",
      "type": "event"
    },
    {
      "anonymous": false,
      "inputs": [
        {
          "indexed": false,
          "internalType": "uint256",
          "name": "_id",
          "type": "uint256"
        },
        {
          "indexed": false,
          "internalType": "address",
          "name": "_account",
          "type": "address"
        },
        {
          "indexed": false,
          "internalType": "uint256",
          "name": "_tokenId",
          "type": "uint256"
        },
        {
          "indexed": false,
          "internalType": "uint256",
          "name": "_count",
          "type": "uint256"
        }
      ],
      "name": "mintLootBox",
      "type": "event"
    },
    {
      "inputs": [],
      "name": "DEFAULT_ADMIN_ROLE",
      "outputs": [
        {
          "internalType": "bytes32",
          "name": "",
          "type": "bytes32"
        }
      ],
      "stateMutability": "view",
      "type": "function",
      "constant": true
    },
    {
      "inputs": [],
      "name": "MINTER_ROLE",
      "outputs": [
        {
          "internalType": "bytes32",
          "name": "",
          "type": "bytes32"
        }
      ],
      "stateMutability": "view",
      "type": "function",
      "constant": true
    },
    {
      "inputs": [
        {
          "internalType": "address",
          "name": "account",
          "type": "address"
        },
        {
          "internalType": "uint256",
          "name": "id",
          "type": "uint256"
        }
      ],
      "name": "balanceOf",
      "outputs": [
        {
          "internalType": "uint256",
          "name": "",
          "type": "uint256"
        }
      ],
      "stateMutability": "view",
      "type": "function",
      "constant": true
    },
    {
      "inputs": [
        {
          "internalType": "address[]",
          "name": "accounts",
          "type": "address[]"
        },
        {
          "internalType": "uint256[]",
          "name": "ids",
          "type": "uint256[]"
        }
      ],
      "name": "balanceOfBatch",
      "outputs": [
        {
          "internalType": "uint256[]",
          "name": "",
          "type": "uint256[]"
        }
      ],
      "stateMutability": "view",
      "type": "function",
      "constant": true
    },
    {
      "inputs": [
        {
          "internalType": "address",
          "name": "account",
          "type": "address"
        },
        {
          "internalType": "uint256",
          "name": "id",
          "type": "uint256"
        },
        {
          "internalType": "uint256",
          "name": "value",
          "type": "uint256"
        }
      ],
      "name": "burn",
      "outputs": [],
      "stateMutability": "nonpayable",
      "type": "function"
    },
    {
      "inputs": [
        {
          "internalType": "address",
          "name": "account",
          "type": "address"
        },
        {
          "internalType": "uint256[]",
          "name": "ids",
          "type": "uint256[]"
        },
        {
          "internalType": "uint256[]",
          "name": "values",
          "type": "uint256[]"
        }
      ],
      "name": "burnBatch",
      "outputs": [],
      "stateMutability": "nonpayable",
      "type": "function"
    },
    {
      "inputs": [
        {
          "internalType": "bytes32",
          "name": "role",
          "type": "bytes32"
        }
      ],
      "name": "getRoleAdmin",
      "outputs": [
        {
          "internalType": "bytes32",
          "name": "",
          "type": "bytes32"
        }
      ],
      "stateMutability": "view",
      "type": "function",
      "constant": true
    },
    {
      "inputs": [
        {
          "internalType": "bytes32",
          "name": "role",
          "type": "bytes32"
        },
        {
          "internalType": "uint256",
          "name": "index",
          "type": "uint256"
        }
      ],
      "name": "getRoleMember",
      "outputs": [
        {
          "internalType": "address",
          "name": "",
          "type": "address"
        }
      ],
      "stateMutability": "view",
      "type": "function",
      "constant": true
    },
    {
      "inputs": [
        {
          "internalType": "bytes32",
          "name": "role",
          "type": "bytes32"
        }
      ],
      "name": "getRoleMemberCount",
      "outputs": [
        {
          "internalType": "uint256",
          "name": "",
          "type": "uint256"
        }
      ],
      "stateMutability": "view",
      "type": "function",
      "constant": true
    },
    {
      "inputs": [
        {
          "internalType": "bytes32",
          "name": "role",
          "type": "bytes32"
        },
        {
          "internalType": "address",
          "name": "account",
          "type": "address"
        }
      ],
      "name": "grantRole",
      "outputs": [],
      "stateMutability": "nonpayable",
      "type": "function"
    },
    {
      "inputs": [
        {
          "internalType": "bytes32",
          "name": "role",
          "type": "bytes32"
        },
        {
          "internalType": "address",
          "name": "account",
          "type": "address"
        }
      ],
      "name": "hasRole",
      "outputs": [
        {
          "internalType": "bool",
          "name": "",
          "type": "bool"
        }
      ],
      "stateMutability": "view",
      "type": "function",
      "constant": true
    },
    {
      "inputs": [
        {
          "internalType": "address",
          "name": "account",
          "type": "address"
        },
        {
          "internalType": "address",
          "name": "operator",
          "type": "address"
        }
      ],
      "name": "isApprovedForAll",
      "outputs": [
        {
          "internalType": "bool",
          "name": "",
          "type": "bool"
        }
      ],
      "stateMutability": "view",
      "type": "function",
      "constant": true
    },
    {
      "inputs": [
        {
          "internalType": "uint256",
          "name": "",
          "type": "uint256"
        }
      ],
      "name": "lootBoxItems",
      "outputs": [
        {
          "internalType": "uint256",
          "name": "index",
          "type": "uint256"
        },
        {
          "internalType": "uint256",
          "name": "lootBoxIndex",
          "type": "uint256"
        },
        {
          "internalType": "uint256",
          "name": "fromId",
          "type": "uint256"
        },
        {
          "internalType": "uint256",
          "name": "toId",
          "type": "uint256"
        },
        {
          "internalType": "uint256",
          "name": "count",
          "type": "uint256"
        },
        {
          "internalType": "uint256",
          "name": "supply",
          "type": "uint256"
        },
        {
          "internalType": "uint256",
          "name": "dropRate",
          "type": "uint256"
        },
        {
          "internalType": "address",
          "name": "artist",
          "type": "address"
        },
        {
          "internalType": "uint256",
          "name": "artistRoyalty",
          "type": "uint256"
        }
      ],
      "stateMutability": "view",
      "type": "function",
      "constant": true
    },
    {
      "inputs": [
        {
          "internalType": "uint256",
          "name": "",
          "type": "uint256"
        }
      ],
      "name": "lootBoxes",
      "outputs": [
        {
          "internalType": "uint256",
          "name": "index",
          "type": "uint256"
        },
        {
          "internalType": "uint256",
          "name": "fromId",
          "type": "uint256"
        },
        {
          "internalType": "uint256",
          "name": "toId",
          "type": "uint256"
        },
        {
          "internalType": "uint256",
          "name": "count",
          "type": "uint256"
        },
        {
          "internalType": "uint256",
          "name": "supply",
          "type": "uint256"
        },
        {
          "internalType": "address",
          "name": "seller",
          "type": "address"
        },
        {
          "internalType": "address",
          "name": "creator",
          "type": "address"
        },
        {
          "internalType": "uint256",
          "name": "creatorRoyalty",
          "type": "uint256"
        },
        {
          "internalType": "uint256",
          "name": "price",
          "type": "uint256"
        },
        {
          "internalType": "uint256",
          "name": "release",
          "type": "uint256"
        }
      ],
      "stateMutability": "view",
      "type": "function",
      "constant": true
    },
    {
      "inputs": [],
      "name": "pause",
      "outputs": [],
      "stateMutability": "nonpayable",
      "type": "function"
    },
    {
      "inputs": [],
      "name": "paused",
      "outputs": [
        {
          "internalType": "bool",
          "name": "",
          "type": "bool"
        }
      ],
      "stateMutability": "view",
      "type": "function",
      "constant": true
    },
    {
      "inputs": [
        {
          "internalType": "bytes32",
          "name": "role",
          "type": "bytes32"
        },
        {
          "internalType": "address",
          "name": "account",
          "type": "address"
        }
      ],
      "name": "renounceRole",
      "outputs": [],
      "stateMutability": "nonpayable",
      "type": "function"
    },
    {
      "inputs": [
        {
          "internalType": "bytes32",
          "name": "role",
          "type": "bytes32"
        },
        {
          "internalType": "address",
          "name": "account",
          "type": "address"
        }
      ],
      "name": "revokeRole",
      "outputs": [],
      "stateMutability": "nonpayable",
      "type": "function"
    },
    {
      "inputs": [
        {
          "internalType": "address",
          "name": "from",
          "type": "address"
        },
        {
          "internalType": "address",
          "name": "to",
          "type": "address"
        },
        {
          "internalType": "uint256[]",
          "name": "ids",
          "type": "uint256[]"
        },
        {
          "internalType": "uint256[]",
          "name": "amounts",
          "type": "uint256[]"
        },
        {
          "internalType": "bytes",
          "name": "data",
          "type": "bytes"
        }
      ],
      "name": "safeBatchTransferFrom",
      "outputs": [],
      "stateMutability": "nonpayable",
      "type": "function"
    },
    {
      "inputs": [
        {
          "internalType": "address",
          "name": "from",
          "type": "address"
        },
        {
          "internalType": "address",
          "name": "to",
          "type": "address"
        },
        {
          "internalType": "uint256",
          "name": "id",
          "type": "uint256"
        },
        {
          "internalType": "uint256",
          "name": "amount",
          "type": "uint256"
        },
        {
          "internalType": "bytes",
          "name": "data",
          "type": "bytes"
        }
      ],
      "name": "safeTransferFrom",
      "outputs": [],
      "stateMutability": "nonpayable",
      "type": "function"
    },
    {
      "inputs": [
        {
          "internalType": "address",
          "name": "operator",
          "type": "address"
        },
        {
          "internalType": "bool",
          "name": "approved",
          "type": "bool"
        }
      ],
      "name": "setApprovalForAll",
      "outputs": [],
      "stateMutability": "nonpayable",
      "type": "function"
    },
    {
      "inputs": [
        {
          "internalType": "bytes4",
          "name": "interfaceId",
          "type": "bytes4"
        }
      ],
      "name": "supportsInterface",
      "outputs": [
        {
          "internalType": "bool",
          "name": "",
          "type": "bool"
        }
      ],
      "stateMutability": "view",
      "type": "function",
      "constant": true
    },
    {
      "inputs": [
        {
          "internalType": "uint256",
          "name": "",
          "type": "uint256"
        }
      ],
      "name": "tokenIdToLootBoxIndex",
      "outputs": [
        {
          "internalType": "uint256",
          "name": "",
          "type": "uint256"
        }
      ],
      "stateMutability": "view",
      "type": "function",
      "constant": true
    },
    {
      "inputs": [
        {
          "internalType": "uint256",
          "name": "",
          "type": "uint256"
        }
      ],
      "name": "tokenIdToLootBoxItemsIndex",
      "outputs": [
        {
          "internalType": "uint256",
          "name": "",
          "type": "uint256"
        }
      ],
      "stateMutability": "view",
      "type": "function",
      "constant": true
    },
    {
      "inputs": [
        {
          "internalType": "uint256",
          "name": "",
          "type": "uint256"
        }
      ],
      "name": "tokenIdType",
      "outputs": [
        {
          "internalType": "uint8",
          "name": "",
          "type": "uint8"
        }
      ],
      "stateMutability": "view",
      "type": "function",
      "constant": true
    },
    {
      "inputs": [],
      "name": "unpause",
      "outputs": [],
      "stateMutability": "nonpayable",
      "type": "function"
    },
    {
      "inputs": [
        {
          "internalType": "uint256",
          "name": "",
          "type": "uint256"
        }
      ],
      "name": "uri",
      "outputs": [
        {
          "internalType": "string",
          "name": "",
          "type": "string"
        }
      ],
      "stateMutability": "view",
      "type": "function",
      "constant": true
    },
    {
      "inputs": [
        {
          "internalType": "string",
          "name": "_uri",
          "type": "string"
        },
        {
          "internalType": "address",
          "name": "_minter",
          "type": "address"
        }
      ],
      "name": "initialize",
      "outputs": [],
      "stateMutability": "nonpayable",
      "type": "function"
    },
    {
      "inputs": [
        {
          "components": [
            {
              "internalType": "uint256",
              "name": "index",
              "type": "uint256"
            },
            {
              "internalType": "uint256",
              "name": "fromId",
              "type": "uint256"
            },
            {
              "internalType": "uint256",
              "name": "toId",
              "type": "uint256"
            },
            {
              "internalType": "uint256",
              "name": "count",
              "type": "uint256"
            },
            {
              "internalType": "uint256",
              "name": "supply",
              "type": "uint256"
            },
            {
              "internalType": "address",
              "name": "seller",
              "type": "address"
            },
            {
              "internalType": "address",
              "name": "creator",
              "type": "address"
            },
            {
              "internalType": "uint256",
              "name": "creatorRoyalty",
              "type": "uint256"
            },
            {
              "internalType": "uint256",
              "name": "price",
              "type": "uint256"
            },
            {
              "internalType": "uint256[]",
              "name": "lootBoxItemsIndex",
              "type": "uint256[]"
            },
            {
              "internalType": "uint256",
              "name": "release",
              "type": "uint256"
            }
          ],
          "internalType": "struct LootBox",
          "name": "_lootBox",
          "type": "tuple"
        },
        {
          "components": [
            {
              "internalType": "uint256",
              "name": "index",
              "type": "uint256"
            },
            {
              "internalType": "uint256",
              "name": "lootBoxIndex",
              "type": "uint256"
            },
            {
              "internalType": "uint256",
              "name": "fromId",
              "type": "uint256"
            },
            {
              "internalType": "uint256",
              "name": "toId",
              "type": "uint256"
            },
            {
              "internalType": "uint256",
              "name": "count",
              "type": "uint256"
            },
            {
              "internalType": "uint256",
              "name": "supply",
              "type": "uint256"
            },
            {
              "internalType": "uint256",
              "name": "dropRate",
              "type": "uint256"
            },
            {
              "internalType": "address",
              "name": "artist",
              "type": "address"
            },
            {
              "internalType": "uint256",
              "name": "artistRoyalty",
              "type": "uint256"
            }
          ],
          "internalType": "struct LootBoxItem[]",
          "name": "_lootBoxItems",
          "type": "tuple[]"
        }
      ],
      "name": "addLootBoxes",
      "outputs": [],
      "stateMutability": "nonpayable",
      "type": "function"
    },
    {
      "inputs": [
        {
          "internalType": "uint256",
          "name": "lootBoxIndex",
          "type": "uint256"
        }
      ],
      "name": "buyLootBox",
      "outputs": [
        {
          "internalType": "bool",
          "name": "",
          "type": "bool"
        },
        {
          "internalType": "uint256",
          "name": "",
          "type": "uint256"
        }
      ],
      "stateMutability": "payable",
      "type": "function",
      "payable": true
    },
    {
      "inputs": [
        {
          "internalType": "uint256",
          "name": "tokenId",
          "type": "uint256"
        }
      ],
      "name": "openLootBox",
      "outputs": [
        {
          "internalType": "bool",
          "name": "",
          "type": "bool"
        },
        {
          "internalType": "uint256",
          "name": "",
          "type": "uint256"
        }
      ],
      "stateMutability": "nonpayable",
      "type": "function"
    },
    {
      "inputs": [
        {
          "internalType": "uint256",
          "name": "lootBoxIndex",
          "type": "uint256"
        }
      ],
      "name": "mintLootBoxAndOpen",
      "outputs": [
        {
          "internalType": "bool",
          "name": "",
          "type": "bool"
        },
        {
          "internalType": "uint256",
          "name": "",
          "type": "uint256"
        }
      ],
      "stateMutability": "payable",
      "type": "function",
      "payable": true
    },
    {
      "inputs": [
        {
          "internalType": "uint256",
          "name": "tokenId",
          "type": "uint256"
        },
        {
          "internalType": "uint256",
          "name": "amount",
          "type": "uint256"
        }
      ],
      "name": "getCreatorRoyaltyFromAmountForTokenId",
      "outputs": [
        {
          "internalType": "uint256",
          "name": "",
          "type": "uint256"
        }
      ],
      "stateMutability": "view",
      "type": "function",
      "constant": true
    },
    {
      "inputs": [
        {
          "internalType": "uint256",
          "name": "tokenId",
          "type": "uint256"
        }
      ],
      "name": "getCreatorAddressForTokenId",
      "outputs": [
        {
          "internalType": "address",
          "name": "",
          "type": "address"
        }
      ],
      "stateMutability": "view",
      "type": "function",
      "constant": true
    },
    {
      "inputs": [
        {
          "internalType": "uint256",
          "name": "tokenId",
          "type": "uint256"
        },
        {
          "internalType": "uint256",
          "name": "amount",
          "type": "uint256"
        }
      ],
      "name": "getArtistRoyaltyFromAmountForTokenId",
      "outputs": [
        {
          "internalType": "uint256",
          "name": "",
          "type": "uint256"
        }
      ],
      "stateMutability": "view",
      "type": "function",
      "constant": true
    },
    {
      "inputs": [
        {
          "internalType": "uint256",
          "name": "tokenId",
          "type": "uint256"
        }
      ],
      "name": "getArtistForTokenId",
      "outputs": [
        {
          "internalType": "address",
          "name": "",
          "type": "address"
        }
      ],
      "stateMutability": "view",
      "type": "function",
      "constant": true
    },
    {
      "inputs": [
        {
          "internalType": "uint256",
          "name": "x",
          "type": "uint256"
        },
        {
          "internalType": "uint256",
          "name": "y",
          "type": "uint256"
        }
      ],
      "name": "mulDiv",
      "outputs": [
        {
          "internalType": "uint256",
          "name": "",
          "type": "uint256"
        }
      ],
      "stateMutability": "pure",
      "type": "function",
      "constant": true
    }
  ],
  "bytecode": "0x608060405234801561001057600080fd5b506141b6806100206000396000f3fe6080604052600436106102195760003560e01c8063780bfe5411610123578063b95f71de116100ab578063e6b9d9871161006f578063e6b9d98714610766578063e985e9c514610779578063ec399b97146107c2578063f242432a1461087f578063f5298aca1461089f57610219565b8063b95f71de14610602578063ca15c873146106d2578063d5391393146106f2578063d547741f14610726578063e43972ac1461074657610219565b806391d14854116100f257806391d148541461056d578063a1c26ec61461058d578063a217fddf146105ad578063a22cb465146105c2578063b8e99cc0146105e257610219565b8063780bfe54146104ea5780637ab4339d146105185780638456cb59146105385780639010d07c1461054d57610219565b80633f4ba83a116101a65780635c975abb116101755780635c975abb1461041a5780635e49b9f81461042f578063666d8493146104675780636b20c454146104875780636f2829ba146104a757610219565b80633f4ba83a1461038a5780634a6ca0151461039f5780634e1273f4146103cd57806355a02c2d146103fa57610219565b8063248a9ca3116101ed578063248a9ca3146102d85780632d41d244146103085780632eb2c2d61461032a5780632f2ff15d1461034a57806336568abe1461036a57610219565b8062fdd58e1461021e57806301ffc9a7146102515780630e89341c146102815780631e40f9f4146102ae575b600080fd5b34801561022a57600080fd5b5061023e6102393660046137d9565b6108bf565b6040519081526020015b60405180910390f35b34801561025d57600080fd5b5061027161026c36600461395a565b61095b565b6040519015158152602001610248565b34801561028d57600080fd5b506102a161029c3660046138ff565b61096e565b6040516102489190613c9e565b6102c16102bc3660046138ff565b610a02565b604080519215158352602083019190915201610248565b3480156102e457600080fd5b5061023e6102f33660046138ff565b60009081526065602052604090206001015490565b34801561031457600080fd5b506103286103233660046139e8565b610e2e565b005b34801561033657600080fd5b50610328610345366004613625565b6110dc565b34801561035657600080fd5b50610328610365366004613917565b611373565b34801561037657600080fd5b50610328610385366004613917565b61139a565b34801561039657600080fd5b506103286113bc565b3480156103ab57600080fd5b5061023e6103ba3660046138ff565b6101c66020526000908152604090205481565b3480156103d957600080fd5b506103ed6103e8366004613834565b611433565b6040516102489190613c5d565b34801561040657600080fd5b506102c16104153660046138ff565b611595565b34801561042657600080fd5b506102716117bb565b34801561043b57600080fd5b5061044f61044a3660046138ff565b6117c6565b6040516001600160a01b039091168152602001610248565b34801561047357600080fd5b5061023e610482366004613939565b611816565b34801561049357600080fd5b506103286104a236600461372e565b61186c565b3480156104b357600080fd5b506104d86104c23660046138ff565b6101c86020526000908152604090205460ff1681565b60405160ff9091168152602001610248565b3480156104f657600080fd5b5061023e6105053660046138ff565b6101c76020526000908152604090205481565b34801561052457600080fd5b50610328610533366004613992565b6118af565b34801561054457600080fd5b50610328611926565b34801561055957600080fd5b5061044f610568366004613939565b611999565b34801561057957600080fd5b50610271610588366004613917565b6119b1565b34801561059957600080fd5b5061023e6105a8366004613939565b6119dc565b3480156105b957600080fd5b5061023e600081565b3480156105ce57600080fd5b506103286105dd36600461379f565b611a88565b3480156105ee57600080fd5b5061044f6105fd3660046138ff565b611b6c565b34801561060e57600080fd5b5061067c61061d3660046138ff565b6101c4602052600090815260409020805460018201546002830154600384015460048501546005860154600687015460078801546008890154600a90990154979896979596949593946001600160a01b0393841694929093169290918a565b604080519a8b5260208b019990995297890196909652606088019490945260808701929092526001600160a01b0390811660a08701521660c085015260e084015261010083015261012082015261014001610248565b3480156106de57600080fd5b5061023e6106ed3660046138ff565b611c17565b3480156106fe57600080fd5b5061023e7f9f2df0fed2c77648de5860a4cc508cd0818c85b8b8a1ab4ceeef8d981c8956a681565b34801561073257600080fd5b50610328610741366004613917565b611c2e565b34801561075257600080fd5b5061023e610761366004613939565b611c38565b6102c16107743660046138ff565b611cdc565b34801561078557600080fd5b506102716107943660046135f3565b6001600160a01b03918216600090815260ca6020908152604080832093909416825291909152205460ff1690565b3480156107ce57600080fd5b506108326107dd3660046138ff565b6101c56020526000908152604090208054600182015460028301546003840154600485015460058601546006870154600788015460089098015496979596949593949293919290916001600160a01b03169089565b60408051998a5260208a0198909852968801959095526060870193909352608086019190915260a085015260c08401526001600160a01b031660e083015261010082015261012001610248565b34801561088b57600080fd5b5061032861089a3660046136cb565b611fa6565b3480156108ab57600080fd5b506103286108ba366004613802565b612117565b60006001600160a01b0383166109305760405162461bcd60e51b815260206004820152602b60248201527f455243313135353a2062616c616e636520717565727920666f7220746865207a60448201526a65726f206164647265737360a81b60648201526084015b60405180910390fd5b50600081815260c9602090815260408083206001600160a01b03861684529091529020545b92915050565b60006109668261215a565b90505b919050565b606060cb805461097d90613fe8565b80601f01602080910402602001604051908101604052809291908181526020018280546109a990613fe8565b80156109f65780601f106109cb576101008083540402835291602001916109f6565b820191906000526020600020905b8154815290600101906020018083116109d957829003601f168201915b50505050509050919050565b60008181526101c460205260408120548190610a305760405162461bcd60e51b815260040161092790613e5c565b60008381526101c46020526040902060080154341015610a7a5760405162461bcd60e51b8152602060048201526005602482015264507269636560d81b6044820152606401610927565b60008381526101c460205260409020600a0154421015610ac65760405162461bcd60e51b815260206004820152600760248201526652656c6561736560c81b6044820152606401610927565b60008381526101c46020526040902060048101546003909101541115610b175760405162461bcd60e51b8152602060048201526006602482015265537570706c7960d01b6044820152606401610927565b60008381526101c46020526040812060070154610b35903490611c38565b60008581526101c460205260408082206006015490519293506001600160a01b03169183156108fc0291849190818181858888f19350505050158015610b7f573d6000803e3d6000fd5b5060008481526101c460205260409020600501546001600160a01b03166108fc610ba98334613f8a565b6040518115909202916000818181858888f19350505050158015610bd1573d6000803e3d6000fd5b5060008481526101c4602052604081206003810154600190910154610bf69190613f3f565b60008181526101c6602090815260408083208990556101c88252808320805460ff191660019081179091558984526101c4909252822060030180549394509092909190610c44908490613f3f565b909155505060008581526101c460209081526040918290206003015482518881523392810192909252818301849052606082015290517f6cdfe1ee3b71ebe30d1ff469b66a065b40e19e61efc4d35b895c87f3b9ce828c9181900360800190a1610cc0338260016040518060200160405280600081525061219a565b610ccc338260016122a4565b60008181526101c6602090815260408083205483526101c490915281206009015415610e1e5760008281526101c6602090815260408083205483526101c49091528120600901805483908110610d3257634e487b7160e01b600052603260045260246000fd5b60009182526020808320909101548083526101c5909152604082206004810154600290910154919350610d6491613f3f565b60008381526101c560205260408120600401805492935090610d8583614050565b9091555050604080518381523360208201529081018290527f1dd69ba1529ee26c893974d206b7b8a51903ee28643880696d4f4809ed621e349060600160405180910390a1610de6338260016040518060200160405280600081525061219a565b60008181526101c860209081526040808320805460ff191660021790556101c7909152902091909155600195509350610e2992505050565b506000809350935050505b915091565b610e587f9f2df0fed2c77648de5860a4cc508cd0818c85b8b8a1ab4ceeef8d981c8956a633610588565b610e935760405162461bcd60e51b815260206004820152600c60248201526b2737ba10309036b4b73a32b960a11b6044820152606401610927565b805182516020808501516040808701516101008801516080808a01518451978852958701949094529185015260608401528201528391907f898b5cef4d51f84a488d60feafcefb52ccb11293d52136b3de2692de569061089060a00160405180910390a160005b8181101561101c576000848281518110610f2457634e487b7160e01b600052603260045260246000fd5b602090810291909101810151805160009081526101c583526040908190208251808255838501516001830155828401516002830181905560608086015160038501819055608080880151600487015560a0808901516005880181905560c08a0151600689015560e08a01516007890180546001600160a01b0319166001600160a01b039092169190911790556101008a01516008909801979097558d5188519687529986019990995295840192909252820152918201529092507f4b58f4edbba4faba896401081cac39c5475ec515c20b3544fb020fe764963f51910160405180910390a1508061101481614050565b915050610efa565b50815160009081526101c4602090815260409182902084518155818501516001820155918401516002830155606084015160038301556080840151600483015560a08401516005830180546001600160a01b039283166001600160a01b03199182161790915560c086015160068501805491909316911617905560e08401516007830155610100840151600883015561012084015180518593926110c7926009850192910190613333565b5061014082015181600a015590505050505050565b81518351146110fd5760405162461bcd60e51b815260040161092790613ec6565b6001600160a01b0384166111235760405162461bcd60e51b815260040161092790613d86565b6001600160a01b03851633148061113f575061113f8533610794565b6111a65760405162461bcd60e51b815260206004820152603260248201527f455243313135353a207472616e736665722063616c6c6572206973206e6f74206044820152711bdddb995c881b9bdc88185c1c1c9bdd995960721b6064820152608401610927565b336111b58187878787876123b1565b60005b84518110156113055760008582815181106111e357634e487b7160e01b600052603260045260246000fd5b60200260200101519050600085838151811061120f57634e487b7160e01b600052603260045260246000fd5b602090810291909101810151600084815260c9835260408082206001600160a01b038e1683529093529190912054909150818110156112605760405162461bcd60e51b815260040161092790613e7c565b61126a8282613f8a565b60c9600085815260200190815260200160002060008c6001600160a01b03166001600160a01b03168152602001908152602001600020819055508160c9600085815260200190815260200160002060008b6001600160a01b03166001600160a01b0316815260200190815260200160002060008282546112ea9190613f3f565b92505081905550505050806112fe90614050565b90506111b8565b50846001600160a01b0316866001600160a01b0316826001600160a01b03167f4a39dc06d4c0dbc64b70af90fd698a233a518aa5d07e595d983b8c0526c8f7fb8787604051611355929190613c70565b60405180910390a461136b8187878787876123bf565b505050505050565b61137d828261252a565b60008281526097602052604090206113959082612551565b505050565b6113a48282612566565b600082815260976020526040902061139590826125e4565b6113c7600033610588565b6114295760405162461bcd60e51b815260206004820152602d60248201527f45524331313535546f6b656e3a206d75737420686176652061646d696e20726f60448201526c6c6520746f20756e706175736560981b6064820152608401610927565b6114316125f9565b565b606081518351146114985760405162461bcd60e51b815260206004820152602960248201527f455243313135353a206163636f756e747320616e6420696473206c656e677468604482015268040dad2e6dac2e8c6d60bb1b6064820152608401610927565b6000835167ffffffffffffffff8111156114c257634e487b7160e01b600052604160045260246000fd5b6040519080825280602002602001820160405280156114eb578160200160208202803683370190505b50905060005b845181101561158d5761155285828151811061151d57634e487b7160e01b600052603260045260246000fd5b602002602001015185838151811061154557634e487b7160e01b600052603260045260246000fd5b60200260200101516108bf565b82828151811061157257634e487b7160e01b600052603260045260246000fd5b602090810291909101015261158681614050565b90506114f1565b509392505050565b60008181526101c6602090815260408083205483526101c490915281205481906115d15760405162461bcd60e51b815260040161092790613e5c565b60008381526101c8602052604090205460ff1660011461161c5760405162461bcd60e51b8152602060048201526006602482015265092e640c4def60d31b6044820152606401610927565b611628338460016122a4565b60005b60008481526101c6602090815260408083205483526101c49091529020600901548110156117af5760008481526101c6602090815260408083205483526101c4909152812060090180548390811061169357634e487b7160e01b600052603260045260246000fd5b906000526020600020015490506116a861268f565b60008281526101c560205260409020600601541061179c5760008181526101c56020526040812060048101546002909101546116e49190613f3f565b60008381526101c56020526040812060040180549293509061170583614050565b9091555050604080518381523360208201529081018790527f1dd69ba1529ee26c893974d206b7b8a51903ee28643880696d4f4809ed621e349060600160405180910390a1611766338260016040518060200160405280600081525061219a565b60008181526101c860209081526040808320805460ff191660021790556101c7909152902091909155600193509150610e299050565b50806117a781614050565b91505061162b565b50600093849350915050565b61012d5460ff165b90565b60008181526101c8602052604081205460ff16600114156117e8575030610969565b5060009081526101c7602090815260408083205483526101c59091529020600701546001600160a01b031690565b60008281526101c8602052604081205460ff166001141561183957506000610955565b60008381526101c7602090815260408083205483526101c5909152902060080154611865908390611c38565b9392505050565b6001600160a01b03831633148061188857506118888333610794565b6118a45760405162461bcd60e51b815260040161092790613d3d565b611395838383612705565b600054610100900460ff16806118c8575060005460ff16155b6118e45760405162461bcd60e51b815260040161092790613dcb565b600054610100900460ff16158015611906576000805461ffff19166101011790555b61191083836128bf565b8015611395576000805461ff0019169055505050565b611931600033610588565b6119915760405162461bcd60e51b815260206004820152602b60248201527f45524331313535546f6b656e3a206d75737420686176652061646d696e20726f60448201526a6c6520746f20706175736560a81b6064820152608401610927565b611431612960565b600082815260976020526040812061186590836129de565b60009182526065602090815260408084206001600160a01b0393909316845291905290205460ff1690565b60008281526101c8602052604081205460ff1660011415611a2a5760008381526101c6602090815260408083205483526101c4909152902060070154611a23908390611c38565b9050610955565b60008381526101c8602052604090205460ff1660021415611a7f5760008381526101c7602090815260408083205483526101c582528083206001015483526101c4909152902060070154611a23908390611c38565b50600092915050565b336001600160a01b0383161415611af35760405162461bcd60e51b815260206004820152602960248201527f455243313135353a2073657474696e6720617070726f76616c20737461747573604482015268103337b91039b2b63360b91b6064820152608401610927565b33600081815260ca602090815260408083206001600160a01b0387168085529252909120805460ff1916841515179055906001600160a01b03167f17307eab39ab6107e8899845ad3d59bd9653f200f220920489ca2b5937696c3183604051611b60911515815260200190565b60405180910390a35050565b60008181526101c8602052604081205460ff1660011415611bb7575060008181526101c6602090815260408083205483526101c49091529020600601546001600160a01b0316610969565b60008281526101c8602052604090205460ff1660021415611c10575060008181526101c7602090815260408083205483526101c582528083206001015483526101c49091529020600601546001600160a01b0316610969565b5030919050565b6000818152609760205260408120610966906129ea565b6113a482826129f4565b600061271081611c488286613f57565b90506000611c56838761406b565b90506000611c648487613f57565b90506000611c72858861406b565b905084611c7f8285613f6b565b611c899190613f57565b611c938385613f6b565b611c9d8387613f6b565b87611ca88789613f6b565b611cb29190613f6b565b611cbc9190613f3f565b611cc69190613f3f565b611cd09190613f3f565b98975050505050505050565b60008181526101c460205260408120548190611d0a5760405162461bcd60e51b815260040161092790613e5c565b60008381526101c46020526040902060080154341015611d545760405162461bcd60e51b8152602060048201526005602482015264507269636560d81b6044820152606401610927565b60008381526101c460205260409020600a0154421015611da05760405162461bcd60e51b815260206004820152600760248201526652656c6561736560c81b6044820152606401610927565b60008381526101c46020526040902060048101546003909101541115611df15760405162461bcd60e51b8152602060048201526006602482015265537570706c7960d01b6044820152606401610927565b60008381526101c46020526040812060070154611e0f903490611c38565b60008581526101c460205260408082206006015490519293506001600160a01b03169183156108fc0291849190818181858888f19350505050158015611e59573d6000803e3d6000fd5b5060008481526101c460205260409020600501546001600160a01b03166108fc611e838334613f8a565b6040518115909202916000818181858888f19350505050158015611eab573d6000803e3d6000fd5b5060008481526101c4602052604081206003810154600190910154611ed09190613f3f565b60008181526101c6602090815260408083208990556101c88252808320805460ff191660019081179091558984526101c4909252822060030180549394509092909190611f1e908490613f3f565b909155505060008581526101c460209081526040918290206003015482518881523392810192909252818301849052606082015290517f6cdfe1ee3b71ebe30d1ff469b66a065b40e19e61efc4d35b895c87f3b9ce828c9181900360800190a1611f9a338260016040518060200160405280600081525061219a565b60019350915050915091565b6001600160a01b038416611fcc5760405162461bcd60e51b815260040161092790613d86565b6001600160a01b038516331480611fe85750611fe88533610794565b6120045760405162461bcd60e51b815260040161092790613d3d565b3361202381878761201488612a1a565b61201d88612a1a565b876123b1565b600084815260c9602090815260408083206001600160a01b038a168452909152902054838110156120665760405162461bcd60e51b815260040161092790613e7c565b6120708482613f8a565b600086815260c9602090815260408083206001600160a01b038c811685529252808320939093558816815290812080548692906120ae908490613f3f565b909155505060408051868152602081018690526001600160a01b03808916928a821692918616917fc3d58168c5ae7397731d063d5bbf3d657854427343f4c083240f7aacaa2d0f62910160405180910390a461210e828888888888612a73565b50505050505050565b6001600160a01b03831633148061213357506121338333610794565b61214f5760405162461bcd60e51b815260040161092790613d3d565b6113958383836122a4565b60006001600160e01b03198216636cdb3d1360e11b148061218b57506001600160e01b031982166303a24d0760e21b145b80610966575061096682612b3d565b6001600160a01b0384166121fa5760405162461bcd60e51b815260206004820152602160248201527f455243313135353a206d696e7420746f20746865207a65726f206164647265736044820152607360f81b6064820152608401610927565b3361220b8160008761201488612a1a565b600084815260c9602090815260408083206001600160a01b03891684529091528120805485929061223d908490613f3f565b909155505060408051858152602081018590526001600160a01b0380881692600092918516917fc3d58168c5ae7397731d063d5bbf3d657854427343f4c083240f7aacaa2d0f62910160405180910390a461229d81600087878787612a73565b5050505050565b6001600160a01b0383166122ca5760405162461bcd60e51b815260040161092790613e19565b336122f9818560006122db87612a1a565b6122e487612a1a565b604051806020016040528060008152506123b1565b600083815260c9602090815260408083206001600160a01b03881684529091529020548281101561233c5760405162461bcd60e51b815260040161092790613cf9565b6123468382613f8a565b600085815260c9602090815260408083206001600160a01b038a811680865291845282852095909555815189815292830188905292938616917fc3d58168c5ae7397731d063d5bbf3d657854427343f4c083240f7aacaa2d0f62910160405180910390a45050505050565b61136b868686868686612b62565b6001600160a01b0384163b1561136b5760405163bc197c8160e01b81526001600160a01b0385169063bc197c81906124039089908990889088908890600401613bc6565b602060405180830381600087803b15801561241d57600080fd5b505af192505050801561244d575060408051601f3d908101601f1916820190925261244a91810190613976565b60015b6124fa576124596140c1565b806308c379a01415612493575061246e6140d8565b806124795750612495565b8060405162461bcd60e51b81526004016109279190613c9e565b505b60405162461bcd60e51b815260206004820152603460248201527f455243313135353a207472616e7366657220746f206e6f6e20455243313135356044820152732932b1b2b4bb32b91034b6b83632b6b2b73a32b960611b6064820152608401610927565b6001600160e01b0319811663bc197c8160e01b1461210e5760405162461bcd60e51b815260040161092790613cb1565b60008281526065602052604090206001015461254781335b612bcc565b6113958383612c30565b6000611865836001600160a01b038416612cb6565b6001600160a01b03811633146125d65760405162461bcd60e51b815260206004820152602f60248201527f416363657373436f6e74726f6c3a2063616e206f6e6c792072656e6f756e636560448201526e103937b632b9903337b91039b2b63360891b6064820152608401610927565b6125e08282612d05565b5050565b6000611865836001600160a01b038416612d6c565b6126016117bb565b6126445760405162461bcd60e51b815260206004820152601460248201527314185d5cd8589b194e881b9bdd081c185d5cd95960621b6044820152606401610927565b61012d805460ff191690557f5db9ee0a495bf2e6ff9c91a7834c1ba4fdd244a5e8aa4e537bd38aeae4b073aa335b6040516001600160a01b03909116815260200160405180910390a1565b6101c38054600091826126a183614050565b90915550506101c354604080514260208201526bffffffffffffffffffffffff193360601b16918101919091526054810191909152612710906074016040516020818303038152906040528051906020012060001c612700919061406b565b905090565b6001600160a01b03831661272b5760405162461bcd60e51b815260040161092790613e19565b805182511461274c5760405162461bcd60e51b815260040161092790613ec6565b600033905061276f818560008686604051806020016040528060008152506123b1565b60005b835181101561286057600084828151811061279d57634e487b7160e01b600052603260045260246000fd5b6020026020010151905060008483815181106127c957634e487b7160e01b600052603260045260246000fd5b602090810291909101810151600084815260c9835260408082206001600160a01b038c16835290935291909120549091508181101561281a5760405162461bcd60e51b815260040161092790613cf9565b6128248282613f8a565b600093845260c9602090815260408086206001600160a01b038c168752909152909320929092555081905061285881614050565b915050612772565b5060006001600160a01b0316846001600160a01b0316826001600160a01b03167f4a39dc06d4c0dbc64b70af90fd698a233a518aa5d07e595d983b8c0526c8f7fb86866040516128b1929190613c70565b60405180910390a450505050565b600054610100900460ff16806128d8575060005460ff16155b6128f45760405162461bcd60e51b815260040161092790613dcb565b600054610100900460ff16158015612916576000805461ffff19166101011790555b61291e612e83565b612926612e83565b61292e612e83565b612936612e83565b61293f83612eef565b612947612e83565b61294f612f64565b612957612e83565b61191082612fda565b6129686117bb565b156129a85760405162461bcd60e51b815260206004820152601060248201526f14185d5cd8589b194e881c185d5cd95960821b6044820152606401610927565b61012d805460ff191660011790557f62e78cea01bee320cd4e420270b5ea74000d11b0c9f74754ebdbfc544b05a2586126723390565b60006118658383613066565b6000610966825490565b600082815260656020526040902060010154612a108133612542565b6113958383612d05565b60408051600180825281830190925260609160009190602080830190803683370190505090508281600081518110612a6257634e487b7160e01b600052603260045260246000fd5b602090810291909101015292915050565b6001600160a01b0384163b1561136b5760405163f23a6e6160e01b81526001600160a01b0385169063f23a6e6190612ab79089908990889088908890600401613c18565b602060405180830381600087803b158015612ad157600080fd5b505af1925050508015612b01575060408051601f3d908101601f19168201909252612afe91810190613976565b60015b612b0d576124596140c1565b6001600160e01b0319811663f23a6e6160e01b1461210e5760405162461bcd60e51b815260040161092790613cb1565b60006001600160e01b03198216635a05180f60e01b14806109665750610966826130fa565b612b6a6117bb565b1561136b5760405162461bcd60e51b815260206004820152602c60248201527f455243313135355061757361626c653a20746f6b656e207472616e736665722060448201526b1dda1a5b19481c185d5cd95960a21b6064820152608401610927565b612bd682826119b1565b6125e057612bee816001600160a01b0316601461312f565b612bf983602061312f565b604051602001612c0a929190613b51565b60408051601f198184030181529082905262461bcd60e51b825261092791600401613c9e565b612c3a82826119b1565b6125e05760008281526065602090815260408083206001600160a01b03851684529091529020805460ff19166001179055612c723390565b6001600160a01b0316816001600160a01b0316837f2f8788117e7eff1d82e926ec794901d17c78024a50270940304540a733656f0d60405160405180910390a45050565b6000818152600183016020526040812054612cfd57508154600181810184556000848152602080822090930184905584548482528286019093526040902091909155610955565b506000610955565b612d0f82826119b1565b156125e05760008281526065602090815260408083206001600160a01b0385168085529252808320805460ff1916905551339285917ff6391f5c32d9c69d2a47ea670b442974b53935d1edc7fd64eb21e047a839171b9190a45050565b60008181526001830160205260408120548015612e79576000612d90600183613f8a565b8554909150600090612da490600190613f8a565b90506000866000018281548110612dcb57634e487b7160e01b600052603260045260246000fd5b9060005260206000200154905080876000018481548110612dfc57634e487b7160e01b600052603260045260246000fd5b600091825260208083209091019290925582815260018901909152604090208490558654879080612e3d57634e487b7160e01b600052603160045260246000fd5b60019003818190600052602060002001600090559055866001016000878152602001908152602001600020600090556001945050505050610955565b6000915050610955565b600054610100900460ff1680612e9c575060005460ff16155b612eb85760405162461bcd60e51b815260040161092790613dcb565b600054610100900460ff16158015612eda576000805461ffff19166101011790555b8015612eec576000805461ff00191690555b50565b600054610100900460ff1680612f08575060005460ff16155b612f245760405162461bcd60e51b815260040161092790613dcb565b600054610100900460ff16158015612f46576000805461ffff19166101011790555b612f4f82613311565b80156125e0576000805461ff00191690555050565b600054610100900460ff1680612f7d575060005460ff16155b612f995760405162461bcd60e51b815260040161092790613dcb565b600054610100900460ff16158015612fbb576000805461ffff19166101011790555b61012d805460ff191690558015612eec576000805461ff001916905550565b600054610100900460ff1680612ff3575060005460ff16155b61300f5760405162461bcd60e51b815260040161092790613dcb565b600054610100900460ff16158015613031576000805461ffff19166101011790555b61303c600033613324565b612f4f7f9f2df0fed2c77648de5860a4cc508cd0818c85b8b8a1ab4ceeef8d981c8956a683613324565b815460009082106130c45760405162461bcd60e51b815260206004820152602260248201527f456e756d657261626c655365743a20696e646578206f7574206f6620626f756e604482015261647360f01b6064820152608401610927565b8260000182815481106130e757634e487b7160e01b600052603260045260246000fd5b9060005260206000200154905092915050565b60006001600160e01b03198216637965db0b60e01b148061096657506301ffc9a760e01b6001600160e01b0319831614610966565b6060600061313e836002613f6b565b613149906002613f3f565b67ffffffffffffffff81111561316f57634e487b7160e01b600052604160045260246000fd5b6040519080825280601f01601f191660200182016040528015613199576020820181803683370190505b509050600360fc1b816000815181106131c257634e487b7160e01b600052603260045260246000fd5b60200101906001600160f81b031916908160001a905350600f60fb1b816001815181106131ff57634e487b7160e01b600052603260045260246000fd5b60200101906001600160f81b031916908160001a9053506000613223846002613f6b565b61322e906001613f3f565b90505b60018111156132c2576f181899199a1a9b1b9c1cb0b131b232b360811b85600f166010811061327057634e487b7160e01b600052603260045260246000fd5b1a60f81b82828151811061329457634e487b7160e01b600052603260045260246000fd5b60200101906001600160f81b031916908160001a90535060049490941c936132bb81613fd1565b9050613231565b5083156118655760405162461bcd60e51b815260206004820181905260248201527f537472696e67733a20686578206c656e67746820696e73756666696369656e746044820152606401610927565b80516125e09060cb90602084019061337e565b61137d82826125e08282612c30565b82805482825590600052602060002090810192821561336e579160200282015b8281111561336e578251825591602001919060010190613353565b5061337a9291506133f1565b5090565b82805461338a90613fe8565b90600052602060002090601f0160209004810192826133ac576000855561336e565b82601f106133c557805160ff191683800117855561336e565b8280016001018555821561336e579182018281111561336e578251825591602001919060010190613353565b5b8082111561337a57600081556001016133f2565b600067ffffffffffffffff831115613420576134206140ab565b604051613437601f8501601f191660200182614023565b80915083815284848401111561344c57600080fd5b83836020830137600060208583010152509392505050565b80356001600160a01b038116811461096957600080fd5b600082601f83011261348b578081fd5b8135602061349882613f1b565b604080516134a68382614023565b8481528381019250868401610120808702890186018a10156134c6578788fd5b875b878110156135515781838c0312156134de578889fd5b6134e782613f0e565b8335815287840135888201528584013586820152606080850135908201526080808501359082015260a0808501359082015260c0808501359082015260e0613530818601613464565b908201526101008481013590820152865294860194918101916001016134c8565b50919998505050505050505050565b600082601f830112613570578081fd5b8135602061357d82613f1b565b60405161358a8282614023565b8381528281019150858301600585901b870184018810156135a9578586fd5b855b858110156135c7578135845292840192908401906001016135ab565b5090979650505050505050565b600082601f8301126135e4578081fd5b61186583833560208501613406565b60008060408385031215613605578182fd5b61360e83613464565b915061361c60208401613464565b90509250929050565b600080600080600060a0868803121561363c578081fd5b61364586613464565b945061365360208701613464565b9350604086013567ffffffffffffffff8082111561366f578283fd5b61367b89838a01613560565b94506060880135915080821115613690578283fd5b61369c89838a01613560565b935060808801359150808211156136b1578283fd5b506136be888289016135d4565b9150509295509295909350565b600080600080600060a086880312156136e2578283fd5b6136eb86613464565b94506136f960208701613464565b93506040860135925060608601359150608086013567ffffffffffffffff811115613722578182fd5b6136be888289016135d4565b600080600060608486031215613742578081fd5b61374b84613464565b9250602084013567ffffffffffffffff80821115613767578283fd5b61377387838801613560565b93506040860135915080821115613788578283fd5b5061379586828701613560565b9150509250925092565b600080604083850312156137b1578182fd5b6137ba83613464565b9150602083013580151581146137ce578182fd5b809150509250929050565b600080604083850312156137eb578182fd5b6137f483613464565b946020939093013593505050565b600080600060608486031215613816578081fd5b61381f84613464565b95602085013595506040909401359392505050565b60008060408385031215613846578182fd5b823567ffffffffffffffff8082111561385d578384fd5b818501915085601f830112613870578384fd5b8135602061387d82613f1b565b60405161388a8282614023565b8381528281019150858301600585901b870184018b10156138a9578889fd5b8896505b848710156138d2576138be81613464565b8352600196909601959183019183016138ad565b50965050860135925050808211156138e8578283fd5b506138f585828601613560565b9150509250929050565b600060208284031215613910578081fd5b5035919050565b60008060408385031215613929578182fd5b8235915061361c60208401613464565b6000806040838503121561394b578182fd5b50508035926020909101359150565b60006020828403121561396b578081fd5b81356118658161416a565b600060208284031215613987578081fd5b81516118658161416a565b600080604083850312156139a4578182fd5b823567ffffffffffffffff8111156139ba578283fd5b8301601f810185136139ca578283fd5b6139d985823560208401613406565b92505061361c60208401613464565b600080604083850312156139fa578182fd5b823567ffffffffffffffff80821115613a11578384fd5b8185019150610160808388031215613a27578485fd5b613a3081613f0e565b90508235815260208301356020820152604083013560408201526060830135606082015260808301356080820152613a6a60a08401613464565b60a0820152613a7b60c08401613464565b60c082015260e083013560e08201526101008084013581830152506101208084013583811115613aa9578687fd5b613ab589828701613560565b828401525050610140808401358183015250809450506020850135915080821115613ade578283fd5b506138f58582860161347b565b6000815180845260208085019450808401835b83811015613b1a57815187529582019590820190600101613afe565b509495945050505050565b60008151808452613b3d816020860160208601613fa1565b601f01601f19169290920160200192915050565b60007f416363657373436f6e74726f6c3a206163636f756e742000000000000000000082528351613b89816017850160208801613fa1565b7001034b99036b4b9b9b4b733903937b6329607d1b6017918401918201528351613bba816028840160208801613fa1565b01602801949350505050565b6001600160a01b0386811682528516602082015260a060408201819052600090613bf290830186613aeb565b8281036060840152613c048186613aeb565b90508281036080840152611cd08185613b25565b6001600160a01b03868116825285166020820152604081018490526060810183905260a060808201819052600090613c5290830184613b25565b979650505050505050565b6000602082526118656020830184613aeb565b600060408252613c836040830185613aeb565b8281036020840152613c958185613aeb565b95945050505050565b6000602082526118656020830184613b25565b60208082526028908201527f455243313135353a204552433131353552656365697665722072656a656374656040820152676420746f6b656e7360c01b606082015260800190565b60208082526024908201527f455243313135353a206275726e20616d6f756e7420657863656564732062616c604082015263616e636560e01b606082015260800190565b60208082526029908201527f455243313135353a2063616c6c6572206973206e6f74206f776e6572206e6f7260408201526808185c1c1c9bdd995960ba1b606082015260800190565b60208082526025908201527f455243313135353a207472616e7366657220746f20746865207a65726f206164604082015264647265737360d81b606082015260800190565b6020808252602e908201527f496e697469616c697a61626c653a20636f6e747261637420697320616c72656160408201526d191e481a5b9a5d1a585b1a5e995960921b606082015260800190565b60208082526023908201527f455243313135353a206275726e2066726f6d20746865207a65726f206164647260408201526265737360e81b606082015260800190565b60208082526006908201526545786973747360d01b604082015260600190565b6020808252602a908201527f455243313135353a20696e73756666696369656e742062616c616e636520666f60408201526939103a3930b739b332b960b11b606082015260800190565b60208082526028908201527f455243313135353a2069647320616e6420616d6f756e7473206c656e677468206040820152670dad2e6dac2e8c6d60c31b606082015260800190565b6040516109698282614023565b600067ffffffffffffffff821115613f3557613f356140ab565b5060051b60200190565b60008219821115613f5257613f5261407f565b500190565b600082613f6657613f66614095565b500490565b6000816000190483118215151615613f8557613f8561407f565b500290565b600082821015613f9c57613f9c61407f565b500390565b60005b83811015613fbc578181015183820152602001613fa4565b83811115613fcb576000848401525b50505050565b600081613fe057613fe061407f565b506000190190565b600181811c90821680613ffc57607f821691505b6020821081141561401d57634e487b7160e01b600052602260045260246000fd5b50919050565b601f8201601f1916810167ffffffffffffffff81118282101715614049576140496140ab565b6040525050565b60006000198214156140645761406461407f565b5060010190565b60008261407a5761407a614095565b500690565b634e487b7160e01b600052601160045260246000fd5b634e487b7160e01b600052601260045260246000fd5b634e487b7160e01b600052604160045260246000fd5b600060033d11156117c357600481823e5160e01c90565b600060443d10156140e8576117c3565b6040516003193d81016004833e81513d67ffffffffffffffff816024840111818411171561411a5750505050506117c3565b8285019150815181811115614134575050505050506117c3565b843d8701016020828501011115614150575050505050506117c3565b61415f60208286010187614023565b509094505050505090565b6001600160e01b031981168114612eec57600080fdfea264697066735822122008455c659d34312d52cee239c7559ca7c007e87932f867342fb685584c85854864736f6c63430008030033",
  "immutableReferences": {},
  "source": "// SPDX-License-Identifier: MIT\npragma solidity ^0.8.3;\n\nimport \"../node_modules/@openzeppelin/contracts-upgradeable/proxy/utils/Initializable.sol\";\nimport \"./ERC1155Token.sol\";\n\nstruct LootBox {\n  uint256 index;\n  uint256 fromId;\n  uint256 toId;\n  uint256 count;\n  uint256 supply;\n  address seller;\n  address creator;\n  uint256 creatorRoyalty;\n  uint256 price;\n  uint256[] lootBoxItemsIndex;\n  uint256 release;\n}\n\nstruct LootBoxItem {\n  uint256 index;\n  uint256 lootBoxIndex;\n  uint256 fromId;\n  uint256 toId;\n  uint256 count;\n  uint256 supply;\n  uint256 dropRate;\n  address artist;\n  uint256 artistRoyalty;\n}\n\ncontract Topx is Initializable, ERC1155Token {\n\n  uint256 private randomNounce;\n\n  mapping(uint256 => LootBox) public lootBoxes;\n  mapping(uint256 => LootBoxItem) public lootBoxItems;\n  mapping(uint256 => uint256) public tokenIdToLootBoxIndex;\n  mapping(uint256 => uint256) public tokenIdToLootBoxItemsIndex;\n  mapping(uint256 => uint8) public tokenIdType;\n\n  function initialize(string memory _uri, address _minter) public initializer {\n    __ERC1155Token_init(_uri, _minter);\n  }\n\n  event addLootBox(uint256 _packid, uint256 _from, uint256 _to, uint256 _price, uint256 _supply);\n  event addLootBoxItem(uint256 _itemid, uint256 _packid, uint256 _from, uint256 _to, uint256 _supply);\n\n  function addLootBoxes(LootBox memory _lootBox, LootBoxItem[] memory _lootBoxItems) public {\n    require(hasRole(MINTER_ROLE, _msgSender()), \"Not a minter\");\n    LootBox memory lootBox = _lootBox;\n    uint256 lootBoxItemsCount = _lootBoxItems.length;\n    emit addLootBox(lootBox.index, lootBox.fromId, lootBox.toId, lootBox.price, lootBox.supply);\n    for (uint256 i=0; i<lootBoxItemsCount; i++) {\n      LootBoxItem memory lootBoxItem = _lootBoxItems[i];\n      lootBoxItems[lootBoxItem.index] = lootBoxItem;\n      emit addLootBoxItem(lootBoxItem.index, lootBox.index, lootBoxItem.fromId, lootBoxItem.toId, lootBoxItem.supply);\n    }\n    lootBoxes[lootBox.index] = lootBox;\n  }\n\n  event mintLootBox(uint256 _id, address _account, uint256 _tokenId, uint256 _count);\n\n  function buyLootBox(uint256 lootBoxIndex) public payable returns (bool, uint256) {\n    require(lootBoxes[lootBoxIndex].index > 0, \"Exists\");\n    require(msg.value >= lootBoxes[lootBoxIndex].price, \"Price\");\n    require(block.timestamp >= lootBoxes[lootBoxIndex].release, \"Release\");\n    require(lootBoxes[lootBoxIndex].count <= lootBoxes[lootBoxIndex].supply, \"Supply\");\n    uint256 toCreatorRoyalty = mulDiv(msg.value, lootBoxes[lootBoxIndex].creatorRoyalty);\n    payable(lootBoxes[lootBoxIndex].creator).transfer(toCreatorRoyalty);\n    payable(lootBoxes[lootBoxIndex].seller).transfer(msg.value - toCreatorRoyalty);\n    uint256 tokenId = lootBoxes[lootBoxIndex].fromId + lootBoxes[lootBoxIndex].count;\n    tokenIdToLootBoxIndex[tokenId] = lootBoxIndex;\n    tokenIdType[tokenId] = 1;\n    lootBoxes[lootBoxIndex].count += 1;\n    emit mintLootBox(lootBoxIndex, msg.sender, tokenId, lootBoxes[lootBoxIndex].count);\n    _mint(msg.sender, tokenId, 1, \"\");\n    return (true, tokenId);\n  }\n\n  event mintItem(uint256 _id, address _account, uint256 _tokenId);\n\n  function openLootBox(uint256 tokenId) public returns (bool, uint256) {\n    require(lootBoxes[tokenIdToLootBoxIndex[tokenId]].index > 0, \"Exists\");\n    require(tokenIdType[tokenId] == 1, \"Is box\");\n    _burn(msg.sender, tokenId, 1);\n    for (uint256 i=0; i<lootBoxes[tokenIdToLootBoxIndex[tokenId]].lootBoxItemsIndex.length; i++) {\n      uint256 currentItem = lootBoxes[tokenIdToLootBoxIndex[tokenId]].lootBoxItemsIndex[i];\n      if (lootBoxItems[currentItem].dropRate >= random()) {\n        uint256 mintedTokenId = lootBoxItems[currentItem].fromId + lootBoxItems[currentItem].count;\n        lootBoxItems[currentItem].count++;\n        emit mintItem(currentItem, msg.sender, tokenId);\n        _mint(msg.sender, mintedTokenId, 1, \"\");\n        tokenIdType[mintedTokenId] = 2;\n        tokenIdToLootBoxItemsIndex[mintedTokenId] = currentItem;\n        return (true, mintedTokenId);\n      }\n    }\n    return (false, 0);\n  }\n\n  function mintLootBoxAndOpen(uint256 lootBoxIndex) public payable returns (bool, uint256) {\n    // buy lootbox\n    require(lootBoxes[lootBoxIndex].index > 0, \"Exists\");\n    require(msg.value >= lootBoxes[lootBoxIndex].price, \"Price\");\n    require(block.timestamp >= lootBoxes[lootBoxIndex].release, \"Release\");\n    require(lootBoxes[lootBoxIndex].count <= lootBoxes[lootBoxIndex].supply, \"Supply\");\n    uint256 toCreatorRoyalty = mulDiv(msg.value, lootBoxes[lootBoxIndex].creatorRoyalty);\n    payable(lootBoxes[lootBoxIndex].creator).transfer(toCreatorRoyalty);\n    payable(lootBoxes[lootBoxIndex].seller).transfer(msg.value - toCreatorRoyalty);\n    uint256 tokenId = lootBoxes[lootBoxIndex].fromId + lootBoxes[lootBoxIndex].count;\n    tokenIdToLootBoxIndex[tokenId] = lootBoxIndex;\n    tokenIdType[tokenId] = 1;\n    lootBoxes[lootBoxIndex].count += 1;\n    emit mintLootBox(lootBoxIndex, msg.sender, tokenId, lootBoxes[lootBoxIndex].count);\n    _mint(msg.sender, tokenId, 1, \"\");\n    // open box\n    _burn(msg.sender, tokenId, 1);\n    for (uint256 i=0; i<lootBoxes[tokenIdToLootBoxIndex[tokenId]].lootBoxItemsIndex.length; i++) {\n      uint256 currentItem = lootBoxes[tokenIdToLootBoxIndex[tokenId]].lootBoxItemsIndex[i];\n      // if (lootBoxItems[currentItem].dropRate >= random()) {\n        uint256 mintedTokenId = lootBoxItems[currentItem].fromId + lootBoxItems[currentItem].count;\n        lootBoxItems[currentItem].count++;\n        emit mintItem(currentItem, msg.sender, mintedTokenId);\n        _mint(msg.sender, mintedTokenId, 1, \"\");\n        tokenIdType[mintedTokenId] = 2;\n        tokenIdToLootBoxItemsIndex[mintedTokenId] = currentItem;\n        return (true, mintedTokenId);\n      // }\n    }\n    return (false, 0);\n  }\n\n  function getCreatorRoyaltyFromAmountForTokenId(uint256 tokenId, uint256 amount) public view returns (uint256) {\n    if (tokenIdType[tokenId] == 1) {\n      return mulDiv(amount, lootBoxes[tokenIdToLootBoxIndex[tokenId]].creatorRoyalty);\n    }\n    if (tokenIdType[tokenId] == 2) {\n      return mulDiv(amount, lootBoxes[lootBoxItems[tokenIdToLootBoxItemsIndex[tokenId]].lootBoxIndex].creatorRoyalty);\n    }\n    return 0;\n  }\n\n  function getCreatorAddressForTokenId(uint256 tokenId) public view returns (address) {\n    if (tokenIdType[tokenId] == 1) {\n      return lootBoxes[tokenIdToLootBoxIndex[tokenId]].creator;\n    }\n    if (tokenIdType[tokenId] == 2) {\n      return lootBoxes[lootBoxItems[tokenIdToLootBoxItemsIndex[tokenId]].lootBoxIndex].creator;\n    }\n    return address(this);\n  }\n\n  function getArtistRoyaltyFromAmountForTokenId(uint256 tokenId, uint256 amount) public view returns (uint256) {\n    if (tokenIdType[tokenId] == 1) {\n      return 0;\n    }\n    return mulDiv(amount, lootBoxItems[tokenIdToLootBoxItemsIndex[tokenId]].artistRoyalty);\n  }\n\n  function getArtistForTokenId(uint256 tokenId) public view returns (address) {\n    if (tokenIdType[tokenId] == 1) {\n      return address(this);\n    }\n    return lootBoxItems[tokenIdToLootBoxItemsIndex[tokenId]].artist;\n  }\n\n  function mulDiv(uint256 x, uint256 y) public pure returns (uint256) {\n    uint256 z = 10000;\n    uint256 a = x / z;\n    uint256 b = x % z;\n    uint256 c = y / z;\n    uint256 d = y % z;\n    return a * b * z + a * d + b * c + b * d / z;\n  }\n\n  function random() private returns (uint256) {\n    randomNounce++;\n    return uint256(keccak256(abi.encodePacked(block.timestamp, msg.sender, randomNounce))) % 10000;\n  }\n}",
  "sourcePath": "/Users/jernejpregelj/dev/Trill/smartcontracts/contracts/Topx.sol",
  "compiler": {
    "name": "solc",
    "version": "0.8.3+commit.8d00100c.Emscripten.clang"
  },
  "schemaVersion": "3.3.3",
  "updatedAt": "2021-05-22T14:37:07.810Z",
  "networkType": "ethereum",
  "devdoc": {
    "kind": "dev",
    "methods": {
      "balanceOf(address,uint256)": {
        "details": "See {IERC1155-balanceOf}. Requirements: - `account` cannot be the zero address."
      },
      "balanceOfBatch(address[],uint256[])": {
        "details": "See {IERC1155-balanceOfBatch}. Requirements: - `accounts` and `ids` must have the same length."
      },
      "getRoleAdmin(bytes32)": {
        "details": "Returns the admin role that controls `role`. See {grantRole} and {revokeRole}. To change a role's admin, use {_setRoleAdmin}."
      },
      "getRoleMember(bytes32,uint256)": {
        "details": "Returns one of the accounts that have `role`. `index` must be a value between 0 and {getRoleMemberCount}, non-inclusive. Role bearers are not sorted in any particular way, and their ordering may change at any point. WARNING: When using {getRoleMember} and {getRoleMemberCount}, make sure you perform all queries on the same block. See the following https://forum.openzeppelin.com/t/iterating-over-elements-on-enumerableset-in-openzeppelin-contracts/2296[forum post] for more information."
      },
      "getRoleMemberCount(bytes32)": {
        "details": "Returns the number of accounts that have `role`. Can be used together with {getRoleMember} to enumerate all bearers of a role."
      },
      "grantRole(bytes32,address)": {
        "details": "Overload {grantRole} to track enumerable memberships"
      },
      "hasRole(bytes32,address)": {
        "details": "Returns `true` if `account` has been granted `role`."
      },
      "isApprovedForAll(address,address)": {
        "details": "See {IERC1155-isApprovedForAll}."
      },
      "paused()": {
        "details": "Returns true if the contract is paused, and false otherwise."
      },
      "renounceRole(bytes32,address)": {
        "details": "Overload {renounceRole} to track enumerable memberships"
      },
      "revokeRole(bytes32,address)": {
        "details": "Overload {revokeRole} to track enumerable memberships"
      },
      "safeBatchTransferFrom(address,address,uint256[],uint256[],bytes)": {
        "details": "See {IERC1155-safeBatchTransferFrom}."
      },
      "safeTransferFrom(address,address,uint256,uint256,bytes)": {
        "details": "See {IERC1155-safeTransferFrom}."
      },
      "setApprovalForAll(address,bool)": {
        "details": "See {IERC1155-setApprovalForAll}."
      },
      "uri(uint256)": {
        "details": "See {IERC1155MetadataURI-uri}. This implementation returns the same URI for *all* token types. It relies on the token type ID substitution mechanism https://eips.ethereum.org/EIPS/eip-1155#metadata[defined in the EIP]. Clients calling this function must replace the `\\{id\\}` substring with the actual token type ID."
      }
    },
    "version": 1
  },
  "userdoc": {
    "kind": "user",
    "methods": {},
    "version": 1
  }
}