{
  "contractName": "Topx",
  "abi": [
    {
      "anonymous": false,
      "inputs": [
        {
          "indexed": true,
          "internalType": "address",
          "name": "account",
          "type": "address"
        },
        {
          "indexed": true,
          "internalType": "address",
          "name": "operator",
          "type": "address"
        },
        {
          "indexed": false,
          "internalType": "bool",
          "name": "approved",
          "type": "bool"
        }
      ],
      "name": "ApprovalForAll",
      "type": "event"
    },
    {
      "anonymous": false,
      "inputs": [
        {
          "indexed": false,
          "internalType": "uint8",
          "name": "_type",
          "type": "uint8"
        },
        {
          "indexed": false,
          "internalType": "uint8",
          "name": "_action",
          "type": "uint8"
        },
        {
          "indexed": false,
          "internalType": "uint256",
          "name": "_tokenId",
          "type": "uint256"
        },
        {
          "indexed": false,
          "internalType": "uint256",
          "name": "_amount",
          "type": "uint256"
        },
        {
          "indexed": false,
          "internalType": "address",
          "name": "_account",
          "type": "address"
        }
      ],
      "name": "EthTransfer",
      "type": "event"
    },
    {
      "anonymous": false,
      "inputs": [
        {
          "indexed": false,
          "internalType": "address",
          "name": "account",
          "type": "address"
        }
      ],
      "name": "Paused",
      "type": "event"
    },
    {
      "anonymous": false,
      "inputs": [
        {
          "indexed": true,
          "internalType": "bytes32",
          "name": "role",
          "type": "bytes32"
        },
        {
          "indexed": true,
          "internalType": "bytes32",
          "name": "previousAdminRole",
          "type": "bytes32"
        },
        {
          "indexed": true,
          "internalType": "bytes32",
          "name": "newAdminRole",
          "type": "bytes32"
        }
      ],
      "name": "RoleAdminChanged",
      "type": "event"
    },
    {
      "anonymous": false,
      "inputs": [
        {
          "indexed": true,
          "internalType": "bytes32",
          "name": "role",
          "type": "bytes32"
        },
        {
          "indexed": true,
          "internalType": "address",
          "name": "account",
          "type": "address"
        },
        {
          "indexed": true,
          "internalType": "address",
          "name": "sender",
          "type": "address"
        }
      ],
      "name": "RoleGranted",
      "type": "event"
    },
    {
      "anonymous": false,
      "inputs": [
        {
          "indexed": true,
          "internalType": "bytes32",
          "name": "role",
          "type": "bytes32"
        },
        {
          "indexed": true,
          "internalType": "address",
          "name": "account",
          "type": "address"
        },
        {
          "indexed": true,
          "internalType": "address",
          "name": "sender",
          "type": "address"
        }
      ],
      "name": "RoleRevoked",
      "type": "event"
    },
    {
      "anonymous": false,
      "inputs": [
        {
          "indexed": true,
          "internalType": "address",
          "name": "operator",
          "type": "address"
        },
        {
          "indexed": true,
          "internalType": "address",
          "name": "from",
          "type": "address"
        },
        {
          "indexed": true,
          "internalType": "address",
          "name": "to",
          "type": "address"
        },
        {
          "indexed": false,
          "internalType": "uint256[]",
          "name": "ids",
          "type": "uint256[]"
        },
        {
          "indexed": false,
          "internalType": "uint256[]",
          "name": "values",
          "type": "uint256[]"
        }
      ],
      "name": "TransferBatch",
      "type": "event"
    },
    {
      "anonymous": false,
      "inputs": [
        {
          "indexed": true,
          "internalType": "address",
          "name": "operator",
          "type": "address"
        },
        {
          "indexed": true,
          "internalType": "address",
          "name": "from",
          "type": "address"
        },
        {
          "indexed": true,
          "internalType": "address",
          "name": "to",
          "type": "address"
        },
        {
          "indexed": false,
          "internalType": "uint256",
          "name": "id",
          "type": "uint256"
        },
        {
          "indexed": false,
          "internalType": "uint256",
          "name": "value",
          "type": "uint256"
        }
      ],
      "name": "TransferSingle",
      "type": "event"
    },
    {
      "anonymous": false,
      "inputs": [
        {
          "indexed": false,
          "internalType": "string",
          "name": "value",
          "type": "string"
        },
        {
          "indexed": true,
          "internalType": "uint256",
          "name": "id",
          "type": "uint256"
        }
      ],
      "name": "URI",
      "type": "event"
    },
    {
      "anonymous": false,
      "inputs": [
        {
          "indexed": false,
          "internalType": "address",
          "name": "account",
          "type": "address"
        }
      ],
      "name": "Unpaused",
      "type": "event"
    },
    {
      "anonymous": false,
      "inputs": [
        {
          "indexed": false,
          "internalType": "uint256",
          "name": "_packid",
          "type": "uint256"
        },
        {
          "indexed": false,
          "internalType": "uint256",
          "name": "_from",
          "type": "uint256"
        },
        {
          "indexed": false,
          "internalType": "uint256",
          "name": "_to",
          "type": "uint256"
        },
        {
          "indexed": false,
          "internalType": "uint256",
          "name": "_price",
          "type": "uint256"
        },
        {
          "indexed": false,
          "internalType": "uint256",
          "name": "_supply",
          "type": "uint256"
        }
      ],
      "name": "addLootBox",
      "type": "event"
    },
    {
      "anonymous": false,
      "inputs": [
        {
          "indexed": false,
          "internalType": "uint256",
          "name": "_itemid",
          "type": "uint256"
        },
        {
          "indexed": false,
          "internalType": "uint256",
          "name": "_packid",
          "type": "uint256"
        },
        {
          "indexed": false,
          "internalType": "uint256",
          "name": "_from",
          "type": "uint256"
        },
        {
          "indexed": false,
          "internalType": "uint256",
          "name": "_to",
          "type": "uint256"
        },
        {
          "indexed": false,
          "internalType": "uint256",
          "name": "_supply",
          "type": "uint256"
        }
      ],
      "name": "addLootBoxItem",
      "type": "event"
    },
    {
      "anonymous": false,
      "inputs": [
        {
          "indexed": false,
          "internalType": "uint256",
          "name": "_id",
          "type": "uint256"
        },
        {
          "indexed": false,
          "internalType": "address",
          "name": "_account",
          "type": "address"
        },
        {
          "indexed": false,
          "internalType": "uint256",
          "name": "_tokenId",
          "type": "uint256"
        }
      ],
      "name": "mintItem",
      "type": "event"
    },
    {
      "anonymous": false,
      "inputs": [
        {
          "indexed": false,
          "internalType": "uint256",
          "name": "_id",
          "type": "uint256"
        },
        {
          "indexed": false,
          "internalType": "address",
          "name": "_account",
          "type": "address"
        },
        {
          "indexed": false,
          "internalType": "uint256",
          "name": "_tokenId",
          "type": "uint256"
        },
        {
          "indexed": false,
          "internalType": "uint256",
          "name": "_count",
          "type": "uint256"
        }
      ],
      "name": "mintLootBox",
      "type": "event"
    },
    {
      "inputs": [],
      "name": "DEFAULT_ADMIN_ROLE",
      "outputs": [
        {
          "internalType": "bytes32",
          "name": "",
          "type": "bytes32"
        }
      ],
      "stateMutability": "view",
      "type": "function",
      "constant": true
    },
    {
      "inputs": [],
      "name": "MINTER_ROLE",
      "outputs": [
        {
          "internalType": "bytes32",
          "name": "",
          "type": "bytes32"
        }
      ],
      "stateMutability": "view",
      "type": "function",
      "constant": true
    },
    {
      "inputs": [
        {
          "internalType": "address",
          "name": "account",
          "type": "address"
        },
        {
          "internalType": "uint256",
          "name": "id",
          "type": "uint256"
        }
      ],
      "name": "balanceOf",
      "outputs": [
        {
          "internalType": "uint256",
          "name": "",
          "type": "uint256"
        }
      ],
      "stateMutability": "view",
      "type": "function",
      "constant": true
    },
    {
      "inputs": [
        {
          "internalType": "address[]",
          "name": "accounts",
          "type": "address[]"
        },
        {
          "internalType": "uint256[]",
          "name": "ids",
          "type": "uint256[]"
        }
      ],
      "name": "balanceOfBatch",
      "outputs": [
        {
          "internalType": "uint256[]",
          "name": "",
          "type": "uint256[]"
        }
      ],
      "stateMutability": "view",
      "type": "function",
      "constant": true
    },
    {
      "inputs": [
        {
          "internalType": "address",
          "name": "account",
          "type": "address"
        },
        {
          "internalType": "uint256",
          "name": "id",
          "type": "uint256"
        },
        {
          "internalType": "uint256",
          "name": "value",
          "type": "uint256"
        }
      ],
      "name": "burn",
      "outputs": [],
      "stateMutability": "nonpayable",
      "type": "function"
    },
    {
      "inputs": [
        {
          "internalType": "address",
          "name": "account",
          "type": "address"
        },
        {
          "internalType": "uint256[]",
          "name": "ids",
          "type": "uint256[]"
        },
        {
          "internalType": "uint256[]",
          "name": "values",
          "type": "uint256[]"
        }
      ],
      "name": "burnBatch",
      "outputs": [],
      "stateMutability": "nonpayable",
      "type": "function"
    },
    {
      "inputs": [
        {
          "internalType": "bytes32",
          "name": "role",
          "type": "bytes32"
        }
      ],
      "name": "getRoleAdmin",
      "outputs": [
        {
          "internalType": "bytes32",
          "name": "",
          "type": "bytes32"
        }
      ],
      "stateMutability": "view",
      "type": "function",
      "constant": true
    },
    {
      "inputs": [
        {
          "internalType": "bytes32",
          "name": "role",
          "type": "bytes32"
        },
        {
          "internalType": "uint256",
          "name": "index",
          "type": "uint256"
        }
      ],
      "name": "getRoleMember",
      "outputs": [
        {
          "internalType": "address",
          "name": "",
          "type": "address"
        }
      ],
      "stateMutability": "view",
      "type": "function",
      "constant": true
    },
    {
      "inputs": [
        {
          "internalType": "bytes32",
          "name": "role",
          "type": "bytes32"
        }
      ],
      "name": "getRoleMemberCount",
      "outputs": [
        {
          "internalType": "uint256",
          "name": "",
          "type": "uint256"
        }
      ],
      "stateMutability": "view",
      "type": "function",
      "constant": true
    },
    {
      "inputs": [
        {
          "internalType": "bytes32",
          "name": "role",
          "type": "bytes32"
        },
        {
          "internalType": "address",
          "name": "account",
          "type": "address"
        }
      ],
      "name": "grantRole",
      "outputs": [],
      "stateMutability": "nonpayable",
      "type": "function"
    },
    {
      "inputs": [
        {
          "internalType": "bytes32",
          "name": "role",
          "type": "bytes32"
        },
        {
          "internalType": "address",
          "name": "account",
          "type": "address"
        }
      ],
      "name": "hasRole",
      "outputs": [
        {
          "internalType": "bool",
          "name": "",
          "type": "bool"
        }
      ],
      "stateMutability": "view",
      "type": "function",
      "constant": true
    },
    {
      "inputs": [
        {
          "internalType": "address",
          "name": "account",
          "type": "address"
        },
        {
          "internalType": "address",
          "name": "operator",
          "type": "address"
        }
      ],
      "name": "isApprovedForAll",
      "outputs": [
        {
          "internalType": "bool",
          "name": "",
          "type": "bool"
        }
      ],
      "stateMutability": "view",
      "type": "function",
      "constant": true
    },
    {
      "inputs": [
        {
          "internalType": "uint256",
          "name": "",
          "type": "uint256"
        }
      ],
      "name": "lootBoxItems",
      "outputs": [
        {
          "internalType": "uint256",
          "name": "index",
          "type": "uint256"
        },
        {
          "internalType": "uint256",
          "name": "lootBoxIndex",
          "type": "uint256"
        },
        {
          "internalType": "uint256",
          "name": "fromId",
          "type": "uint256"
        },
        {
          "internalType": "uint256",
          "name": "toId",
          "type": "uint256"
        },
        {
          "internalType": "uint256",
          "name": "count",
          "type": "uint256"
        },
        {
          "internalType": "uint256",
          "name": "supply",
          "type": "uint256"
        },
        {
          "internalType": "address",
          "name": "artist",
          "type": "address"
        },
        {
          "internalType": "uint256",
          "name": "artistRoyalty",
          "type": "uint256"
        }
      ],
      "stateMutability": "view",
      "type": "function",
      "constant": true
    },
    {
      "inputs": [
        {
          "internalType": "uint256",
          "name": "",
          "type": "uint256"
        }
      ],
      "name": "lootBoxes",
      "outputs": [
        {
          "internalType": "uint256",
          "name": "index",
          "type": "uint256"
        },
        {
          "internalType": "uint256",
          "name": "fromId",
          "type": "uint256"
        },
        {
          "internalType": "uint256",
          "name": "toId",
          "type": "uint256"
        },
        {
          "internalType": "uint256",
          "name": "count",
          "type": "uint256"
        },
        {
          "internalType": "uint256",
          "name": "supply",
          "type": "uint256"
        },
        {
          "internalType": "address",
          "name": "seller",
          "type": "address"
        },
        {
          "internalType": "address",
          "name": "creator",
          "type": "address"
        },
        {
          "internalType": "uint256",
          "name": "creatorRoyalty",
          "type": "uint256"
        },
        {
          "internalType": "uint256",
          "name": "price",
          "type": "uint256"
        },
        {
          "internalType": "uint256",
          "name": "release",
          "type": "uint256"
        },
        {
          "internalType": "uint256",
          "name": "dropRate",
          "type": "uint256"
        }
      ],
      "stateMutability": "view",
      "type": "function",
      "constant": true
    },
    {
      "inputs": [],
      "name": "pause",
      "outputs": [],
      "stateMutability": "nonpayable",
      "type": "function"
    },
    {
      "inputs": [],
      "name": "paused",
      "outputs": [
        {
          "internalType": "bool",
          "name": "",
          "type": "bool"
        }
      ],
      "stateMutability": "view",
      "type": "function",
      "constant": true
    },
    {
      "inputs": [
        {
          "internalType": "bytes32",
          "name": "role",
          "type": "bytes32"
        },
        {
          "internalType": "address",
          "name": "account",
          "type": "address"
        }
      ],
      "name": "renounceRole",
      "outputs": [],
      "stateMutability": "nonpayable",
      "type": "function"
    },
    {
      "inputs": [
        {
          "internalType": "bytes32",
          "name": "role",
          "type": "bytes32"
        },
        {
          "internalType": "address",
          "name": "account",
          "type": "address"
        }
      ],
      "name": "revokeRole",
      "outputs": [],
      "stateMutability": "nonpayable",
      "type": "function"
    },
    {
      "inputs": [
        {
          "internalType": "address",
          "name": "from",
          "type": "address"
        },
        {
          "internalType": "address",
          "name": "to",
          "type": "address"
        },
        {
          "internalType": "uint256[]",
          "name": "ids",
          "type": "uint256[]"
        },
        {
          "internalType": "uint256[]",
          "name": "amounts",
          "type": "uint256[]"
        },
        {
          "internalType": "bytes",
          "name": "data",
          "type": "bytes"
        }
      ],
      "name": "safeBatchTransferFrom",
      "outputs": [],
      "stateMutability": "nonpayable",
      "type": "function"
    },
    {
      "inputs": [
        {
          "internalType": "address",
          "name": "from",
          "type": "address"
        },
        {
          "internalType": "address",
          "name": "to",
          "type": "address"
        },
        {
          "internalType": "uint256",
          "name": "id",
          "type": "uint256"
        },
        {
          "internalType": "uint256",
          "name": "amount",
          "type": "uint256"
        },
        {
          "internalType": "bytes",
          "name": "data",
          "type": "bytes"
        }
      ],
      "name": "safeTransferFrom",
      "outputs": [],
      "stateMutability": "nonpayable",
      "type": "function"
    },
    {
      "inputs": [
        {
          "internalType": "address",
          "name": "operator",
          "type": "address"
        },
        {
          "internalType": "bool",
          "name": "approved",
          "type": "bool"
        }
      ],
      "name": "setApprovalForAll",
      "outputs": [],
      "stateMutability": "nonpayable",
      "type": "function"
    },
    {
      "inputs": [
        {
          "internalType": "bytes4",
          "name": "interfaceId",
          "type": "bytes4"
        }
      ],
      "name": "supportsInterface",
      "outputs": [
        {
          "internalType": "bool",
          "name": "",
          "type": "bool"
        }
      ],
      "stateMutability": "view",
      "type": "function",
      "constant": true
    },
    {
      "inputs": [
        {
          "internalType": "uint256",
          "name": "",
          "type": "uint256"
        }
      ],
      "name": "tokenIdToLootBoxIndex",
      "outputs": [
        {
          "internalType": "uint256",
          "name": "",
          "type": "uint256"
        }
      ],
      "stateMutability": "view",
      "type": "function",
      "constant": true
    },
    {
      "inputs": [
        {
          "internalType": "uint256",
          "name": "",
          "type": "uint256"
        }
      ],
      "name": "tokenIdToLootBoxItemsIndex",
      "outputs": [
        {
          "internalType": "uint256",
          "name": "",
          "type": "uint256"
        }
      ],
      "stateMutability": "view",
      "type": "function",
      "constant": true
    },
    {
      "inputs": [
        {
          "internalType": "uint256",
          "name": "",
          "type": "uint256"
        }
      ],
      "name": "tokenIdType",
      "outputs": [
        {
          "internalType": "uint8",
          "name": "",
          "type": "uint8"
        }
      ],
      "stateMutability": "view",
      "type": "function",
      "constant": true
    },
    {
      "inputs": [],
      "name": "unpause",
      "outputs": [],
      "stateMutability": "nonpayable",
      "type": "function"
    },
    {
      "inputs": [
        {
          "internalType": "uint256",
          "name": "",
          "type": "uint256"
        }
      ],
      "name": "uri",
      "outputs": [
        {
          "internalType": "string",
          "name": "",
          "type": "string"
        }
      ],
      "stateMutability": "view",
      "type": "function",
      "constant": true
    },
    {
      "inputs": [
        {
          "internalType": "string",
          "name": "_uri",
          "type": "string"
        },
        {
          "internalType": "address",
          "name": "_minter",
          "type": "address"
        }
      ],
      "name": "initialize",
      "outputs": [],
      "stateMutability": "nonpayable",
      "type": "function"
    },
    {
      "inputs": [
        {
          "components": [
            {
              "internalType": "uint256",
              "name": "index",
              "type": "uint256"
            },
            {
              "internalType": "uint256",
              "name": "fromId",
              "type": "uint256"
            },
            {
              "internalType": "uint256",
              "name": "toId",
              "type": "uint256"
            },
            {
              "internalType": "uint256",
              "name": "count",
              "type": "uint256"
            },
            {
              "internalType": "uint256",
              "name": "supply",
              "type": "uint256"
            },
            {
              "internalType": "address",
              "name": "seller",
              "type": "address"
            },
            {
              "internalType": "address",
              "name": "creator",
              "type": "address"
            },
            {
              "internalType": "uint256",
              "name": "creatorRoyalty",
              "type": "uint256"
            },
            {
              "internalType": "uint256",
              "name": "price",
              "type": "uint256"
            },
            {
              "internalType": "uint256[]",
              "name": "lootBoxItemsIndex",
              "type": "uint256[]"
            },
            {
              "internalType": "uint256",
              "name": "release",
              "type": "uint256"
            },
            {
              "internalType": "uint256",
              "name": "dropRate",
              "type": "uint256"
            }
          ],
          "internalType": "struct LootBox",
          "name": "_lootBox",
          "type": "tuple"
        },
        {
          "components": [
            {
              "internalType": "uint256",
              "name": "index",
              "type": "uint256"
            },
            {
              "internalType": "uint256",
              "name": "lootBoxIndex",
              "type": "uint256"
            },
            {
              "internalType": "uint256",
              "name": "fromId",
              "type": "uint256"
            },
            {
              "internalType": "uint256",
              "name": "toId",
              "type": "uint256"
            },
            {
              "internalType": "uint256",
              "name": "count",
              "type": "uint256"
            },
            {
              "internalType": "uint256",
              "name": "supply",
              "type": "uint256"
            },
            {
              "internalType": "address",
              "name": "artist",
              "type": "address"
            },
            {
              "internalType": "uint256",
              "name": "artistRoyalty",
              "type": "uint256"
            }
          ],
          "internalType": "struct LootBoxItem[]",
          "name": "_lootBoxItems",
          "type": "tuple[]"
        }
      ],
      "name": "addLootBoxes",
      "outputs": [],
      "stateMutability": "nonpayable",
      "type": "function"
    },
    {
      "inputs": [
        {
          "internalType": "uint256",
          "name": "lootBoxIndex",
          "type": "uint256"
        }
      ],
      "name": "buyLootBox",
      "outputs": [
        {
          "internalType": "bool",
          "name": "",
          "type": "bool"
        },
        {
          "internalType": "uint256",
          "name": "",
          "type": "uint256"
        }
      ],
      "stateMutability": "payable",
      "type": "function",
      "payable": true
    },
    {
      "inputs": [
        {
          "internalType": "uint256",
          "name": "tokenId",
          "type": "uint256"
        }
      ],
      "name": "openLootBox",
      "outputs": [
        {
          "internalType": "uint256[]",
          "name": "",
          "type": "uint256[]"
        }
      ],
      "stateMutability": "nonpayable",
      "type": "function"
    },
    {
      "inputs": [
        {
          "internalType": "uint256",
          "name": "tokenId",
          "type": "uint256"
        },
        {
          "internalType": "uint256",
          "name": "amount",
          "type": "uint256"
        }
      ],
      "name": "getCreatorRoyaltyFromAmountForTokenId",
      "outputs": [
        {
          "internalType": "uint256",
          "name": "",
          "type": "uint256"
        }
      ],
      "stateMutability": "view",
      "type": "function",
      "constant": true
    },
    {
      "inputs": [
        {
          "internalType": "uint256",
          "name": "tokenId",
          "type": "uint256"
        }
      ],
      "name": "getCreatorAddressForTokenId",
      "outputs": [
        {
          "internalType": "address",
          "name": "",
          "type": "address"
        }
      ],
      "stateMutability": "view",
      "type": "function",
      "constant": true
    },
    {
      "inputs": [
        {
          "internalType": "uint256",
          "name": "tokenId",
          "type": "uint256"
        },
        {
          "internalType": "uint256",
          "name": "amount",
          "type": "uint256"
        }
      ],
      "name": "getArtistRoyaltyFromAmountForTokenId",
      "outputs": [
        {
          "internalType": "uint256",
          "name": "",
          "type": "uint256"
        }
      ],
      "stateMutability": "view",
      "type": "function",
      "constant": true
    },
    {
      "inputs": [
        {
          "internalType": "uint256",
          "name": "tokenId",
          "type": "uint256"
        }
      ],
      "name": "getArtistForTokenId",
      "outputs": [
        {
          "internalType": "address",
          "name": "",
          "type": "address"
        }
      ],
      "stateMutability": "view",
      "type": "function",
      "constant": true
    },
    {
      "inputs": [
        {
          "internalType": "uint256",
          "name": "x",
          "type": "uint256"
        },
        {
          "internalType": "uint256",
          "name": "y",
          "type": "uint256"
        }
      ],
      "name": "mulDiv",
      "outputs": [
        {
          "internalType": "uint256",
          "name": "",
          "type": "uint256"
        }
      ],
      "stateMutability": "pure",
      "type": "function",
      "constant": true
    }
  ],
  "bytecode": "0x608060405234801561001057600080fd5b50613f6f806100206000396000f3fe60806040526004361061020e5760003560e01c80637ab4339d11610118578063ca15c873116100a0578063e6b9d9871161006f578063e6b9d9871461073e578063e985e9c514610768578063ec399b97146107b1578063f242432a14610860578063f5298aca146108805761020e565b8063ca15c873146106aa578063d5391393146106ca578063d547741f146106fe578063e43972ac1461071e5761020e565b8063a1c26ec6116100e7578063a1c26ec614610558578063a217fddf14610578578063a22cb4651461058d578063b8e99cc0146105ad578063b95f71de146105cd5761020e565b80637ab4339d146104e35780638456cb59146105035780639010d07c1461051857806391d14854146105385761020e565b80634a6ca0151161019b5780635e49b9f81161016a5780635e49b9f8146103fa578063666d8493146104325780636b20c454146104525780636f2829ba14610472578063780bfe54146104b55761020e565b80634a6ca0151461036a5780634e1273f41461039857806355a02c2d146103c55780635c975abb146103e55761020e565b80632eb2c2d6116101e25780632eb2c2d6146102d35780632f2ff15d146102f557806336568abe146103155780633f4ba83a1461033557806347dbc53b1461034a5761020e565b8062fdd58e1461021357806301ffc9a7146102465780630e89341c14610276578063248a9ca3146102a3575b600080fd5b34801561021f57600080fd5b5061023361022e3660046135ac565b6108a0565b6040519081526020015b60405180910390f35b34801561025257600080fd5b5061026661026136600461372c565b61093c565b604051901515815260200161023d565b34801561028257600080fd5b506102966102913660046136d1565b61094f565b60405161023d9190613a7a565b3480156102af57600080fd5b506102336102be3660046136d1565b60009081526065602052604090206001015490565b3480156102df57600080fd5b506102f36102ee3660046133fb565b6109e3565b005b34801561030157600080fd5b506102f36103103660046136e9565b610c7a565b34801561032157600080fd5b506102f36103303660046136e9565b610ca1565b34801561034157600080fd5b506102f3610cc3565b34801561035657600080fd5b506102f36103653660046137b9565b610d3a565b34801561037657600080fd5b506102336103853660046136d1565b6101c66020526000908152604090205481565b3480156103a457600080fd5b506103b86103b3366004613607565b610fe7565b60405161023d9190613a39565b3480156103d157600080fd5b506103b86103e03660046136d1565b611148565b3480156103f157600080fd5b506102666114a4565b34801561040657600080fd5b5061041a6104153660046136d1565b6114af565b6040516001600160a01b03909116815260200161023d565b34801561043e57600080fd5b5061023361044d36600461370b565b6114ff565b34801561045e57600080fd5b506102f361046d366004613502565b611555565b34801561047e57600080fd5b506104a361048d3660046136d1565b6101c86020526000908152604090205460ff1681565b60405160ff909116815260200161023d565b3480156104c157600080fd5b506102336104d03660046136d1565b6101c76020526000908152604090205481565b3480156104ef57600080fd5b506102f36104fe366004613764565b611598565b34801561050f57600080fd5b506102f361160f565b34801561052457600080fd5b5061041a61053336600461370b565b611682565b34801561054457600080fd5b506102666105533660046136e9565b61169a565b34801561056457600080fd5b5061023361057336600461370b565b6116c5565b34801561058457600080fd5b50610233600081565b34801561059957600080fd5b506102f36105a8366004613572565b611771565b3480156105b957600080fd5b5061041a6105c83660046136d1565b611855565b3480156105d957600080fd5b5061064e6105e83660046136d1565b6101c4602052600090815260409020805460018201546002830154600384015460048501546005860154600687015460078801546008890154600a8a0154600b909a0154989997989697959694956001600160a01b03948516959490931693919290918b565b604080519b8c5260208c019a909a52988a0197909752606089019590955260808801939093526001600160a01b0391821660a08801521660c086015260e08501526101008401526101208301526101408201526101600161023d565b3480156106b657600080fd5b506102336106c53660046136d1565b611900565b3480156106d657600080fd5b506102337f9f2df0fed2c77648de5860a4cc508cd0818c85b8b8a1ab4ceeef8d981c8956a681565b34801561070a57600080fd5b506102f36107193660046136e9565b611917565b34801561072a57600080fd5b5061023361073936600461370b565b611921565b61075161074c3660046136d1565b6119c5565b60408051921515835260208301919091520161023d565b34801561077457600080fd5b506102666107833660046133c9565b6001600160a01b03918216600090815260ca6020908152604080832093909416825291909152205460ff1690565b3480156107bd57600080fd5b5061081c6107cc3660046136d1565b6101c560205260009081526040902080546001820154600283015460038401546004850154600586015460068701546007909701549596949593949293919290916001600160a01b039091169088565b604080519889526020890197909752958701949094526060860192909252608085015260a08401526001600160a01b031660c083015260e08201526101000161023d565b34801561086c57600080fd5b506102f361087b3660046134a0565b611d8c565b34801561088c57600080fd5b506102f361089b3660046135d5565b611efd565b60006001600160a01b0383166109115760405162461bcd60e51b815260206004820152602b60248201527f455243313135353a2062616c616e636520717565727920666f7220746865207a60448201526a65726f206164647265737360a81b60648201526084015b60405180910390fd5b50600081815260c9602090815260408083206001600160a01b03861684529091529020545b92915050565b600061094782611f40565b90505b919050565b606060cb805461095e90613da3565b80601f016020809104026020016040519081016040528092919081815260200182805461098a90613da3565b80156109d75780601f106109ac576101008083540402835291602001916109d7565b820191906000526020600020905b8154815290600101906020018083116109ba57829003601f168201915b50505050509050919050565b8151835114610a045760405162461bcd60e51b815260040161090890613c82565b6001600160a01b038416610a2a5760405162461bcd60e51b815260040161090890613b62565b6001600160a01b038516331480610a465750610a468533610783565b610aad5760405162461bcd60e51b815260206004820152603260248201527f455243313135353a207472616e736665722063616c6c6572206973206e6f74206044820152711bdddb995c881b9bdc88185c1c1c9bdd995960721b6064820152608401610908565b33610abc818787878787611f80565b60005b8451811015610c0c576000858281518110610aea57634e487b7160e01b600052603260045260246000fd5b602002602001015190506000858381518110610b1657634e487b7160e01b600052603260045260246000fd5b602090810291909101810151600084815260c9835260408082206001600160a01b038e168352909352919091205490915081811015610b675760405162461bcd60e51b815260040161090890613c38565b610b718282613d45565b60c9600085815260200190815260200160002060008c6001600160a01b03166001600160a01b03168152602001908152602001600020819055508160c9600085815260200190815260200160002060008b6001600160a01b03166001600160a01b031681526020019081526020016000206000828254610bf19190613cfa565b9250508190555050505080610c0590613e0a565b9050610abf565b50846001600160a01b0316866001600160a01b0316826001600160a01b03167f4a39dc06d4c0dbc64b70af90fd698a233a518aa5d07e595d983b8c0526c8f7fb8787604051610c5c929190613a4c565b60405180910390a4610c72818787878787611f8e565b505050505050565b610c8482826120f9565b6000828152609760205260409020610c9c9082612120565b505050565b610cab8282612135565b6000828152609760205260409020610c9c90826121b3565b610cce600033610553565b610d305760405162461bcd60e51b815260206004820152602d60248201527f45524331313535546f6b656e3a206d75737420686176652061646d696e20726f60448201526c6c6520746f20756e706175736560981b6064820152608401610908565b610d386121c8565b565b610d647f9f2df0fed2c77648de5860a4cc508cd0818c85b8b8a1ab4ceeef8d981c8956a633610553565b610d9f5760405162461bcd60e51b815260206004820152600c60248201526b2737ba10309036b4b73a32b960a11b6044820152606401610908565b805182516020808501516040808701516101008801516080808a01518451978852958701949094529185015260608401528201528391907f898b5cef4d51f84a488d60feafcefb52ccb11293d52136b3de2692de569061089060a00160405180910390a160005b81811015610f1d576000848281518110610e3057634e487b7160e01b600052603260045260246000fd5b602090810291909101810151805160009081526101c583526040908190208251808255838501516001830155828401516002830181905560608086015160038501819055608080880151600487015560a0808901516005880181905560c08a01516006890180546001600160a01b0319166001600160a01b0390921691909117905560e08a01516007909801979097558d5188519687529986019990995295840192909252820152918201529092507f4b58f4edbba4faba896401081cac39c5475ec515c20b3544fb020fe764963f51910160405180910390a15080610f1581613e0a565b915050610e06565b50815160009081526101c4602090815260409182902084518155818501516001820155918401516002830155606084015160038301556080840151600483015560a08401516005830180546001600160a01b039283166001600160a01b03199182161790915560c086015160068501805491909316911617905560e0840151600783015561010084015160088301556101208401518051859392610fc8926009850192910190613111565b50610140820151600a82015561016090910151600b9091015550505050565b6060815183511461104c5760405162461bcd60e51b815260206004820152602960248201527f455243313135353a206163636f756e747320616e6420696473206c656e677468604482015268040dad2e6dac2e8c6d60bb1b6064820152608401610908565b600083516001600160401b0381111561107557634e487b7160e01b600052604160045260246000fd5b60405190808252806020026020018201604052801561109e578160200160208202803683370190505b50905060005b8451811015611140576111058582815181106110d057634e487b7160e01b600052603260045260246000fd5b60200260200101518583815181106110f857634e487b7160e01b600052603260045260246000fd5b60200260200101516108a0565b82828151811061112557634e487b7160e01b600052603260045260246000fd5b602090810291909101015261113981613e0a565b90506110a4565b509392505050565b60008181526101c6602090815260408083205483526101c490915290205460609061119e5760405162461bcd60e51b815260206004820152600660248201526545786973747360d01b6044820152606401610908565b60008281526101c8602052604090205460ff166001146111e95760405162461bcd60e51b8152602060048201526006602482015265092e640c4def60d31b6044820152606401610908565b6111f53383600161225e565b60008281526101c660209081526040808320548084526101c49092528220600b01549091906001600160401b0381111561123f57634e487b7160e01b600052604160045260246000fd5b604051908082528060200260200182016040528015611268578160200160208202803683370190505b50905060005b60008381526101c460205260409020600b01548110156111405760008381526101c460205260408120600b810154600382015460049092015490916112b291613d45565b6112bd906001613cfa565b6112c79190613d26565b905060006112dd6112d88484613d45565b61236b565b90506000805b60008781526101c4602052604090206009015481101561148d5760008781526101c46020526040812060090180548390811061132f57634e487b7160e01b600052603260045260246000fd5b60009182526020808320909101548083526101c59091526040909120600481015460059091015491925061136291613d45565b61136c9084613cfa565b925083831161147a5760008181526101c56020526040812060048101546002909101546113999190613cfa565b60008381526101c5602052604081206004018054929350906113ba83613e0a565b9091555050604080518381523360208201529081018290527f1dd69ba1529ee26c893974d206b7b8a51903ee28643880696d4f4809ed621e349060600160405180910390a161141b33826001604051806020016040528060008152506123da565b60008181526101c860209081526040808320805460ff191660021790556101c790915290208290558751819089908990811061146757634e487b7160e01b600052603260045260246000fd5b602002602001018181525050505061148d565b508061148581613e0a565b9150506112e3565b50505050808061149c90613e0a565b91505061126e565b61012d5460ff165b90565b60008181526101c8602052604081205460ff16600114156114d157503061094a565b5060009081526101c7602090815260408083205483526101c59091529020600601546001600160a01b031690565b60008281526101c8602052604081205460ff166001141561152257506000610936565b60008381526101c7602090815260408083205483526101c590915290206007015461154e908390611921565b9392505050565b6001600160a01b03831633148061157157506115718333610783565b61158d5760405162461bcd60e51b815260040161090890613b19565b610c9c8383836124e4565b600054610100900460ff16806115b1575060005460ff16155b6115cd5760405162461bcd60e51b815260040161090890613ba7565b600054610100900460ff161580156115ef576000805461ffff19166101011790555b6115f9838361269e565b8015610c9c576000805461ff0019169055505050565b61161a600033610553565b61167a5760405162461bcd60e51b815260206004820152602b60248201527f45524331313535546f6b656e3a206d75737420686176652061646d696e20726f60448201526a6c6520746f20706175736560a81b6064820152608401610908565b610d3861273f565b600082815260976020526040812061154e90836127bd565b60009182526065602090815260408084206001600160a01b0393909316845291905290205460ff1690565b60008281526101c8602052604081205460ff16600114156117135760008381526101c6602090815260408083205483526101c490915290206007015461170c908390611921565b9050610936565b60008381526101c8602052604090205460ff16600214156117685760008381526101c7602090815260408083205483526101c582528083206001015483526101c490915290206007015461170c908390611921565b50600092915050565b336001600160a01b03831614156117dc5760405162461bcd60e51b815260206004820152602960248201527f455243313135353a2073657474696e6720617070726f76616c20737461747573604482015268103337b91039b2b63360b91b6064820152608401610908565b33600081815260ca602090815260408083206001600160a01b0387168085529252909120805460ff1916841515179055906001600160a01b03167f17307eab39ab6107e8899845ad3d59bd9653f200f220920489ca2b5937696c3183604051611849911515815260200190565b60405180910390a35050565b60008181526101c8602052604081205460ff16600114156118a0575060008181526101c6602090815260408083205483526101c49091529020600601546001600160a01b031661094a565b60008281526101c8602052604090205460ff16600214156118f9575060008181526101c7602090815260408083205483526101c582528083206001015483526101c49091529020600601546001600160a01b031661094a565b5030919050565b6000818152609760205260408120610947906127c9565b610cab82826127d3565b6000612710816119318286613d12565b9050600061193f8387613e25565b9050600061194d8487613d12565b9050600061195b8588613e25565b9050846119688285613d26565b6119729190613d12565b61197c8385613d26565b6119868387613d26565b876119918789613d26565b61199b9190613d26565b6119a59190613cfa565b6119af9190613cfa565b6119b99190613cfa565b98975050505050505050565b60008181526101c460205260408120548190611a0c5760405162461bcd60e51b815260206004820152600660248201526545786973747360d01b6044820152606401610908565b60008381526101c46020526040902060080154341015611a565760405162461bcd60e51b8152602060048201526005602482015264507269636560d81b6044820152606401610908565b60008381526101c460205260409020600a0154421015611aa25760405162461bcd60e51b815260206004820152600760248201526652656c6561736560c81b6044820152606401610908565b60008381526101c46020526040902060048101546003909101541115611af35760405162461bcd60e51b8152602060048201526006602482015265537570706c7960d01b6044820152606401610908565b60008381526101c46020526040812060070154611b11903490611921565b60008581526101c460205260408082206006015490519293506001600160a01b03169183156108fc0291849190818181858888f19350505050158015611b5b573d6000803e3d6000fd5b5060008481526101c460205260409020600501546001600160a01b03166108fc611b858334613d45565b6040518115909202916000818181858888f19350505050158015611bad573d6000803e3d6000fd5b5060008481526101c4602052604081206003810154600190910154611bd29190613cfa565b90507ff31bcf5910a2481cf08b0cc112fd43557f1d181a5fe0d905d032c74403ebcb8360008083611c038634613d45565b60008a81526101c4602090815260409182902060050154825160ff9788168152969095169086015284019190915260608301526001600160a01b0316608082015260a00160405180910390a160008581526101c4602090815260408083206006015481519384526001928401929092528201839052606082018490526001600160a01b031660808201527ff31bcf5910a2481cf08b0cc112fd43557f1d181a5fe0d905d032c74403ebcb839060a00160405180910390a160008181526101c6602090815260408083208890556101c88252808320805460ff191660019081179091558884526101c49092528220600301805491929091611d04908490613cfa565b909155505060008581526101c460209081526040918290206003015482518881523392810192909252818301849052606082015290517f6cdfe1ee3b71ebe30d1ff469b66a065b40e19e61efc4d35b895c87f3b9ce828c9181900360800190a1611d8033826001604051806020016040528060008152506123da565b60019350915050915091565b6001600160a01b038416611db25760405162461bcd60e51b815260040161090890613b62565b6001600160a01b038516331480611dce5750611dce8533610783565b611dea5760405162461bcd60e51b815260040161090890613b19565b33611e09818787611dfa886127f9565b611e03886127f9565b87611f80565b600084815260c9602090815260408083206001600160a01b038a16845290915290205483811015611e4c5760405162461bcd60e51b815260040161090890613c38565b611e568482613d45565b600086815260c9602090815260408083206001600160a01b038c81168552925280832093909355881681529081208054869290611e94908490613cfa565b909155505060408051868152602081018690526001600160a01b03808916928a821692918616917fc3d58168c5ae7397731d063d5bbf3d657854427343f4c083240f7aacaa2d0f62910160405180910390a4611ef4828888888888612852565b50505050505050565b6001600160a01b038316331480611f195750611f198333610783565b611f355760405162461bcd60e51b815260040161090890613b19565b610c9c83838361225e565b60006001600160e01b03198216636cdb3d1360e11b1480611f7157506001600160e01b031982166303a24d0760e21b145b8061094757506109478261291c565b610c72868686868686612941565b6001600160a01b0384163b15610c725760405163bc197c8160e01b81526001600160a01b0385169063bc197c8190611fd290899089908890889088906004016139a2565b602060405180830381600087803b158015611fec57600080fd5b505af192505050801561201c575060408051601f3d908101601f1916820190925261201991810190613748565b60015b6120c957612028613e7b565b806308c379a01415612062575061203d613e92565b806120485750612064565b8060405162461bcd60e51b81526004016109089190613a7a565b505b60405162461bcd60e51b815260206004820152603460248201527f455243313135353a207472616e7366657220746f206e6f6e20455243313135356044820152732932b1b2b4bb32b91034b6b83632b6b2b73a32b960611b6064820152608401610908565b6001600160e01b0319811663bc197c8160e01b14611ef45760405162461bcd60e51b815260040161090890613a8d565b60008281526065602052604090206001015461211681335b6129ab565b610c9c8383612a0f565b600061154e836001600160a01b038416612a95565b6001600160a01b03811633146121a55760405162461bcd60e51b815260206004820152602f60248201527f416363657373436f6e74726f6c3a2063616e206f6e6c792072656e6f756e636560448201526e103937b632b9903337b91039b2b63360891b6064820152608401610908565b6121af8282612ae4565b5050565b600061154e836001600160a01b038416612b4b565b6121d06114a4565b6122135760405162461bcd60e51b815260206004820152601460248201527314185d5cd8589b194e881b9bdd081c185d5cd95960621b6044820152606401610908565b61012d805460ff191690557f5db9ee0a495bf2e6ff9c91a7834c1ba4fdd244a5e8aa4e537bd38aeae4b073aa335b6040516001600160a01b03909116815260200160405180910390a1565b6001600160a01b0383166122845760405162461bcd60e51b815260040161090890613bf5565b336122b381856000612295876127f9565b61229e876127f9565b60405180602001604052806000815250611f80565b600083815260c9602090815260408083206001600160a01b0388168452909152902054828110156122f65760405162461bcd60e51b815260040161090890613ad5565b6123008382613d45565b600085815260c9602090815260408083206001600160a01b038a811680865291845282852095909555815189815292830188905292938616917fc3d58168c5ae7397731d063d5bbf3d657854427343f4c083240f7aacaa2d0f62910160405180910390a45050505050565b6101c380546000918261237d83613e0a565b90915550506101c354604080514260208201526bffffffffffffffffffffffff193360601b1691810191909152605481019190915282906074016040516020818303038152906040528051906020012060001c6109479190613e25565b6001600160a01b03841661243a5760405162461bcd60e51b815260206004820152602160248201527f455243313135353a206d696e7420746f20746865207a65726f206164647265736044820152607360f81b6064820152608401610908565b3361244b81600087611dfa886127f9565b600084815260c9602090815260408083206001600160a01b03891684529091528120805485929061247d908490613cfa565b909155505060408051858152602081018590526001600160a01b0380881692600092918516917fc3d58168c5ae7397731d063d5bbf3d657854427343f4c083240f7aacaa2d0f62910160405180910390a46124dd81600087878787612852565b5050505050565b6001600160a01b03831661250a5760405162461bcd60e51b815260040161090890613bf5565b805182511461252b5760405162461bcd60e51b815260040161090890613c82565b600033905061254e81856000868660405180602001604052806000815250611f80565b60005b835181101561263f57600084828151811061257c57634e487b7160e01b600052603260045260246000fd5b6020026020010151905060008483815181106125a857634e487b7160e01b600052603260045260246000fd5b602090810291909101810151600084815260c9835260408082206001600160a01b038c1683529093529190912054909150818110156125f95760405162461bcd60e51b815260040161090890613ad5565b6126038282613d45565b600093845260c9602090815260408086206001600160a01b038c168752909152909320929092555081905061263781613e0a565b915050612551565b5060006001600160a01b0316846001600160a01b0316826001600160a01b03167f4a39dc06d4c0dbc64b70af90fd698a233a518aa5d07e595d983b8c0526c8f7fb8686604051612690929190613a4c565b60405180910390a450505050565b600054610100900460ff16806126b7575060005460ff16155b6126d35760405162461bcd60e51b815260040161090890613ba7565b600054610100900460ff161580156126f5576000805461ffff19166101011790555b6126fd612c62565b612705612c62565b61270d612c62565b612715612c62565b61271e83612cce565b612726612c62565b61272e612d43565b612736612c62565b6115f982612db9565b6127476114a4565b156127875760405162461bcd60e51b815260206004820152601060248201526f14185d5cd8589b194e881c185d5cd95960821b6044820152606401610908565b61012d805460ff191660011790557f62e78cea01bee320cd4e420270b5ea74000d11b0c9f74754ebdbfc544b05a2586122413390565b600061154e8383612e45565b6000610947825490565b6000828152606560205260409020600101546127ef8133612111565b610c9c8383612ae4565b6040805160018082528183019092526060916000919060208083019080368337019050509050828160008151811061284157634e487b7160e01b600052603260045260246000fd5b602090810291909101015292915050565b6001600160a01b0384163b15610c725760405163f23a6e6160e01b81526001600160a01b0385169063f23a6e619061289690899089908890889088906004016139f4565b602060405180830381600087803b1580156128b057600080fd5b505af19250505080156128e0575060408051601f3d908101601f191682019092526128dd91810190613748565b60015b6128ec57612028613e7b565b6001600160e01b0319811663f23a6e6160e01b14611ef45760405162461bcd60e51b815260040161090890613a8d565b60006001600160e01b03198216635a05180f60e01b1480610947575061094782612ed9565b6129496114a4565b15610c725760405162461bcd60e51b815260206004820152602c60248201527f455243313135355061757361626c653a20746f6b656e207472616e736665722060448201526b1dda1a5b19481c185d5cd95960a21b6064820152608401610908565b6129b5828261169a565b6121af576129cd816001600160a01b03166014612f0e565b6129d8836020612f0e565b6040516020016129e992919061392d565b60408051601f198184030181529082905262461bcd60e51b825261090891600401613a7a565b612a19828261169a565b6121af5760008281526065602090815260408083206001600160a01b03851684529091529020805460ff19166001179055612a513390565b6001600160a01b0316816001600160a01b0316837f2f8788117e7eff1d82e926ec794901d17c78024a50270940304540a733656f0d60405160405180910390a45050565b6000818152600183016020526040812054612adc57508154600181810184556000848152602080822090930184905584548482528286019093526040902091909155610936565b506000610936565b612aee828261169a565b156121af5760008281526065602090815260408083206001600160a01b0385168085529252808320805460ff1916905551339285917ff6391f5c32d9c69d2a47ea670b442974b53935d1edc7fd64eb21e047a839171b9190a45050565b60008181526001830160205260408120548015612c58576000612b6f600183613d45565b8554909150600090612b8390600190613d45565b90506000866000018281548110612baa57634e487b7160e01b600052603260045260246000fd5b9060005260206000200154905080876000018481548110612bdb57634e487b7160e01b600052603260045260246000fd5b600091825260208083209091019290925582815260018901909152604090208490558654879080612c1c57634e487b7160e01b600052603160045260246000fd5b60019003818190600052602060002001600090559055866001016000878152602001908152602001600020600090556001945050505050610936565b6000915050610936565b600054610100900460ff1680612c7b575060005460ff16155b612c975760405162461bcd60e51b815260040161090890613ba7565b600054610100900460ff16158015612cb9576000805461ffff19166101011790555b8015612ccb576000805461ff00191690555b50565b600054610100900460ff1680612ce7575060005460ff16155b612d035760405162461bcd60e51b815260040161090890613ba7565b600054610100900460ff16158015612d25576000805461ffff19166101011790555b612d2e826130ef565b80156121af576000805461ff00191690555050565b600054610100900460ff1680612d5c575060005460ff16155b612d785760405162461bcd60e51b815260040161090890613ba7565b600054610100900460ff16158015612d9a576000805461ffff19166101011790555b61012d805460ff191690558015612ccb576000805461ff001916905550565b600054610100900460ff1680612dd2575060005460ff16155b612dee5760405162461bcd60e51b815260040161090890613ba7565b600054610100900460ff16158015612e10576000805461ffff19166101011790555b612e1b600033613102565b612d2e7f9f2df0fed2c77648de5860a4cc508cd0818c85b8b8a1ab4ceeef8d981c8956a683613102565b81546000908210612ea35760405162461bcd60e51b815260206004820152602260248201527f456e756d657261626c655365743a20696e646578206f7574206f6620626f756e604482015261647360f01b6064820152608401610908565b826000018281548110612ec657634e487b7160e01b600052603260045260246000fd5b9060005260206000200154905092915050565b60006001600160e01b03198216637965db0b60e01b148061094757506301ffc9a760e01b6001600160e01b0319831614610947565b60606000612f1d836002613d26565b612f28906002613cfa565b6001600160401b03811115612f4d57634e487b7160e01b600052604160045260246000fd5b6040519080825280601f01601f191660200182016040528015612f77576020820181803683370190505b509050600360fc1b81600081518110612fa057634e487b7160e01b600052603260045260246000fd5b60200101906001600160f81b031916908160001a905350600f60fb1b81600181518110612fdd57634e487b7160e01b600052603260045260246000fd5b60200101906001600160f81b031916908160001a9053506000613001846002613d26565b61300c906001613cfa565b90505b60018111156130a0576f181899199a1a9b1b9c1cb0b131b232b360811b85600f166010811061304e57634e487b7160e01b600052603260045260246000fd5b1a60f81b82828151811061307257634e487b7160e01b600052603260045260246000fd5b60200101906001600160f81b031916908160001a90535060049490941c9361309981613d8c565b905061300f565b50831561154e5760405162461bcd60e51b815260206004820181905260248201527f537472696e67733a20686578206c656e67746820696e73756666696369656e746044820152606401610908565b80516121af9060cb90602084019061315c565b610c8482826121af8282612a0f565b82805482825590600052602060002090810192821561314c579160200282015b8281111561314c578251825591602001919060010190613131565b506131589291506131cf565b5090565b82805461316890613da3565b90600052602060002090601f01602090048101928261318a576000855561314c565b82601f106131a357805160ff191683800117855561314c565b8280016001018555821561314c579182018281111561314c578251825591602001919060010190613131565b5b8082111561315857600081556001016131d0565b60006001600160401b038311156131fd576131fd613e65565b604051613214601f8501601f191660200182613dde565b80915083815284848401111561322957600080fd5b83836020830137600060208583010152509392505050565b80356001600160a01b038116811461094a57600080fd5b600082601f830112613268578081fd5b8135602061327582613cd7565b604080516132838382613dde565b8481528381019250868401600886901b880185018910156132a2578687fd5b865b868110156133285761010080838c0312156132bd578889fd5b84516132c98282613dde565b8335815287840135888201528584013586820152606080850135908201526080808501359082015260a0808501359082015260c0613308818601613241565b9082015260e08481013590820152865294860194909101906001016132a4565b509098975050505050505050565b600082601f830112613346578081fd5b8135602061335382613cd7565b6040516133608282613dde565b8381528281019150858301600585901b8701840188101561337f578586fd5b855b8581101561339d57813584529284019290840190600101613381565b5090979650505050505050565b600082601f8301126133ba578081fd5b61154e838335602085016131e4565b600080604083850312156133db578182fd5b6133e483613241565b91506133f260208401613241565b90509250929050565b600080600080600060a08688031215613412578081fd5b61341b86613241565b945061342960208701613241565b935060408601356001600160401b0380821115613444578283fd5b61345089838a01613336565b94506060880135915080821115613465578283fd5b61347189838a01613336565b93506080880135915080821115613486578283fd5b50613493888289016133aa565b9150509295509295909350565b600080600080600060a086880312156134b7578283fd5b6134c086613241565b94506134ce60208701613241565b9350604086013592506060860135915060808601356001600160401b038111156134f6578182fd5b613493888289016133aa565b600080600060608486031215613516578081fd5b61351f84613241565b925060208401356001600160401b038082111561353a578283fd5b61354687838801613336565b9350604086013591508082111561355b578283fd5b5061356886828701613336565b9150509250925092565b60008060408385031215613584578182fd5b61358d83613241565b9150602083013580151581146135a1578182fd5b809150509250929050565b600080604083850312156135be578182fd5b6135c783613241565b946020939093013593505050565b6000806000606084860312156135e9578081fd5b6135f284613241565b95602085013595506040909401359392505050565b60008060408385031215613619578182fd5b82356001600160401b038082111561362f578384fd5b818501915085601f830112613642578384fd5b8135602061364f82613cd7565b60405161365c8282613dde565b8381528281019150858301600585901b870184018b101561367b578889fd5b8896505b848710156136a45761369081613241565b83526001969096019591830191830161367f565b50965050860135925050808211156136ba578283fd5b506136c785828601613336565b9150509250929050565b6000602082840312156136e2578081fd5b5035919050565b600080604083850312156136fb578182fd5b823591506133f260208401613241565b6000806040838503121561371d578182fd5b50508035926020909101359150565b60006020828403121561373d578081fd5b813561154e81613f23565b600060208284031215613759578081fd5b815161154e81613f23565b60008060408385031215613776578182fd5b82356001600160401b0381111561378b578283fd5b8301601f8101851361379b578283fd5b6137aa858235602084016131e4565b9250506133f260208401613241565b600080604083850312156137cb578182fd5b82356001600160401b03808211156137e1578384fd5b81850191506101808083880312156137f7578485fd5b61380081613cca565b9050823581526020830135602082015260408301356040820152606083013560608201526080830135608082015261383a60a08401613241565b60a082015261384b60c08401613241565b60c082015260e083013560e08201526101008084013581830152506101208084013583811115613879578687fd5b61388589828701613336565b8284015250506101408084013581830152506101608084013581830152508094505060208501359150808211156138ba578283fd5b506136c785828601613258565b6000815180845260208085019450808401835b838110156138f6578151875295820195908201906001016138da565b509495945050505050565b60008151808452613919816020860160208601613d5c565b601f01601f19169290920160200192915050565b60007f416363657373436f6e74726f6c3a206163636f756e742000000000000000000082528351613965816017850160208801613d5c565b7001034b99036b4b9b9b4b733903937b6329607d1b6017918401918201528351613996816028840160208801613d5c565b01602801949350505050565b6001600160a01b0386811682528516602082015260a0604082018190526000906139ce908301866138c7565b82810360608401526139e081866138c7565b905082810360808401526119b98185613901565b6001600160a01b03868116825285166020820152604081018490526060810183905260a060808201819052600090613a2e90830184613901565b979650505050505050565b60006020825261154e60208301846138c7565b600060408252613a5f60408301856138c7565b8281036020840152613a7181856138c7565b95945050505050565b60006020825261154e6020830184613901565b60208082526028908201527f455243313135353a204552433131353552656365697665722072656a656374656040820152676420746f6b656e7360c01b606082015260800190565b60208082526024908201527f455243313135353a206275726e20616d6f756e7420657863656564732062616c604082015263616e636560e01b606082015260800190565b60208082526029908201527f455243313135353a2063616c6c6572206973206e6f74206f776e6572206e6f7260408201526808185c1c1c9bdd995960ba1b606082015260800190565b60208082526025908201527f455243313135353a207472616e7366657220746f20746865207a65726f206164604082015264647265737360d81b606082015260800190565b6020808252602e908201527f496e697469616c697a61626c653a20636f6e747261637420697320616c72656160408201526d191e481a5b9a5d1a585b1a5e995960921b606082015260800190565b60208082526023908201527f455243313135353a206275726e2066726f6d20746865207a65726f206164647260408201526265737360e81b606082015260800190565b6020808252602a908201527f455243313135353a20696e73756666696369656e742062616c616e636520666f60408201526939103a3930b739b332b960b11b606082015260800190565b60208082526028908201527f455243313135353a2069647320616e6420616d6f756e7473206c656e677468206040820152670dad2e6dac2e8c6d60c31b606082015260800190565b60405161094a8282613dde565b60006001600160401b03821115613cf057613cf0613e65565b5060051b60200190565b60008219821115613d0d57613d0d613e39565b500190565b600082613d2157613d21613e4f565b500490565b6000816000190483118215151615613d4057613d40613e39565b500290565b600082821015613d5757613d57613e39565b500390565b60005b83811015613d77578181015183820152602001613d5f565b83811115613d86576000848401525b50505050565b600081613d9b57613d9b613e39565b506000190190565b600181811c90821680613db757607f821691505b60208210811415613dd857634e487b7160e01b600052602260045260246000fd5b50919050565b601f8201601f191681016001600160401b0381118282101715613e0357613e03613e65565b6040525050565b6000600019821415613e1e57613e1e613e39565b5060010190565b600082613e3457613e34613e4f565b500690565b634e487b7160e01b600052601160045260246000fd5b634e487b7160e01b600052601260045260246000fd5b634e487b7160e01b600052604160045260246000fd5b600060033d11156114ac57600481823e5160e01c90565b600060443d1015613ea2576114ac565b6040516003193d81016004833e81513d6001600160401b038160248401118184111715613ed35750505050506114ac565b8285019150815181811115613eed575050505050506114ac565b843d8701016020828501011115613f09575050505050506114ac565b613f1860208286010187613dde565b509094505050505090565b6001600160e01b031981168114612ccb57600080fdfea264697066735822122018cae31e78762e7ad14ba22d6a4aaf4f6699f8ac932964ff75f010b79ba042d264736f6c63430008030033",
  "immutableReferences": {},
  "source": "// SPDX-License-Identifier: MIT\npragma solidity ^0.8.3;\n\nimport \"../node_modules/@openzeppelin/contracts-upgradeable/proxy/utils/Initializable.sol\";\nimport \"./ERC1155Token.sol\";\n\nstruct LootBox {\n  uint256 index;\n  uint256 fromId;\n  uint256 toId;\n  uint256 count;\n  uint256 supply;\n  address seller;\n  address creator;\n  uint256 creatorRoyalty;\n  uint256 price;\n  uint256[] lootBoxItemsIndex;\n  uint256 release;\n  uint256 dropRate;\n}\n\nstruct LootBoxItem {\n  uint256 index;\n  uint256 lootBoxIndex;\n  uint256 fromId;\n  uint256 toId;\n  uint256 count;\n  uint256 supply;\n  address artist;\n  uint256 artistRoyalty;\n}\n\ncontract Topx is Initializable, ERC1155Token {\n\n  uint256 private randomNounce;\n\n  mapping(uint256 => LootBox) public lootBoxes;\n  mapping(uint256 => LootBoxItem) public lootBoxItems;\n  mapping(uint256 => uint256) public tokenIdToLootBoxIndex;\n  mapping(uint256 => uint256) public tokenIdToLootBoxItemsIndex;\n  mapping(uint256 => uint8) public tokenIdType;\n\n  function initialize(string memory _uri, address _minter) public initializer {\n    __ERC1155Token_init(_uri, _minter);\n  }\n\n  event EthTransfer(uint8 _type, uint8 _action, uint256 _tokenId, uint256 _amount, address _account);\n\n  event addLootBox(uint256 _packid, uint256 _from, uint256 _to, uint256 _price, uint256 _supply);\n  event addLootBoxItem(uint256 _itemid, uint256 _packid, uint256 _from, uint256 _to, uint256 _supply);\n\n  function addLootBoxes(LootBox memory _lootBox, LootBoxItem[] memory _lootBoxItems) public {\n    require(hasRole(MINTER_ROLE, _msgSender()), \"Not a minter\");\n    LootBox memory lootBox = _lootBox;\n    uint256 lootBoxItemsCount = _lootBoxItems.length;\n    emit addLootBox(lootBox.index, lootBox.fromId, lootBox.toId, lootBox.price, lootBox.supply);\n    for (uint256 i=0; i<lootBoxItemsCount; i++) {\n      LootBoxItem memory lootBoxItem = _lootBoxItems[i];\n      lootBoxItems[lootBoxItem.index] = lootBoxItem;\n      emit addLootBoxItem(lootBoxItem.index, lootBox.index, lootBoxItem.fromId, lootBoxItem.toId, lootBoxItem.supply);\n    }\n    lootBoxes[lootBox.index] = lootBox;\n  }\n\n  event mintLootBox(uint256 _id, address _account, uint256 _tokenId, uint256 _count);\n\n  function buyLootBox(uint256 lootBoxIndex) public payable returns (bool, uint256) {\n    require(lootBoxes[lootBoxIndex].index > 0, \"Exists\");\n    require(msg.value >= lootBoxes[lootBoxIndex].price, \"Price\");\n    require(block.timestamp >= lootBoxes[lootBoxIndex].release, \"Release\");\n    require(lootBoxes[lootBoxIndex].count <= lootBoxes[lootBoxIndex].supply, \"Supply\");\n    uint256 toCreatorRoyalty = mulDiv(msg.value, lootBoxes[lootBoxIndex].creatorRoyalty);\n    payable(lootBoxes[lootBoxIndex].creator).transfer(toCreatorRoyalty);\n    payable(lootBoxes[lootBoxIndex].seller).transfer(msg.value - toCreatorRoyalty);\n    uint256 tokenId = lootBoxes[lootBoxIndex].fromId + lootBoxes[lootBoxIndex].count;\n    emit EthTransfer(0, 0, tokenId, msg.value - toCreatorRoyalty, lootBoxes[lootBoxIndex].seller);\n    emit EthTransfer(0, 1, tokenId, toCreatorRoyalty, lootBoxes[lootBoxIndex].creator);\n    tokenIdToLootBoxIndex[tokenId] = lootBoxIndex;\n    tokenIdType[tokenId] = 1;\n    lootBoxes[lootBoxIndex].count += 1;\n    emit mintLootBox(lootBoxIndex, msg.sender, tokenId, lootBoxes[lootBoxIndex].count);\n    _mint(msg.sender, tokenId, 1, \"\");\n    return (true, tokenId);\n  }\n\n  event mintItem(uint256 _id, address _account, uint256 _tokenId);\n  \n  function openLootBox(uint256 tokenId) public returns (uint256[] memory) {\n    require(lootBoxes[tokenIdToLootBoxIndex[tokenId]].index > 0, \"Exists\");\n    require(tokenIdType[tokenId] == 1, \"Is box\");\n    _burn(msg.sender, tokenId, 1);\n    uint256 lootBoxIndex = tokenIdToLootBoxIndex[tokenId];\n    uint256[] memory mintedTokenIds = new uint256[](lootBoxes[lootBoxIndex].dropRate);\n    for (uint256 i=0; i<lootBoxes[lootBoxIndex].dropRate; i++) {\n      uint256 availables = (lootBoxes[lootBoxIndex].supply - lootBoxes[lootBoxIndex].count + 1) * lootBoxes[lootBoxIndex].dropRate;\n      uint256 rand = random(availables - i);\n      uint256 counter = 0;\n      for (uint256 j=0; j<lootBoxes[lootBoxIndex].lootBoxItemsIndex.length; j++) {\n        uint256 currentItem = lootBoxes[lootBoxIndex].lootBoxItemsIndex[j];\n        counter = counter + (lootBoxItems[currentItem].supply - lootBoxItems[currentItem].count);\n        if (counter <= rand) {\n          uint256 mintedTokenId = lootBoxItems[currentItem].fromId + lootBoxItems[currentItem].count;\n          lootBoxItems[currentItem].count++;\n          emit mintItem(currentItem, msg.sender, mintedTokenId);\n          _mint(msg.sender, mintedTokenId, 1, \"\");\n          tokenIdType[mintedTokenId] = 2;\n          tokenIdToLootBoxItemsIndex[mintedTokenId] = currentItem;\n          mintedTokenIds[i] = mintedTokenId;\n          break;\n        }\n      }\n    }\n    return (mintedTokenIds);\n  }\n  \n  function getCreatorRoyaltyFromAmountForTokenId(uint256 tokenId, uint256 amount) public view returns (uint256) {\n    if (tokenIdType[tokenId] == 1) {\n      return mulDiv(amount, lootBoxes[tokenIdToLootBoxIndex[tokenId]].creatorRoyalty);\n    }\n    if (tokenIdType[tokenId] == 2) {\n      return mulDiv(amount, lootBoxes[lootBoxItems[tokenIdToLootBoxItemsIndex[tokenId]].lootBoxIndex].creatorRoyalty);\n    }\n    return 0;\n  }\n\n  function getCreatorAddressForTokenId(uint256 tokenId) public view returns (address) {\n    if (tokenIdType[tokenId] == 1) {\n      return lootBoxes[tokenIdToLootBoxIndex[tokenId]].creator;\n    }\n    if (tokenIdType[tokenId] == 2) {\n      return lootBoxes[lootBoxItems[tokenIdToLootBoxItemsIndex[tokenId]].lootBoxIndex].creator;\n    }\n    return address(this);\n  }\n\n  function getArtistRoyaltyFromAmountForTokenId(uint256 tokenId, uint256 amount) public view returns (uint256) {\n    if (tokenIdType[tokenId] == 1) {\n      return 0;\n    }\n    return mulDiv(amount, lootBoxItems[tokenIdToLootBoxItemsIndex[tokenId]].artistRoyalty);\n  }\n\n  function getArtistForTokenId(uint256 tokenId) public view returns (address) {\n    if (tokenIdType[tokenId] == 1) {\n      return address(this);\n    }\n    return lootBoxItems[tokenIdToLootBoxItemsIndex[tokenId]].artist;\n  }\n\n  function mulDiv(uint256 x, uint256 y) public pure returns (uint256) {\n    uint256 z = 10000;\n    uint256 a = x / z;\n    uint256 b = x % z;\n    uint256 c = y / z;\n    uint256 d = y % z;\n    return a * b * z + a * d + b * c + b * d / z;\n  }\n\n  function random(uint256 size) private returns (uint256) {\n    randomNounce++;\n    return uint256(keccak256(abi.encodePacked(block.timestamp, msg.sender, randomNounce))) % size;\n  }\n}",
  "sourcePath": "/Users/jernejpregelj/dev/topx/smartcontracts/contracts/Topx.sol",
  "compiler": {
    "name": "solc",
    "version": "0.8.3+commit.8d00100c.Emscripten.clang"
  },
  "schemaVersion": "3.3.3",
  "updatedAt": "2021-05-26T16:20:47.146Z",
  "networkType": "ethereum",
  "devdoc": {
    "kind": "dev",
    "methods": {
      "balanceOf(address,uint256)": {
        "details": "See {IERC1155-balanceOf}. Requirements: - `account` cannot be the zero address."
      },
      "balanceOfBatch(address[],uint256[])": {
        "details": "See {IERC1155-balanceOfBatch}. Requirements: - `accounts` and `ids` must have the same length."
      },
      "getRoleAdmin(bytes32)": {
        "details": "Returns the admin role that controls `role`. See {grantRole} and {revokeRole}. To change a role's admin, use {_setRoleAdmin}."
      },
      "getRoleMember(bytes32,uint256)": {
        "details": "Returns one of the accounts that have `role`. `index` must be a value between 0 and {getRoleMemberCount}, non-inclusive. Role bearers are not sorted in any particular way, and their ordering may change at any point. WARNING: When using {getRoleMember} and {getRoleMemberCount}, make sure you perform all queries on the same block. See the following https://forum.openzeppelin.com/t/iterating-over-elements-on-enumerableset-in-openzeppelin-contracts/2296[forum post] for more information."
      },
      "getRoleMemberCount(bytes32)": {
        "details": "Returns the number of accounts that have `role`. Can be used together with {getRoleMember} to enumerate all bearers of a role."
      },
      "grantRole(bytes32,address)": {
        "details": "Overload {grantRole} to track enumerable memberships"
      },
      "hasRole(bytes32,address)": {
        "details": "Returns `true` if `account` has been granted `role`."
      },
      "isApprovedForAll(address,address)": {
        "details": "See {IERC1155-isApprovedForAll}."
      },
      "paused()": {
        "details": "Returns true if the contract is paused, and false otherwise."
      },
      "renounceRole(bytes32,address)": {
        "details": "Overload {renounceRole} to track enumerable memberships"
      },
      "revokeRole(bytes32,address)": {
        "details": "Overload {revokeRole} to track enumerable memberships"
      },
      "safeBatchTransferFrom(address,address,uint256[],uint256[],bytes)": {
        "details": "See {IERC1155-safeBatchTransferFrom}."
      },
      "safeTransferFrom(address,address,uint256,uint256,bytes)": {
        "details": "See {IERC1155-safeTransferFrom}."
      },
      "setApprovalForAll(address,bool)": {
        "details": "See {IERC1155-setApprovalForAll}."
      },
      "uri(uint256)": {
        "details": "See {IERC1155MetadataURI-uri}. This implementation returns the same URI for *all* token types. It relies on the token type ID substitution mechanism https://eips.ethereum.org/EIPS/eip-1155#metadata[defined in the EIP]. Clients calling this function must replace the `\\{id\\}` substring with the actual token type ID."
      }
    },
    "version": 1
  },
  "userdoc": {
    "kind": "user",
    "methods": {},
    "version": 1
  }
}